{"abi":[{"type":"constructor","inputs":[{"name":"optInServiceHints","type":"address","internalType":"address"},{"name":"vaultHints_","type":"address","internalType":"address"}],"stateMutability":"nonpayable"},{"type":"function","name":"DEFAULT_ADMIN_ROLE","inputs":[],"outputs":[{"name":"","type":"bytes32","internalType":"bytes32"}],"stateMutability":"view"},{"type":"function","name":"FACTORY","inputs":[],"outputs":[{"name":"","type":"address","internalType":"address"}],"stateMutability":"view"},{"type":"function","name":"FULL_RESTAKE_DELEGATOR_HINTS","inputs":[],"outputs":[{"name":"","type":"address","internalType":"address"}],"stateMutability":"view"},{"type":"function","name":"HOOK_GAS_LIMIT","inputs":[],"outputs":[{"name":"","type":"uint256","internalType":"uint256"}],"stateMutability":"view"},{"type":"function","name":"HOOK_RESERVE","inputs":[],"outputs":[{"name":"","type":"uint256","internalType":"uint256"}],"stateMutability":"view"},{"type":"function","name":"HOOK_SET_ROLE","inputs":[],"outputs":[{"name":"","type":"bytes32","internalType":"bytes32"}],"stateMutability":"view"},{"type":"function","name":"NETWORK_REGISTRY","inputs":[],"outputs":[{"name":"","type":"address","internalType":"address"}],"stateMutability":"view"},{"type":"function","name":"NETWORK_RESTAKE_DELEGATOR_HINTS","inputs":[],"outputs":[{"name":"","type":"address","internalType":"address"}],"stateMutability":"view"},{"type":"function","name":"OPERATOR_NETWORK_OPT_IN_SERVICE","inputs":[],"outputs":[{"name":"","type":"address","internalType":"address"}],"stateMutability":"view"},{"type":"function","name":"OPERATOR_VAULT_OPT_IN_SERVICE","inputs":[],"outputs":[{"name":"","type":"address","internalType":"address"}],"stateMutability":"view"},{"type":"function","name":"OPT_IN_SERVICE_HINTS","inputs":[],"outputs":[{"name":"","type":"address","internalType":"address"}],"stateMutability":"view"},{"type":"function","name":"TYPE","inputs":[],"outputs":[{"name":"","type":"uint64","internalType":"uint64"}],"stateMutability":"view"},{"type":"function","name":"VAULT_FACTORY","inputs":[],"outputs":[{"name":"","type":"address","internalType":"address"}],"stateMutability":"view"},{"type":"function","name":"VERSION","inputs":[],"outputs":[{"name":"","type":"uint64","internalType":"uint64"}],"stateMutability":"pure"},{"type":"function","name":"getRoleAdmin","inputs":[{"name":"role","type":"bytes32","internalType":"bytes32"}],"outputs":[{"name":"","type":"bytes32","internalType":"bytes32"}],"stateMutability":"view"},{"type":"function","name":"grantRole","inputs":[{"name":"role","type":"bytes32","internalType":"bytes32"},{"name":"account","type":"address","internalType":"address"}],"outputs":[],"stateMutability":"nonpayable"},{"type":"function","name":"hasRole","inputs":[{"name":"role","type":"bytes32","internalType":"bytes32"},{"name":"account","type":"address","internalType":"address"}],"outputs":[{"name":"","type":"bool","internalType":"bool"}],"stateMutability":"view"},{"type":"function","name":"hook","inputs":[],"outputs":[{"name":"","type":"address","internalType":"address"}],"stateMutability":"view"},{"type":"function","name":"initialize","inputs":[{"name":"data","type":"bytes","internalType":"bytes"}],"outputs":[],"stateMutability":"nonpayable"},{"type":"function","name":"maxNetworkLimit","inputs":[{"name":"subnetwork","type":"bytes32","internalType":"bytes32"}],"outputs":[{"name":"value","type":"uint256","internalType":"uint256"}],"stateMutability":"view"},{"type":"function","name":"onSlash","inputs":[{"name":"subnetwork","type":"bytes32","internalType":"bytes32"},{"name":"operator","type":"address","internalType":"address"},{"name":"amount","type":"uint256","internalType":"uint256"},{"name":"captureTimestamp","type":"uint48","internalType":"uint48"},{"name":"data","type":"bytes","internalType":"bytes"}],"outputs":[],"stateMutability":"nonpayable"},{"type":"function","name":"renounceRole","inputs":[{"name":"role","type":"bytes32","internalType":"bytes32"},{"name":"callerConfirmation","type":"address","internalType":"address"}],"outputs":[],"stateMutability":"nonpayable"},{"type":"function","name":"revokeRole","inputs":[{"name":"role","type":"bytes32","internalType":"bytes32"},{"name":"account","type":"address","internalType":"address"}],"outputs":[],"stateMutability":"nonpayable"},{"type":"function","name":"setHook","inputs":[{"name":"hook_","type":"address","internalType":"address"}],"outputs":[],"stateMutability":"nonpayable"},{"type":"function","name":"setMaxNetworkLimit","inputs":[{"name":"identifier","type":"uint96","internalType":"uint96"},{"name":"amount","type":"uint256","internalType":"uint256"}],"outputs":[],"stateMutability":"nonpayable"},{"type":"function","name":"stake","inputs":[{"name":"subnetwork","type":"bytes32","internalType":"bytes32"},{"name":"operator","type":"address","internalType":"address"}],"outputs":[{"name":"","type":"uint256","internalType":"uint256"}],"stateMutability":"view"},{"type":"function","name":"stakeAt","inputs":[{"name":"subnetwork","type":"bytes32","internalType":"bytes32"},{"name":"operator","type":"address","internalType":"address"},{"name":"timestamp","type":"uint48","internalType":"uint48"},{"name":"hints","type":"bytes","internalType":"bytes"}],"outputs":[{"name":"","type":"uint256","internalType":"uint256"}],"stateMutability":"view"},{"type":"function","name":"stakeBaseHints","inputs":[{"name":"delegator","type":"address","internalType":"address"},{"name":"subnetwork","type":"bytes32","internalType":"bytes32"},{"name":"operator","type":"address","internalType":"address"},{"name":"timestamp","type":"uint48","internalType":"uint48"}],"outputs":[{"name":"","type":"bytes","internalType":"bytes"}],"stateMutability":"view"},{"type":"function","name":"stakeHints","inputs":[{"name":"delegator","type":"address","internalType":"address"},{"name":"subnetwork","type":"bytes32","internalType":"bytes32"},{"name":"operator","type":"address","internalType":"address"},{"name":"timestamp","type":"uint48","internalType":"uint48"}],"outputs":[{"name":"","type":"bytes","internalType":"bytes"}],"stateMutability":"view"},{"type":"function","name":"staticDelegateCall","inputs":[{"name":"target","type":"address","internalType":"address"},{"name":"data","type":"bytes","internalType":"bytes"}],"outputs":[],"stateMutability":"nonpayable"},{"type":"function","name":"supportsInterface","inputs":[{"name":"interfaceId","type":"bytes4","internalType":"bytes4"}],"outputs":[{"name":"","type":"bool","internalType":"bool"}],"stateMutability":"view"},{"type":"function","name":"vault","inputs":[],"outputs":[{"name":"","type":"address","internalType":"address"}],"stateMutability":"view"},{"type":"event","name":"Initialized","inputs":[{"name":"version","type":"uint64","indexed":false,"internalType":"uint64"}],"anonymous":false},{"type":"event","name":"OnSlash","inputs":[{"name":"subnetwork","type":"bytes32","indexed":true,"internalType":"bytes32"},{"name":"operator","type":"address","indexed":true,"internalType":"address"},{"name":"amount","type":"uint256","indexed":false,"internalType":"uint256"},{"name":"captureTimestamp","type":"uint48","indexed":false,"internalType":"uint48"}],"anonymous":false},{"type":"event","name":"RoleAdminChanged","inputs":[{"name":"role","type":"bytes32","indexed":true,"internalType":"bytes32"},{"name":"previousAdminRole","type":"bytes32","indexed":true,"internalType":"bytes32"},{"name":"newAdminRole","type":"bytes32","indexed":true,"internalType":"bytes32"}],"anonymous":false},{"type":"event","name":"RoleGranted","inputs":[{"name":"role","type":"bytes32","indexed":true,"internalType":"bytes32"},{"name":"account","type":"address","indexed":true,"internalType":"address"},{"name":"sender","type":"address","indexed":true,"internalType":"address"}],"anonymous":false},{"type":"event","name":"RoleRevoked","inputs":[{"name":"role","type":"bytes32","indexed":true,"internalType":"bytes32"},{"name":"account","type":"address","indexed":true,"internalType":"address"},{"name":"sender","type":"address","indexed":true,"internalType":"address"}],"anonymous":false},{"type":"event","name":"SetHook","inputs":[{"name":"hook","type":"address","indexed":true,"internalType":"address"}],"anonymous":false},{"type":"event","name":"SetMaxNetworkLimit","inputs":[{"name":"subnetwork","type":"bytes32","indexed":true,"internalType":"bytes32"},{"name":"amount","type":"uint256","indexed":false,"internalType":"uint256"}],"anonymous":false},{"type":"error","name":"AccessControlBadConfirmation","inputs":[]},{"type":"error","name":"AccessControlUnauthorizedAccount","inputs":[{"name":"account","type":"address","internalType":"address"},{"name":"neededRole","type":"bytes32","internalType":"bytes32"}]},{"type":"error","name":"AlreadySet","inputs":[]},{"type":"error","name":"ExternalCall","inputs":[]},{"type":"error","name":"InsufficientHookGas","inputs":[]},{"type":"error","name":"InvalidInitialization","inputs":[]},{"type":"error","name":"NotInitialized","inputs":[]},{"type":"error","name":"NotInitializing","inputs":[]},{"type":"error","name":"NotNetwork","inputs":[]},{"type":"error","name":"NotSlasher","inputs":[]},{"type":"error","name":"NotVault","inputs":[]},{"type":"error","name":"ReentrancyGuardReentrantCall","inputs":[]}],"bytecode":{"object":"0x6101c060405234801561001157600080fd5b506040516199ff3803806199ff83398101604081905261003091610228565b30608052600080808080808080610045610140565b6001600160a01b0391821660a0526001600160401b031660c05295861660e052505091831661010052821661012052811661014052821661016052604051309082908490610092906101f2565b6001600160a01b03938416815291831660208301529091166040820152606001604051809103906000f0801580156100ce573d6000803e3d6000fd5b506001600160a01b0316610180526040513090829084906100ee906101ff565b6001600160a01b03938416815291831660208301529091166040820152606001604051809103906000f08015801561012a573d6000803e3d6000fd5b506001600160a01b03166101a0525061025b9050565b7ff0c57e16840df040f15088dc2f81fe391c3923bec73e23a9662efc9c229c6a00805468010000000000000000900460ff16156101905760405163f92ee8a960e01b815260040160405180910390fd5b80546001600160401b03908116146101ef5780546001600160401b0319166001600160401b0390811782556040519081527fc7f505b2f371ae2175ee4913f4499e1f2633a7b5936321eed1cdaeb6115181d29060200160405180910390a15b50565b613d4f806122a483390190565b613a0c80615ff383390190565b80516001600160a01b038116811461022357600080fd5b919050565b6000806040838503121561023b57600080fd5b6102448361020c565b91506102526020840161020c565b90509250929050565b60805160a05160c05160e05161010051610120516101405161016051610180516101a051611f8b610319600039600081816104f60152610bfd0152600081816102220152610ad80152600081816104080152818161059f01526107210152600081816102af01528181611023015261135001526000818161028801528181610f9a01526112da01526000818161026101526115bb01526000818161048901526108bd0152600061044a0152600061033f015260005050611f8b6000f3fe608060405234801561001057600080fd5b50600436106101f05760003560e01c80637f5a7c7b1161010f578063d547741f116100a2578063fbfa77cf11610071578063fbfa77cf1461052b578063fd4d447c1461053e578063ff54740f14610551578063ffa1ad741461055b57600080fd5b8063d547741f146104cb578063e02f6937146104de578063e102831a146104f1578063e49561ee1461051857600080fd5b8063a217fddf116100de578063a217fddf1461043d578063bb24fe8a14610445578063c0cd7c3e14610484578063d15b740e146104ab57600080fd5b80637f5a7c7b146103dd57806391d14854146103f05780639b656b22146104035780639f86fd851461042a57600080fd5b806325dc9708116101875780633dfd3873116101565780633dfd387314610387578063439fab911461039a578063557cab44146103ad5780636679191e146103b657600080fd5b806325dc9708146103275780632dd310001461033a5780632f2ff15d1461036157806336568abe1461037457600080fd5b80631a80e500116101c35780631a80e500146102aa5780631bf10a3e146102d157806323f752d5146102f1578063248a9ca31461030657600080fd5b806301ffc9a7146101f5578063075db0361461021d578063103f29071461025c578063128e5d8214610283575b600080fd5b6102086102033660046117b9565b610562565b60405190151581526020015b60405180910390f35b6102447f000000000000000000000000000000000000000000000000000000000000000081565b6040516001600160a01b039091168152602001610214565b6102447f000000000000000000000000000000000000000000000000000000000000000081565b6102447f000000000000000000000000000000000000000000000000000000000000000081565b6102447f000000000000000000000000000000000000000000000000000000000000000081565b6102e46102df366004611813565b610599565b60405161021491906118b4565b6103046102ff3660046118c7565b6108a0565b005b610319610314366004611904565b610a06565b604051908152602001610214565b6102e4610335366004611813565b610a28565b6102447f000000000000000000000000000000000000000000000000000000000000000081565b61030461036f36600461191d565b610c2c565b61030461038236600461191d565b610c4e565b61030461039536600461194d565b610c86565b6103046103a83660046119b2565b610d48565b610319614e2081565b6103197fd1c1f6fa6bf27d54c5e54c7c1dc6e5004d3c027ea1994fe68b29c1b51b69c36c81565b600154610244906001600160a01b031681565b6102086103fe36600461191d565b610e58565b6102447f000000000000000000000000000000000000000000000000000000000000000081565b6103046104383660046119f3565b610e90565b610319600081565b61046c7f000000000000000000000000000000000000000000000000000000000000000081565b6040516001600160401b039091168152602001610214565b6102447f000000000000000000000000000000000000000000000000000000000000000081565b6103196104b9366004611904565b60026020526000908152604090205481565b6103046104d936600461191d565b610f20565b6103196104ec366004611b0a565b610f3c565b6102447f000000000000000000000000000000000000000000000000000000000000000081565b610304610526366004611b73565b6110e0565b600054610244906001600160a01b031681565b61031961054c36600461191d565b6112af565b6103196203d09081565b600161046c565b60006001600160e01b03198216637965db0b60e01b148061059357506301ffc9a760e01b6001600160e01b03198316145b92915050565b606060007f00000000000000000000000000000000000000000000000000000000000000006001600160a01b031663d4a63862876001600160a01b031663128e5d826040518163ffffffff1660e01b8152600401602060405180830381865afa15801561060a573d6000803e3d6000fd5b505050506040513d601f19601f8201168201806040525081019061062e9190611be6565b86896001600160a01b031663fbfa77cf6040518163ffffffff1660e01b8152600401602060405180830381865afa15801561066d573d6000803e3d6000fd5b505050506040513d601f19601f820116820180604052508101906106919190611be6565b60405160e085901b6001600160e01b03191681526001600160a01b0393841660048201529183166024830152909116604482015265ffffffffffff86166064820152608401600060405180830381865afa1580156106f3573d6000803e3d6000fd5b505050506040513d6000823e601f3d908101601f1916820160405261071b9190810190611c48565b905060007f00000000000000000000000000000000000000000000000000000000000000006001600160a01b031663d4a63862886001600160a01b0316631a80e5006040518163ffffffff1660e01b8152600401602060405180830381865afa15801561078c573d6000803e3d6000fd5b505050506040513d601f19601f820116820180604052508101906107b09190611be6565b876107bb8a60601c90565b60405160e085901b6001600160e01b03191681526001600160a01b0393841660048201529183166024830152909116604482015265ffffffffffff87166064820152608401600060405180830381865afa15801561081d573d6000803e3d6000fd5b505050506040513d6000823e601f3d908101601f191682016040526108459190810190611c48565b9050815160001415806108585750805115155b15610895576040805180820182528381526020808201849052915161087d9201611c7c565b60405160208183030381529060405292505050610898565b50505b949350505050565b6108a8611410565b6040516302910f8b60e31b81523360048201527f00000000000000000000000000000000000000000000000000000000000000006001600160a01b0316906314887c5890602401602060405180830381865afa15801561090c573d6000803e3d6000fd5b505050506040513d601f19601f820116820180604052508101906109309190611cbe565b61094d576040516323d53b9760e21b815260040160405180910390fd5b6bffffffffffffffffffffffff82163360601b6bffffffffffffffffffffffff19161760008181526002602052604090205482900361099f5760405163a741a04560e01b815260040160405180910390fd5b6000818152600260205260409020829055807fc67e7929681aa1bccd63f52b3799bf5805f3009f197db6fdf584b14f7fbf608c836040516109e291815260200190565b60405180910390a250610a026001600080516020611f3683398151915255565b5050565b6000908152600080516020611f16833981519152602052604090206001015490565b6060846001600160a01b031663bb24fe8a6040518163ffffffff1660e01b8152600401602060405180830381865afa158015610a68573d6000803e3d6000fd5b505050506040513d601f19601f82011682018060405250810190610a8c9190611ce0565b6001600160401b0316600003610b4f576040516304bb92e160e31b81526001600160a01b03868116600483015260248201869052848116604483015265ffffffffffff841660648301527f000000000000000000000000000000000000000000000000000000000000000016906325dc9708906084015b600060405180830381865afa158015610b20573d6000803e3d6000fd5b505050506040513d6000823e601f3d908101601f19168201604052610b489190810190611c48565b9050610898565b846001600160a01b031663bb24fe8a6040518163ffffffff1660e01b8152600401602060405180830381865afa158015610b8d573d6000803e3d6000fd5b505050506040513d601f19601f82011682018060405250810190610bb19190611ce0565b6001600160401b0316600103610898576040516304bb92e160e31b81526001600160a01b03868116600483015260248201869052848116604483015265ffffffffffff841660648301527f000000000000000000000000000000000000000000000000000000000000000016906325dc970890608401610b03565b610c3582610a06565b610c3e8161145c565b610c488383611466565b50505050565b6001600160a01b0381163314610c775760405163334bd91960e11b815260040160405180910390fd5b610c81828261150b565b505050565b610c8e611410565b7fd1c1f6fa6bf27d54c5e54c7c1dc6e5004d3c027ea1994fe68b29c1b51b69c36c610cb88161145c565b6001546001600160a01b03808416911603610ce65760405163a741a04560e01b815260040160405180910390fd5b600180546001600160a01b0319166001600160a01b0384169081179091556040517f5bbb1d3ebb6a3ad2a0f17ff35e579a83af60604d1d3c2a4c83c62adecadf666d90600090a250610d456001600080516020611f3683398151915255565b50565b7ff0c57e16840df040f15088dc2f81fe391c3923bec73e23a9662efc9c229c6a008054600160401b810460ff1615906001600160401b0316600081158015610d8d5750825b90506000826001600160401b03166001148015610da95750303b155b905081158015610db7575080155b15610dd55760405163f92ee8a960e01b815260040160405180910390fd5b845467ffffffffffffffff191660011785558315610dff57845460ff60401b1916600160401b1785555b610e098787611587565b8315610e4f57845460ff60401b19168555604051600181527fc7f505b2f371ae2175ee4913f4499e1f2633a7b5936321eed1cdaeb6115181d29060200160405180910390a15b50505050505050565b6000918252600080516020611f16833981519152602090815260408084206001600160a01b0393909316845291905290205460ff1690565b600080846001600160a01b03168484604051610ead929190611d09565b600060405180830381855af49150503d8060008114610ee8576040519150601f19603f3d011682016040523d82523d6000602084013e610eed565b606091505b509150915060008282604051602001610f07929190611d19565b6040516020818303038152906040529050805181602001fd5b610f2982610a06565b610f328161145c565b610c48838361150b565b60408051808201909152606080825260208201819052600091829190815115610f765781806020019051810190610f739190611d34565b90505b82158061101b5750600054815160405163530e1d4360e01b81526001600160a01b037f000000000000000000000000000000000000000000000000000000000000000081169363530e1d4393610fd8938d9392909216918c9190600401611dda565b602060405180830381865afa158015610ff5573d6000803e3d6000fd5b505050506040513d601f19601f820116820180604052508101906110199190611cbe565b155b806110c357507f00000000000000000000000000000000000000000000000000000000000000006001600160a01b031663530e1d438861105b8b60601c90565b8985602001516040518563ffffffff1660e01b81526004016110809493929190611dda565b602060405180830381865afa15801561109d573d6000803e3d6000fd5b505050506040513d601f19601f820116820180604052508101906110c19190611cbe565b155b156110d45760009350505050610898565b50909695505050505050565b6110e8611410565b60008054906101000a90046001600160a01b03166001600160a01b031663b13442716040518163ffffffff1660e01b8152600401602060405180830381865afa158015611139573d6000803e3d6000fd5b505050506040513d601f19601f8201168201806040525081019061115d9190611be6565b6001600160a01b0316336001600160a01b03161461118e5760405163dabc4ad960e01b815260040160405180910390fd5b6001546001600160a01b0316801561124357600086868686866040516024016111bb959493929190611e1e565b60408051601f198184030181529181526020820180516001600160e01b031663724ab0f760e11b179052909150603f906111f9906203d09090611e7a565b6112039190611e91565b61120f90614e20611eb3565b5a101561122f57604051638072475160e01b815260040160405180910390fd5b6000808251602084016000866203d090f150505b6040805185815265ffffffffffff851660208201526001600160a01b0387169188917f741a5de99085c0d660f3e4192217b0ffb0ea4e35a0480de48e857a4bc3ee36ed910160405180910390a3506112a86001600080516020611f3683398151915255565b5050505050565b600080546040516308834cb560e21b81526001600160a01b03848116600483015291821660248201527f00000000000000000000000000000000000000000000000000000000000000009091169063220d32d490604401602060405180830381865afa158015611323573d6000803e3d6000fd5b505050506040513d601f19601f820116820180604052508101906113479190611cbe565b15806113f957507f00000000000000000000000000000000000000000000000000000000000000006001600160a01b031663220d32d4836113888660601c90565b6040516001600160e01b031960e085901b1681526001600160a01b03928316600482015291166024820152604401602060405180830381865afa1580156113d3573d6000803e3d6000fd5b505050506040513d601f19601f820116820180604052508101906113f79190611cbe565b155b1561140657506000610593565b60005b9392505050565b600080516020611f3683398151915280546001190161144257604051633ee5aeb560e01b815260040160405180910390fd5b60029055565b6001600080516020611f3683398151915255565b610d4581336116f7565b6000600080516020611f168339815191526114818484610e58565b611501576000848152602082815260408083206001600160a01b03871684529091529020805460ff191660011790556114b73390565b6001600160a01b0316836001600160a01b0316857f2f8788117e7eff1d82e926ec794901d17c78024a50270940304540a733656f0d60405160405180910390a46001915050610593565b6000915050610593565b6000600080516020611f168339815191526115268484610e58565b15611501576000848152602082815260408083206001600160a01b0387168085529252808320805460ff1916905551339287917ff6391f5c32d9c69d2a47ea670b442974b53935d1edc7fd64eb21e047a839171b9190a46001915050610593565b60008061159683850185611ec6565b6040516302910f8b60e31b81526001600160a01b0380841660048301529294509092507f0000000000000000000000000000000000000000000000000000000000000000909116906314887c5890602401602060405180830381865afa158015611604573d6000803e3d6000fd5b505050506040513d601f19601f820116820180604052508101906116289190611cbe565b611645576040516362df054560e01b815260040160405180910390fd5b61164d611734565b600080546001600160a01b0319166001600160a01b0384161781556116728383611746565b6020810151600180546001600160a01b0319166001600160a01b03928316179055815191925016156116ae5780516116ac90600090611466565b505b60408101516001600160a01b0316156112a8576116ef7fd1c1f6fa6bf27d54c5e54c7c1dc6e5004d3c027ea1994fe68b29c1b51b69c36c8260400151611466565b505050505050565b6117018282610e58565b610a025760405163e2517d3f60e01b81526001600160a01b03821660048201526024810183905260440160405180910390fd5b61173c611768565b6117446117b1565b565b6040805160608101825260008082526020820181905291810191909152610593565b7ff0c57e16840df040f15088dc2f81fe391c3923bec73e23a9662efc9c229c6a0054600160401b900460ff1661174457604051631afcd79f60e31b815260040160405180910390fd5b611448611768565b6000602082840312156117cb57600080fd5b81356001600160e01b03198116811461140957600080fd5b6001600160a01b0381168114610d4557600080fd5b803565ffffffffffff8116811461180e57600080fd5b919050565b6000806000806080858703121561182957600080fd5b8435611834816117e3565b935060208501359250604085013561184b816117e3565b9150611859606086016117f8565b905092959194509250565b60005b8381101561187f578181015183820152602001611867565b50506000910152565b600081518084526118a0816020860160208601611864565b601f01601f19169290920160200192915050565b6020815260006114096020830184611888565b600080604083850312156118da57600080fd5b82356bffffffffffffffffffffffff811681146118f657600080fd5b946020939093013593505050565b60006020828403121561191657600080fd5b5035919050565b6000806040838503121561193057600080fd5b823591506020830135611942816117e3565b809150509250929050565b60006020828403121561195f57600080fd5b8135611409816117e3565b60008083601f84011261197c57600080fd5b5081356001600160401b0381111561199357600080fd5b6020830191508360208285010111156119ab57600080fd5b9250929050565b600080602083850312156119c557600080fd5b82356001600160401b038111156119db57600080fd5b6119e78582860161196a565b90969095509350505050565b600080600060408486031215611a0857600080fd5b8335611a13816117e3565b925060208401356001600160401b03811115611a2e57600080fd5b611a3a8682870161196a565b9497909650939450505050565b634e487b7160e01b600052604160045260246000fd5b604051601f8201601f191681016001600160401b0381118282101715611a8557611a85611a47565b604052919050565b60006001600160401b03821115611aa657611aa6611a47565b50601f01601f191660200190565b600082601f830112611ac557600080fd5b8135611ad8611ad382611a8d565b611a5d565b818152846020838601011115611aed57600080fd5b816020850160208301376000918101602001919091529392505050565b60008060008060808587031215611b2057600080fd5b843593506020850135611b32816117e3565b9250611b40604086016117f8565b915060608501356001600160401b03811115611b5b57600080fd5b611b6787828801611ab4565b91505092959194509250565b600080600080600060a08688031215611b8b57600080fd5b853594506020860135611b9d816117e3565b935060408601359250611bb2606087016117f8565b915060808601356001600160401b03811115611bcd57600080fd5b611bd988828901611ab4565b9150509295509295909350565b600060208284031215611bf857600080fd5b8151611409816117e3565b600082601f830112611c1457600080fd5b8151611c22611ad382611a8d565b818152846020838601011115611c3757600080fd5b610898826020830160208701611864565b600060208284031215611c5a57600080fd5b81516001600160401b03811115611c7057600080fd5b61089884828501611c03565b602081526000825160406020840152611c986060840182611888565b90506020840151601f19848303016040850152611cb58282611888565b95945050505050565b600060208284031215611cd057600080fd5b8151801515811461140957600080fd5b600060208284031215611cf257600080fd5b81516001600160401b038116811461140957600080fd5b8183823760009101908152919050565b82151581526040602082015260006108986040830184611888565b600060208284031215611d4657600080fd5b81516001600160401b0380821115611d5d57600080fd5b9083019060408286031215611d7157600080fd5b604051604081018181108382111715611d8c57611d8c611a47565b604052825182811115611d9e57600080fd5b611daa87828601611c03565b825250602083015182811115611dbf57600080fd5b611dcb87828601611c03565b60208301525095945050505050565b6001600160a01b0385811682528416602082015265ffffffffffff83166040820152608060608201819052600090611e1490830184611888565b9695505050505050565b85815260018060a01b038516602082015283604082015265ffffffffffff8316606082015260a060808201526000611e5960a0830184611888565b979650505050505050565b634e487b7160e01b600052601160045260246000fd5b808202811582820484141761059357610593611e64565b600082611eae57634e487b7160e01b600052601260045260246000fd5b500490565b8082018082111561059357610593611e64565b60008060408385031215611ed957600080fd5b8235611ee4816117e3565b915060208301356001600160401b03811115611eff57600080fd5b611f0b85828601611ab4565b915050925092905056fe02dd7bc7dec4dceedda775e58dd541e08a116c6c53815c0bd028192f7b6268009b779b17422d0df92223018b32b4d1fa46e071723d6817e2486d003becc55f00a2646970667358221220a43a2c61ab6418499bce44d5bf55e820e9d333b9313e0580e791b999b99cf98c64736f6c634300081900336101c060405234801561001157600080fd5b50604051613d4f380380613d4f8339810160408190526100309161016e565b3060805260008080808080808080808080808061004b6100a0565b6001600160a01b0391821660a0526001600160401b031660c05295861660e052505091831661010052821661012052811661014052988916610160525050505092841661018052509091166101a052506101b1565b7ff0c57e16840df040f15088dc2f81fe391c3923bec73e23a9662efc9c229c6a00805468010000000000000000900460ff16156100f05760405163f92ee8a960e01b815260040160405180910390fd5b80546001600160401b039081161461014f5780546001600160401b0319166001600160401b0390811782556040519081527fc7f505b2f371ae2175ee4913f4499e1f2633a7b5936321eed1cdaeb6115181d29060200160405180910390a15b50565b80516001600160a01b038116811461016957600080fd5b919050565b60008060006060848603121561018357600080fd5b61018c84610152565b925061019a60208501610152565b91506101a860408501610152565b90509250925092565b60805160a05160c05160e05161010051610120516101405161016051610180516101a051613add61027260003960006105ae0152600081816104ab0152610c270152600081816105150152610bb20152600081816103b20152818161153d01526118ce01526000818161033b015281816114b401526118580152600081816102fc0152611fc701526000818161065501526109fb0152600061061601526000610412015260008181610944015281816110e301526117d70152613add6000f3fe608060405234801561001057600080fd5b50600436106102955760003560e01c80637d24bb2711610167578063c43dc03f116100ce578063e78eb6ae11610087578063e78eb6ae146106f6578063ed4d89e51461071d578063fbfa77cf14610730578063fd4d447c14610743578063ff54740f14610756578063ffa1ad741461076057600080fd5b8063c43dc03f14610677578063d15b740e1461068a578063d547741f146106aa578063da749d2b146106bd578063e02f6937146106d0578063e49561ee146106e357600080fd5b80639f86fd85116101205780639f86fd85146105d0578063a217fddf146105e3578063a33bc287146105eb578063b549ef1f146105fe578063bb24fe8a14610611578063c0cd7c3e1461065057600080fd5b80637d24bb27146105375780637f5a7c7b1461055d5780638b3f10b01461057057806391d1485414610583578063987b3ee8146105965780639b656b22146105a957600080fd5b80632dd310001161020b578063439fab91116101c4578063439fab911461049357806345e78fcb146104a6578063557cab44146104cd5780635d32a1c9146104d65780636679191e146104e957806379d896141461051057600080fd5b80632dd310001461040d5780632f2ff15d1461043457806336568abe146104475780633dfd38731461045a5780633eb22c0f1461046d57806342c53e331461048057600080fd5b8063197aa7ea1161025d578063197aa7ea1461035d5780631a7a70441461038c5780631a80e500146103ad57806323f752d5146103d4578063248a9ca3146103e757806325dc9708146103fa57600080fd5b806301ffc9a71461029a57806302145348146102c257806307f9d5fd146102d7578063103f2907146102f7578063128e5d8214610336575b600080fd5b6102ad6102a8366004612d85565b610767565b60405190151581526020015b60405180910390f35b6102d56102d0366004612daf565b61079e565b005b6102ea6102e5366004612e01565b61087e565b6040516102b99190612ea2565b61031e7f000000000000000000000000000000000000000000000000000000000000000081565b6040516001600160a01b0390911681526020016102b9565b61031e7f000000000000000000000000000000000000000000000000000000000000000081565b61037061036b366004612eb5565b610936565b60408051921515835263ffffffff9091166020830152016102b9565b61039f61039a366004612fee565b6109a8565b6040519081526020016102b9565b61031e7f000000000000000000000000000000000000000000000000000000000000000081565b6102d56103e2366004613057565b6109de565b61039f6103f5366004613094565b610b4e565b6102ea610408366004612e01565b610b70565b61031e7f000000000000000000000000000000000000000000000000000000000000000081565b6102d56104423660046130ad565b610df6565b6102d56104553660046130ad565b610e18565b6102d56104683660046130dd565b610e50565b61039f61047b366004613094565b610f12565b61039f61048e3660046130ad565b610f29565b6102d56104a1366004613142565b610f5b565b61031e7f000000000000000000000000000000000000000000000000000000000000000081565b61039f614e2081565b61039f6104e4366004613183565b61106b565b61039f7fd1c1f6fa6bf27d54c5e54c7c1dc6e5004d3c027ea1994fe68b29c1b51b69c36c81565b61031e7f000000000000000000000000000000000000000000000000000000000000000081565b61039f7e8b9b1e5fa9cf3b14f87f435649268146305ddf689f082e5961a335b07a9abf81565b60015461031e906001600160a01b031681565b61039f61057e366004613183565b611084565b6102ad6105913660046130ad565b61109d565b6103706105a43660046131d9565b6110d5565b61031e7f000000000000000000000000000000000000000000000000000000000000000081565b6102d56105de366004613217565b61115c565b61039f600081565b6102d56105f936600461326b565b6111ec565b6102ea61060c3660046132a3565b611306565b6106387f000000000000000000000000000000000000000000000000000000000000000081565b6040516001600160401b0390911681526020016102b9565b61031e7f000000000000000000000000000000000000000000000000000000000000000081565b61039f610685366004613094565b6113b1565b61039f610698366004613094565b60026020526000908152604090205481565b6102d56106b83660046130ad565b6113c8565b6102ea6106cb3660046132a3565b6113e4565b61039f6106de366004612fee565b611440565b6102d56106f13660046132d8565b6115fa565b61039f7f1312a1cf530e56add9be4fd84db9051dcc7635952f09f735f9a29405b558462581565b61037061072b366004612eb5565b6117c9565b60005461031e906001600160a01b031681565b61039f6107513660046130ad565b61182d565b61039f6203d09081565b6001610638565b60006001600160e01b03198216637965db0b60e01b148061079857506301ffc9a760e01b6001600160e01b03198316145b92915050565b7e8b9b1e5fa9cf3b14f87f435649268146305ddf689f082e5961a335b07a9abf6107c78161198e565b6000838152600260205260409020548211156107f657604051631eefc06360e31b815260040160405180910390fd5b8161080084610f12565b0361081e5760405163a741a04560e01b815260040160405180910390fd5b61083e610829611998565b600085815260036020526040902090846119a8565b5050827e899d104fc3d8820bd96540612bcc5c448c8837b13b9f7faa43ad0728f0c14f8360405161087191815260200190565b60405180910390a2505050565b604051602481018490526001600160a01b038316604482015265ffffffffffff8216606482015260609060009081906108e590889060840160408051601f198184030181529190526020810180516001600160e01b031663130f67dd60e31b179052611a82565b8060200190518101906108f8919061336f565b91509150811561092b576040805163ffffffff83166020820152016040516020818303038152906040529250505061092e565b50505b949350505050565b600080336001600160a01b037f0000000000000000000000000000000000000000000000000000000000000000161461098257604051637ca475e560e11b815260040160405180910390fd5b600084815260036020526040902061099a9084611b52565b929792965091945050505050565b60008481526005602090815260408083206001600160a01b038716845290915281206109d5908484611c81565b95945050505050565b6109e6611d72565b6040516302910f8b60e31b81523360048201527f00000000000000000000000000000000000000000000000000000000000000006001600160a01b0316906314887c5890602401602060405180830381865afa158015610a4a573d6000803e3d6000fd5b505050506040513d601f19601f82011682018060405250810190610a6e9190613399565b610a8b576040516323d53b9760e21b815260040160405180910390fd5b6bffffffffffffffffffffffff82163360601b6bffffffffffffffffffffffff191617600081815260026020526040902054829003610add5760405163a741a04560e01b815260040160405180910390fd5b6000818152600260205260409020829055610af88183611daa565b807fc67e7929681aa1bccd63f52b3799bf5805f3009f197db6fdf584b14f7fbf608c83604051610b2a91815260200190565b60405180910390a250610b4a6001600080516020613a8883398151915255565b5050565b6000908152600080516020613a68833981519152602052604090206001015490565b604051630df8851f60e11b81526001600160a01b03858116600483015260248201859052838116604483015265ffffffffffff831660648301526060916000917f00000000000000000000000000000000000000000000000000000000000000001690631bf10a3e90608401600060405180830381865afa158015610bf9573d6000803e3d6000fd5b505050506040513d6000823e601f3d908101601f19168201604052610c2191908101906133f9565b905060007f00000000000000000000000000000000000000000000000000000000000000006001600160a01b03166364b03fdc886001600160a01b031663fbfa77cf6040518163ffffffff1660e01b8152600401602060405180830381865afa158015610c92573d6000803e3d6000fd5b505050506040513d601f19601f82011682018060405250810190610cb6919061342d565b6040516001600160e01b031960e084901b1681526001600160a01b03909116600482015265ffffffffffff87166024820152604401600060405180830381865afa158015610d08573d6000803e3d6000fd5b505050506040513d6000823e601f3d908101601f19168201604052610d3091908101906133f9565b90506000610d3f8888876113e4565b90506000610d4f8989898961087e565b90506000610d5e8a8a89611306565b905084516000141580610d715750835115155b80610d7c5750825115155b80610d875750815115155b80610d925750805115155b15610de9576040518060a0016040528086815260200185815260200184815260200182815260200183815250604051602001610dce919061344a565b6040516020818303038152906040529550505050505061092e565b5050505050949350505050565b610dff82610b4e565b610e088161198e565b610e128383611e15565b50505050565b6001600160a01b0381163314610e415760405163334bd91960e11b815260040160405180910390fd5b610e4b8282611ec1565b505050565b610e58611d72565b7fd1c1f6fa6bf27d54c5e54c7c1dc6e5004d3c027ea1994fe68b29c1b51b69c36c610e828161198e565b6001546001600160a01b03808416911603610eb05760405163a741a04560e01b815260040160405180910390fd5b600180546001600160a01b0319166001600160a01b0384169081179091556040517f5bbb1d3ebb6a3ad2a0f17ff35e579a83af60604d1d3c2a4c83c62adecadf666d90600090a250610f0f6001600080516020613a8883398151915255565b50565b600081815260036020526040812061079890611f3d565b60008281526005602090815260408083206001600160a01b03851684529091528120610f5490611f3d565b9392505050565b7ff0c57e16840df040f15088dc2f81fe391c3923bec73e23a9662efc9c229c6a008054600160401b810460ff1615906001600160401b0316600081158015610fa05750825b90506000826001600160401b03166001148015610fbc5750303b155b905081158015610fca575080155b15610fe85760405163f92ee8a960e01b815260040160405180910390fd5b845467ffffffffffffffff19166001178555831561101257845460ff60401b1916600160401b1785555b61101c8787611f93565b831561106257845460ff60401b19168555604051600181527fc7f505b2f371ae2175ee4913f4499e1f2633a7b5936321eed1cdaeb6115181d29060200160405180910390a15b50505050505050565b600083815260036020526040812061092e908484611c81565b600083815260046020526040812061092e908484611c81565b6000918252600080516020613a68833981519152602090815260408084206001600160a01b0393909316845291905290205460ff1690565b600080336001600160a01b037f0000000000000000000000000000000000000000000000000000000000000000161461112157604051637ca475e560e11b815260040160405180910390fd5b60008581526005602090815260408083206001600160a01b0388168452909152902061114d9084611b52565b92989297509195505050505050565b600080846001600160a01b031684846040516111799291906134dc565b600060405180830381855af49150503d80600081146111b4576040519150601f19603f3d011682016040523d82523d6000602084013e6111b9565b606091505b5091509150600082826040516020016111d39291906134ec565b6040516020818303038152906040529050805181602001fd5b7f1312a1cf530e56add9be4fd84db9051dcc7635952f09f735f9a29405b55846256112168161198e565b60006112228585610f29565b90508281036112445760405163a741a04560e01b815260040160405180910390fd5b61128361124f611998565b848361125a896113b1565b611264919061351d565b61126e9190613530565b600088815260046020526040902091906119a8565b50506112b9611290611998565b60008781526005602090815260408083206001600160a01b038a168452909152902090856119a8565b5050836001600160a01b0316857f739a5a3ec0ff71e2386d0013deac5f44e0935a98def2e2a5ddf9a709518c8294856040516112f791815260200190565b60405180910390a35050505050565b606060008061136286868660405160240161133392919091825265ffffffffffff16602082015260400190565b60408051601f198184030181529190526020810180516001600160e01b031663ed4d89e560e01b179052611a82565b806020019051810190611375919061336f565b9150915081156113a8576040805163ffffffff831660208201520160405160208183030381529060405292505050610f54565b50509392505050565b600081815260046020526040812061079890611f3d565b6113d182610b4e565b6113da8161198e565b610e128383611ec1565b606060008061136286868660405160240161141192919091825265ffffffffffff16602082015260400190565b60408051601f198184030181529190526020810180516001600160e01b0316630cbd53f560e11b179052611a82565b6000806000611451878787876120fb565b91509150611472604051806040016040528060608152602001606081525090565b815115611490578180602001905181019061148d9190613543565b90505b8215806115355750600054815160405163530e1d4360e01b81526001600160a01b037f000000000000000000000000000000000000000000000000000000000000000081169363530e1d43936114f2938d9392909216918c91906004016135e9565b602060405180830381865afa15801561150f573d6000803e3d6000fd5b505050506040513d601f19601f820116820180604052508101906115339190613399565b155b806115dd57507f00000000000000000000000000000000000000000000000000000000000000006001600160a01b031663530e1d43886115758b60601c90565b8985602001516040518563ffffffff1660e01b815260040161159a94939291906135e9565b602060405180830381865afa1580156115b7573d6000803e3d6000fd5b505050506040513d601f19601f820116820180604052508101906115db9190613399565b155b156115ee576000935050505061092e565b50909695505050505050565b611602611d72565b60008054906101000a90046001600160a01b03166001600160a01b031663b13442716040518163ffffffff1660e01b8152600401602060405180830381865afa158015611653573d6000803e3d6000fd5b505050506040513d601f19601f82011682018060405250810190611677919061342d565b6001600160a01b0316336001600160a01b0316146116a85760405163dabc4ad960e01b815260040160405180910390fd5b6001546001600160a01b0316801561175d57600086868686866040516024016116d5959493929190613623565b60408051601f198184030181529181526020820180516001600160e01b031663724ab0f760e11b179052909150603f90611713906203d0909061365e565b61171d919061368b565b61172990614e20613530565b5a101561174957604051638072475160e01b815260040160405180910390fd5b6000808251602084016000866203d090f150505b6040805185815265ffffffffffff851660208201526001600160a01b0387169188917f741a5de99085c0d660f3e4192217b0ffb0ea4e35a0480de48e857a4bc3ee36ed910160405180910390a3506117c26001600080516020613a8883398151915255565b5050505050565b600080336001600160a01b037f0000000000000000000000000000000000000000000000000000000000000000161461181557604051637ca475e560e11b815260040160405180910390fd5b600084815260046020526040902061099a9084611b52565b600080546040516308834cb560e21b81526001600160a01b03848116600483015291821660248201527f00000000000000000000000000000000000000000000000000000000000000009091169063220d32d490604401602060405180830381865afa1580156118a1573d6000803e3d6000fd5b505050506040513d601f19601f820116820180604052508101906118c59190613399565b158061197757507f00000000000000000000000000000000000000000000000000000000000000006001600160a01b031663220d32d4836119068660601c90565b6040516001600160e01b031960e085901b1681526001600160a01b03928316600482015291166024820152604401602060405180830381865afa158015611951573d6000803e3d6000fd5b505050506040513d601f19601f820116820180604052508101906119759190613399565b155b1561198457506000610798565b610f54838361222f565b610f0f81336122e1565b60006119a34261231f565b905090565b6001830154600090819081036119d257600180860180549182018155600090815260208120909101555b6000806119de87612356565b506001890154919350915060006119f489611f3d565b9050838015611a1257508265ffffffffffff168865ffffffffffff16145b15611a4a578689600101600184611a29919061351d565b81548110611a3957611a396136ad565b600091825260209091200155611a71565b611a558989846123d0565b50506001808a0180549182018155600090815260209020018790555b94508593505050505b935093915050565b60606000836001600160a01b03163084604051602401611aa39291906136c3565b60408051601f198184030181529181526020820180516001600160e01b0316639f86fd8560e01b17905251611ad891906136e7565b600060405180830381855afa9150503d8060008114611b13576040519150601f19603f3d011682016040523d82523d6000602084013e611b18565b606091505b5091505060008082806020019051810190611b339190613703565b91509150816109d5578051600003611b4a57600080fd5b805181602001fd5b815460009081908190819081816005811115611bb7576000611b73846123ea565b611b7d908561351d565b60008b81526020902090915081015465ffffffffffff908116908a161015611ba757809150611bb5565b611bb2816001613530565b92505b505b6000611bc58a8a85856124d2565b905080600003611be657600080600080975097509750975050505050611c78565b6000611c058b611bf760018561351d565b600091825260209091200190565b60408051808201909152905465ffffffffffff8116808352600160301b9091046001600160d01b03166020830181905260018e8101805494955090939091908110611c5257611c526136ad565b9060005260206000200154600185611c6a919061351d565b985098509850985050505050505b92959194509250565b60008151600003611c9d57611c968484612534565b9050610f54565b600082806020019051810190611cb39190613750565b90506000611cc1868361258d565b90508465ffffffffffff16816000015165ffffffffffff1603611ceb57602001519150610f549050565b805165ffffffffffff8087169116108015611d4c57506001611d0c87612605565b611d16919061351d565b8263ffffffff161480611d4c575065ffffffffffff8516611d4187611d3c85600161376b565b61258d565b5165ffffffffffff16115b15611d5e57602001519150610f549050565b611d688686612534565b9695505050505050565b600080516020613a88833981519152805460011901611da457604051633ee5aeb560e01b815260040160405180910390fd5b60029055565b60008281526003602052604081208190611dc39061260f565b9250509150818015611dd457508281115b15610e1257611df9611de4611998565b600086815260036020526040902090856119a8565b505050505050565b6001600080516020613a8883398151915255565b6000600080516020613a68833981519152611e30848461109d565b611eb0576000848152602082815260408083206001600160a01b03871684529091529020805460ff19166001179055611e663390565b6001600160a01b0316836001600160a01b0316857f2f8788117e7eff1d82e926ec794901d17c78024a50270940304540a733656f0d60405160405180910390a46001915050610798565b6000915050610798565b5092915050565b6000600080516020613a68833981519152611edc848461109d565b15611eb0576000848152602082815260408083206001600160a01b0387168085529252808320805460ff1916905551339287917ff6391f5c32d9c69d2a47ea670b442974b53935d1edc7fd64eb21e047a839171b9190a46001915050610798565b600080611f4983612663565b90506000816001600160d01b031611611f63576000610f54565b82600101816001600160d01b031681548110611f8157611f816136ad565b90600052602060002001549392505050565b600080611fa283850185613788565b6040516302910f8b60e31b81526001600160a01b0380841660048301529294509092507f0000000000000000000000000000000000000000000000000000000000000000909116906314887c5890602401602060405180830381865afa158015612010573d6000803e3d6000fd5b505050506040513d601f19601f820116820180604052508101906120349190613399565b612051576040516362df054560e01b815260040160405180910390fd5b61205961269c565b600080546001600160a01b0319166001600160a01b03841617815561207e83836126ae565b6020810151600180546001600160a01b0319166001600160a01b03928316179055815191925016156120ba5780516120b890600090611e15565b505b60408101516001600160a01b0316156117c257611df97fd1c1f6fa6bf27d54c5e54c7c1dc6e5004d3c027ea1994fe68b29c1b51b69c36c8260400151611e15565b600060606121316040518060a0016040528060608152602001606081526020016060815260200160608152602001606081525090565b83511561214f578380602001905181019061214c91906137cd565b90505b600061216088878460600151611084565b9050801561221a57600054602083015160405163810da75d60e01b8152612213926121fb926001600160a01b039091169163810da75d916121a6918c91906004016138c9565b602060405180830381865afa1580156121c3573d6000803e3d6000fd5b505050506040513d601f19601f820116820180604052508101906121e791906138ea565b6121f68b8a876040015161106b565b6128bf565b8261220c8b8b8b88608001516109a8565b91906128d5565b8251612220565b81516000905b93509350505094509492505050565b60008061223b846113b1565b905080156122d7576122d26122c760008054906101000a90046001600160a01b03166001600160a01b031663bd49c35f6040518163ffffffff1660e01b8152600401602060405180830381865afa15801561229a573d6000803e3d6000fd5b505050506040513d601f19601f820116820180604052508101906122be91906138ea565b6121f687610f12565b8261220c8787610f29565b61092e565b6000949350505050565b6122eb828261109d565b610b4a5760405163e2517d3f60e01b81526001600160a01b0382166004820152602481018390526044015b60405180910390fd5b600065ffffffffffff821115612352576040516306dfcc6560e41b81526030600482015260248101839052604401612316565b5090565b805460009081908190808203612377576000806000935093509350506123c9565b600061238886611bf760018561351d565b60408051808201909152905465ffffffffffff8116808352600160301b9091046001600160d01b0316602090920182905260019650945092506123c9915050565b9193909250565b6000806123de858585612999565b91509150935093915050565b6000816000036123fc57506000919050565b6000600161240984612b13565b901c6001901b9050600181848161242257612422613675565b048201901c9050600181848161243a5761243a613675565b048201901c9050600181848161245257612452613675565b048201901c9050600181848161246a5761246a613675565b048201901c9050600181848161248257612482613675565b048201901c9050600181848161249a5761249a613675565b048201901c905060018184816124b2576124b2613675565b048201901c9050610f54818285816124cc576124cc613675565b046128bf565b60005b8183101561252c5760006124e98484612ba7565b60008781526020902090915065ffffffffffff86169082015465ffffffffffff16111561251857809250612526565b612523816001613530565b93505b506124d5565b509392505050565b6000806125418484612bc2565b90506000816001600160d01b03161161255b57600061092e565b83600101816001600160d01b031681548110612579576125796136ad565b906000526020600020015491505092915050565b604080518082019091526000808252602082015260006125ad8484612c6a565b90506040518060400160405280826000015165ffffffffffff1681526020018560010183602001516001600160d01b0316815481106125ee576125ee6136ad565b906000526020600020015481525091505092915050565b6000610798825490565b600080808061261d85612356565b91955093506001600160d01b031690508361263957600061265a565b84600101818154811061264e5761264e6136ad565b90600052602060002001545b93959294505050565b805460009080156126935761267d83611bf760018461351d565b54600160301b90046001600160d01b0316610f54565b60009392505050565b6126a4612cda565b6126ac612d23565b565b60408051606081018252600080825260208201819052918101919091526000828060200190518101906126e19190613980565b8051519091506001600160a01b031615801561270d5750602081015151158061270d5750604081015151155b1561272b576040516303501f5960e11b815260040160405180910390fd5b60005b8160200151518110156127f65760006001600160a01b03168260200151828151811061275c5761275c6136ad565b60200260200101516001600160a01b03160361278b576040516323cda06760e01b815260040160405180910390fd5b6127d17e8b9b1e5fa9cf3b14f87f435649268146305ddf689f082e5961a335b07a9abf836020015183815181106127c4576127c46136ad565b6020026020010151611e15565b6127ee57604051635140fefd60e11b815260040160405180910390fd5b60010161272e565b5060005b8160400151518110156128b65760006001600160a01b031682604001518281518110612828576128286136ad565b60200260200101516001600160a01b031603612857576040516323cda06760e01b815260040160405180910390fd5b6128917f1312a1cf530e56add9be4fd84db9051dcc7635952f09f735f9a29405b5584625836040015183815181106127c4576127c46136ad565b6128ae57604051635140fefd60e11b815260040160405180910390fd5b6001016127fa565b50519392505050565b60008183106128ce5781610f54565b5090919050565b600083830281600019858709828110838203039150508060000361290c5783828161290257612902613675565b0492505050610f54565b80841161292c5760405163227bc15360e01b815260040160405180910390fd5b6000848688096000868103871696879004966002600389028118808a02820302808a02820302808a02820302808a02820302808a02820302808a02909103029181900381900460010186841190950394909402919094039290920491909117919091029150509392505050565b825460009081908015612ab85760006129b787611bf760018561351d565b60408051808201909152905465ffffffffffff808216808452600160301b9092046001600160d01b031660208401529192509087161015612a0b57604051632520601d60e01b815260040160405180910390fd5b805165ffffffffffff808816911603612a575784612a2e88611bf760018661351d565b80546001600160d01b0392909216600160301b0265ffffffffffff909216919091179055612aa8565b6040805180820190915265ffffffffffff80881682526001600160d01b0380881660208085019182528b54600181018d5560008d81529190912094519151909216600160301b029216919091179101555b602001519250839150611a7a9050565b50506040805180820190915265ffffffffffff80851682526001600160d01b0380851660208085019182528854600181018a5560008a815291822095519251909316600160301b029190931617920191909155905081611a7a565b600080608083901c15612b2857608092831c92015b604083901c15612b3a57604092831c92015b602083901c15612b4c57602092831c92015b601083901c15612b5e57601092831c92015b600883901c15612b7057600892831c92015b600483901c15612b8257600492831c92015b600283901c15612b9457600292831c92015b600183901c156107985760010192915050565b6000612bb6600284841861368b565b610f5490848416613530565b815460009081816005811115612c21576000612bdd846123ea565b612be7908561351d565b60008881526020902090915081015465ffffffffffff9081169087161015612c1157809150612c1f565b612c1c816001613530565b92505b505b6000612c2f87878585612d2b565b90508015612c5c57612c4687611bf760018461351d565b54600160301b90046001600160d01b0316612c5f565b60005b979650505050505050565b6040805180820190915260008082526020820152826000018263ffffffff1681548110612c9957612c996136ad565b60009182526020918290206040805180820190915291015465ffffffffffff81168252600160301b90046001600160d01b0316918101919091529392505050565b7ff0c57e16840df040f15088dc2f81fe391c3923bec73e23a9662efc9c229c6a0054600160401b900460ff166126ac57604051631afcd79f60e31b815260040160405180910390fd5b611e01612cda565b60005b8183101561252c576000612d428484612ba7565b60008781526020902090915065ffffffffffff86169082015465ffffffffffff161115612d7157809250612d7f565b612d7c816001613530565b93505b50612d2e565b600060208284031215612d9757600080fd5b81356001600160e01b031981168114610f5457600080fd5b60008060408385031215612dc257600080fd5b50508035926020909101359150565b6001600160a01b0381168114610f0f57600080fd5b803565ffffffffffff81168114612dfc57600080fd5b919050565b60008060008060808587031215612e1757600080fd5b8435612e2281612dd1565b9350602085013592506040850135612e3981612dd1565b9150612e4760608601612de6565b905092959194509250565b60005b83811015612e6d578181015183820152602001612e55565b50506000910152565b60008151808452612e8e816020860160208601612e52565b601f01601f19169290920160200192915050565b602081526000610f546020830184612e76565b60008060408385031215612ec857600080fd5b82359150612ed860208401612de6565b90509250929050565b634e487b7160e01b600052604160045260246000fd5b60405160a081016001600160401b0381118282101715612f1957612f19612ee1565b60405290565b604051606081016001600160401b0381118282101715612f1957612f19612ee1565b604051601f8201601f191681016001600160401b0381118282101715612f6957612f69612ee1565b604052919050565b60006001600160401b03821115612f8a57612f8a612ee1565b50601f01601f191660200190565b600082601f830112612fa957600080fd5b8135612fbc612fb782612f71565b612f41565b818152846020838601011115612fd157600080fd5b816020850160208301376000918101602001919091529392505050565b6000806000806080858703121561300457600080fd5b84359350602085013561301681612dd1565b925061302460408601612de6565b915060608501356001600160401b0381111561303f57600080fd5b61304b87828801612f98565b91505092959194509250565b6000806040838503121561306a57600080fd5b82356bffffffffffffffffffffffff8116811461308657600080fd5b946020939093013593505050565b6000602082840312156130a657600080fd5b5035919050565b600080604083850312156130c057600080fd5b8235915060208301356130d281612dd1565b809150509250929050565b6000602082840312156130ef57600080fd5b8135610f5481612dd1565b60008083601f84011261310c57600080fd5b5081356001600160401b0381111561312357600080fd5b60208301915083602082850101111561313b57600080fd5b9250929050565b6000806020838503121561315557600080fd5b82356001600160401b0381111561316b57600080fd5b613177858286016130fa565b90969095509350505050565b60008060006060848603121561319857600080fd5b833592506131a860208501612de6565b915060408401356001600160401b038111156131c357600080fd5b6131cf86828701612f98565b9150509250925092565b6000806000606084860312156131ee57600080fd5b83359250602084013561320081612dd1565b915061320e60408501612de6565b90509250925092565b60008060006040848603121561322c57600080fd5b833561323781612dd1565b925060208401356001600160401b0381111561325257600080fd5b61325e868287016130fa565b9497909650939450505050565b60008060006060848603121561328057600080fd5b83359250602084013561329281612dd1565b929592945050506040919091013590565b6000806000606084860312156132b857600080fd5b83356132c381612dd1565b92506020840135915061320e60408501612de6565b600080600080600060a086880312156132f057600080fd5b85359450602086013561330281612dd1565b93506040860135925061331760608701612de6565b915060808601356001600160401b0381111561333257600080fd5b61333e88828901612f98565b9150509295509295909350565b80518015158114612dfc57600080fd5b805163ffffffff81168114612dfc57600080fd5b6000806040838503121561338257600080fd5b61338b8361334b565b9150612ed86020840161335b565b6000602082840312156133ab57600080fd5b610f548261334b565b600082601f8301126133c557600080fd5b81516133d3612fb782612f71565b8181528460208386010111156133e857600080fd5b61092e826020830160208701612e52565b60006020828403121561340b57600080fd5b81516001600160401b0381111561342157600080fd5b61092e848285016133b4565b60006020828403121561343f57600080fd5b8151610f5481612dd1565b602081526000825160a0602084015261346660c0840182612e76565b90506020840151601f19808584030160408601526134848383612e76565b925060408601519150808584030160608601526134a18383612e76565b925060608601519150808584030160808601526134be8383612e76565b925060808601519150808584030160a0860152506109d58282612e76565b8183823760009101908152919050565b821515815260406020820152600061092e6040830184612e76565b634e487b7160e01b600052601160045260246000fd5b8181038181111561079857610798613507565b8082018082111561079857610798613507565b60006020828403121561355557600080fd5b81516001600160401b038082111561356c57600080fd5b908301906040828603121561358057600080fd5b60405160408101818110838211171561359b5761359b612ee1565b6040528251828111156135ad57600080fd5b6135b9878286016133b4565b8252506020830151828111156135ce57600080fd5b6135da878286016133b4565b60208301525095945050505050565b6001600160a01b0385811682528416602082015265ffffffffffff83166040820152608060608201819052600090611d6890830184612e76565b85815260018060a01b038516602082015283604082015265ffffffffffff8316606082015260a060808201526000612c5f60a0830184612e76565b808202811582820484141761079857610798613507565b634e487b7160e01b600052601260045260246000fd5b6000826136a857634e487b7160e01b600052601260045260246000fd5b500490565b634e487b7160e01b600052603260045260246000fd5b6001600160a01b038316815260406020820181905260009061092e90830184612e76565b600082516136f9818460208701612e52565b9190910192915050565b6000806040838503121561371657600080fd5b61371f8361334b565b915060208301516001600160401b0381111561373a57600080fd5b613746858286016133b4565b9150509250929050565b60006020828403121561376257600080fd5b610f548261335b565b63ffffffff818116838216019080821115611eba57611eba613507565b6000806040838503121561379b57600080fd5b82356137a681612dd1565b915060208301356001600160401b038111156137c157600080fd5b61374685828601612f98565b6000602082840312156137df57600080fd5b81516001600160401b03808211156137f657600080fd5b9083019060a0828603121561380a57600080fd5b613812612ef7565b82518281111561382157600080fd5b61382d878286016133b4565b82525060208301518281111561384257600080fd5b61384e878286016133b4565b60208301525060408301518281111561386657600080fd5b613872878286016133b4565b60408301525060608301518281111561388a57600080fd5b613896878286016133b4565b6060830152506080830151828111156138ae57600080fd5b6138ba878286016133b4565b60808301525095945050505050565b65ffffffffffff8316815260406020820152600061092e6040830184612e76565b6000602082840312156138fc57600080fd5b5051919050565b600082601f83011261391457600080fd5b815160206001600160401b0382111561392f5761392f612ee1565b8160051b61393e828201612f41565b928352848101820192828101908785111561395857600080fd5b83870192505b84831015612c5f57825161397181612dd1565b8252918301919083019061395e565b60006020828403121561399257600080fd5b81516001600160401b03808211156139a957600080fd5b9083019081850360a08112156139be57600080fd5b6139c6612f1f565b60608212156139d457600080fd5b6139dc612f1f565b915083516139e981612dd1565b825260208401516139f981612dd1565b60208301526040840151613a0c81612dd1565b604083015290815260608301519082821115613a2757600080fd5b613a3387838601613903565b60208201526080840151915082821115613a4c57600080fd5b613a5887838601613903565b6040820152969550505050505056fe02dd7bc7dec4dceedda775e58dd541e08a116c6c53815c0bd028192f7b6268009b779b17422d0df92223018b32b4d1fa46e071723d6817e2486d003becc55f00a26469706673582212207eec8a9ee7dfd83dbdcc8eebed395b18d6bf75f8af60bccd12243988e3f81e0764736f6c634300081900336101c060405234801561001157600080fd5b50604051613a0c380380613a0c8339810160408190526100309161016e565b3060805260008080808080808080808080808061004b6100a0565b6001600160a01b0391821660a0526001600160401b031660c05295861660e052505091831661010052821661012052811661014052988916610160525050505092841661018052509091166101a052506101b1565b7ff0c57e16840df040f15088dc2f81fe391c3923bec73e23a9662efc9c229c6a00805468010000000000000000900460ff16156100f05760405163f92ee8a960e01b815260040160405180910390fd5b80546001600160401b039081161461014f5780546001600160401b0319166001600160401b0390811782556040519081527fc7f505b2f371ae2175ee4913f4499e1f2633a7b5936321eed1cdaeb6115181d29060200160405180910390a15b50565b80516001600160a01b038116811461016957600080fd5b919050565b60008060006060848603121561018357600080fd5b61018c84610152565b925061019a60208501610152565b91506101a860408501610152565b90509250925092565b60805160a05160c05160e05161010051610120516101405161016051610180516101a0516137a161026b600039600061059601526000818161047f0152610c7e0152600081816105100152610c090152600081816103990152818161134901526116fd015260008181610343015281816112c001526116870152600081816102c30152611d050152600081816106170152610a52015260006105d8015260006103f90152600081816109d101526115e301526137a16000f3fe608060405234801561001057600080fd5b50600436106102695760003560e01c80635d32a1c911610151578063c0cd7c3e116100c3578063e49561ee11610087578063e49561ee14610692578063f7b05547146106a5578063fbfa77cf146106b8578063fd4d447c146106cb578063ff54740f146106de578063ffa1ad74146106e857600080fd5b8063c0cd7c3e14610612578063d15b740e14610639578063d547741f14610659578063da749d2b1461066c578063e02f69371461067f57600080fd5b806391d148541161011557806391d148541461056b57806394d2558a1461057e5780639b656b22146105915780639f86fd85146105b8578063a217fddf146105cb578063bb24fe8a146105d357600080fd5b80635d32a1c9146104d15780636679191e146104e457806379d896141461050b5780637d24bb27146105325780637f5a7c7b1461055857600080fd5b8063248a9ca3116101ea5780633dfd3873116101ae5780633dfd3873146104415780633eb22c0f14610454578063439fab911461046757806345e78fcb1461047a578063518504ba146104a1578063557cab44146104c857600080fd5b8063248a9ca3146103ce57806325dc9708146103e15780632dd31000146103f45780632f2ff15d1461041b57806336568abe1461042e57600080fd5b80631142209511610231578063114220951461031d578063128e5d821461033e578063197aa7ea146103655780631a80e5001461039457806323f752d5146103bb57600080fd5b806301ffc9a71461026e578063020cf0c21461029657806302145348146102ab578063103f2907146102be57806310a28b5d146102fd575b600080fd5b61028161027c366004612a8a565b6106ef565b60405190151581526020015b60405180910390f35b6102a96102a4366004612ac9565b610726565b005b6102a96102b9366004612b01565b6107f9565b6102e57f000000000000000000000000000000000000000000000000000000000000000081565b6040516001600160a01b03909116815260200161028d565b61031061030b366004612b3e565b6108d9565b60405161028d9190612bdf565b61033061032b366004612bf2565b610991565b60405190815260200161028d565b6102e57f000000000000000000000000000000000000000000000000000000000000000081565b610378610373366004612c22565b6109c3565b60408051921515835263ffffffff90911660208301520161028d565b6102e57f000000000000000000000000000000000000000000000000000000000000000081565b6102a96103c9366004612c4e565b610a35565b6103306103dc366004612c8b565b610ba5565b6103106103ef366004612b3e565b610bc7565b6102e57f000000000000000000000000000000000000000000000000000000000000000081565b6102a9610429366004612bf2565b610e2b565b6102a961043c366004612bf2565b610e4d565b6102a961044f366004612ca4565b610e85565b610330610462366004612c8b565b610f47565b6102a9610475366004612d09565b610f5e565b6102e57f000000000000000000000000000000000000000000000000000000000000000081565b6103307f15e7c882d74e8821ebf34aaff46fd0e1d53b9393d91490019124113d28dc32a381565b610330614e2081565b6103306104df366004612e57565b61106e565b6103307fd1c1f6fa6bf27d54c5e54c7c1dc6e5004d3c027ea1994fe68b29c1b51b69c36c81565b6102e57f000000000000000000000000000000000000000000000000000000000000000081565b6103307e8b9b1e5fa9cf3b14f87f435649268146305ddf689f082e5961a335b07a9abf81565b6001546102e5906001600160a01b031681565b610281610579366004612bf2565b611087565b61033061058c366004612ead565b6110bf565b6102e57f000000000000000000000000000000000000000000000000000000000000000081565b6102a96105c6366004612f16565b6110f5565b610330600081565b6105fa7f000000000000000000000000000000000000000000000000000000000000000081565b6040516001600160401b03909116815260200161028d565b6102e57f000000000000000000000000000000000000000000000000000000000000000081565b610330610647366004612c8b565b60026020526000908152604090205481565b6102a9610667366004612bf2565b611185565b61031061067a366004612f6a565b6111a1565b61033061068d366004612ead565b61124c565b6102a96106a0366004612fa8565b611406565b6103786106b336600461301b565b6115d5565b6000546102e5906001600160a01b031681565b6103306106d9366004612bf2565b61165c565b6103306203d09081565b60016105fa565b60006001600160e01b03198216637965db0b60e01b148061072057506301ffc9a760e01b6001600160e01b03198316145b92915050565b7f15e7c882d74e8821ebf34aaff46fd0e1d53b9393d91490019124113d28dc32a3610750816117bd565b8161075b8585610991565b036107795760405163a741a04560e01b815260040160405180910390fd5b6107ad6107846117c7565b60008681526004602090815260408083206001600160a01b0389168452909152902090846117d7565b5050826001600160a01b0316847ffc9545f07ffadfb668efd0144cdcaf2d6e2c8192dce1ea9fc131934f9c90fc7e846040516107eb91815260200190565b60405180910390a350505050565b7e8b9b1e5fa9cf3b14f87f435649268146305ddf689f082e5961a335b07a9abf610822816117bd565b60008381526002602052604090205482111561085157604051631eefc06360e31b815260040160405180910390fd5b8161085b84610f47565b036108795760405163a741a04560e01b815260040160405180910390fd5b6108996108846117c7565b600085815260036020526040902090846117d7565b5050827e899d104fc3d8820bd96540612bcc5c448c8837b13b9f7faa43ad0728f0c14f836040516108cc91815260200190565b60405180910390a2505050565b604051602481018490526001600160a01b038316604482015265ffffffffffff82166064820152606090600090819061094090889060840160408051601f198184030181529190526020810180516001600160e01b031663f7b0554760e01b1790526118b1565b8060200190518101906109539190613074565b915091508115610986576040805163ffffffff831660208201520160405160208183030381529060405292505050610989565b50505b949350505050565b60008281526004602090815260408083206001600160a01b038516845290915281206109bc90611981565b9392505050565b600080336001600160a01b037f00000000000000000000000000000000000000000000000000000000000000001614610a0f57604051637ca475e560e11b815260040160405180910390fd5b6000848152600360205260409020610a2790846119d7565b929792965091945050505050565b610a3d611b06565b6040516302910f8b60e31b81523360048201527f00000000000000000000000000000000000000000000000000000000000000006001600160a01b0316906314887c5890602401602060405180830381865afa158015610aa1573d6000803e3d6000fd5b505050506040513d601f19601f82011682018060405250810190610ac5919061309e565b610ae2576040516323d53b9760e21b815260040160405180910390fd5b6bffffffffffffffffffffffff82163360601b6bffffffffffffffffffffffff191617600081815260026020526040902054829003610b345760405163a741a04560e01b815260040160405180910390fd5b6000818152600260205260409020829055610b4f8183611b3e565b807fc67e7929681aa1bccd63f52b3799bf5805f3009f197db6fdf584b14f7fbf608c83604051610b8191815260200190565b60405180910390a250610ba1600160008051602061374c83398151915255565b5050565b600090815260008051602061372c833981519152602052604090206001015490565b604051630df8851f60e11b81526001600160a01b03858116600483015260248201859052838116604483015265ffffffffffff831660648301526060916000917f00000000000000000000000000000000000000000000000000000000000000001690631bf10a3e90608401600060405180830381865afa158015610c50573d6000803e3d6000fd5b505050506040513d6000823e601f3d908101601f19168201604052610c7891908101906130fe565b905060007f00000000000000000000000000000000000000000000000000000000000000006001600160a01b03166364b03fdc886001600160a01b031663fbfa77cf6040518163ffffffff1660e01b8152600401602060405180830381865afa158015610ce9573d6000803e3d6000fd5b505050506040513d601f19601f82011682018060405250810190610d0d9190613132565b6040516001600160e01b031960e084901b1681526001600160a01b03909116600482015265ffffffffffff87166024820152604401600060405180830381865afa158015610d5f573d6000803e3d6000fd5b505050506040513d6000823e601f3d908101601f19168201604052610d8791908101906130fe565b90506000610d968888876111a1565b90506000610da6898989896108d9565b905083516000141580610db95750825115155b80610dc45750815115155b80610dcf5750805115155b15610e1f57604051806080016040528085815260200184815260200183815260200182815250604051602001610e05919061314f565b604051602081830303815290604052945050505050610989565b50505050949350505050565b610e3482610ba5565b610e3d816117bd565b610e478383611ba9565b50505050565b6001600160a01b0381163314610e765760405163334bd91960e11b815260040160405180910390fd5b610e808282611c55565b505050565b610e8d611b06565b7fd1c1f6fa6bf27d54c5e54c7c1dc6e5004d3c027ea1994fe68b29c1b51b69c36c610eb7816117bd565b6001546001600160a01b03808416911603610ee55760405163a741a04560e01b815260040160405180910390fd5b600180546001600160a01b0319166001600160a01b0384169081179091556040517f5bbb1d3ebb6a3ad2a0f17ff35e579a83af60604d1d3c2a4c83c62adecadf666d90600090a250610f44600160008051602061374c83398151915255565b50565b600081815260036020526040812061072090611981565b7ff0c57e16840df040f15088dc2f81fe391c3923bec73e23a9662efc9c229c6a008054600160401b810460ff1615906001600160401b0316600081158015610fa35750825b90506000826001600160401b03166001148015610fbf5750303b155b905081158015610fcd575080155b15610feb5760405163f92ee8a960e01b815260040160405180910390fd5b845467ffffffffffffffff19166001178555831561101557845460ff60401b1916600160401b1785555b61101f8787611cd1565b831561106557845460ff60401b19168555604051600181527fc7f505b2f371ae2175ee4913f4499e1f2633a7b5936321eed1cdaeb6115181d29060200160405180910390a15b50505050505050565b6000838152600360205260408120610989908484611e39565b600091825260008051602061372c833981519152602090815260408084206001600160a01b0393909316845291905290205460ff1690565b60008481526004602090815260408083206001600160a01b038716845290915281206110ec908484611e39565b95945050505050565b600080846001600160a01b031684846040516111129291906131c4565b600060405180830381855af49150503d806000811461114d576040519150601f19603f3d011682016040523d82523d6000602084013e611152565b606091505b50915091506000828260405160200161116c9291906131d4565b6040516020818303038152906040529050805181602001fd5b61118e82610ba5565b611197816117bd565b610e478383611c55565b60606000806111fd8686866040516024016111ce92919091825265ffffffffffff16602082015260400190565b60408051601f198184030181529190526020810180516001600160e01b0316630cbd53f560e11b1790526118b1565b8060200190518101906112109190613074565b915091508115611243576040805163ffffffff8316602082015201604051602081830303815290604052925050506109bc565b50509392505050565b600080600061125d87878787611f2a565b9150915061127e604051806040016040528060608152602001606081525090565b81511561129c578180602001905181019061129991906131ef565b90505b8215806113415750600054815160405163530e1d4360e01b81526001600160a01b037f000000000000000000000000000000000000000000000000000000000000000081169363530e1d43936112fe938d9392909216918c9190600401613295565b602060405180830381865afa15801561131b573d6000803e3d6000fd5b505050506040513d601f19601f8201168201806040525081019061133f919061309e565b155b806113e957507f00000000000000000000000000000000000000000000000000000000000000006001600160a01b031663530e1d43886113818b60601c90565b8985602001516040518563ffffffff1660e01b81526004016113a69493929190613295565b602060405180830381865afa1580156113c3573d6000803e3d6000fd5b505050506040513d601f19601f820116820180604052508101906113e7919061309e565b155b156113fa5760009350505050610989565b50909695505050505050565b61140e611b06565b60008054906101000a90046001600160a01b03166001600160a01b031663b13442716040518163ffffffff1660e01b8152600401602060405180830381865afa15801561145f573d6000803e3d6000fd5b505050506040513d601f19601f820116820180604052508101906114839190613132565b6001600160a01b0316336001600160a01b0316146114b45760405163dabc4ad960e01b815260040160405180910390fd5b6001546001600160a01b0316801561156957600086868686866040516024016114e19594939291906132cf565b60408051601f198184030181529181526020820180516001600160e01b031663724ab0f760e11b179052909150603f9061151f906203d09090613320565b611529919061334d565b61153590614e2061336f565b5a101561155557604051638072475160e01b815260040160405180910390fd5b6000808251602084016000866203d090f150505b6040805185815265ffffffffffff851660208201526001600160a01b0387169188917f741a5de99085c0d660f3e4192217b0ffb0ea4e35a0480de48e857a4bc3ee36ed910160405180910390a3506115ce600160008051602061374c83398151915255565b5050505050565b600080336001600160a01b037f0000000000000000000000000000000000000000000000000000000000000000161461162157604051637ca475e560e11b815260040160405180910390fd5b60008581526004602090815260408083206001600160a01b0388168452909152902061164d90846119d7565b92989297509195505050505050565b600080546040516308834cb560e21b81526001600160a01b03848116600483015291821660248201527f00000000000000000000000000000000000000000000000000000000000000009091169063220d32d490604401602060405180830381865afa1580156116d0573d6000803e3d6000fd5b505050506040513d601f19601f820116820180604052508101906116f4919061309e565b15806117a657507f00000000000000000000000000000000000000000000000000000000000000006001600160a01b031663220d32d4836117358660601c90565b6040516001600160e01b031960e085901b1681526001600160a01b03928316600482015291166024820152604401602060405180830381865afa158015611780573d6000803e3d6000fd5b505050506040513d601f19601f820116820180604052508101906117a4919061309e565b155b156117b357506000610720565b6109bc8383612025565b610f4481336120ab565b60006117d2426120e9565b905090565b60018301546000908190810361180157600180860180549182018155600090815260208120909101555b60008061180d87612120565b5060018901549193509150600061182389611981565b905083801561184157508265ffffffffffff168865ffffffffffff16145b156118795786896001016001846118589190613382565b8154811061186857611868613395565b6000918252602090912001556118a0565b61188489898461219a565b50506001808a0180549182018155600090815260209020018790555b94508593505050505b935093915050565b60606000836001600160a01b031630846040516024016118d29291906133ab565b60408051601f198184030181529181526020820180516001600160e01b0316639f86fd8560e01b1790525161190791906133cf565b600060405180830381855afa9150503d8060008114611942576040519150601f19603f3d011682016040523d82523d6000602084013e611947565b606091505b509150506000808280602001905181019061196291906133eb565b91509150816110ec57805160000361197957600080fd5b805181602001fd5b60008061198d836121b4565b90506000816001600160d01b0316116119a75760006109bc565b82600101816001600160d01b0316815481106119c5576119c5613395565b90600052602060002001549392505050565b815460009081908190819081816005811115611a3c5760006119f8846121ed565b611a029085613382565b60008b81526020902090915081015465ffffffffffff908116908a161015611a2c57809150611a3a565b611a3781600161336f565b92505b505b6000611a4a8a8a85856122d5565b905080600003611a6b57600080600080975097509750975050505050611afd565b6000611a8a8b611a7c600185613382565b600091825260209091200190565b60408051808201909152905465ffffffffffff8116808352600160301b9091046001600160d01b03166020830181905260018e8101805494955090939091908110611ad757611ad7613395565b9060005260206000200154600185611aef9190613382565b985098509850985050505050505b92959194509250565b60008051602061374c833981519152805460011901611b3857604051633ee5aeb560e01b815260040160405180910390fd5b60029055565b60008281526003602052604081208190611b5790612337565b9250509150818015611b6857508281115b15610e4757611b8d611b786117c7565b600086815260036020526040902090856117d7565b505050505050565b600160008051602061374c83398151915255565b600060008051602061372c833981519152611bc48484611087565b611c44576000848152602082815260408083206001600160a01b03871684529091529020805460ff19166001179055611bfa3390565b6001600160a01b0316836001600160a01b0316857f2f8788117e7eff1d82e926ec794901d17c78024a50270940304540a733656f0d60405160405180910390a46001915050610720565b6000915050610720565b5092915050565b600060008051602061372c833981519152611c708484611087565b15611c44576000848152602082815260408083206001600160a01b0387168085529252808320805460ff1916905551339287917ff6391f5c32d9c69d2a47ea670b442974b53935d1edc7fd64eb21e047a839171b9190a46001915050610720565b600080611ce083850185613438565b6040516302910f8b60e31b81526001600160a01b0380841660048301529294509092507f0000000000000000000000000000000000000000000000000000000000000000909116906314887c5890602401602060405180830381865afa158015611d4e573d6000803e3d6000fd5b505050506040513d601f19601f82011682018060405250810190611d72919061309e565b611d8f576040516362df054560e01b815260040160405180910390fd5b611d9761238b565b600080546001600160a01b0319166001600160a01b038416178155611dbc838361239d565b6020810151600180546001600160a01b0319166001600160a01b0392831617905581519192501615611df8578051611df690600090611ba9565b505b60408101516001600160a01b0316156115ce57611b8d7fd1c1f6fa6bf27d54c5e54c7c1dc6e5004d3c027ea1994fe68b29c1b51b69c36c8260400151611ba9565b60008151600003611e5557611e4e84846125ae565b90506109bc565b600082806020019051810190611e6b919061347d565b90506000611e798683612606565b90508465ffffffffffff16816000015165ffffffffffff1603611ea3576020015191506109bc9050565b805165ffffffffffff8087169116108015611f0457506001611ec48761267e565b611ece9190613382565b8263ffffffff161480611f04575065ffffffffffff8516611ef987611ef4856001613498565b612606565b5165ffffffffffff16115b15611f16576020015191506109bc9050565b611f2086866125ae565b9695505050505050565b60006060611f596040518060800160405280606081526020016060815260200160608152602001606081525090565b835115611f775783806020019051810190611f7491906134b5565b90505b600054602082015160405163810da75d60e01b8152612016926001600160a01b03169163810da75d91611fae918a9160040161358d565b602060405180830381865afa158015611fcb573d6000803e3d6000fd5b505050506040513d601f19601f82011682018060405250810190611fef91906135ae565b6120116120018a89866040015161106e565b6120118b8b8b88606001516110bf565b612688565b90519097909650945050505050565b600080546040805163bd49c35f60e01b815290516109bc926001600160a01b03169163bd49c35f9160048083019260209291908290030181865afa158015612071573d6000803e3d6000fd5b505050506040513d601f19601f8201168201806040525081019061209591906135ae565b6120116120a186610f47565b6120118787610991565b6120b58282611087565b610ba15760405163e2517d3f60e01b81526001600160a01b0382166004820152602481018390526044015b60405180910390fd5b600065ffffffffffff82111561211c576040516306dfcc6560e41b815260306004820152602481018390526044016120e0565b5090565b80546000908190819080820361214157600080600093509350935050612193565b600061215286611a7c600185613382565b60408051808201909152905465ffffffffffff8116808352600160301b9091046001600160d01b031660209092018290526001965094509250612193915050565b9193909250565b6000806121a885858561269e565b91509150935093915050565b805460009080156121e4576121ce83611a7c600184613382565b54600160301b90046001600160d01b03166109bc565b60009392505050565b6000816000036121ff57506000919050565b6000600161220c84612818565b901c6001901b9050600181848161222557612225613337565b048201901c9050600181848161223d5761223d613337565b048201901c9050600181848161225557612255613337565b048201901c9050600181848161226d5761226d613337565b048201901c9050600181848161228557612285613337565b048201901c9050600181848161229d5761229d613337565b048201901c905060018184816122b5576122b5613337565b048201901c90506109bc818285816122cf576122cf613337565b04612688565b60005b8183101561232f5760006122ec84846128ac565b60008781526020902090915065ffffffffffff86169082015465ffffffffffff16111561231b57809250612329565b61232681600161336f565b93505b506122d8565b509392505050565b600080808061234585612120565b91955093506001600160d01b0316905083612361576000612382565b84600101818154811061237657612376613395565b90600052602060002001545b93959294505050565b6123936128c7565b61239b612910565b565b60408051606081018252600080825260208201819052918101919091526000828060200190518101906123d09190613644565b8051519091506001600160a01b03161580156123fc575060208101515115806123fc5750604081015151155b1561241a576040516303501f5960e11b815260040160405180910390fd5b60005b8160200151518110156124e55760006001600160a01b03168260200151828151811061244b5761244b613395565b60200260200101516001600160a01b03160361247a576040516323cda06760e01b815260040160405180910390fd5b6124c07e8b9b1e5fa9cf3b14f87f435649268146305ddf689f082e5961a335b07a9abf836020015183815181106124b3576124b3613395565b6020026020010151611ba9565b6124dd57604051635140fefd60e11b815260040160405180910390fd5b60010161241d565b5060005b8160400151518110156125a55760006001600160a01b03168260400151828151811061251757612517613395565b60200260200101516001600160a01b031603612546576040516323cda06760e01b815260040160405180910390fd5b6125807f15e7c882d74e8821ebf34aaff46fd0e1d53b9393d91490019124113d28dc32a3836040015183815181106124b3576124b3613395565b61259d57604051635140fefd60e11b815260040160405180910390fd5b6001016124e9565b50519392505050565b6000806125bb8484612918565b90506000816001600160d01b0316116125d5576000610989565b83600101816001600160d01b0316815481106125f3576125f3613395565b9060005260206000200154949350505050565b6040805180820190915260008082526020820152600061262684846129c0565b90506040518060400160405280826000015165ffffffffffff1681526020018560010183602001516001600160d01b03168154811061266757612667613395565b906000526020600020015481525091505092915050565b6000610720825490565b600081831061269757816109bc565b5090919050565b8254600090819080156127bd5760006126bc87611a7c600185613382565b60408051808201909152905465ffffffffffff808216808452600160301b9092046001600160d01b03166020840152919250908716101561271057604051632520601d60e01b815260040160405180910390fd5b805165ffffffffffff80881691160361275c578461273388611a7c600186613382565b80546001600160d01b0392909216600160301b0265ffffffffffff9092169190911790556127ad565b6040805180820190915265ffffffffffff80881682526001600160d01b0380881660208085019182528b54600181018d5560008d81529190912094519151909216600160301b029216919091179101555b6020015192508391506118a99050565b50506040805180820190915265ffffffffffff80851682526001600160d01b0380851660208085019182528854600181018a5560008a815291822095519251909316600160301b0291909316179201919091559050816118a9565b600080608083901c1561282d57608092831c92015b604083901c1561283f57604092831c92015b602083901c1561285157602092831c92015b601083901c1561286357601092831c92015b600883901c1561287557600892831c92015b600483901c1561288757600492831c92015b600283901c1561289957600292831c92015b600183901c156107205760010192915050565b60006128bb600284841861334d565b6109bc9084841661336f565b7ff0c57e16840df040f15088dc2f81fe391c3923bec73e23a9662efc9c229c6a0054600160401b900460ff1661239b57604051631afcd79f60e31b815260040160405180910390fd5b611b956128c7565b815460009081816005811115612977576000612933846121ed565b61293d9085613382565b60008881526020902090915081015465ffffffffffff908116908716101561296757809150612975565b61297281600161336f565b92505b505b600061298587878585612a30565b905080156129b25761299c87611a7c600184613382565b54600160301b90046001600160d01b03166129b5565b60005b979650505050505050565b6040805180820190915260008082526020820152826000018263ffffffff16815481106129ef576129ef613395565b60009182526020918290206040805180820190915291015465ffffffffffff81168252600160301b90046001600160d01b0316918101919091529392505050565b60005b8183101561232f576000612a4784846128ac565b60008781526020902090915065ffffffffffff86169082015465ffffffffffff161115612a7657809250612a84565b612a8181600161336f565b93505b50612a33565b600060208284031215612a9c57600080fd5b81356001600160e01b0319811681146109bc57600080fd5b6001600160a01b0381168114610f4457600080fd5b600080600060608486031215612ade57600080fd5b833592506020840135612af081612ab4565b929592945050506040919091013590565b60008060408385031215612b1457600080fd5b50508035926020909101359150565b803565ffffffffffff81168114612b3957600080fd5b919050565b60008060008060808587031215612b5457600080fd5b8435612b5f81612ab4565b9350602085013592506040850135612b7681612ab4565b9150612b8460608601612b23565b905092959194509250565b60005b83811015612baa578181015183820152602001612b92565b50506000910152565b60008151808452612bcb816020860160208601612b8f565b601f01601f19169290920160200192915050565b6020815260006109bc6020830184612bb3565b60008060408385031215612c0557600080fd5b823591506020830135612c1781612ab4565b809150509250929050565b60008060408385031215612c3557600080fd5b82359150612c4560208401612b23565b90509250929050565b60008060408385031215612c6157600080fd5b82356bffffffffffffffffffffffff81168114612c7d57600080fd5b946020939093013593505050565b600060208284031215612c9d57600080fd5b5035919050565b600060208284031215612cb657600080fd5b81356109bc81612ab4565b60008083601f840112612cd357600080fd5b5081356001600160401b03811115612cea57600080fd5b602083019150836020828501011115612d0257600080fd5b9250929050565b60008060208385031215612d1c57600080fd5b82356001600160401b03811115612d3257600080fd5b612d3e85828601612cc1565b90969095509350505050565b634e487b7160e01b600052604160045260246000fd5b604051608081016001600160401b0381118282101715612d8257612d82612d4a565b60405290565b604051606081016001600160401b0381118282101715612d8257612d82612d4a565b604051601f8201601f191681016001600160401b0381118282101715612dd257612dd2612d4a565b604052919050565b60006001600160401b03821115612df357612df3612d4a565b50601f01601f191660200190565b600082601f830112612e1257600080fd5b8135612e25612e2082612dda565b612daa565b818152846020838601011115612e3a57600080fd5b816020850160208301376000918101602001919091529392505050565b600080600060608486031215612e6c57600080fd5b83359250612e7c60208501612b23565b915060408401356001600160401b03811115612e9757600080fd5b612ea386828701612e01565b9150509250925092565b60008060008060808587031215612ec357600080fd5b843593506020850135612ed581612ab4565b9250612ee360408601612b23565b915060608501356001600160401b03811115612efe57600080fd5b612f0a87828801612e01565b91505092959194509250565b600080600060408486031215612f2b57600080fd5b8335612f3681612ab4565b925060208401356001600160401b03811115612f5157600080fd5b612f5d86828701612cc1565b9497909650939450505050565b600080600060608486031215612f7f57600080fd5b8335612f8a81612ab4565b925060208401359150612f9f60408501612b23565b90509250925092565b600080600080600060a08688031215612fc057600080fd5b853594506020860135612fd281612ab4565b935060408601359250612fe760608701612b23565b915060808601356001600160401b0381111561300257600080fd5b61300e88828901612e01565b9150509295509295909350565b60008060006060848603121561303057600080fd5b83359250602084013561304281612ab4565b9150612f9f60408501612b23565b80518015158114612b3957600080fd5b805163ffffffff81168114612b3957600080fd5b6000806040838503121561308757600080fd5b61309083613050565b9150612c4560208401613060565b6000602082840312156130b057600080fd5b6109bc82613050565b600082601f8301126130ca57600080fd5b81516130d8612e2082612dda565b8181528460208386010111156130ed57600080fd5b610989826020830160208701612b8f565b60006020828403121561311057600080fd5b81516001600160401b0381111561312657600080fd5b610989848285016130b9565b60006020828403121561314457600080fd5b81516109bc81612ab4565b60208152600082516080602084015261316b60a0840182612bb3565b90506020840151601f19808584030160408601526131898383612bb3565b925060408601519150808584030160608601526131a68383612bb3565b92506060860151915080858403016080860152506110ec8282612bb3565b8183823760009101908152919050565b82151581526040602082015260006109896040830184612bb3565b60006020828403121561320157600080fd5b81516001600160401b038082111561321857600080fd5b908301906040828603121561322c57600080fd5b60405160408101818110838211171561324757613247612d4a565b60405282518281111561325957600080fd5b613265878286016130b9565b82525060208301518281111561327a57600080fd5b613286878286016130b9565b60208301525095945050505050565b6001600160a01b0385811682528416602082015265ffffffffffff83166040820152608060608201819052600090611f2090830184612bb3565b85815260018060a01b038516602082015283604082015265ffffffffffff8316606082015260a0608082015260006129b560a0830184612bb3565b634e487b7160e01b600052601160045260246000fd5b80820281158282048414176107205761072061330a565b634e487b7160e01b600052601260045260246000fd5b60008261336a57634e487b7160e01b600052601260045260246000fd5b500490565b808201808211156107205761072061330a565b818103818111156107205761072061330a565b634e487b7160e01b600052603260045260246000fd5b6001600160a01b038316815260406020820181905260009061098990830184612bb3565b600082516133e1818460208701612b8f565b9190910192915050565b600080604083850312156133fe57600080fd5b61340783613050565b915060208301516001600160401b0381111561342257600080fd5b61342e858286016130b9565b9150509250929050565b6000806040838503121561344b57600080fd5b823561345681612ab4565b915060208301356001600160401b0381111561347157600080fd5b61342e85828601612e01565b60006020828403121561348f57600080fd5b6109bc82613060565b63ffffffff818116838216019080821115611c4e57611c4e61330a565b6000602082840312156134c757600080fd5b81516001600160401b03808211156134de57600080fd5b90830190608082860312156134f257600080fd5b6134fa612d60565b82518281111561350957600080fd5b613515878286016130b9565b82525060208301518281111561352a57600080fd5b613536878286016130b9565b60208301525060408301518281111561354e57600080fd5b61355a878286016130b9565b60408301525060608301518281111561357257600080fd5b61357e878286016130b9565b60608301525095945050505050565b65ffffffffffff831681526040602082015260006109896040830184612bb3565b6000602082840312156135c057600080fd5b5051919050565b600082601f8301126135d857600080fd5b815160206001600160401b038211156135f3576135f3612d4a565b8160051b613602828201612daa565b928352848101820192828101908785111561361c57600080fd5b83870192505b848310156129b557825161363581612ab4565b82529183019190830190613622565b60006020828403121561365657600080fd5b81516001600160401b038082111561366d57600080fd5b9083019081850360a081121561368257600080fd5b61368a612d88565b606082121561369857600080fd5b6136a0612d88565b915083516136ad81612ab4565b825260208401516136bd81612ab4565b602083015260408401516136d081612ab4565b6040830152908152606083015190828211156136eb57600080fd5b6136f7878386016135c7565b6020820152608084015191508282111561371057600080fd5b61371c878386016135c7565b6040820152969550505050505056fe02dd7bc7dec4dceedda775e58dd541e08a116c6c53815c0bd028192f7b6268009b779b17422d0df92223018b32b4d1fa46e071723d6817e2486d003becc55f00a26469706673582212208588651eb355330a3ffc022a4542310dfed188376214da9631bd29625a28ad0f64736f6c63430008190033","linkReferences":{}},"methodIdentifiers":{"DEFAULT_ADMIN_ROLE()":"a217fddf","FACTORY()":"2dd31000","FULL_RESTAKE_DELEGATOR_HINTS()":"e102831a","HOOK_GAS_LIMIT()":"ff54740f","HOOK_RESERVE()":"557cab44","HOOK_SET_ROLE()":"6679191e","NETWORK_REGISTRY()":"c0cd7c3e","NETWORK_RESTAKE_DELEGATOR_HINTS()":"075db036","OPERATOR_NETWORK_OPT_IN_SERVICE()":"1a80e500","OPERATOR_VAULT_OPT_IN_SERVICE()":"128e5d82","OPT_IN_SERVICE_HINTS()":"9b656b22","TYPE()":"bb24fe8a","VAULT_FACTORY()":"103f2907","VERSION()":"ffa1ad74","getRoleAdmin(bytes32)":"248a9ca3","grantRole(bytes32,address)":"2f2ff15d","hasRole(bytes32,address)":"91d14854","hook()":"7f5a7c7b","initialize(bytes)":"439fab91","maxNetworkLimit(bytes32)":"d15b740e","onSlash(bytes32,address,uint256,uint48,bytes)":"e49561ee","renounceRole(bytes32,address)":"36568abe","revokeRole(bytes32,address)":"d547741f","setHook(address)":"3dfd3873","setMaxNetworkLimit(uint96,uint256)":"23f752d5","stake(bytes32,address)":"fd4d447c","stakeAt(bytes32,address,uint48,bytes)":"e02f6937","stakeBaseHints(address,bytes32,address,uint48)":"1bf10a3e","stakeHints(address,bytes32,address,uint48)":"25dc9708","staticDelegateCall(address,bytes)":"9f86fd85","supportsInterface(bytes4)":"01ffc9a7","vault()":"fbfa77cf"},"id":54}