{"abi":[{"type":"constructor","inputs":[{"name":"networkRegistry","type":"address","internalType":"address"},{"name":"vaultFactory","type":"address","internalType":"address"},{"name":"operatorVaultOptInService","type":"address","internalType":"address"},{"name":"operatorNetworkOptInService","type":"address","internalType":"address"},{"name":"delegatorFactory","type":"address","internalType":"address"},{"name":"entityType","type":"uint64","internalType":"uint64"}],"stateMutability":"nonpayable"},{"type":"function","name":"DEFAULT_ADMIN_ROLE","inputs":[],"outputs":[{"name":"","type":"bytes32","internalType":"bytes32"}],"stateMutability":"view"},{"type":"function","name":"FACTORY","inputs":[],"outputs":[{"name":"","type":"address","internalType":"address"}],"stateMutability":"view"},{"type":"function","name":"HOOK_GAS_LIMIT","inputs":[],"outputs":[{"name":"","type":"uint256","internalType":"uint256"}],"stateMutability":"view"},{"type":"function","name":"HOOK_RESERVE","inputs":[],"outputs":[{"name":"","type":"uint256","internalType":"uint256"}],"stateMutability":"view"},{"type":"function","name":"HOOK_SET_ROLE","inputs":[],"outputs":[{"name":"","type":"bytes32","internalType":"bytes32"}],"stateMutability":"view"},{"type":"function","name":"NETWORK_LIMIT_SET_ROLE","inputs":[],"outputs":[{"name":"","type":"bytes32","internalType":"bytes32"}],"stateMutability":"view"},{"type":"function","name":"NETWORK_REGISTRY","inputs":[],"outputs":[{"name":"","type":"address","internalType":"address"}],"stateMutability":"view"},{"type":"function","name":"OPERATOR_NETWORK_LIMIT_SET_ROLE","inputs":[],"outputs":[{"name":"","type":"bytes32","internalType":"bytes32"}],"stateMutability":"view"},{"type":"function","name":"OPERATOR_NETWORK_OPT_IN_SERVICE","inputs":[],"outputs":[{"name":"","type":"address","internalType":"address"}],"stateMutability":"view"},{"type":"function","name":"OPERATOR_VAULT_OPT_IN_SERVICE","inputs":[],"outputs":[{"name":"","type":"address","internalType":"address"}],"stateMutability":"view"},{"type":"function","name":"TYPE","inputs":[],"outputs":[{"name":"","type":"uint64","internalType":"uint64"}],"stateMutability":"view"},{"type":"function","name":"VAULT_FACTORY","inputs":[],"outputs":[{"name":"","type":"address","internalType":"address"}],"stateMutability":"view"},{"type":"function","name":"VERSION","inputs":[],"outputs":[{"name":"","type":"uint64","internalType":"uint64"}],"stateMutability":"pure"},{"type":"function","name":"getRoleAdmin","inputs":[{"name":"role","type":"bytes32","internalType":"bytes32"}],"outputs":[{"name":"","type":"bytes32","internalType":"bytes32"}],"stateMutability":"view"},{"type":"function","name":"grantRole","inputs":[{"name":"role","type":"bytes32","internalType":"bytes32"},{"name":"account","type":"address","internalType":"address"}],"outputs":[],"stateMutability":"nonpayable"},{"type":"function","name":"hasRole","inputs":[{"name":"role","type":"bytes32","internalType":"bytes32"},{"name":"account","type":"address","internalType":"address"}],"outputs":[{"name":"","type":"bool","internalType":"bool"}],"stateMutability":"view"},{"type":"function","name":"hook","inputs":[],"outputs":[{"name":"","type":"address","internalType":"address"}],"stateMutability":"view"},{"type":"function","name":"initialize","inputs":[{"name":"data","type":"bytes","internalType":"bytes"}],"outputs":[],"stateMutability":"nonpayable"},{"type":"function","name":"maxNetworkLimit","inputs":[{"name":"subnetwork","type":"bytes32","internalType":"bytes32"}],"outputs":[{"name":"value","type":"uint256","internalType":"uint256"}],"stateMutability":"view"},{"type":"function","name":"networkLimit","inputs":[{"name":"subnetwork","type":"bytes32","internalType":"bytes32"}],"outputs":[{"name":"","type":"uint256","internalType":"uint256"}],"stateMutability":"view"},{"type":"function","name":"networkLimitAt","inputs":[{"name":"subnetwork","type":"bytes32","internalType":"bytes32"},{"name":"timestamp","type":"uint48","internalType":"uint48"},{"name":"hint","type":"bytes","internalType":"bytes"}],"outputs":[{"name":"","type":"uint256","internalType":"uint256"}],"stateMutability":"view"},{"type":"function","name":"onSlash","inputs":[{"name":"subnetwork","type":"bytes32","internalType":"bytes32"},{"name":"operator","type":"address","internalType":"address"},{"name":"amount","type":"uint256","internalType":"uint256"},{"name":"captureTimestamp","type":"uint48","internalType":"uint48"},{"name":"data","type":"bytes","internalType":"bytes"}],"outputs":[],"stateMutability":"nonpayable"},{"type":"function","name":"operatorNetworkLimit","inputs":[{"name":"subnetwork","type":"bytes32","internalType":"bytes32"},{"name":"operator","type":"address","internalType":"address"}],"outputs":[{"name":"","type":"uint256","internalType":"uint256"}],"stateMutability":"view"},{"type":"function","name":"operatorNetworkLimitAt","inputs":[{"name":"subnetwork","type":"bytes32","internalType":"bytes32"},{"name":"operator","type":"address","internalType":"address"},{"name":"timestamp","type":"uint48","internalType":"uint48"},{"name":"hint","type":"bytes","internalType":"bytes"}],"outputs":[{"name":"","type":"uint256","internalType":"uint256"}],"stateMutability":"view"},{"type":"function","name":"renounceRole","inputs":[{"name":"role","type":"bytes32","internalType":"bytes32"},{"name":"callerConfirmation","type":"address","internalType":"address"}],"outputs":[],"stateMutability":"nonpayable"},{"type":"function","name":"revokeRole","inputs":[{"name":"role","type":"bytes32","internalType":"bytes32"},{"name":"account","type":"address","internalType":"address"}],"outputs":[],"stateMutability":"nonpayable"},{"type":"function","name":"setHook","inputs":[{"name":"hook_","type":"address","internalType":"address"}],"outputs":[],"stateMutability":"nonpayable"},{"type":"function","name":"setMaxNetworkLimit","inputs":[{"name":"identifier","type":"uint96","internalType":"uint96"},{"name":"amount","type":"uint256","internalType":"uint256"}],"outputs":[],"stateMutability":"nonpayable"},{"type":"function","name":"setNetworkLimit","inputs":[{"name":"subnetwork","type":"bytes32","internalType":"bytes32"},{"name":"amount","type":"uint256","internalType":"uint256"}],"outputs":[],"stateMutability":"nonpayable"},{"type":"function","name":"setOperatorNetworkLimit","inputs":[{"name":"subnetwork","type":"bytes32","internalType":"bytes32"},{"name":"operator","type":"address","internalType":"address"},{"name":"amount","type":"uint256","internalType":"uint256"}],"outputs":[],"stateMutability":"nonpayable"},{"type":"function","name":"stake","inputs":[{"name":"subnetwork","type":"bytes32","internalType":"bytes32"},{"name":"operator","type":"address","internalType":"address"}],"outputs":[{"name":"","type":"uint256","internalType":"uint256"}],"stateMutability":"view"},{"type":"function","name":"stakeAt","inputs":[{"name":"subnetwork","type":"bytes32","internalType":"bytes32"},{"name":"operator","type":"address","internalType":"address"},{"name":"timestamp","type":"uint48","internalType":"uint48"},{"name":"hints","type":"bytes","internalType":"bytes"}],"outputs":[{"name":"","type":"uint256","internalType":"uint256"}],"stateMutability":"view"},{"type":"function","name":"staticDelegateCall","inputs":[{"name":"target","type":"address","internalType":"address"},{"name":"data","type":"bytes","internalType":"bytes"}],"outputs":[],"stateMutability":"nonpayable"},{"type":"function","name":"supportsInterface","inputs":[{"name":"interfaceId","type":"bytes4","internalType":"bytes4"}],"outputs":[{"name":"","type":"bool","internalType":"bool"}],"stateMutability":"view"},{"type":"function","name":"vault","inputs":[],"outputs":[{"name":"","type":"address","internalType":"address"}],"stateMutability":"view"},{"type":"event","name":"Initialized","inputs":[{"name":"version","type":"uint64","indexed":false,"internalType":"uint64"}],"anonymous":false},{"type":"event","name":"OnSlash","inputs":[{"name":"subnetwork","type":"bytes32","indexed":true,"internalType":"bytes32"},{"name":"operator","type":"address","indexed":true,"internalType":"address"},{"name":"amount","type":"uint256","indexed":false,"internalType":"uint256"},{"name":"captureTimestamp","type":"uint48","indexed":false,"internalType":"uint48"}],"anonymous":false},{"type":"event","name":"RoleAdminChanged","inputs":[{"name":"role","type":"bytes32","indexed":true,"internalType":"bytes32"},{"name":"previousAdminRole","type":"bytes32","indexed":true,"internalType":"bytes32"},{"name":"newAdminRole","type":"bytes32","indexed":true,"internalType":"bytes32"}],"anonymous":false},{"type":"event","name":"RoleGranted","inputs":[{"name":"role","type":"bytes32","indexed":true,"internalType":"bytes32"},{"name":"account","type":"address","indexed":true,"internalType":"address"},{"name":"sender","type":"address","indexed":true,"internalType":"address"}],"anonymous":false},{"type":"event","name":"RoleRevoked","inputs":[{"name":"role","type":"bytes32","indexed":true,"internalType":"bytes32"},{"name":"account","type":"address","indexed":true,"internalType":"address"},{"name":"sender","type":"address","indexed":true,"internalType":"address"}],"anonymous":false},{"type":"event","name":"SetHook","inputs":[{"name":"hook","type":"address","indexed":true,"internalType":"address"}],"anonymous":false},{"type":"event","name":"SetMaxNetworkLimit","inputs":[{"name":"subnetwork","type":"bytes32","indexed":true,"internalType":"bytes32"},{"name":"amount","type":"uint256","indexed":false,"internalType":"uint256"}],"anonymous":false},{"type":"event","name":"SetNetworkLimit","inputs":[{"name":"subnetwork","type":"bytes32","indexed":true,"internalType":"bytes32"},{"name":"amount","type":"uint256","indexed":false,"internalType":"uint256"}],"anonymous":false},{"type":"event","name":"SetOperatorNetworkLimit","inputs":[{"name":"subnetwork","type":"bytes32","indexed":true,"internalType":"bytes32"},{"name":"operator","type":"address","indexed":true,"internalType":"address"},{"name":"amount","type":"uint256","indexed":false,"internalType":"uint256"}],"anonymous":false},{"type":"error","name":"AccessControlBadConfirmation","inputs":[]},{"type":"error","name":"AccessControlUnauthorizedAccount","inputs":[{"name":"account","type":"address","internalType":"address"},{"name":"neededRole","type":"bytes32","internalType":"bytes32"}]},{"type":"error","name":"AlreadySet","inputs":[]},{"type":"error","name":"CheckpointUnorderedInsertion","inputs":[]},{"type":"error","name":"DuplicateRoleHolder","inputs":[]},{"type":"error","name":"ExceedsMaxNetworkLimit","inputs":[]},{"type":"error","name":"InsufficientHookGas","inputs":[]},{"type":"error","name":"InvalidInitialization","inputs":[]},{"type":"error","name":"MissingRoleHolders","inputs":[]},{"type":"error","name":"NotInitialized","inputs":[]},{"type":"error","name":"NotInitializing","inputs":[]},{"type":"error","name":"NotNetwork","inputs":[]},{"type":"error","name":"NotSlasher","inputs":[]},{"type":"error","name":"NotVault","inputs":[]},{"type":"error","name":"ReentrancyGuardReentrantCall","inputs":[]},{"type":"error","name":"SafeCastOverflowedUintDowncast","inputs":[{"name":"bits","type":"uint8","internalType":"uint8"},{"name":"value","type":"uint256","internalType":"uint256"}]},{"type":"error","name":"ZeroAddressRoleHolder","inputs":[]}],"bytecode":{"object":"0x61014060405234801561001157600080fd5b50604051612f29380380612f298339810160408190526100309161014d565b858585858585818161004061007f565b6001600160a01b039182166080526001600160401b031660a05295861660c052505091831660e0528216610100521661012052506101d2945050505050565b7ff0c57e16840df040f15088dc2f81fe391c3923bec73e23a9662efc9c229c6a00805468010000000000000000900460ff16156100cf5760405163f92ee8a960e01b815260040160405180910390fd5b80546001600160401b039081161461012e5780546001600160401b0319166001600160401b0390811782556040519081527fc7f505b2f371ae2175ee4913f4499e1f2633a7b5936321eed1cdaeb6115181d29060200160405180910390a15b50565b80516001600160a01b038116811461014857600080fd5b919050565b60008060008060008060c0878903121561016657600080fd5b61016f87610131565b955061017d60208801610131565b945061018b60408801610131565b935061019960608801610131565b92506101a760808801610131565b60a08801519092506001600160401b03811681146101c457600080fd5b809150509295509295509295565b60805160a05160c05160e0516101005161012051612cde61024b600039600081816102f201528181610dc301526110f00152600081816102cb01528181610d3a015261107a01526000818161026b01526114f90152600081816104e801526107d3015260006104a90152600061033f0152612cde6000f3fe608060405234801561001057600080fd5b50600436106102115760003560e01c80635d32a1c911610125578063c0cd7c3e116100ad578063e49561ee1161007c578063e49561ee14610550578063fbfa77cf14610563578063fd4d447c14610576578063ff54740f14610589578063ffa1ad741461059357600080fd5b8063c0cd7c3e146104e3578063d15b740e1461050a578063d547741f1461052a578063e02f69371461053d57600080fd5b806391d14854116100f457806391d148541461046357806394d2558a146104765780639f86fd8514610489578063a217fddf1461049c578063bb24fe8a146104a457600080fd5b80635d32a1c9146103f05780636679191e146104035780637d24bb271461042a5780637f5a7c7b1461045057600080fd5b8063248a9ca3116101a85780633dfd3873116101775780633dfd3873146103875780633eb22c0f1461039a578063439fab91146103ad578063518504ba146103c0578063557cab44146103e757600080fd5b8063248a9ca3146103275780632dd310001461033a5780632f2ff15d1461036157806336568abe1461037457600080fd5b806311422095116101e457806311422095146102a5578063128e5d82146102c65780631a80e500146102ed57806323f752d51461031457600080fd5b806301ffc9a714610216578063020cf0c21461023e5780630214534814610253578063103f290714610266575b600080fd5b610229610224366004612232565b61059a565b60405190151581526020015b60405180910390f35b61025161024c366004612271565b6105d1565b005b6102516102613660046122a9565b6106a4565b61028d7f000000000000000000000000000000000000000000000000000000000000000081565b6040516001600160a01b039091168152602001610235565b6102b86102b33660046122cb565b610784565b604051908152602001610235565b61028d7f000000000000000000000000000000000000000000000000000000000000000081565b61028d7f000000000000000000000000000000000000000000000000000000000000000081565b6102516103223660046122fb565b6107b6565b6102b8610335366004612338565b610926565b61028d7f000000000000000000000000000000000000000000000000000000000000000081565b61025161036f3660046122cb565b610948565b6102516103823660046122cb565b61096a565b610251610395366004612351565b6109a2565b6102b86103a8366004612338565b610a64565b6102516103bb3660046123b6565b610a7b565b6102b87f15e7c882d74e8821ebf34aaff46fd0e1d53b9393d91490019124113d28dc32a381565b6102b8614e2081565b6102b86103fe36600461251f565b610b8b565b6102b87fd1c1f6fa6bf27d54c5e54c7c1dc6e5004d3c027ea1994fe68b29c1b51b69c36c81565b6102b87e8b9b1e5fa9cf3b14f87f435649268146305ddf689f082e5961a335b07a9abf81565b60015461028d906001600160a01b031681565b6102296104713660046122cb565b610bac565b6102b8610484366004612575565b610be4565b6102516104973660046125de565b610c1a565b6102b8600081565b6104cb7f000000000000000000000000000000000000000000000000000000000000000081565b6040516001600160401b039091168152602001610235565b61028d7f000000000000000000000000000000000000000000000000000000000000000081565b6102b8610518366004612338565b60026020526000908152604090205481565b6102516105383660046122cb565b610caa565b6102b861054b366004612575565b610cc6565b61025161055e366004612632565b610e80565b60005461028d906001600160a01b031681565b6102b86105843660046122cb565b61104f565b6102b86203d09081565b60016104cb565b60006001600160e01b03198216637965db0b60e01b14806105cb57506301ffc9a760e01b6001600160e01b03198316145b92915050565b7f15e7c882d74e8821ebf34aaff46fd0e1d53b9393d91490019124113d28dc32a36105fb816111b0565b816106068585610784565b036106245760405163a741a04560e01b815260040160405180910390fd5b61065861062f6111ba565b60008681526004602090815260408083206001600160a01b0389168452909152902090846111ca565b5050826001600160a01b0316847ffc9545f07ffadfb668efd0144cdcaf2d6e2c8192dce1ea9fc131934f9c90fc7e8460405161069691815260200190565b60405180910390a350505050565b7e8b9b1e5fa9cf3b14f87f435649268146305ddf689f082e5961a335b07a9abf6106cd816111b0565b6000838152600260205260409020548211156106fc57604051631eefc06360e31b815260040160405180910390fd5b8161070684610a64565b036107245760405163a741a04560e01b815260040160405180910390fd5b61074461072f6111ba565b600085815260036020526040902090846111ca565b5050827e899d104fc3d8820bd96540612bcc5c448c8837b13b9f7faa43ad0728f0c14f8360405161077791815260200190565b60405180910390a2505050565b60008281526004602090815260408083206001600160a01b038516845290915281206107af906112a4565b9392505050565b6107be6112fa565b6040516302910f8b60e31b81523360048201527f00000000000000000000000000000000000000000000000000000000000000006001600160a01b0316906314887c5890602401602060405180830381865afa158015610822573d6000803e3d6000fd5b505050506040513d601f19601f8201168201806040525081019061084691906126a5565b610863576040516323d53b9760e21b815260040160405180910390fd5b6bffffffffffffffffffffffff82163360601b6bffffffffffffffffffffffff1916176000818152600260205260409020548290036108b55760405163a741a04560e01b815260040160405180910390fd5b60008181526002602052604090208290556108d08183611332565b807fc67e7929681aa1bccd63f52b3799bf5805f3009f197db6fdf584b14f7fbf608c8360405161090291815260200190565b60405180910390a2506109226001600080516020612c8983398151915255565b5050565b6000908152600080516020612c69833981519152602052604090206001015490565b61095182610926565b61095a816111b0565b610964838361139d565b50505050565b6001600160a01b03811633146109935760405163334bd91960e11b815260040160405180910390fd5b61099d8282611449565b505050565b6109aa6112fa565b7fd1c1f6fa6bf27d54c5e54c7c1dc6e5004d3c027ea1994fe68b29c1b51b69c36c6109d4816111b0565b6001546001600160a01b03808416911603610a025760405163a741a04560e01b815260040160405180910390fd5b600180546001600160a01b0319166001600160a01b0384169081179091556040517f5bbb1d3ebb6a3ad2a0f17ff35e579a83af60604d1d3c2a4c83c62adecadf666d90600090a250610a616001600080516020612c8983398151915255565b50565b60008181526003602052604081206105cb906112a4565b7ff0c57e16840df040f15088dc2f81fe391c3923bec73e23a9662efc9c229c6a008054600160401b810460ff1615906001600160401b0316600081158015610ac05750825b90506000826001600160401b03166001148015610adc5750303b155b905081158015610aea575080155b15610b085760405163f92ee8a960e01b815260040160405180910390fd5b845467ffffffffffffffff191660011785558315610b3257845460ff60401b1916600160401b1785555b610b3c87876114c5565b8315610b8257845460ff60401b19168555604051600181527fc7f505b2f371ae2175ee4913f4499e1f2633a7b5936321eed1cdaeb6115181d29060200160405180910390a15b50505050505050565b6000838152600360205260408120610ba490848461162d565b949350505050565b6000918252600080516020612c69833981519152602090815260408084206001600160a01b0393909316845291905290205460ff1690565b60008481526004602090815260408083206001600160a01b03871684529091528120610c1190848461162d565b95945050505050565b600080846001600160a01b03168484604051610c379291906126c7565b600060405180830381855af49150503d8060008114610c72576040519150601f19603f3d011682016040523d82523d6000602084013e610c77565b606091505b509150915060008282604051602001610c91929190612727565b6040516020818303038152906040529050805181602001fd5b610cb382610926565b610cbc816111b0565b6109648383611449565b6000806000610cd78787878761171e565b91509150610cf8604051806040016040528060608152602001606081525090565b815115610d165781806020019051810190610d139190612787565b90505b821580610dbb5750600054815160405163530e1d4360e01b81526001600160a01b037f000000000000000000000000000000000000000000000000000000000000000081169363530e1d4393610d78938d9392909216918c919060040161282d565b602060405180830381865afa158015610d95573d6000803e3d6000fd5b505050506040513d601f19601f82011682018060405250810190610db991906126a5565b155b80610e6357507f00000000000000000000000000000000000000000000000000000000000000006001600160a01b031663530e1d4388610dfb8b60601c90565b8985602001516040518563ffffffff1660e01b8152600401610e20949392919061282d565b602060405180830381865afa158015610e3d573d6000803e3d6000fd5b505050506040513d601f19601f82011682018060405250810190610e6191906126a5565b155b15610e745760009350505050610ba4565b50909695505050505050565b610e886112fa565b60008054906101000a90046001600160a01b03166001600160a01b031663b13442716040518163ffffffff1660e01b8152600401602060405180830381865afa158015610ed9573d6000803e3d6000fd5b505050506040513d601f19601f82011682018060405250810190610efd9190612867565b6001600160a01b0316336001600160a01b031614610f2e5760405163dabc4ad960e01b815260040160405180910390fd5b6001546001600160a01b03168015610fe35760008686868686604051602401610f5b959493929190612884565b60408051601f198184030181529181526020820180516001600160e01b031663724ab0f760e11b179052909150603f90610f99906203d090906128d5565b610fa39190612902565b610faf90614e20612924565b5a1015610fcf57604051638072475160e01b815260040160405180910390fd5b6000808251602084016000866203d090f150505b6040805185815265ffffffffffff851660208201526001600160a01b0387169188917f741a5de99085c0d660f3e4192217b0ffb0ea4e35a0480de48e857a4bc3ee36ed910160405180910390a3506110486001600080516020612c8983398151915255565b5050505050565b600080546040516308834cb560e21b81526001600160a01b03848116600483015291821660248201527f00000000000000000000000000000000000000000000000000000000000000009091169063220d32d490604401602060405180830381865afa1580156110c3573d6000803e3d6000fd5b505050506040513d601f19601f820116820180604052508101906110e791906126a5565b158061119957507f00000000000000000000000000000000000000000000000000000000000000006001600160a01b031663220d32d4836111288660601c90565b6040516001600160e01b031960e085901b1681526001600160a01b03928316600482015291166024820152604401602060405180830381865afa158015611173573d6000803e3d6000fd5b505050506040513d601f19601f8201168201806040525081019061119791906126a5565b155b156111a6575060006105cb565b6107af8383611819565b610a61813361189f565b60006111c5426118dd565b905090565b6001830154600090819081036111f457600180860180549182018155600090815260208120909101555b60008061120087611914565b50600189015491935091506000611216896112a4565b905083801561123457508265ffffffffffff168865ffffffffffff16145b1561126c57868960010160018461124b9190612937565b8154811061125b5761125b61294a565b600091825260209091200155611293565b61127789898461199c565b50506001808a0180549182018155600090815260209020018790555b94508593505050505b935093915050565b6000806112b0836119b6565b90506000816001600160d01b0316116112ca5760006107af565b82600101816001600160d01b0316815481106112e8576112e861294a565b90600052602060002001549392505050565b600080516020612c8983398151915280546001190161132c57604051633ee5aeb560e01b815260040160405180910390fd5b60029055565b6000828152600360205260408120819061134b906119ef565b925050915081801561135c57508281115b156109645761138161136c6111ba565b600086815260036020526040902090856111ca565b505050505050565b6001600080516020612c8983398151915255565b6000600080516020612c698339815191526113b88484610bac565b611438576000848152602082815260408083206001600160a01b03871684529091529020805460ff191660011790556113ee3390565b6001600160a01b0316836001600160a01b0316857f2f8788117e7eff1d82e926ec794901d17c78024a50270940304540a733656f0d60405160405180910390a460019150506105cb565b60009150506105cb565b5092915050565b6000600080516020612c698339815191526114648484610bac565b15611438576000848152602082815260408083206001600160a01b0387168085529252808320805460ff1916905551339287917ff6391f5c32d9c69d2a47ea670b442974b53935d1edc7fd64eb21e047a839171b9190a460019150506105cb565b6000806114d483850185612960565b6040516302910f8b60e31b81526001600160a01b0380841660048301529294509092507f0000000000000000000000000000000000000000000000000000000000000000909116906314887c5890602401602060405180830381865afa158015611542573d6000803e3d6000fd5b505050506040513d601f19601f8201168201806040525081019061156691906126a5565b611583576040516362df054560e01b815260040160405180910390fd5b61158b611a43565b600080546001600160a01b0319166001600160a01b0384161781556115b08383611a55565b6020810151600180546001600160a01b0319166001600160a01b03928316179055815191925016156115ec5780516115ea9060009061139d565b505b60408101516001600160a01b031615611048576113817fd1c1f6fa6bf27d54c5e54c7c1dc6e5004d3c027ea1994fe68b29c1b51b69c36c826040015161139d565b60008151600003611649576116428484611c66565b90506107af565b60008280602001905181019061165f91906129af565b9050600061166d8683611cbe565b90508465ffffffffffff16816000015165ffffffffffff1603611697576020015191506107af9050565b805165ffffffffffff80871691161080156116f8575060016116b887611d36565b6116c29190612937565b8263ffffffff1614806116f8575065ffffffffffff85166116ed876116e88560016129d5565b611cbe565b5165ffffffffffff16115b1561170a576020015191506107af9050565b6117148686611c66565b9695505050505050565b6000606061174d6040518060800160405280606081526020016060815260200160608152602001606081525090565b83511561176b578380602001905181019061176891906129f2565b90505b600054602082015160405163810da75d60e01b815261180a926001600160a01b03169163810da75d916117a2918a91600401612aca565b602060405180830381865afa1580156117bf573d6000803e3d6000fd5b505050506040513d601f19601f820116820180604052508101906117e39190612aeb565b6118056117f58a898660400151610b8b565b6118058b8b8b8860600151610be4565b611d40565b90519097909650945050505050565b600080546040805163bd49c35f60e01b815290516107af926001600160a01b03169163bd49c35f9160048083019260209291908290030181865afa158015611865573d6000803e3d6000fd5b505050506040513d601f19601f820116820180604052508101906118899190612aeb565b61180561189586610a64565b6118058787610784565b6118a98282610bac565b6109225760405163e2517d3f60e01b81526001600160a01b0382166004820152602481018390526044015b60405180910390fd5b600065ffffffffffff821115611910576040516306dfcc6560e41b815260306004820152602481018390526044016118d4565b5090565b80546000908190819080820361193557600080600093509350935050611995565b600061195486611946600185612937565b600091825260209091200190565b60408051808201909152905465ffffffffffff8116808352600160301b9091046001600160d01b031660209092018290526001965094509250611995915050565b9193909250565b6000806119aa858585611d56565b91509150935093915050565b805460009080156119e6576119d083611946600184612937565b54600160301b90046001600160d01b03166107af565b60009392505050565b60008080806119fd85611914565b91955093506001600160d01b0316905083611a19576000611a3a565b846001018181548110611a2e57611a2e61294a565b90600052602060002001545b93959294505050565b611a4b611ed0565b611a53611f19565b565b6040805160608101825260008082526020820181905291810191909152600082806020019051810190611a889190612b81565b8051519091506001600160a01b0316158015611ab457506020810151511580611ab45750604081015151155b15611ad2576040516303501f5960e11b815260040160405180910390fd5b60005b816020015151811015611b9d5760006001600160a01b031682602001518281518110611b0357611b0361294a565b60200260200101516001600160a01b031603611b32576040516323cda06760e01b815260040160405180910390fd5b611b787e8b9b1e5fa9cf3b14f87f435649268146305ddf689f082e5961a335b07a9abf83602001518381518110611b6b57611b6b61294a565b602002602001015161139d565b611b9557604051635140fefd60e11b815260040160405180910390fd5b600101611ad5565b5060005b816040015151811015611c5d5760006001600160a01b031682604001518281518110611bcf57611bcf61294a565b60200260200101516001600160a01b031603611bfe576040516323cda06760e01b815260040160405180910390fd5b611c387f15e7c882d74e8821ebf34aaff46fd0e1d53b9393d91490019124113d28dc32a383604001518381518110611b6b57611b6b61294a565b611c5557604051635140fefd60e11b815260040160405180910390fd5b600101611ba1565b50519392505050565b600080611c738484611f21565b90506000816001600160d01b031611611c8d576000610ba4565b83600101816001600160d01b031681548110611cab57611cab61294a565b9060005260206000200154949350505050565b60408051808201909152600080825260208201526000611cde8484611fc9565b90506040518060400160405280826000015165ffffffffffff1681526020018560010183602001516001600160d01b031681548110611d1f57611d1f61294a565b906000526020600020015481525091505092915050565b60006105cb825490565b6000818310611d4f57816107af565b5090919050565b825460009081908015611e75576000611d7487611946600185612937565b60408051808201909152905465ffffffffffff808216808452600160301b9092046001600160d01b031660208401529192509087161015611dc857604051632520601d60e01b815260040160405180910390fd5b805165ffffffffffff808816911603611e145784611deb88611946600186612937565b80546001600160d01b0392909216600160301b0265ffffffffffff909216919091179055611e65565b6040805180820190915265ffffffffffff80881682526001600160d01b0380881660208085019182528b54600181018d5560008d81529190912094519151909216600160301b029216919091179101555b60200151925083915061129c9050565b50506040805180820190915265ffffffffffff80851682526001600160d01b0380851660208085019182528854600181018a5560008a815291822095519251909316600160301b02919093161792019190915590508161129c565b7ff0c57e16840df040f15088dc2f81fe391c3923bec73e23a9662efc9c229c6a0054600160401b900460ff16611a5357604051631afcd79f60e31b815260040160405180910390fd5b611389611ed0565b815460009081816005811115611f80576000611f3c84612039565b611f469085612937565b60008881526020902090915081015465ffffffffffff9081169087161015611f7057809150611f7e565b611f7b816001612924565b92505b505b6000611f8e87878585612121565b90508015611fbb57611fa587611946600184612937565b54600160301b90046001600160d01b0316611fbe565b60005b979650505050505050565b6040805180820190915260008082526020820152826000018263ffffffff1681548110611ff857611ff861294a565b60009182526020918290206040805180820190915291015465ffffffffffff81168252600160301b90046001600160d01b0316918101919091529392505050565b60008160000361204b57506000919050565b6000600161205884612183565b901c6001901b90506001818481612071576120716128ec565b048201901c90506001818481612089576120896128ec565b048201901c905060018184816120a1576120a16128ec565b048201901c905060018184816120b9576120b96128ec565b048201901c905060018184816120d1576120d16128ec565b048201901c905060018184816120e9576120e96128ec565b048201901c90506001818481612101576121016128ec565b048201901c90506107af8182858161211b5761211b6128ec565b04611d40565b60005b8183101561217b5760006121388484612217565b60008781526020902090915065ffffffffffff86169082015465ffffffffffff16111561216757809250612175565b612172816001612924565b93505b50612124565b509392505050565b600080608083901c1561219857608092831c92015b604083901c156121aa57604092831c92015b602083901c156121bc57602092831c92015b601083901c156121ce57601092831c92015b600883901c156121e057600892831c92015b600483901c156121f257600492831c92015b600283901c1561220457600292831c92015b600183901c156105cb5760010192915050565b60006122266002848418612902565b6107af90848416612924565b60006020828403121561224457600080fd5b81356001600160e01b0319811681146107af57600080fd5b6001600160a01b0381168114610a6157600080fd5b60008060006060848603121561228657600080fd5b8335925060208401356122988161225c565b929592945050506040919091013590565b600080604083850312156122bc57600080fd5b50508035926020909101359150565b600080604083850312156122de57600080fd5b8235915060208301356122f08161225c565b809150509250929050565b6000806040838503121561230e57600080fd5b82356bffffffffffffffffffffffff8116811461232a57600080fd5b946020939093013593505050565b60006020828403121561234a57600080fd5b5035919050565b60006020828403121561236357600080fd5b81356107af8161225c565b60008083601f84011261238057600080fd5b5081356001600160401b0381111561239757600080fd5b6020830191508360208285010111156123af57600080fd5b9250929050565b600080602083850312156123c957600080fd5b82356001600160401b038111156123df57600080fd5b6123eb8582860161236e565b90969095509350505050565b803565ffffffffffff8116811461240d57600080fd5b919050565b634e487b7160e01b600052604160045260246000fd5b604051608081016001600160401b038111828210171561244a5761244a612412565b60405290565b604051606081016001600160401b038111828210171561244a5761244a612412565b604051601f8201601f191681016001600160401b038111828210171561249a5761249a612412565b604052919050565b60006001600160401b038211156124bb576124bb612412565b50601f01601f191660200190565b600082601f8301126124da57600080fd5b81356124ed6124e8826124a2565b612472565b81815284602083860101111561250257600080fd5b816020850160208301376000918101602001919091529392505050565b60008060006060848603121561253457600080fd5b83359250612544602085016123f7565b915060408401356001600160401b0381111561255f57600080fd5b61256b868287016124c9565b9150509250925092565b6000806000806080858703121561258b57600080fd5b84359350602085013561259d8161225c565b92506125ab604086016123f7565b915060608501356001600160401b038111156125c657600080fd5b6125d2878288016124c9565b91505092959194509250565b6000806000604084860312156125f357600080fd5b83356125fe8161225c565b925060208401356001600160401b0381111561261957600080fd5b6126258682870161236e565b9497909650939450505050565b600080600080600060a0868803121561264a57600080fd5b85359450602086013561265c8161225c565b935060408601359250612671606087016123f7565b915060808601356001600160401b0381111561268c57600080fd5b612698888289016124c9565b9150509295509295909350565b6000602082840312156126b757600080fd5b815180151581146107af57600080fd5b8183823760009101908152919050565b60005b838110156126f25781810151838201526020016126da565b50506000910152565b600081518084526127138160208601602086016126d7565b601f01601f19169290920160200192915050565b8215158152604060208201526000610ba460408301846126fb565b600082601f83011261275357600080fd5b81516127616124e8826124a2565b81815284602083860101111561277657600080fd5b610ba48260208301602087016126d7565b60006020828403121561279957600080fd5b81516001600160401b03808211156127b057600080fd5b90830190604082860312156127c457600080fd5b6040516040810181811083821117156127df576127df612412565b6040528251828111156127f157600080fd5b6127fd87828601612742565b82525060208301518281111561281257600080fd5b61281e87828601612742565b60208301525095945050505050565b6001600160a01b0385811682528416602082015265ffffffffffff83166040820152608060608201819052600090611714908301846126fb565b60006020828403121561287957600080fd5b81516107af8161225c565b85815260018060a01b038516602082015283604082015265ffffffffffff8316606082015260a060808201526000611fbe60a08301846126fb565b634e487b7160e01b600052601160045260246000fd5b80820281158282048414176105cb576105cb6128bf565b634e487b7160e01b600052601260045260246000fd5b60008261291f57634e487b7160e01b600052601260045260246000fd5b500490565b808201808211156105cb576105cb6128bf565b818103818111156105cb576105cb6128bf565b634e487b7160e01b600052603260045260246000fd5b6000806040838503121561297357600080fd5b823561297e8161225c565b915060208301356001600160401b0381111561299957600080fd5b6129a5858286016124c9565b9150509250929050565b6000602082840312156129c157600080fd5b815163ffffffff811681146107af57600080fd5b63ffffffff818116838216019080821115611442576114426128bf565b600060208284031215612a0457600080fd5b81516001600160401b0380821115612a1b57600080fd5b9083019060808286031215612a2f57600080fd5b612a37612428565b825182811115612a4657600080fd5b612a5287828601612742565b825250602083015182811115612a6757600080fd5b612a7387828601612742565b602083015250604083015182811115612a8b57600080fd5b612a9787828601612742565b604083015250606083015182811115612aaf57600080fd5b612abb87828601612742565b60608301525095945050505050565b65ffffffffffff83168152604060208201526000610ba460408301846126fb565b600060208284031215612afd57600080fd5b5051919050565b600082601f830112612b1557600080fd5b815160206001600160401b03821115612b3057612b30612412565b8160051b612b3f828201612472565b9283528481018201928281019087851115612b5957600080fd5b83870192505b84831015611fbe578251612b728161225c565b82529183019190830190612b5f565b600060208284031215612b9357600080fd5b81516001600160401b0380821115612baa57600080fd5b9083019081850360a0811215612bbf57600080fd5b612bc7612450565b6060821215612bd557600080fd5b612bdd612450565b91508351612bea8161225c565b82526020840151612bfa8161225c565b60208301526040840151612c0d8161225c565b604083015290815260608301519082821115612c2857600080fd5b612c3487838601612b04565b60208201526080840151915082821115612c4d57600080fd5b612c5987838601612b04565b6040820152969550505050505056fe02dd7bc7dec4dceedda775e58dd541e08a116c6c53815c0bd028192f7b6268009b779b17422d0df92223018b32b4d1fa46e071723d6817e2486d003becc55f00a26469706673582212209263c4a9ac7035d8ef1afd736458a9500e012dee9ac62ad7298e7ba8403cf13964736f6c63430008190033","linkReferences":{}},"methodIdentifiers":{"DEFAULT_ADMIN_ROLE()":"a217fddf","FACTORY()":"2dd31000","HOOK_GAS_LIMIT()":"ff54740f","HOOK_RESERVE()":"557cab44","HOOK_SET_ROLE()":"6679191e","NETWORK_LIMIT_SET_ROLE()":"7d24bb27","NETWORK_REGISTRY()":"c0cd7c3e","OPERATOR_NETWORK_LIMIT_SET_ROLE()":"518504ba","OPERATOR_NETWORK_OPT_IN_SERVICE()":"1a80e500","OPERATOR_VAULT_OPT_IN_SERVICE()":"128e5d82","TYPE()":"bb24fe8a","VAULT_FACTORY()":"103f2907","VERSION()":"ffa1ad74","getRoleAdmin(bytes32)":"248a9ca3","grantRole(bytes32,address)":"2f2ff15d","hasRole(bytes32,address)":"91d14854","hook()":"7f5a7c7b","initialize(bytes)":"439fab91","maxNetworkLimit(bytes32)":"d15b740e","networkLimit(bytes32)":"3eb22c0f","networkLimitAt(bytes32,uint48,bytes)":"5d32a1c9","onSlash(bytes32,address,uint256,uint48,bytes)":"e49561ee","operatorNetworkLimit(bytes32,address)":"11422095","operatorNetworkLimitAt(bytes32,address,uint48,bytes)":"94d2558a","renounceRole(bytes32,address)":"36568abe","revokeRole(bytes32,address)":"d547741f","setHook(address)":"3dfd3873","setMaxNetworkLimit(uint96,uint256)":"23f752d5","setNetworkLimit(bytes32,uint256)":"02145348","setOperatorNetworkLimit(bytes32,address,uint256)":"020cf0c2","stake(bytes32,address)":"fd4d447c","stakeAt(bytes32,address,uint48,bytes)":"e02f6937","staticDelegateCall(address,bytes)":"9f86fd85","supportsInterface(bytes4)":"01ffc9a7","vault()":"fbfa77cf"},"id":51}