{"abi":[{"type":"constructor","inputs":[{"name":"registry","type":"address","internalType":"address"}],"stateMutability":"nonpayable"},{"type":"function","name":"REGISTRY","inputs":[],"outputs":[{"name":"","type":"address","internalType":"address"}],"stateMutability":"view"},{"type":"function","name":"metadataURL","inputs":[{"name":"entity","type":"address","internalType":"address"}],"outputs":[{"name":"value","type":"string","internalType":"string"}],"stateMutability":"view"},{"type":"function","name":"setMetadataURL","inputs":[{"name":"metadataURL_","type":"string","internalType":"string"}],"outputs":[],"stateMutability":"nonpayable"},{"type":"event","name":"SetMetadataURL","inputs":[{"name":"entity","type":"address","indexed":true,"internalType":"address"},{"name":"metadataURL","type":"string","indexed":false,"internalType":"string"}],"anonymous":false},{"type":"error","name":"AlreadySet","inputs":[]},{"type":"error","name":"NotEntity","inputs":[]}],"bytecode":{"object":"0x60a0604052348015600f57600080fd5b506040516106e13803806106e1833981016040819052602c91603c565b6001600160a01b0316608052606a565b600060208284031215604d57600080fd5b81516001600160a01b0381168114606357600080fd5b9392505050565b60805161065661008b60003960008181604b015261016e01526106566000f3fe608060405234801561001057600080fd5b50600436106100415760003560e01c806306433b1b146100465780634edb8f391461008a578063747daec5146100aa575b600080fd5b61006d7f000000000000000000000000000000000000000000000000000000000000000081565b6040516001600160a01b0390911681526020015b60405180910390f35b61009d610098366004610383565b6100bf565b60405161008191906103ac565b6100bd6100b83660046103fb565b610159565b005b600060208190529081526040902080546100d89061046d565b80601f01602080910402602001604051908101604052809291908181526020018280546101049061046d565b80156101515780601f1061012657610100808354040283529160200191610151565b820191906000526020600020905b81548152906001019060200180831161013457829003601f168201915b505050505081565b6040516302910f8b60e31b81523360048201527f00000000000000000000000000000000000000000000000000000000000000006001600160a01b0316906314887c5890602401602060405180830381865afa1580156101bd573d6000803e3d6000fd5b505050506040513d601f19601f820116820180604052508101906101e191906104a7565b6101fe5760405163184849cf60e01b815260040160405180910390fd5b6102dc82828080601f016020809104026020016040519081016040528093929190818152602001838380828437600092018290525033815260208190526040902080549093506102509250905061046d565b80601f016020809104026020016040519081016040528092919081815260200182805461027c9061046d565b80156102c95780601f1061029e576101008083540402835291602001916102c9565b820191906000526020600020905b8154815290600101906020018083116102ac57829003601f168201915b505050505061035c90919063ffffffff16565b156102fa5760405163a741a04560e01b815260040160405180910390fd5b336000908152602081905260409020610314828483610530565b50336001600160a01b03167ff8dac27f20d622a0759394313683066cb713a406633a3a7dde8799654015ea6483836040516103509291906105f1565b60405180910390a25050565b60008151835114801561037c575081805190602001208380519060200120145b9392505050565b60006020828403121561039557600080fd5b81356001600160a01b038116811461037c57600080fd5b60006020808352835180602085015260005b818110156103da578581018301518582016040015282016103be565b506000604082860101526040601f19601f8301168501019250505092915050565b6000806020838503121561040e57600080fd5b823567ffffffffffffffff8082111561042657600080fd5b818501915085601f83011261043a57600080fd5b81358181111561044957600080fd5b86602082850101111561045b57600080fd5b60209290920196919550909350505050565b600181811c9082168061048157607f821691505b6020821081036104a157634e487b7160e01b600052602260045260246000fd5b50919050565b6000602082840312156104b957600080fd5b8151801515811461037c57600080fd5b634e487b7160e01b600052604160045260246000fd5b601f82111561052b576000816000526020600020601f850160051c810160208610156105085750805b601f850160051c820191505b8181101561052757828155600101610514565b5050505b505050565b67ffffffffffffffff831115610548576105486104c9565b61055c83610556835461046d565b836104df565b6000601f84116001811461059057600085156105785750838201355b600019600387901b1c1916600186901b1783556105ea565b600083815260209020601f19861690835b828110156105c157868501358255602094850194600190920191016105a1565b50868210156105de5760001960f88860031b161c19848701351681555b505060018560011b0183555b5050505050565b60208152816020820152818360408301376000818301604090810191909152601f909201601f1916010191905056fea2646970667358221220a0852f112a9ff52da74df312bb22ec1d9a24cdd15fd1a38792d6641405c0e64264736f6c63430008190033","linkReferences":{}},"methodIdentifiers":{"REGISTRY()":"06433b1b","metadataURL(address)":"4edb8f39","setMetadataURL(string)":"747daec5"},"id":62}