{"abi":[{"type":"constructor","inputs":[{"name":"networkRegistry","type":"address","internalType":"address"},{"name":"vaultFactory","type":"address","internalType":"address"},{"name":"operatorVaultOptInService","type":"address","internalType":"address"},{"name":"operatorNetworkOptInService","type":"address","internalType":"address"},{"name":"delegatorFactory","type":"address","internalType":"address"},{"name":"entityType","type":"uint64","internalType":"uint64"}],"stateMutability":"nonpayable"},{"type":"function","name":"DEFAULT_ADMIN_ROLE","inputs":[],"outputs":[{"name":"","type":"bytes32","internalType":"bytes32"}],"stateMutability":"view"},{"type":"function","name":"FACTORY","inputs":[],"outputs":[{"name":"","type":"address","internalType":"address"}],"stateMutability":"view"},{"type":"function","name":"HOOK_GAS_LIMIT","inputs":[],"outputs":[{"name":"","type":"uint256","internalType":"uint256"}],"stateMutability":"view"},{"type":"function","name":"HOOK_RESERVE","inputs":[],"outputs":[{"name":"","type":"uint256","internalType":"uint256"}],"stateMutability":"view"},{"type":"function","name":"HOOK_SET_ROLE","inputs":[],"outputs":[{"name":"","type":"bytes32","internalType":"bytes32"}],"stateMutability":"view"},{"type":"function","name":"NETWORK_LIMIT_SET_ROLE","inputs":[],"outputs":[{"name":"","type":"bytes32","internalType":"bytes32"}],"stateMutability":"view"},{"type":"function","name":"NETWORK_REGISTRY","inputs":[],"outputs":[{"name":"","type":"address","internalType":"address"}],"stateMutability":"view"},{"type":"function","name":"OPERATOR_NETWORK_OPT_IN_SERVICE","inputs":[],"outputs":[{"name":"","type":"address","internalType":"address"}],"stateMutability":"view"},{"type":"function","name":"OPERATOR_NETWORK_SHARES_SET_ROLE","inputs":[],"outputs":[{"name":"","type":"bytes32","internalType":"bytes32"}],"stateMutability":"view"},{"type":"function","name":"OPERATOR_VAULT_OPT_IN_SERVICE","inputs":[],"outputs":[{"name":"","type":"address","internalType":"address"}],"stateMutability":"view"},{"type":"function","name":"TYPE","inputs":[],"outputs":[{"name":"","type":"uint64","internalType":"uint64"}],"stateMutability":"view"},{"type":"function","name":"VAULT_FACTORY","inputs":[],"outputs":[{"name":"","type":"address","internalType":"address"}],"stateMutability":"view"},{"type":"function","name":"VERSION","inputs":[],"outputs":[{"name":"","type":"uint64","internalType":"uint64"}],"stateMutability":"pure"},{"type":"function","name":"getRoleAdmin","inputs":[{"name":"role","type":"bytes32","internalType":"bytes32"}],"outputs":[{"name":"","type":"bytes32","internalType":"bytes32"}],"stateMutability":"view"},{"type":"function","name":"grantRole","inputs":[{"name":"role","type":"bytes32","internalType":"bytes32"},{"name":"account","type":"address","internalType":"address"}],"outputs":[],"stateMutability":"nonpayable"},{"type":"function","name":"hasRole","inputs":[{"name":"role","type":"bytes32","internalType":"bytes32"},{"name":"account","type":"address","internalType":"address"}],"outputs":[{"name":"","type":"bool","internalType":"bool"}],"stateMutability":"view"},{"type":"function","name":"hook","inputs":[],"outputs":[{"name":"","type":"address","internalType":"address"}],"stateMutability":"view"},{"type":"function","name":"initialize","inputs":[{"name":"data","type":"bytes","internalType":"bytes"}],"outputs":[],"stateMutability":"nonpayable"},{"type":"function","name":"maxNetworkLimit","inputs":[{"name":"subnetwork","type":"bytes32","internalType":"bytes32"}],"outputs":[{"name":"value","type":"uint256","internalType":"uint256"}],"stateMutability":"view"},{"type":"function","name":"networkLimit","inputs":[{"name":"subnetwork","type":"bytes32","internalType":"bytes32"}],"outputs":[{"name":"","type":"uint256","internalType":"uint256"}],"stateMutability":"view"},{"type":"function","name":"networkLimitAt","inputs":[{"name":"subnetwork","type":"bytes32","internalType":"bytes32"},{"name":"timestamp","type":"uint48","internalType":"uint48"},{"name":"hint","type":"bytes","internalType":"bytes"}],"outputs":[{"name":"","type":"uint256","internalType":"uint256"}],"stateMutability":"view"},{"type":"function","name":"onSlash","inputs":[{"name":"subnetwork","type":"bytes32","internalType":"bytes32"},{"name":"operator","type":"address","internalType":"address"},{"name":"amount","type":"uint256","internalType":"uint256"},{"name":"captureTimestamp","type":"uint48","internalType":"uint48"},{"name":"data","type":"bytes","internalType":"bytes"}],"outputs":[],"stateMutability":"nonpayable"},{"type":"function","name":"operatorNetworkShares","inputs":[{"name":"subnetwork","type":"bytes32","internalType":"bytes32"},{"name":"operator","type":"address","internalType":"address"}],"outputs":[{"name":"","type":"uint256","internalType":"uint256"}],"stateMutability":"view"},{"type":"function","name":"operatorNetworkSharesAt","inputs":[{"name":"subnetwork","type":"bytes32","internalType":"bytes32"},{"name":"operator","type":"address","internalType":"address"},{"name":"timestamp","type":"uint48","internalType":"uint48"},{"name":"hint","type":"bytes","internalType":"bytes"}],"outputs":[{"name":"","type":"uint256","internalType":"uint256"}],"stateMutability":"view"},{"type":"function","name":"renounceRole","inputs":[{"name":"role","type":"bytes32","internalType":"bytes32"},{"name":"callerConfirmation","type":"address","internalType":"address"}],"outputs":[],"stateMutability":"nonpayable"},{"type":"function","name":"revokeRole","inputs":[{"name":"role","type":"bytes32","internalType":"bytes32"},{"name":"account","type":"address","internalType":"address"}],"outputs":[],"stateMutability":"nonpayable"},{"type":"function","name":"setHook","inputs":[{"name":"hook_","type":"address","internalType":"address"}],"outputs":[],"stateMutability":"nonpayable"},{"type":"function","name":"setMaxNetworkLimit","inputs":[{"name":"identifier","type":"uint96","internalType":"uint96"},{"name":"amount","type":"uint256","internalType":"uint256"}],"outputs":[],"stateMutability":"nonpayable"},{"type":"function","name":"setNetworkLimit","inputs":[{"name":"subnetwork","type":"bytes32","internalType":"bytes32"},{"name":"amount","type":"uint256","internalType":"uint256"}],"outputs":[],"stateMutability":"nonpayable"},{"type":"function","name":"setOperatorNetworkShares","inputs":[{"name":"subnetwork","type":"bytes32","internalType":"bytes32"},{"name":"operator","type":"address","internalType":"address"},{"name":"shares","type":"uint256","internalType":"uint256"}],"outputs":[],"stateMutability":"nonpayable"},{"type":"function","name":"stake","inputs":[{"name":"subnetwork","type":"bytes32","internalType":"bytes32"},{"name":"operator","type":"address","internalType":"address"}],"outputs":[{"name":"","type":"uint256","internalType":"uint256"}],"stateMutability":"view"},{"type":"function","name":"stakeAt","inputs":[{"name":"subnetwork","type":"bytes32","internalType":"bytes32"},{"name":"operator","type":"address","internalType":"address"},{"name":"timestamp","type":"uint48","internalType":"uint48"},{"name":"hints","type":"bytes","internalType":"bytes"}],"outputs":[{"name":"","type":"uint256","internalType":"uint256"}],"stateMutability":"view"},{"type":"function","name":"staticDelegateCall","inputs":[{"name":"target","type":"address","internalType":"address"},{"name":"data","type":"bytes","internalType":"bytes"}],"outputs":[],"stateMutability":"nonpayable"},{"type":"function","name":"supportsInterface","inputs":[{"name":"interfaceId","type":"bytes4","internalType":"bytes4"}],"outputs":[{"name":"","type":"bool","internalType":"bool"}],"stateMutability":"view"},{"type":"function","name":"totalOperatorNetworkShares","inputs":[{"name":"subnetwork","type":"bytes32","internalType":"bytes32"}],"outputs":[{"name":"","type":"uint256","internalType":"uint256"}],"stateMutability":"view"},{"type":"function","name":"totalOperatorNetworkSharesAt","inputs":[{"name":"subnetwork","type":"bytes32","internalType":"bytes32"},{"name":"timestamp","type":"uint48","internalType":"uint48"},{"name":"hint","type":"bytes","internalType":"bytes"}],"outputs":[{"name":"","type":"uint256","internalType":"uint256"}],"stateMutability":"view"},{"type":"function","name":"vault","inputs":[],"outputs":[{"name":"","type":"address","internalType":"address"}],"stateMutability":"view"},{"type":"event","name":"Initialized","inputs":[{"name":"version","type":"uint64","indexed":false,"internalType":"uint64"}],"anonymous":false},{"type":"event","name":"OnSlash","inputs":[{"name":"subnetwork","type":"bytes32","indexed":true,"internalType":"bytes32"},{"name":"operator","type":"address","indexed":true,"internalType":"address"},{"name":"amount","type":"uint256","indexed":false,"internalType":"uint256"},{"name":"captureTimestamp","type":"uint48","indexed":false,"internalType":"uint48"}],"anonymous":false},{"type":"event","name":"RoleAdminChanged","inputs":[{"name":"role","type":"bytes32","indexed":true,"internalType":"bytes32"},{"name":"previousAdminRole","type":"bytes32","indexed":true,"internalType":"bytes32"},{"name":"newAdminRole","type":"bytes32","indexed":true,"internalType":"bytes32"}],"anonymous":false},{"type":"event","name":"RoleGranted","inputs":[{"name":"role","type":"bytes32","indexed":true,"internalType":"bytes32"},{"name":"account","type":"address","indexed":true,"internalType":"address"},{"name":"sender","type":"address","indexed":true,"internalType":"address"}],"anonymous":false},{"type":"event","name":"RoleRevoked","inputs":[{"name":"role","type":"bytes32","indexed":true,"internalType":"bytes32"},{"name":"account","type":"address","indexed":true,"internalType":"address"},{"name":"sender","type":"address","indexed":true,"internalType":"address"}],"anonymous":false},{"type":"event","name":"SetHook","inputs":[{"name":"hook","type":"address","indexed":true,"internalType":"address"}],"anonymous":false},{"type":"event","name":"SetMaxNetworkLimit","inputs":[{"name":"subnetwork","type":"bytes32","indexed":true,"internalType":"bytes32"},{"name":"amount","type":"uint256","indexed":false,"internalType":"uint256"}],"anonymous":false},{"type":"event","name":"SetNetworkLimit","inputs":[{"name":"subnetwork","type":"bytes32","indexed":true,"internalType":"bytes32"},{"name":"amount","type":"uint256","indexed":false,"internalType":"uint256"}],"anonymous":false},{"type":"event","name":"SetOperatorNetworkShares","inputs":[{"name":"subnetwork","type":"bytes32","indexed":true,"internalType":"bytes32"},{"name":"operator","type":"address","indexed":true,"internalType":"address"},{"name":"shares","type":"uint256","indexed":false,"internalType":"uint256"}],"anonymous":false},{"type":"error","name":"AccessControlBadConfirmation","inputs":[]},{"type":"error","name":"AccessControlUnauthorizedAccount","inputs":[{"name":"account","type":"address","internalType":"address"},{"name":"neededRole","type":"bytes32","internalType":"bytes32"}]},{"type":"error","name":"AlreadySet","inputs":[]},{"type":"error","name":"CheckpointUnorderedInsertion","inputs":[]},{"type":"error","name":"DuplicateRoleHolder","inputs":[]},{"type":"error","name":"ExceedsMaxNetworkLimit","inputs":[]},{"type":"error","name":"InsufficientHookGas","inputs":[]},{"type":"error","name":"InvalidInitialization","inputs":[]},{"type":"error","name":"MathOverflowedMulDiv","inputs":[]},{"type":"error","name":"MissingRoleHolders","inputs":[]},{"type":"error","name":"NotInitialized","inputs":[]},{"type":"error","name":"NotInitializing","inputs":[]},{"type":"error","name":"NotNetwork","inputs":[]},{"type":"error","name":"NotSlasher","inputs":[]},{"type":"error","name":"NotVault","inputs":[]},{"type":"error","name":"ReentrancyGuardReentrantCall","inputs":[]},{"type":"error","name":"SafeCastOverflowedUintDowncast","inputs":[{"name":"bits","type":"uint8","internalType":"uint8"},{"name":"value","type":"uint256","internalType":"uint256"}]},{"type":"error","name":"ZeroAddressRoleHolder","inputs":[]}],"bytecode":{"object":"0x61014060405234801561001157600080fd5b506040516131243803806131248339810160408190526100309161014d565b858585858585818161004061007f565b6001600160a01b039182166080526001600160401b031660a05295861660c052505091831660e0528216610100521661012052506101d2945050505050565b7ff0c57e16840df040f15088dc2f81fe391c3923bec73e23a9662efc9c229c6a00805468010000000000000000900460ff16156100cf5760405163f92ee8a960e01b815260040160405180910390fd5b80546001600160401b039081161461012e5780546001600160401b0319166001600160401b0390811782556040519081527fc7f505b2f371ae2175ee4913f4499e1f2633a7b5936321eed1cdaeb6115181d29060200160405180910390a15b50565b80516001600160a01b038116811461014857600080fd5b919050565b60008060008060008060c0878903121561016657600080fd5b61016f87610131565b955061017d60208801610131565b945061018b60408801610131565b935061019960608801610131565b92506101a760808801610131565b60a08801519092506001600160401b03811681146101c457600080fd5b809150509295509295509295565b60805160a05160c05160e0516101005161012051612ed961024b600039600081816102f501528181610e70015261119d0152600081816102ad01528181610de7015261112701526000818161026e01526116970152600081816104ea0152610742015260006104ab015260006103420152612ed96000f3fe608060405234801561001057600080fd5b50600436106102275760003560e01c80637d24bb2711610130578063c43dc03f116100b8578063e78eb6ae1161007c578063e78eb6ae14610578578063fbfa77cf1461059f578063fd4d447c146105b2578063ff54740f146105c5578063ffa1ad74146105cf57600080fd5b8063c43dc03f1461050c578063d15b740e1461051f578063d547741f1461053f578063e02f693714610552578063e49561ee1461056557600080fd5b80639f86fd85116100ff5780639f86fd8514610478578063a217fddf1461048b578063a33bc28714610493578063bb24fe8a146104a6578063c0cd7c3e146104e557600080fd5b80637d24bb27146104195780637f5a7c7b1461043f5780638b3f10b01461045257806391d148541461046557600080fd5b80632f2ff15d116101b357806342c53e331161018257806342c53e33146103b0578063439fab91146103c3578063557cab44146103d65780635d32a1c9146103df5780636679191e146103f257600080fd5b80632f2ff15d1461036457806336568abe146103775780633dfd38731461038a5780633eb22c0f1461039d57600080fd5b80631a7a7044116101fa5780631a7a7044146102cf5780631a80e500146102f057806323f752d514610317578063248a9ca31461032a5780632dd310001461033d57600080fd5b806301ffc9a71461022c5780630214534814610254578063103f290714610269578063128e5d82146102a8575b600080fd5b61023f61023a366004612409565b6105d6565b60405190151581526020015b60405180910390f35b610267610262366004612433565b61060d565b005b6102907f000000000000000000000000000000000000000000000000000000000000000081565b6040516001600160a01b03909116815260200161024b565b6102907f000000000000000000000000000000000000000000000000000000000000000081565b6102e26102dd366004612592565b6106ed565b60405190815260200161024b565b6102907f000000000000000000000000000000000000000000000000000000000000000081565b6102676103253660046125fb565b610725565b6102e2610338366004612638565b610895565b6102907f000000000000000000000000000000000000000000000000000000000000000081565b610267610372366004612651565b6108b7565b610267610385366004612651565b6108d9565b610267610398366004612681565b610911565b6102e26103ab366004612638565b6109d3565b6102e26103be366004612651565b6109ea565b6102676103d13660046126e6565b610a1c565b6102e2614e2081565b6102e26103ed366004612727565b610b2c565b6102e27fd1c1f6fa6bf27d54c5e54c7c1dc6e5004d3c027ea1994fe68b29c1b51b69c36c81565b6102e27e8b9b1e5fa9cf3b14f87f435649268146305ddf689f082e5961a335b07a9abf81565b600154610290906001600160a01b031681565b6102e2610460366004612727565b610b45565b61023f610473366004612651565b610b5e565b61026761048636600461277d565b610b96565b6102e2600081565b6102676104a13660046127d1565b610c26565b6104cd7f000000000000000000000000000000000000000000000000000000000000000081565b6040516001600160401b03909116815260200161024b565b6102907f000000000000000000000000000000000000000000000000000000000000000081565b6102e261051a366004612638565b610d40565b6102e261052d366004612638565b60026020526000908152604090205481565b61026761054d366004612651565b610d57565b6102e2610560366004612592565b610d73565b610267610573366004612809565b610f2d565b6102e27f1312a1cf530e56add9be4fd84db9051dcc7635952f09f735f9a29405b558462581565b600054610290906001600160a01b031681565b6102e26105c0366004612651565b6110fc565b6102e26203d09081565b60016104cd565b60006001600160e01b03198216637965db0b60e01b148061060757506301ffc9a760e01b6001600160e01b03198316145b92915050565b7e8b9b1e5fa9cf3b14f87f435649268146305ddf689f082e5961a335b07a9abf6106368161125d565b60008381526002602052604090205482111561066557604051631eefc06360e31b815260040160405180910390fd5b8161066f846109d3565b0361068d5760405163a741a04560e01b815260040160405180910390fd5b6106ad610698611267565b60008581526003602052604090209084611277565b5050827e899d104fc3d8820bd96540612bcc5c448c8837b13b9f7faa43ad0728f0c14f836040516106e091815260200190565b60405180910390a2505050565b60008481526005602090815260408083206001600160a01b0387168452909152812061071a908484611351565b90505b949350505050565b61072d611442565b6040516302910f8b60e31b81523360048201527f00000000000000000000000000000000000000000000000000000000000000006001600160a01b0316906314887c5890602401602060405180830381865afa158015610791573d6000803e3d6000fd5b505050506040513d601f19601f820116820180604052508101906107b5919061287c565b6107d2576040516323d53b9760e21b815260040160405180910390fd5b6bffffffffffffffffffffffff82163360601b6bffffffffffffffffffffffff1916176000818152600260205260409020548290036108245760405163a741a04560e01b815260040160405180910390fd5b600081815260026020526040902082905561083f818361147a565b807fc67e7929681aa1bccd63f52b3799bf5805f3009f197db6fdf584b14f7fbf608c8360405161087191815260200190565b60405180910390a2506108916001600080516020612e8483398151915255565b5050565b6000908152600080516020612e64833981519152602052604090206001015490565b6108c082610895565b6108c98161125d565b6108d383836114e5565b50505050565b6001600160a01b03811633146109025760405163334bd91960e11b815260040160405180910390fd5b61090c8282611591565b505050565b610919611442565b7fd1c1f6fa6bf27d54c5e54c7c1dc6e5004d3c027ea1994fe68b29c1b51b69c36c6109438161125d565b6001546001600160a01b038084169116036109715760405163a741a04560e01b815260040160405180910390fd5b600180546001600160a01b0319166001600160a01b0384169081179091556040517f5bbb1d3ebb6a3ad2a0f17ff35e579a83af60604d1d3c2a4c83c62adecadf666d90600090a2506109d06001600080516020612e8483398151915255565b50565b60008181526003602052604081206106079061160d565b60008281526005602090815260408083206001600160a01b03851684529091528120610a159061160d565b9392505050565b7ff0c57e16840df040f15088dc2f81fe391c3923bec73e23a9662efc9c229c6a008054600160401b810460ff1615906001600160401b0316600081158015610a615750825b90506000826001600160401b03166001148015610a7d5750303b155b905081158015610a8b575080155b15610aa95760405163f92ee8a960e01b815260040160405180910390fd5b845467ffffffffffffffff191660011785558315610ad357845460ff60401b1916600160401b1785555b610add8787611663565b8315610b2357845460ff60401b19168555604051600181527fc7f505b2f371ae2175ee4913f4499e1f2633a7b5936321eed1cdaeb6115181d29060200160405180910390a15b50505050505050565b600083815260036020526040812061071d908484611351565b600083815260046020526040812061071d908484611351565b6000918252600080516020612e64833981519152602090815260408084206001600160a01b0393909316845291905290205460ff1690565b600080846001600160a01b03168484604051610bb392919061289e565b600060405180830381855af49150503d8060008114610bee576040519150601f19603f3d011682016040523d82523d6000602084013e610bf3565b606091505b509150915060008282604051602001610c0d9291906128fe565b6040516020818303038152906040529050805181602001fd5b7f1312a1cf530e56add9be4fd84db9051dcc7635952f09f735f9a29405b5584625610c508161125d565b6000610c5c85856109ea565b9050828103610c7e5760405163a741a04560e01b815260040160405180910390fd5b610cbd610c89611267565b8483610c9489610d40565b610c9e919061292f565b610ca89190612942565b60008881526004602052604090209190611277565b5050610cf3610cca611267565b60008781526005602090815260408083206001600160a01b038a16845290915290209085611277565b5050836001600160a01b0316857f739a5a3ec0ff71e2386d0013deac5f44e0935a98def2e2a5ddf9a709518c829485604051610d3191815260200190565b60405180910390a35050505050565b60008181526004602052604081206106079061160d565b610d6082610895565b610d698161125d565b6108d38383611591565b6000806000610d84878787876117cb565b91509150610da5604051806040016040528060608152602001606081525090565b815115610dc35781806020019051810190610dc0919061299a565b90505b821580610e685750600054815160405163530e1d4360e01b81526001600160a01b037f000000000000000000000000000000000000000000000000000000000000000081169363530e1d4393610e25938d9392909216918c9190600401612a40565b602060405180830381865afa158015610e42573d6000803e3d6000fd5b505050506040513d601f19601f82011682018060405250810190610e66919061287c565b155b80610f1057507f00000000000000000000000000000000000000000000000000000000000000006001600160a01b031663530e1d4388610ea88b60601c90565b8985602001516040518563ffffffff1660e01b8152600401610ecd9493929190612a40565b602060405180830381865afa158015610eea573d6000803e3d6000fd5b505050506040513d601f19601f82011682018060405250810190610f0e919061287c565b155b15610f21576000935050505061071d565b50909695505050505050565b610f35611442565b60008054906101000a90046001600160a01b03166001600160a01b031663b13442716040518163ffffffff1660e01b8152600401602060405180830381865afa158015610f86573d6000803e3d6000fd5b505050506040513d601f19601f82011682018060405250810190610faa9190612a7a565b6001600160a01b0316336001600160a01b031614610fdb5760405163dabc4ad960e01b815260040160405180910390fd5b6001546001600160a01b031680156110905760008686868686604051602401611008959493929190612a97565b60408051601f198184030181529181526020820180516001600160e01b031663724ab0f760e11b179052909150603f90611046906203d09090612ad2565b6110509190612aff565b61105c90614e20612942565b5a101561107c57604051638072475160e01b815260040160405180910390fd5b6000808251602084016000866203d090f150505b6040805185815265ffffffffffff851660208201526001600160a01b0387169188917f741a5de99085c0d660f3e4192217b0ffb0ea4e35a0480de48e857a4bc3ee36ed910160405180910390a3506110f56001600080516020612e8483398151915255565b5050505050565b600080546040516308834cb560e21b81526001600160a01b03848116600483015291821660248201527f00000000000000000000000000000000000000000000000000000000000000009091169063220d32d490604401602060405180830381865afa158015611170573d6000803e3d6000fd5b505050506040513d601f19601f82011682018060405250810190611194919061287c565b158061124657507f00000000000000000000000000000000000000000000000000000000000000006001600160a01b031663220d32d4836111d58660601c90565b6040516001600160e01b031960e085901b1681526001600160a01b03928316600482015291166024820152604401602060405180830381865afa158015611220573d6000803e3d6000fd5b505050506040513d601f19601f82011682018060405250810190611244919061287c565b155b1561125357506000610607565b610a1583836118ff565b6109d081336119b1565b6000611272426119ef565b905090565b6001830154600090819081036112a157600180860180549182018155600090815260208120909101555b6000806112ad87611a26565b506001890154919350915060006112c38961160d565b90508380156112e157508265ffffffffffff168865ffffffffffff16145b156113195786896001016001846112f8919061292f565b8154811061130857611308612b21565b600091825260209091200155611340565b611324898984611aae565b50506001808a0180549182018155600090815260209020018790555b94508593505050505b935093915050565b6000815160000361136d576113668484611ac8565b9050610a15565b6000828060200190518101906113839190612b37565b905060006113918683611b21565b90508465ffffffffffff16816000015165ffffffffffff16036113bb57602001519150610a159050565b805165ffffffffffff808716911610801561141c575060016113dc87611b99565b6113e6919061292f565b8263ffffffff16148061141c575065ffffffffffff85166114118761140c856001612b5d565b611b21565b5165ffffffffffff16115b1561142e57602001519150610a159050565b6114388686611ac8565b9695505050505050565b600080516020612e8483398151915280546001190161147457604051633ee5aeb560e01b815260040160405180910390fd5b60029055565b6000828152600360205260408120819061149390611ba3565b92505091508180156114a457508281115b156108d3576114c96114b4611267565b60008681526003602052604090209085611277565b505050505050565b6001600080516020612e8483398151915255565b6000600080516020612e648339815191526115008484610b5e565b611580576000848152602082815260408083206001600160a01b03871684529091529020805460ff191660011790556115363390565b6001600160a01b0316836001600160a01b0316857f2f8788117e7eff1d82e926ec794901d17c78024a50270940304540a733656f0d60405160405180910390a46001915050610607565b6000915050610607565b5092915050565b6000600080516020612e648339815191526115ac8484610b5e565b15611580576000848152602082815260408083206001600160a01b0387168085529252808320805460ff1916905551339287917ff6391f5c32d9c69d2a47ea670b442974b53935d1edc7fd64eb21e047a839171b9190a46001915050610607565b60008061161983611bf7565b90506000816001600160d01b031611611633576000610a15565b82600101816001600160d01b03168154811061165157611651612b21565b90600052602060002001549392505050565b60008061167283850185612b7a565b6040516302910f8b60e31b81526001600160a01b0380841660048301529294509092507f0000000000000000000000000000000000000000000000000000000000000000909116906314887c5890602401602060405180830381865afa1580156116e0573d6000803e3d6000fd5b505050506040513d601f19601f82011682018060405250810190611704919061287c565b611721576040516362df054560e01b815260040160405180910390fd5b611729611c30565b600080546001600160a01b0319166001600160a01b03841617815561174e8383611c42565b6020810151600180546001600160a01b0319166001600160a01b039283161790558151919250161561178a578051611788906000906114e5565b505b60408101516001600160a01b0316156110f5576114c97fd1c1f6fa6bf27d54c5e54c7c1dc6e5004d3c027ea1994fe68b29c1b51b69c36c82604001516114e5565b600060606118016040518060a0016040528060608152602001606081526020016060815260200160608152602001606081525090565b83511561181f578380602001905181019061181c9190612bc9565b90505b600061183088878460600151610b45565b905080156118ea57600054602083015160405163810da75d60e01b81526118e3926118cb926001600160a01b039091169163810da75d91611876918c9190600401612cc5565b602060405180830381865afa158015611893573d6000803e3d6000fd5b505050506040513d601f19601f820116820180604052508101906118b79190612ce6565b6118c68b8a8760400151610b2c565b611e53565b826118dc8b8b8b88608001516106ed565b9190611e69565b82516118f0565b81516000905b93509350505094509492505050565b60008061190b84610d40565b905080156119a7576119a261199760008054906101000a90046001600160a01b03166001600160a01b031663bd49c35f6040518163ffffffff1660e01b8152600401602060405180830381865afa15801561196a573d6000803e3d6000fd5b505050506040513d601f19601f8201168201806040525081019061198e9190612ce6565b6118c6876109d3565b826118dc87876109ea565b61071d565b6000949350505050565b6119bb8282610b5e565b6108915760405163e2517d3f60e01b81526001600160a01b0382166004820152602481018390526044015b60405180910390fd5b600065ffffffffffff821115611a22576040516306dfcc6560e41b815260306004820152602481018390526044016119e6565b5090565b805460009081908190808203611a4757600080600093509350935050611aa7565b6000611a6686611a5860018561292f565b600091825260209091200190565b60408051808201909152905465ffffffffffff8116808352600160301b9091046001600160d01b031660209092018290526001965094509250611aa7915050565b9193909250565b600080611abc858585611f2d565b91509150935093915050565b600080611ad584846120a7565b90506000816001600160d01b031611611aef57600061071d565b83600101816001600160d01b031681548110611b0d57611b0d612b21565b906000526020600020015491505092915050565b60408051808201909152600080825260208201526000611b41848461214f565b90506040518060400160405280826000015165ffffffffffff1681526020018560010183602001516001600160d01b031681548110611b8257611b82612b21565b906000526020600020015481525091505092915050565b6000610607825490565b6000808080611bb185611a26565b91955093506001600160d01b0316905083611bcd576000611bee565b846001018181548110611be257611be2612b21565b90600052602060002001545b93959294505050565b80546000908015611c2757611c1183611a5860018461292f565b54600160301b90046001600160d01b0316610a15565b60009392505050565b611c386121bf565b611c40612208565b565b6040805160608101825260008082526020820181905291810191909152600082806020019051810190611c759190612d7c565b8051519091506001600160a01b0316158015611ca157506020810151511580611ca15750604081015151155b15611cbf576040516303501f5960e11b815260040160405180910390fd5b60005b816020015151811015611d8a5760006001600160a01b031682602001518281518110611cf057611cf0612b21565b60200260200101516001600160a01b031603611d1f576040516323cda06760e01b815260040160405180910390fd5b611d657e8b9b1e5fa9cf3b14f87f435649268146305ddf689f082e5961a335b07a9abf83602001518381518110611d5857611d58612b21565b60200260200101516114e5565b611d8257604051635140fefd60e11b815260040160405180910390fd5b600101611cc2565b5060005b816040015151811015611e4a5760006001600160a01b031682604001518281518110611dbc57611dbc612b21565b60200260200101516001600160a01b031603611deb576040516323cda06760e01b815260040160405180910390fd5b611e257f1312a1cf530e56add9be4fd84db9051dcc7635952f09f735f9a29405b558462583604001518381518110611d5857611d58612b21565b611e4257604051635140fefd60e11b815260040160405180910390fd5b600101611d8e565b50519392505050565b6000818310611e625781610a15565b5090919050565b6000838302816000198587098281108382030391505080600003611ea057838281611e9657611e96612ae9565b0492505050610a15565b808411611ec05760405163227bc15360e01b815260040160405180910390fd5b6000848688096000868103871696879004966002600389028118808a02820302808a02820302808a02820302808a02820302808a02820302808a02909103029181900381900460010186841190950394909402919094039290920491909117919091029150509392505050565b82546000908190801561204c576000611f4b87611a5860018561292f565b60408051808201909152905465ffffffffffff808216808452600160301b9092046001600160d01b031660208401529192509087161015611f9f57604051632520601d60e01b815260040160405180910390fd5b805165ffffffffffff808816911603611feb5784611fc288611a5860018661292f565b80546001600160d01b0392909216600160301b0265ffffffffffff90921691909117905561203c565b6040805180820190915265ffffffffffff80881682526001600160d01b0380881660208085019182528b54600181018d5560008d81529190912094519151909216600160301b029216919091179101555b6020015192508391506113499050565b50506040805180820190915265ffffffffffff80851682526001600160d01b0380851660208085019182528854600181018a5560008a815291822095519251909316600160301b029190931617920191909155905081611349565b8154600090818160058111156121065760006120c284612210565b6120cc908561292f565b60008881526020902090915081015465ffffffffffff90811690871610156120f657809150612104565b612101816001612942565b92505b505b6000612114878785856122f8565b905080156121415761212b87611a5860018461292f565b54600160301b90046001600160d01b0316612144565b60005b979650505050505050565b6040805180820190915260008082526020820152826000018263ffffffff168154811061217e5761217e612b21565b60009182526020918290206040805180820190915291015465ffffffffffff81168252600160301b90046001600160d01b0316918101919091529392505050565b7ff0c57e16840df040f15088dc2f81fe391c3923bec73e23a9662efc9c229c6a0054600160401b900460ff16611c4057604051631afcd79f60e31b815260040160405180910390fd5b6114d16121bf565b60008160000361222257506000919050565b6000600161222f8461235a565b901c6001901b9050600181848161224857612248612ae9565b048201901c9050600181848161226057612260612ae9565b048201901c9050600181848161227857612278612ae9565b048201901c9050600181848161229057612290612ae9565b048201901c905060018184816122a8576122a8612ae9565b048201901c905060018184816122c0576122c0612ae9565b048201901c905060018184816122d8576122d8612ae9565b048201901c9050610a15818285816122f2576122f2612ae9565b04611e53565b60005b8183101561235257600061230f84846123ee565b60008781526020902090915065ffffffffffff86169082015465ffffffffffff16111561233e5780925061234c565b612349816001612942565b93505b506122fb565b509392505050565b600080608083901c1561236f57608092831c92015b604083901c1561238157604092831c92015b602083901c1561239357602092831c92015b601083901c156123a557601092831c92015b600883901c156123b757600892831c92015b600483901c156123c957600492831c92015b600283901c156123db57600292831c92015b600183901c156106075760010192915050565b60006123fd6002848418612aff565b610a1590848416612942565b60006020828403121561241b57600080fd5b81356001600160e01b031981168114610a1557600080fd5b6000806040838503121561244657600080fd5b50508035926020909101359150565b6001600160a01b03811681146109d057600080fd5b803565ffffffffffff8116811461248057600080fd5b919050565b634e487b7160e01b600052604160045260246000fd5b60405160a081016001600160401b03811182821017156124bd576124bd612485565b60405290565b604051606081016001600160401b03811182821017156124bd576124bd612485565b604051601f8201601f191681016001600160401b038111828210171561250d5761250d612485565b604052919050565b60006001600160401b0382111561252e5761252e612485565b50601f01601f191660200190565b600082601f83011261254d57600080fd5b813561256061255b82612515565b6124e5565b81815284602083860101111561257557600080fd5b816020850160208301376000918101602001919091529392505050565b600080600080608085870312156125a857600080fd5b8435935060208501356125ba81612455565b92506125c86040860161246a565b915060608501356001600160401b038111156125e357600080fd5b6125ef8782880161253c565b91505092959194509250565b6000806040838503121561260e57600080fd5b82356bffffffffffffffffffffffff8116811461262a57600080fd5b946020939093013593505050565b60006020828403121561264a57600080fd5b5035919050565b6000806040838503121561266457600080fd5b82359150602083013561267681612455565b809150509250929050565b60006020828403121561269357600080fd5b8135610a1581612455565b60008083601f8401126126b057600080fd5b5081356001600160401b038111156126c757600080fd5b6020830191508360208285010111156126df57600080fd5b9250929050565b600080602083850312156126f957600080fd5b82356001600160401b0381111561270f57600080fd5b61271b8582860161269e565b90969095509350505050565b60008060006060848603121561273c57600080fd5b8335925061274c6020850161246a565b915060408401356001600160401b0381111561276757600080fd5b6127738682870161253c565b9150509250925092565b60008060006040848603121561279257600080fd5b833561279d81612455565b925060208401356001600160401b038111156127b857600080fd5b6127c48682870161269e565b9497909650939450505050565b6000806000606084860312156127e657600080fd5b8335925060208401356127f881612455565b929592945050506040919091013590565b600080600080600060a0868803121561282157600080fd5b85359450602086013561283381612455565b9350604086013592506128486060870161246a565b915060808601356001600160401b0381111561286357600080fd5b61286f8882890161253c565b9150509295509295909350565b60006020828403121561288e57600080fd5b81518015158114610a1557600080fd5b8183823760009101908152919050565b60005b838110156128c95781810151838201526020016128b1565b50506000910152565b600081518084526128ea8160208601602086016128ae565b601f01601f19169290920160200192915050565b821515815260406020820152600061071d60408301846128d2565b634e487b7160e01b600052601160045260246000fd5b8181038181111561060757610607612919565b8082018082111561060757610607612919565b600082601f83011261296657600080fd5b815161297461255b82612515565b81815284602083860101111561298957600080fd5b61071d8260208301602087016128ae565b6000602082840312156129ac57600080fd5b81516001600160401b03808211156129c357600080fd5b90830190604082860312156129d757600080fd5b6040516040810181811083821117156129f2576129f2612485565b604052825182811115612a0457600080fd5b612a1087828601612955565b825250602083015182811115612a2557600080fd5b612a3187828601612955565b60208301525095945050505050565b6001600160a01b0385811682528416602082015265ffffffffffff83166040820152608060608201819052600090611438908301846128d2565b600060208284031215612a8c57600080fd5b8151610a1581612455565b85815260018060a01b038516602082015283604082015265ffffffffffff8316606082015260a06080820152600061214460a08301846128d2565b808202811582820484141761060757610607612919565b634e487b7160e01b600052601260045260246000fd5b600082612b1c57634e487b7160e01b600052601260045260246000fd5b500490565b634e487b7160e01b600052603260045260246000fd5b600060208284031215612b4957600080fd5b815163ffffffff81168114610a1557600080fd5b63ffffffff81811683821601908082111561158a5761158a612919565b60008060408385031215612b8d57600080fd5b8235612b9881612455565b915060208301356001600160401b03811115612bb357600080fd5b612bbf8582860161253c565b9150509250929050565b600060208284031215612bdb57600080fd5b81516001600160401b0380821115612bf257600080fd5b9083019060a08286031215612c0657600080fd5b612c0e61249b565b825182811115612c1d57600080fd5b612c2987828601612955565b825250602083015182811115612c3e57600080fd5b612c4a87828601612955565b602083015250604083015182811115612c6257600080fd5b612c6e87828601612955565b604083015250606083015182811115612c8657600080fd5b612c9287828601612955565b606083015250608083015182811115612caa57600080fd5b612cb687828601612955565b60808301525095945050505050565b65ffffffffffff8316815260406020820152600061071d60408301846128d2565b600060208284031215612cf857600080fd5b5051919050565b600082601f830112612d1057600080fd5b815160206001600160401b03821115612d2b57612d2b612485565b8160051b612d3a8282016124e5565b9283528481018201928281019087851115612d5457600080fd5b83870192505b84831015612144578251612d6d81612455565b82529183019190830190612d5a565b600060208284031215612d8e57600080fd5b81516001600160401b0380821115612da557600080fd5b9083019081850360a0811215612dba57600080fd5b612dc26124c3565b6060821215612dd057600080fd5b612dd86124c3565b91508351612de581612455565b82526020840151612df581612455565b60208301526040840151612e0881612455565b604083015290815260608301519082821115612e2357600080fd5b612e2f87838601612cff565b60208201526080840151915082821115612e4857600080fd5b612e5487838601612cff565b6040820152969550505050505056fe02dd7bc7dec4dceedda775e58dd541e08a116c6c53815c0bd028192f7b6268009b779b17422d0df92223018b32b4d1fa46e071723d6817e2486d003becc55f00a2646970667358221220ba65454f7cfeda295ea658c00d589e18ebc5d3fc43ae7ddca51f30f23693df1e64736f6c63430008190033","linkReferences":{}},"methodIdentifiers":{"DEFAULT_ADMIN_ROLE()":"a217fddf","FACTORY()":"2dd31000","HOOK_GAS_LIMIT()":"ff54740f","HOOK_RESERVE()":"557cab44","HOOK_SET_ROLE()":"6679191e","NETWORK_LIMIT_SET_ROLE()":"7d24bb27","NETWORK_REGISTRY()":"c0cd7c3e","OPERATOR_NETWORK_OPT_IN_SERVICE()":"1a80e500","OPERATOR_NETWORK_SHARES_SET_ROLE()":"e78eb6ae","OPERATOR_VAULT_OPT_IN_SERVICE()":"128e5d82","TYPE()":"bb24fe8a","VAULT_FACTORY()":"103f2907","VERSION()":"ffa1ad74","getRoleAdmin(bytes32)":"248a9ca3","grantRole(bytes32,address)":"2f2ff15d","hasRole(bytes32,address)":"91d14854","hook()":"7f5a7c7b","initialize(bytes)":"439fab91","maxNetworkLimit(bytes32)":"d15b740e","networkLimit(bytes32)":"3eb22c0f","networkLimitAt(bytes32,uint48,bytes)":"5d32a1c9","onSlash(bytes32,address,uint256,uint48,bytes)":"e49561ee","operatorNetworkShares(bytes32,address)":"42c53e33","operatorNetworkSharesAt(bytes32,address,uint48,bytes)":"1a7a7044","renounceRole(bytes32,address)":"36568abe","revokeRole(bytes32,address)":"d547741f","setHook(address)":"3dfd3873","setMaxNetworkLimit(uint96,uint256)":"23f752d5","setNetworkLimit(bytes32,uint256)":"02145348","setOperatorNetworkShares(bytes32,address,uint256)":"a33bc287","stake(bytes32,address)":"fd4d447c","stakeAt(bytes32,address,uint48,bytes)":"e02f6937","staticDelegateCall(address,bytes)":"9f86fd85","supportsInterface(bytes4)":"01ffc9a7","totalOperatorNetworkShares(bytes32)":"c43dc03f","totalOperatorNetworkSharesAt(bytes32,uint48,bytes)":"8b3f10b0","vault()":"fbfa77cf"},"id":52}