{"abi":[{"type":"constructor","inputs":[{"name":"networkRegistry","type":"address","internalType":"address"}],"stateMutability":"nonpayable"},{"type":"function","name":"NETWORK_REGISTRY","inputs":[],"outputs":[{"name":"","type":"address","internalType":"address"}],"stateMutability":"view"},{"type":"function","name":"middleware","inputs":[{"name":"network","type":"address","internalType":"address"}],"outputs":[{"name":"value","type":"address","internalType":"address"}],"stateMutability":"view"},{"type":"function","name":"setMiddleware","inputs":[{"name":"middleware_","type":"address","internalType":"address"}],"outputs":[],"stateMutability":"nonpayable"},{"type":"event","name":"SetMiddleware","inputs":[{"name":"network","type":"address","indexed":true,"internalType":"address"},{"name":"middleware","type":"address","indexed":false,"internalType":"address"}],"anonymous":false},{"type":"error","name":"AlreadySet","inputs":[]},{"type":"error","name":"NotNetwork","inputs":[]}],"bytecode":{"object":"0x60a0604052348015600f57600080fd5b50604051610319380380610319833981016040819052602c91603c565b6001600160a01b0316608052606a565b600060208284031215604d57600080fd5b81516001600160a01b0381168114606357600080fd5b9392505050565b60805161028f61008a6000396000818160a5015260dc015261028f6000f3fe608060405234801561001057600080fd5b50600436106100415760003560e01c8063b7d8e1a914610046578063bb5ed0321461005b578063c0cd7c3e146100a0575b600080fd5b610059610054366004610207565b6100c7565b005b610084610069366004610207565b6000602081905290815260409020546001600160a01b031681565b6040516001600160a01b03909116815260200160405180910390f35b6100847f000000000000000000000000000000000000000000000000000000000000000081565b6040516302910f8b60e31b81523360048201527f00000000000000000000000000000000000000000000000000000000000000006001600160a01b0316906314887c5890602401602060405180830381865afa15801561012b573d6000803e3d6000fd5b505050506040513d601f19601f8201168201806040525081019061014f9190610237565b61016c576040516323d53b9760e21b815260040160405180910390fd5b336000908152602081905260409020546001600160a01b038083169116036101a75760405163a741a04560e01b815260040160405180910390fd5b336000818152602081815260409182902080546001600160a01b0319166001600160a01b03861690811790915591519182527ff64e2a8734392e221de13f5e56deb22d308e292cad394052affa97dbaf41ec98910160405180910390a250565b60006020828403121561021957600080fd5b81356001600160a01b038116811461023057600080fd5b9392505050565b60006020828403121561024957600080fd5b8151801515811461023057600080fdfea264697066735822122024b9fed44aa3cc6af673dd211d53ae71a7fd5bf7138e973bcd2fef4dce6b447d64736f6c63430008190033","linkReferences":{}},"methodIdentifiers":{"NETWORK_REGISTRY()":"c0cd7c3e","middleware(address)":"bb5ed032","setMiddleware(address)":"b7d8e1a9"},"id":63}