{"abi":[{"type":"function","name":"entity","inputs":[{"name":"index","type":"uint256","internalType":"uint256"}],"outputs":[{"name":"","type":"address","internalType":"address"}],"stateMutability":"view"},{"type":"function","name":"isEntity","inputs":[{"name":"entity_","type":"address","internalType":"address"}],"outputs":[{"name":"","type":"bool","internalType":"bool"}],"stateMutability":"view"},{"type":"function","name":"registerNetwork","inputs":[],"outputs":[],"stateMutability":"nonpayable"},{"type":"function","name":"totalEntities","inputs":[],"outputs":[{"name":"","type":"uint256","internalType":"uint256"}],"stateMutability":"view"},{"type":"event","name":"AddEntity","inputs":[{"name":"entity","type":"address","indexed":true,"internalType":"address"}],"anonymous":false},{"type":"error","name":"EntityNotExist","inputs":[]},{"type":"error","name":"NetworkAlreadyRegistered","inputs":[]}],"bytecode":{"object":"0x6080604052348015600f57600080fd5b506102bf8061001f6000396000f3fe608060405234801561001057600080fd5b506004361061004c5760003560e01c806314887c58146100515780635cd8b15e1461007957806387140b5b1461008f578063b42ba2a214610099575b600080fd5b61006461005f366004610231565b6100c4565b60405190151581526020015b60405180910390f35b6100816100d6565b604051908152602001610070565b6100976100e7565b005b6100ac6100a736600461025a565b610119565b6040516001600160a01b039091168152602001610070565b60006100d08183610125565b92915050565b60006100e2600061014a565b905090565b6100f0336100c4565b1561010e5760405163ad5fcda560e01b815260040160405180910390fd5b61011733610154565b565b60006100d08183610197565b6001600160a01b038116600090815260018301602052604081205415155b9392505050565b60006100d0825490565b61015f6000826101a3565b506040516001600160a01b038216907fb919910dcefbf753bfd926ab3b1d3f85d877190c3d01ba1bd585047b99b99f0b90600090a250565b600061014383836101b8565b6000610143836001600160a01b0384166101e2565b60008260000182815481106101cf576101cf610273565b9060005260206000200154905092915050565b6000818152600183016020526040812054610229575081546001818101845560008481526020808220909301849055845484825282860190935260409020919091556100d0565b5060006100d0565b60006020828403121561024357600080fd5b81356001600160a01b038116811461014357600080fd5b60006020828403121561026c57600080fd5b5035919050565b634e487b7160e01b600052603260045260246000fdfea2646970667358221220b256b961c166b7feb7871be95b81175c962624fda20e4f26554ce87ca95d705564736f6c63430008190033","linkReferences":{}},"methodIdentifiers":{"entity(uint256)":"b42ba2a2","isEntity(address)":"14887c58","registerNetwork()":"87140b5b","totalEntities()":"5cd8b15e"},"id":38}