{"abi":[{"type":"constructor","inputs":[{"name":"operatorRegistry","type":"address","internalType":"address"},{"name":"networkRegistry","type":"address","internalType":"address"},{"name":"vaultFactory","type":"address","internalType":"address"},{"name":"operatorVaultOptInService","type":"address","internalType":"address"},{"name":"operatorNetworkOptInService","type":"address","internalType":"address"},{"name":"delegatorFactory","type":"address","internalType":"address"},{"name":"entityType","type":"uint64","internalType":"uint64"}],"stateMutability":"nonpayable"},{"type":"function","name":"DEFAULT_ADMIN_ROLE","inputs":[],"outputs":[{"name":"","type":"bytes32","internalType":"bytes32"}],"stateMutability":"view"},{"type":"function","name":"FACTORY","inputs":[],"outputs":[{"name":"","type":"address","internalType":"address"}],"stateMutability":"view"},{"type":"function","name":"HOOK_GAS_LIMIT","inputs":[],"outputs":[{"name":"","type":"uint256","internalType":"uint256"}],"stateMutability":"view"},{"type":"function","name":"HOOK_RESERVE","inputs":[],"outputs":[{"name":"","type":"uint256","internalType":"uint256"}],"stateMutability":"view"},{"type":"function","name":"HOOK_SET_ROLE","inputs":[],"outputs":[{"name":"","type":"bytes32","internalType":"bytes32"}],"stateMutability":"view"},{"type":"function","name":"NETWORK_LIMIT_SET_ROLE","inputs":[],"outputs":[{"name":"","type":"bytes32","internalType":"bytes32"}],"stateMutability":"view"},{"type":"function","name":"NETWORK_REGISTRY","inputs":[],"outputs":[{"name":"","type":"address","internalType":"address"}],"stateMutability":"view"},{"type":"function","name":"OPERATOR_NETWORK_OPT_IN_SERVICE","inputs":[],"outputs":[{"name":"","type":"address","internalType":"address"}],"stateMutability":"view"},{"type":"function","name":"OPERATOR_REGISTRY","inputs":[],"outputs":[{"name":"","type":"address","internalType":"address"}],"stateMutability":"view"},{"type":"function","name":"OPERATOR_VAULT_OPT_IN_SERVICE","inputs":[],"outputs":[{"name":"","type":"address","internalType":"address"}],"stateMutability":"view"},{"type":"function","name":"TYPE","inputs":[],"outputs":[{"name":"","type":"uint64","internalType":"uint64"}],"stateMutability":"view"},{"type":"function","name":"VAULT_FACTORY","inputs":[],"outputs":[{"name":"","type":"address","internalType":"address"}],"stateMutability":"view"},{"type":"function","name":"VERSION","inputs":[],"outputs":[{"name":"","type":"uint64","internalType":"uint64"}],"stateMutability":"pure"},{"type":"function","name":"getRoleAdmin","inputs":[{"name":"role","type":"bytes32","internalType":"bytes32"}],"outputs":[{"name":"","type":"bytes32","internalType":"bytes32"}],"stateMutability":"view"},{"type":"function","name":"grantRole","inputs":[{"name":"role","type":"bytes32","internalType":"bytes32"},{"name":"account","type":"address","internalType":"address"}],"outputs":[],"stateMutability":"nonpayable"},{"type":"function","name":"hasRole","inputs":[{"name":"role","type":"bytes32","internalType":"bytes32"},{"name":"account","type":"address","internalType":"address"}],"outputs":[{"name":"","type":"bool","internalType":"bool"}],"stateMutability":"view"},{"type":"function","name":"hook","inputs":[],"outputs":[{"name":"","type":"address","internalType":"address"}],"stateMutability":"view"},{"type":"function","name":"initialize","inputs":[{"name":"data","type":"bytes","internalType":"bytes"}],"outputs":[],"stateMutability":"nonpayable"},{"type":"function","name":"maxNetworkLimit","inputs":[{"name":"subnetwork","type":"bytes32","internalType":"bytes32"}],"outputs":[{"name":"value","type":"uint256","internalType":"uint256"}],"stateMutability":"view"},{"type":"function","name":"networkLimit","inputs":[{"name":"subnetwork","type":"bytes32","internalType":"bytes32"}],"outputs":[{"name":"","type":"uint256","internalType":"uint256"}],"stateMutability":"view"},{"type":"function","name":"networkLimitAt","inputs":[{"name":"subnetwork","type":"bytes32","internalType":"bytes32"},{"name":"timestamp","type":"uint48","internalType":"uint48"},{"name":"hint","type":"bytes","internalType":"bytes"}],"outputs":[{"name":"","type":"uint256","internalType":"uint256"}],"stateMutability":"view"},{"type":"function","name":"onSlash","inputs":[{"name":"subnetwork","type":"bytes32","internalType":"bytes32"},{"name":"operator","type":"address","internalType":"address"},{"name":"amount","type":"uint256","internalType":"uint256"},{"name":"captureTimestamp","type":"uint48","internalType":"uint48"},{"name":"data","type":"bytes","internalType":"bytes"}],"outputs":[],"stateMutability":"nonpayable"},{"type":"function","name":"operator","inputs":[],"outputs":[{"name":"","type":"address","internalType":"address"}],"stateMutability":"view"},{"type":"function","name":"renounceRole","inputs":[{"name":"role","type":"bytes32","internalType":"bytes32"},{"name":"callerConfirmation","type":"address","internalType":"address"}],"outputs":[],"stateMutability":"nonpayable"},{"type":"function","name":"revokeRole","inputs":[{"name":"role","type":"bytes32","internalType":"bytes32"},{"name":"account","type":"address","internalType":"address"}],"outputs":[],"stateMutability":"nonpayable"},{"type":"function","name":"setHook","inputs":[{"name":"hook_","type":"address","internalType":"address"}],"outputs":[],"stateMutability":"nonpayable"},{"type":"function","name":"setMaxNetworkLimit","inputs":[{"name":"identifier","type":"uint96","internalType":"uint96"},{"name":"amount","type":"uint256","internalType":"uint256"}],"outputs":[],"stateMutability":"nonpayable"},{"type":"function","name":"setNetworkLimit","inputs":[{"name":"subnetwork","type":"bytes32","internalType":"bytes32"},{"name":"amount","type":"uint256","internalType":"uint256"}],"outputs":[],"stateMutability":"nonpayable"},{"type":"function","name":"stake","inputs":[{"name":"subnetwork","type":"bytes32","internalType":"bytes32"},{"name":"operator","type":"address","internalType":"address"}],"outputs":[{"name":"","type":"uint256","internalType":"uint256"}],"stateMutability":"view"},{"type":"function","name":"stakeAt","inputs":[{"name":"subnetwork","type":"bytes32","internalType":"bytes32"},{"name":"operator","type":"address","internalType":"address"},{"name":"timestamp","type":"uint48","internalType":"uint48"},{"name":"hints","type":"bytes","internalType":"bytes"}],"outputs":[{"name":"","type":"uint256","internalType":"uint256"}],"stateMutability":"view"},{"type":"function","name":"staticDelegateCall","inputs":[{"name":"target","type":"address","internalType":"address"},{"name":"data","type":"bytes","internalType":"bytes"}],"outputs":[],"stateMutability":"nonpayable"},{"type":"function","name":"supportsInterface","inputs":[{"name":"interfaceId","type":"bytes4","internalType":"bytes4"}],"outputs":[{"name":"","type":"bool","internalType":"bool"}],"stateMutability":"view"},{"type":"function","name":"vault","inputs":[],"outputs":[{"name":"","type":"address","internalType":"address"}],"stateMutability":"view"},{"type":"event","name":"Initialized","inputs":[{"name":"version","type":"uint64","indexed":false,"internalType":"uint64"}],"anonymous":false},{"type":"event","name":"OnSlash","inputs":[{"name":"subnetwork","type":"bytes32","indexed":true,"internalType":"bytes32"},{"name":"operator","type":"address","indexed":true,"internalType":"address"},{"name":"amount","type":"uint256","indexed":false,"internalType":"uint256"},{"name":"captureTimestamp","type":"uint48","indexed":false,"internalType":"uint48"}],"anonymous":false},{"type":"event","name":"RoleAdminChanged","inputs":[{"name":"role","type":"bytes32","indexed":true,"internalType":"bytes32"},{"name":"previousAdminRole","type":"bytes32","indexed":true,"internalType":"bytes32"},{"name":"newAdminRole","type":"bytes32","indexed":true,"internalType":"bytes32"}],"anonymous":false},{"type":"event","name":"RoleGranted","inputs":[{"name":"role","type":"bytes32","indexed":true,"internalType":"bytes32"},{"name":"account","type":"address","indexed":true,"internalType":"address"},{"name":"sender","type":"address","indexed":true,"internalType":"address"}],"anonymous":false},{"type":"event","name":"RoleRevoked","inputs":[{"name":"role","type":"bytes32","indexed":true,"internalType":"bytes32"},{"name":"account","type":"address","indexed":true,"internalType":"address"},{"name":"sender","type":"address","indexed":true,"internalType":"address"}],"anonymous":false},{"type":"event","name":"SetHook","inputs":[{"name":"hook","type":"address","indexed":true,"internalType":"address"}],"anonymous":false},{"type":"event","name":"SetMaxNetworkLimit","inputs":[{"name":"subnetwork","type":"bytes32","indexed":true,"internalType":"bytes32"},{"name":"amount","type":"uint256","indexed":false,"internalType":"uint256"}],"anonymous":false},{"type":"event","name":"SetNetworkLimit","inputs":[{"name":"subnetwork","type":"bytes32","indexed":true,"internalType":"bytes32"},{"name":"amount","type":"uint256","indexed":false,"internalType":"uint256"}],"anonymous":false},{"type":"error","name":"AccessControlBadConfirmation","inputs":[]},{"type":"error","name":"AccessControlUnauthorizedAccount","inputs":[{"name":"account","type":"address","internalType":"address"},{"name":"neededRole","type":"bytes32","internalType":"bytes32"}]},{"type":"error","name":"AlreadySet","inputs":[]},{"type":"error","name":"CheckpointUnorderedInsertion","inputs":[]},{"type":"error","name":"DuplicateRoleHolder","inputs":[]},{"type":"error","name":"ExceedsMaxNetworkLimit","inputs":[]},{"type":"error","name":"InsufficientHookGas","inputs":[]},{"type":"error","name":"InvalidInitialization","inputs":[]},{"type":"error","name":"MissingRoleHolders","inputs":[]},{"type":"error","name":"NotInitialized","inputs":[]},{"type":"error","name":"NotInitializing","inputs":[]},{"type":"error","name":"NotNetwork","inputs":[]},{"type":"error","name":"NotOperator","inputs":[]},{"type":"error","name":"NotSlasher","inputs":[]},{"type":"error","name":"NotVault","inputs":[]},{"type":"error","name":"ReentrancyGuardReentrantCall","inputs":[]},{"type":"error","name":"SafeCastOverflowedUintDowncast","inputs":[{"name":"bits","type":"uint8","internalType":"uint8"},{"name":"value","type":"uint256","internalType":"uint256"}]},{"type":"error","name":"ZeroAddressRoleHolder","inputs":[]}],"bytecode":{"object":"0x61016060405234801561001157600080fd5b50604051612d7c380380612d7c83398101604081905261003091610156565b8585858585858181610040610088565b6001600160a01b039182166080526001600160401b031660a05295861660c052505091831660e0528216610100528116610120529690961661014052506101ed945050505050565b7ff0c57e16840df040f15088dc2f81fe391c3923bec73e23a9662efc9c229c6a00805468010000000000000000900460ff16156100d85760405163f92ee8a960e01b815260040160405180910390fd5b80546001600160401b03908116146101375780546001600160401b0319166001600160401b0390811782556040519081527fc7f505b2f371ae2175ee4913f4499e1f2633a7b5936321eed1cdaeb6115181d29060200160405180910390a15b50565b80516001600160a01b038116811461015157600080fd5b919050565b600080600080600080600060e0888a03121561017157600080fd5b61017a8861013a565b96506101886020890161013a565b95506101966040890161013a565b94506101a46060890161013a565b93506101b26080890161013a565b92506101c060a0890161013a565b60c08901519092506001600160401b03811681146101dd57600080fd5b8091505092959891949750929550565b60805160a05160c05160e051610100516101205161014051612b046102786000396000818161041801526119910152600081816102a801528181610c4e0152610f7d01526000818161028101528181610bc50152610f0701526000818161024201526113860152600081816104ac01526106920152600061046d015260006103030152612b046000f3fe608060405234801561001057600080fd5b50600436106101fb5760003560e01c80636679191e1161011a578063c0cd7c3e116100ad578063e49561ee1161007c578063e49561ee14610514578063fbfa77cf14610527578063fd4d447c1461053a578063ff54740f1461054d578063ffa1ad741461055757600080fd5b8063c0cd7c3e146104a7578063d15b740e146104ce578063d547741f146104ee578063e02f69371461050157600080fd5b806391d14854116100e957806391d148541461043a5780639f86fd851461044d578063a217fddf14610460578063bb24fe8a1461046857600080fd5b80636679191e146103b35780637d24bb27146103da5780637f5a7c7b1461040057806383ce03221461041357600080fd5b80632f2ff15d11610192578063439fab9111610161578063439fab9114610371578063557cab4414610384578063570ca7351461038d5780635d32a1c9146103a057600080fd5b80632f2ff15d1461032557806336568abe146103385780633dfd38731461034b5780633eb22c0f1461035e57600080fd5b80631a80e500116101ce5780631a80e500146102a357806323f752d5146102ca578063248a9ca3146102dd5780632dd31000146102fe57600080fd5b806301ffc9a7146102005780630214534814610228578063103f29071461023d578063128e5d821461027c575b600080fd5b61021361020e3660046120df565b61055e565b60405190151581526020015b60405180910390f35b61023b610236366004612109565b610595565b005b6102647f000000000000000000000000000000000000000000000000000000000000000081565b6040516001600160a01b03909116815260200161021f565b6102647f000000000000000000000000000000000000000000000000000000000000000081565b6102647f000000000000000000000000000000000000000000000000000000000000000081565b61023b6102d836600461212b565b610675565b6102f06102eb366004612168565b6107e5565b60405190815260200161021f565b6102647f000000000000000000000000000000000000000000000000000000000000000081565b61023b610333366004612196565b610807565b61023b610346366004612196565b610829565b61023b6103593660046121c6565b610861565b6102f061036c366004612168565b610923565b61023b61037f36600461222b565b61093a565b6102f0614e2081565b600454610264906001600160a01b031681565b6102f06103ae366004612372565b610a4a565b6102f07fd1c1f6fa6bf27d54c5e54c7c1dc6e5004d3c027ea1994fe68b29c1b51b69c36c81565b6102f07e8b9b1e5fa9cf3b14f87f435649268146305ddf689f082e5961a335b07a9abf81565b600154610264906001600160a01b031681565b6102647f000000000000000000000000000000000000000000000000000000000000000081565b610213610448366004612196565b610a6d565b61023b61045b3660046123c8565b610aa5565b6102f0600081565b61048f7f000000000000000000000000000000000000000000000000000000000000000081565b6040516001600160401b03909116815260200161021f565b6102647f000000000000000000000000000000000000000000000000000000000000000081565b6102f06104dc366004612168565b60026020526000908152604090205481565b61023b6104fc366004612196565b610b35565b6102f061050f36600461241c565b610b51565b61023b610522366004612485565b610d0d565b600054610264906001600160a01b031681565b6102f0610548366004612196565b610edc565b6102f06203d09081565b600161048f565b60006001600160e01b03198216637965db0b60e01b148061058f57506301ffc9a760e01b6001600160e01b03198316145b92915050565b7e8b9b1e5fa9cf3b14f87f435649268146305ddf689f082e5961a335b07a9abf6105be8161103d565b6000838152600260205260409020548211156105ed57604051631eefc06360e31b815260040160405180910390fd5b816105f784610923565b036106155760405163a741a04560e01b815260040160405180910390fd5b610635610620611047565b60008581526003602052604090209084611057565b5050827e899d104fc3d8820bd96540612bcc5c448c8837b13b9f7faa43ad0728f0c14f8360405161066891815260200190565b60405180910390a2505050565b61067d611131565b6040516302910f8b60e31b81523360048201527f00000000000000000000000000000000000000000000000000000000000000006001600160a01b0316906314887c5890602401602060405180830381865afa1580156106e1573d6000803e3d6000fd5b505050506040513d601f19601f8201168201806040525081019061070591906124f8565b610722576040516323d53b9760e21b815260040160405180910390fd5b6bffffffffffffffffffffffff82163360601b6bffffffffffffffffffffffff1916176000818152600260205260409020548290036107745760405163a741a04560e01b815260040160405180910390fd5b600081815260026020526040902082905561078f8183611169565b807fc67e7929681aa1bccd63f52b3799bf5805f3009f197db6fdf584b14f7fbf608c836040516107c191815260200190565b60405180910390a2506107e16001600080516020612aaf83398151915255565b5050565b6000908152600080516020612a8f833981519152602052604090206001015490565b610810826107e5565b6108198161103d565b61082383836111d4565b50505050565b6001600160a01b03811633146108525760405163334bd91960e11b815260040160405180910390fd5b61085c8282611280565b505050565b610869611131565b7fd1c1f6fa6bf27d54c5e54c7c1dc6e5004d3c027ea1994fe68b29c1b51b69c36c6108938161103d565b6001546001600160a01b038084169116036108c15760405163a741a04560e01b815260040160405180910390fd5b600180546001600160a01b0319166001600160a01b0384169081179091556040517f5bbb1d3ebb6a3ad2a0f17ff35e579a83af60604d1d3c2a4c83c62adecadf666d90600090a2506109206001600080516020612aaf83398151915255565b50565b600081815260036020526040812061058f906112fc565b7ff0c57e16840df040f15088dc2f81fe391c3923bec73e23a9662efc9c229c6a008054600160401b810460ff1615906001600160401b031660008115801561097f5750825b90506000826001600160401b0316600114801561099b5750303b155b9050811580156109a9575080155b156109c75760405163f92ee8a960e01b815260040160405180910390fd5b845467ffffffffffffffff1916600117855583156109f157845460ff60401b1916600160401b1785555b6109fb8787611352565b8315610a4157845460ff60401b19168555604051600181527fc7f505b2f371ae2175ee4913f4499e1f2633a7b5936321eed1cdaeb6115181d29060200160405180910390a15b50505050505050565b6000838152600360205260408120610a639084846114ba565b90505b9392505050565b6000918252600080516020612a8f833981519152602090815260408084206001600160a01b0393909316845291905290205460ff1690565b600080846001600160a01b03168484604051610ac292919061251a565b600060405180830381855af49150503d8060008114610afd576040519150601f19603f3d011682016040523d82523d6000602084013e610b02565b606091505b509150915060008282604051602001610b1c92919061257a565b6040516020818303038152906040529050805181602001fd5b610b3e826107e5565b610b478161103d565b6108238383611280565b6000806000610b62878787876115ab565b91509150610b83604051806040016040528060608152602001606081525090565b815115610ba15781806020019051810190610b9e91906125da565b90505b821580610c465750600054815160405163530e1d4360e01b81526001600160a01b037f000000000000000000000000000000000000000000000000000000000000000081169363530e1d4393610c03938d9392909216918c9190600401612680565b602060405180830381865afa158015610c20573d6000803e3d6000fd5b505050506040513d601f19601f82011682018060405250810190610c4491906124f8565b155b80610cee57507f00000000000000000000000000000000000000000000000000000000000000006001600160a01b031663530e1d4388610c868b60601c90565b8985602001516040518563ffffffff1660e01b8152600401610cab9493929190612680565b602060405180830381865afa158015610cc8573d6000803e3d6000fd5b505050506040513d601f19601f82011682018060405250810190610cec91906124f8565b155b15610cff5760009350505050610d05565b50909150505b949350505050565b610d15611131565b60008054906101000a90046001600160a01b03166001600160a01b031663b13442716040518163ffffffff1660e01b8152600401602060405180830381865afa158015610d66573d6000803e3d6000fd5b505050506040513d601f19601f82011682018060405250810190610d8a91906126c5565b6001600160a01b0316336001600160a01b031614610dbb5760405163dabc4ad960e01b815260040160405180910390fd5b6001546001600160a01b03168015610e705760008686868686604051602401610de89594939291906126e2565b60408051601f198184030181529181526020820180516001600160e01b031663724ab0f760e11b179052909150603f90610e26906203d09090612733565b610e309190612760565b610e3c90614e20612782565b5a1015610e5c57604051638072475160e01b815260040160405180910390fd5b6000808251602084016000866203d090f150505b6040805185815265ffffffffffff851660208201526001600160a01b0387169188917f741a5de99085c0d660f3e4192217b0ffb0ea4e35a0480de48e857a4bc3ee36ed910160405180910390a350610ed56001600080516020612aaf83398151915255565b5050505050565b600080546040516308834cb560e21b81526001600160a01b03848116600483015291821660248201527f00000000000000000000000000000000000000000000000000000000000000009091169063220d32d490604401602060405180830381865afa158015610f50573d6000803e3d6000fd5b505050506040513d601f19601f82011682018060405250810190610f7491906124f8565b158061102657507f00000000000000000000000000000000000000000000000000000000000000006001600160a01b031663220d32d483610fb58660601c90565b6040516001600160e01b031960e085901b1681526001600160a01b03928316600482015291166024820152604401602060405180830381865afa158015611000573d6000803e3d6000fd5b505050506040513d601f19601f8201168201806040525081019061102491906124f8565b155b156110335750600061058f565b610a6683836116af565b6109208133611747565b600061105242611785565b905090565b60018301546000908190810361108157600180860180549182018155600090815260208120909101555b60008061108d876117bc565b506001890154919350915060006110a3896112fc565b90508380156110c157508265ffffffffffff168865ffffffffffff16145b156110f95786896001016001846110d89190612795565b815481106110e8576110e86127a8565b600091825260209091200155611120565b611104898984611844565b50506001808a0180549182018155600090815260209020018790555b94508593505050505b935093915050565b600080516020612aaf83398151915280546001190161116357604051633ee5aeb560e01b815260040160405180910390fd5b60029055565b600082815260036020526040812081906111829061185e565b925050915081801561119357508281115b15610823576111b86111a3611047565b60008681526003602052604090209085611057565b505050505050565b6001600080516020612aaf83398151915255565b6000600080516020612a8f8339815191526111ef8484610a6d565b61126f576000848152602082815260408083206001600160a01b03871684529091529020805460ff191660011790556112253390565b6001600160a01b0316836001600160a01b0316857f2f8788117e7eff1d82e926ec794901d17c78024a50270940304540a733656f0d60405160405180910390a4600191505061058f565b600091505061058f565b5092915050565b6000600080516020612a8f83398151915261129b8484610a6d565b1561126f576000848152602082815260408083206001600160a01b0387168085529252808320805460ff1916905551339287917ff6391f5c32d9c69d2a47ea670b442974b53935d1edc7fd64eb21e047a839171b9190a4600191505061058f565b600080611308836118b2565b90506000816001600160d01b031611611322576000610a66565b82600101816001600160d01b031681548110611340576113406127a8565b90600052602060002001549392505050565b600080611361838501856127be565b6040516302910f8b60e31b81526001600160a01b0380841660048301529294509092507f0000000000000000000000000000000000000000000000000000000000000000909116906314887c5890602401602060405180830381865afa1580156113cf573d6000803e3d6000fd5b505050506040513d601f19601f820116820180604052508101906113f391906124f8565b611410576040516362df054560e01b815260040160405180910390fd5b6114186118eb565b600080546001600160a01b0319166001600160a01b03841617815561143d83836118fd565b6020810151600180546001600160a01b0319166001600160a01b0392831617905581519192501615611479578051611477906000906111d4565b505b60408101516001600160a01b031615610ed5576111b87fd1c1f6fa6bf27d54c5e54c7c1dc6e5004d3c027ea1994fe68b29c1b51b69c36c82604001516111d4565b600081516000036114d6576114cf8484611b13565b9050610a66565b6000828060200190518101906114ec919061280d565b905060006114fa8683611b6b565b90508465ffffffffffff16816000015165ffffffffffff160361152457602001519150610a669050565b805165ffffffffffff80871691161080156115855750600161154587611be3565b61154f9190612795565b8263ffffffff161480611585575065ffffffffffff851661157a87611575856001612833565b611b6b565b5165ffffffffffff16115b1561159757602001519150610a669050565b6115a18686611b13565b9695505050505050565b600060606115d360405180606001604052806060815260200160608152602001606081525090565b8351156115f157838060200190518101906115ee9190612850565b90505b6004546001600160a01b0387811691161461161257516000925090506116a6565b600054602082015160405163810da75d60e01b815261169e926001600160a01b03169163810da75d91611649918a91600401612904565b602060405180830381865afa158015611666573d6000803e3d6000fd5b505050506040513d601f19601f8201168201806040525081019061168a9190612925565b61169989888560400151610a4a565b611bed565b905190925090505b94509492505050565b6004546000906001600160a01b038381169116146116cf5750600061058f565b6000546040805163bd49c35f60e01b81529051610a66926001600160a01b03169163bd49c35f9160048083019260209291908290030181865afa15801561171a573d6000803e3d6000fd5b505050506040513d601f19601f8201168201806040525081019061173e9190612925565b61169985610923565b6117518282610a6d565b6107e15760405163e2517d3f60e01b81526001600160a01b0382166004820152602481018390526044015b60405180910390fd5b600065ffffffffffff8211156117b8576040516306dfcc6560e41b8152603060048201526024810183905260440161177c565b5090565b8054600090819081908082036117dd5760008060009350935093505061183d565b60006117fc866117ee600185612795565b600091825260209091200190565b60408051808201909152905465ffffffffffff8116808352600160301b9091046001600160d01b03166020909201829052600196509450925061183d915050565b9193909250565b600080611852858585611c03565b91509150935093915050565b600080808061186c856117bc565b91955093506001600160d01b03169050836118885760006118a9565b84600101818154811061189d5761189d6127a8565b90600052602060002001545b93959294505050565b805460009080156118e2576118cc836117ee600184612795565b54600160301b90046001600160d01b0316610a66565b60009392505050565b6118f3611d7d565b6118fb611dc6565b565b604080516060810182526000808252602082018190529181019190915260008280602001905181019061193091906129bb565b8051519091506001600160a01b031615801561194f5750602081015151155b1561196d576040516303501f5960e11b815260040160405180910390fd5b60408181015190516302910f8b60e31b81526001600160a01b0391821660048201527f0000000000000000000000000000000000000000000000000000000000000000909116906314887c5890602401602060405180830381865afa1580156119da573d6000803e3d6000fd5b505050506040513d601f19601f820116820180604052508101906119fe91906124f8565b611a1b57604051631f0853c160e21b815260040160405180910390fd5b60005b816020015151811015611ae65760006001600160a01b031682602001518281518110611a4c57611a4c6127a8565b60200260200101516001600160a01b031603611a7b576040516323cda06760e01b815260040160405180910390fd5b611ac17e8b9b1e5fa9cf3b14f87f435649268146305ddf689f082e5961a335b07a9abf83602001518381518110611ab457611ab46127a8565b60200260200101516111d4565b611ade57604051635140fefd60e11b815260040160405180910390fd5b600101611a1e565b506040810151600480546001600160a01b0319166001600160a01b03909216919091179055519392505050565b600080611b208484611dce565b90506000816001600160d01b031611611b3a576000610d05565b83600101816001600160d01b031681548110611b5857611b586127a8565b9060005260206000200154949350505050565b60408051808201909152600080825260208201526000611b8b8484611e76565b90506040518060400160405280826000015165ffffffffffff1681526020018560010183602001516001600160d01b031681548110611bcc57611bcc6127a8565b906000526020600020015481525091505092915050565b600061058f825490565b6000818310611bfc5781610a66565b5090919050565b825460009081908015611d22576000611c21876117ee600185612795565b60408051808201909152905465ffffffffffff808216808452600160301b9092046001600160d01b031660208401529192509087161015611c7557604051632520601d60e01b815260040160405180910390fd5b805165ffffffffffff808816911603611cc15784611c98886117ee600186612795565b80546001600160d01b0392909216600160301b0265ffffffffffff909216919091179055611d12565b6040805180820190915265ffffffffffff80881682526001600160d01b0380881660208085019182528b54600181018d5560008d81529190912094519151909216600160301b029216919091179101555b6020015192508391506111299050565b50506040805180820190915265ffffffffffff80851682526001600160d01b0380851660208085019182528854600181018a5560008a815291822095519251909316600160301b029190931617920191909155905081611129565b7ff0c57e16840df040f15088dc2f81fe391c3923bec73e23a9662efc9c229c6a0054600160401b900460ff166118fb57604051631afcd79f60e31b815260040160405180910390fd5b6111c0611d7d565b815460009081816005811115611e2d576000611de984611ee6565b611df39085612795565b60008881526020902090915081015465ffffffffffff9081169087161015611e1d57809150611e2b565b611e28816001612782565b92505b505b6000611e3b87878585611fce565b90508015611e6857611e52876117ee600184612795565b54600160301b90046001600160d01b0316611e6b565b60005b979650505050505050565b6040805180820190915260008082526020820152826000018263ffffffff1681548110611ea557611ea56127a8565b60009182526020918290206040805180820190915291015465ffffffffffff81168252600160301b90046001600160d01b0316918101919091529392505050565b600081600003611ef857506000919050565b60006001611f0584612030565b901c6001901b90506001818481611f1e57611f1e61274a565b048201901c90506001818481611f3657611f3661274a565b048201901c90506001818481611f4e57611f4e61274a565b048201901c90506001818481611f6657611f6661274a565b048201901c90506001818481611f7e57611f7e61274a565b048201901c90506001818481611f9657611f9661274a565b048201901c90506001818481611fae57611fae61274a565b048201901c9050610a6681828581611fc857611fc861274a565b04611bed565b60005b81831015612028576000611fe584846120c4565b60008781526020902090915065ffffffffffff86169082015465ffffffffffff16111561201457809250612022565b61201f816001612782565b93505b50611fd1565b509392505050565b600080608083901c1561204557608092831c92015b604083901c1561205757604092831c92015b602083901c1561206957602092831c92015b601083901c1561207b57601092831c92015b600883901c1561208d57600892831c92015b600483901c1561209f57600492831c92015b600283901c156120b157600292831c92015b600183901c1561058f5760010192915050565b60006120d36002848418612760565b610a6690848416612782565b6000602082840312156120f157600080fd5b81356001600160e01b031981168114610a6657600080fd5b6000806040838503121561211c57600080fd5b50508035926020909101359150565b6000806040838503121561213e57600080fd5b82356bffffffffffffffffffffffff8116811461215a57600080fd5b946020939093013593505050565b60006020828403121561217a57600080fd5b5035919050565b6001600160a01b038116811461092057600080fd5b600080604083850312156121a957600080fd5b8235915060208301356121bb81612181565b809150509250929050565b6000602082840312156121d857600080fd5b8135610a6681612181565b60008083601f8401126121f557600080fd5b5081356001600160401b0381111561220c57600080fd5b60208301915083602082850101111561222457600080fd5b9250929050565b6000806020838503121561223e57600080fd5b82356001600160401b0381111561225457600080fd5b612260858286016121e3565b90969095509350505050565b803565ffffffffffff8116811461228257600080fd5b919050565b634e487b7160e01b600052604160045260246000fd5b604051606081016001600160401b03811182821017156122bf576122bf612287565b60405290565b604051601f8201601f191681016001600160401b03811182821017156122ed576122ed612287565b604052919050565b60006001600160401b0382111561230e5761230e612287565b50601f01601f191660200190565b600082601f83011261232d57600080fd5b813561234061233b826122f5565b6122c5565b81815284602083860101111561235557600080fd5b816020850160208301376000918101602001919091529392505050565b60008060006060848603121561238757600080fd5b833592506123976020850161226c565b915060408401356001600160401b038111156123b257600080fd5b6123be8682870161231c565b9150509250925092565b6000806000604084860312156123dd57600080fd5b83356123e881612181565b925060208401356001600160401b0381111561240357600080fd5b61240f868287016121e3565b9497909650939450505050565b6000806000806080858703121561243257600080fd5b84359350602085013561244481612181565b92506124526040860161226c565b915060608501356001600160401b0381111561246d57600080fd5b6124798782880161231c565b91505092959194509250565b600080600080600060a0868803121561249d57600080fd5b8535945060208601356124af81612181565b9350604086013592506124c46060870161226c565b915060808601356001600160401b038111156124df57600080fd5b6124eb8882890161231c565b9150509295509295909350565b60006020828403121561250a57600080fd5b81518015158114610a6657600080fd5b8183823760009101908152919050565b60005b8381101561254557818101518382015260200161252d565b50506000910152565b6000815180845261256681602086016020860161252a565b601f01601f19169290920160200192915050565b8215158152604060208201526000610a63604083018461254e565b600082601f8301126125a657600080fd5b81516125b461233b826122f5565b8181528460208386010111156125c957600080fd5b610d0582602083016020870161252a565b6000602082840312156125ec57600080fd5b81516001600160401b038082111561260357600080fd5b908301906040828603121561261757600080fd5b60405160408101818110838211171561263257612632612287565b60405282518281111561264457600080fd5b61265087828601612595565b82525060208301518281111561266557600080fd5b61267187828601612595565b60208301525095945050505050565b6001600160a01b0385811682528416602082015265ffffffffffff831660408201526080606082018190526000906115a19083018461254e565b805161228281612181565b6000602082840312156126d757600080fd5b8151610a6681612181565b85815260018060a01b038516602082015283604082015265ffffffffffff8316606082015260a060808201526000611e6b60a083018461254e565b634e487b7160e01b600052601160045260246000fd5b808202811582820484141761058f5761058f61271d565b634e487b7160e01b600052601260045260246000fd5b60008261277d57634e487b7160e01b600052601260045260246000fd5b500490565b8082018082111561058f5761058f61271d565b8181038181111561058f5761058f61271d565b634e487b7160e01b600052603260045260246000fd5b600080604083850312156127d157600080fd5b82356127dc81612181565b915060208301356001600160401b038111156127f757600080fd5b6128038582860161231c565b9150509250929050565b60006020828403121561281f57600080fd5b815163ffffffff81168114610a6657600080fd5b63ffffffff8181168382160190808211156112795761127961271d565b60006020828403121561286257600080fd5b81516001600160401b038082111561287957600080fd5b908301906060828603121561288d57600080fd5b61289561229d565b8251828111156128a457600080fd5b6128b087828601612595565b8252506020830151828111156128c557600080fd5b6128d187828601612595565b6020830152506040830151828111156128e957600080fd5b6128f587828601612595565b60408301525095945050505050565b65ffffffffffff83168152604060208201526000610a63604083018461254e565b60006020828403121561293757600080fd5b5051919050565b600082601f83011261294f57600080fd5b815160206001600160401b0382111561296a5761296a612287565b8160051b6129798282016122c5565b928352848101820192828101908785111561299357600080fd5b83870192505b84831015611e6b5782516129ac81612181565b82529183019190830190612999565b6000602082840312156129cd57600080fd5b81516001600160401b03808211156129e457600080fd5b9083019081850360a08112156129f957600080fd5b612a0161229d565b6060821215612a0f57600080fd5b612a1761229d565b91508351612a2481612181565b82526020840151612a3481612181565b60208301526040840151612a4781612181565b604083015290815260608301519082821115612a6257600080fd5b612a6e8783860161293e565b6020820152612a7f608085016126ba565b6040820152969550505050505056fe02dd7bc7dec4dceedda775e58dd541e08a116c6c53815c0bd028192f7b6268009b779b17422d0df92223018b32b4d1fa46e071723d6817e2486d003becc55f00a2646970667358221220649fc3a37583bf8d6496e1ca6880a8203da1cefa14b073cfb81a51681f6139a664736f6c63430008190033","linkReferences":{}},"methodIdentifiers":{"DEFAULT_ADMIN_ROLE()":"a217fddf","FACTORY()":"2dd31000","HOOK_GAS_LIMIT()":"ff54740f","HOOK_RESERVE()":"557cab44","HOOK_SET_ROLE()":"6679191e","NETWORK_LIMIT_SET_ROLE()":"7d24bb27","NETWORK_REGISTRY()":"c0cd7c3e","OPERATOR_NETWORK_OPT_IN_SERVICE()":"1a80e500","OPERATOR_REGISTRY()":"83ce0322","OPERATOR_VAULT_OPT_IN_SERVICE()":"128e5d82","TYPE()":"bb24fe8a","VAULT_FACTORY()":"103f2907","VERSION()":"ffa1ad74","getRoleAdmin(bytes32)":"248a9ca3","grantRole(bytes32,address)":"2f2ff15d","hasRole(bytes32,address)":"91d14854","hook()":"7f5a7c7b","initialize(bytes)":"439fab91","maxNetworkLimit(bytes32)":"d15b740e","networkLimit(bytes32)":"3eb22c0f","networkLimitAt(bytes32,uint48,bytes)":"5d32a1c9","onSlash(bytes32,address,uint256,uint48,bytes)":"e49561ee","operator()":"570ca735","renounceRole(bytes32,address)":"36568abe","revokeRole(bytes32,address)":"d547741f","setHook(address)":"3dfd3873","setMaxNetworkLimit(uint96,uint256)":"23f752d5","setNetworkLimit(bytes32,uint256)":"02145348","stake(bytes32,address)":"fd4d447c","stakeAt(bytes32,address,uint48,bytes)":"e02f6937","staticDelegateCall(address,bytes)":"9f86fd85","supportsInterface(bytes4)":"01ffc9a7","vault()":"fbfa77cf"},"id":53}