{"abi":[{"type":"constructor","inputs":[{"name":"whoRegistry","type":"address","internalType":"address"},{"name":"whereRegistry","type":"address","internalType":"address"},{"name":"name","type":"string","internalType":"string"}],"stateMutability":"nonpayable"},{"type":"function","name":"WHERE_REGISTRY","inputs":[],"outputs":[{"name":"","type":"address","internalType":"address"}],"stateMutability":"view"},{"type":"function","name":"WHO_REGISTRY","inputs":[],"outputs":[{"name":"","type":"address","internalType":"address"}],"stateMutability":"view"},{"type":"function","name":"eip712Domain","inputs":[],"outputs":[{"name":"fields","type":"bytes1","internalType":"bytes1"},{"name":"name","type":"string","internalType":"string"},{"name":"version","type":"string","internalType":"string"},{"name":"chainId","type":"uint256","internalType":"uint256"},{"name":"verifyingContract","type":"address","internalType":"address"},{"name":"salt","type":"bytes32","internalType":"bytes32"},{"name":"extensions","type":"uint256[]","internalType":"uint256[]"}],"stateMutability":"view"},{"type":"function","name":"increaseNonce","inputs":[{"name":"where","type":"address","internalType":"address"}],"outputs":[],"stateMutability":"nonpayable"},{"type":"function","name":"isOptedIn","inputs":[{"name":"who","type":"address","internalType":"address"},{"name":"where","type":"address","internalType":"address"}],"outputs":[{"name":"","type":"bool","internalType":"bool"}],"stateMutability":"view"},{"type":"function","name":"isOptedInAt","inputs":[{"name":"who","type":"address","internalType":"address"},{"name":"where","type":"address","internalType":"address"},{"name":"timestamp","type":"uint48","internalType":"uint48"},{"name":"hint","type":"bytes","internalType":"bytes"}],"outputs":[{"name":"","type":"bool","internalType":"bool"}],"stateMutability":"view"},{"type":"function","name":"nonces","inputs":[{"name":"who","type":"address","internalType":"address"},{"name":"where","type":"address","internalType":"address"}],"outputs":[{"name":"nonce","type":"uint256","internalType":"uint256"}],"stateMutability":"view"},{"type":"function","name":"optIn","inputs":[{"name":"where","type":"address","internalType":"address"}],"outputs":[],"stateMutability":"nonpayable"},{"type":"function","name":"optIn","inputs":[{"name":"who","type":"address","internalType":"address"},{"name":"where","type":"address","internalType":"address"},{"name":"deadline","type":"uint48","internalType":"uint48"},{"name":"signature","type":"bytes","internalType":"bytes"}],"outputs":[],"stateMutability":"nonpayable"},{"type":"function","name":"optOut","inputs":[{"name":"who","type":"address","internalType":"address"},{"name":"where","type":"address","internalType":"address"},{"name":"deadline","type":"uint48","internalType":"uint48"},{"name":"signature","type":"bytes","internalType":"bytes"}],"outputs":[],"stateMutability":"nonpayable"},{"type":"function","name":"optOut","inputs":[{"name":"where","type":"address","internalType":"address"}],"outputs":[],"stateMutability":"nonpayable"},{"type":"function","name":"staticDelegateCall","inputs":[{"name":"target","type":"address","internalType":"address"},{"name":"data","type":"bytes","internalType":"bytes"}],"outputs":[],"stateMutability":"nonpayable"},{"type":"event","name":"EIP712DomainChanged","inputs":[],"anonymous":false},{"type":"event","name":"IncreaseNonce","inputs":[{"name":"who","type":"address","indexed":true,"internalType":"address"},{"name":"where","type":"address","indexed":true,"internalType":"address"}],"anonymous":false},{"type":"event","name":"OptIn","inputs":[{"name":"who","type":"address","indexed":true,"internalType":"address"},{"name":"where","type":"address","indexed":true,"internalType":"address"}],"anonymous":false},{"type":"event","name":"OptOut","inputs":[{"name":"who","type":"address","indexed":true,"internalType":"address"},{"name":"where","type":"address","indexed":true,"internalType":"address"}],"anonymous":false},{"type":"error","name":"AlreadyOptedIn","inputs":[]},{"type":"error","name":"CheckpointUnorderedInsertion","inputs":[]},{"type":"error","name":"ExpiredSignature","inputs":[]},{"type":"error","name":"InvalidShortString","inputs":[]},{"type":"error","name":"InvalidSignature","inputs":[]},{"type":"error","name":"NotOptedIn","inputs":[]},{"type":"error","name":"NotWhereEntity","inputs":[]},{"type":"error","name":"NotWho","inputs":[]},{"type":"error","name":"OptOutCooldown","inputs":[]},{"type":"error","name":"SafeCastOverflowedUintDowncast","inputs":[{"name":"bits","type":"uint8","internalType":"uint8"},{"name":"value","type":"uint256","internalType":"uint256"}]},{"type":"error","name":"StringTooLong","inputs":[{"name":"str","type":"string","internalType":"string"}]}],"bytecode":{"object":"0x6101a060405234801561001157600080fd5b50604051611ef3380380611ef3833981016040819052610030916101e4565b6040805180820190915260018152603160f81b60208201528190610055826000610114565b61012052610064816001610114565b61014052815160208084019190912060e052815190820120610100524660a0526100f160e05161010051604080517f8b73c3c69bb8fe3d512ecc4cf759cc79239f7b179b0ffacaa9a75d522b39400f60208201529081019290925260608201524660808201523060a082015260009060c00160405160208183030381529060405280519060200120905090565b60805250503060c052506001600160a01b03918216610160521661018052610455565b60006020835110156101305761012983610147565b9050610141565b8161013b848261033f565b5060ff90505b92915050565b600080829050601f8151111561017b578260405163305a27a960e01b815260040161017291906103fe565b60405180910390fd5b805161018682610431565b179392505050565b80516001600160a01b03811681146101a557600080fd5b919050565b634e487b7160e01b600052604160045260246000fd5b60005b838110156101db5781810151838201526020016101c3565b50506000910152565b6000806000606084860312156101f957600080fd5b6102028461018e565b92506102106020850161018e565b60408501519092506001600160401b038082111561022d57600080fd5b818601915086601f83011261024157600080fd5b815181811115610253576102536101aa565b604051601f8201601f19908116603f0116810190838211818310171561027b5761027b6101aa565b8160405282815289602084870101111561029457600080fd5b6102a58360208301602088016101c0565b80955050505050509250925092565b600181811c908216806102c857607f821691505b6020821081036102e857634e487b7160e01b600052602260045260246000fd5b50919050565b601f82111561033a576000816000526020600020601f850160051c810160208610156103175750805b601f850160051c820191505b8181101561033657828155600101610323565b5050505b505050565b81516001600160401b03811115610358576103586101aa565b61036c8161036684546102b4565b846102ee565b602080601f8311600181146103a157600084156103895750858301515b600019600386901b1c1916600185901b178555610336565b600085815260208120601f198616915b828110156103d0578886015182559484019460019091019084016103b1565b50858210156103ee5787850151600019600388901b60f8161c191681555b5050505050600190811b01905550565b602081526000825180602084015261041d8160408501602087016101c0565b601f01601f19169190910160400192915050565b805160208083015191908110156102e85760001960209190910360031b1b16919050565b60805160a05160c05160e0516101005161012051610140516101605161018051611a216104d26000396000818160f901526109d50152600081816101da015261092e0152600061069201526000610660015260006110600152600061103801526000610f9301526000610fbd01526000610fe70152611a216000f3fe608060405234801561001057600080fd5b50600436106100b45760003560e01c806393f79bc31161007157806393f79bc31461019c5780639f86fd85146101af578063b1138ad1146101c2578063c4b5d62c146101d5578063ced44ba7146101fc578063d46104831461020f57600080fd5b8063220d32d4146100b9578063530e1d43146100e15780636d0fae4a146100f45780638247a97c1461013357806384b0196e146101485780639333fbda14610163575b600080fd5b6100cc6100c73660046115ce565b610222565b60405190151581526020015b60405180910390f35b6100cc6100ef36600461164a565b610267565b61011b7f000000000000000000000000000000000000000000000000000000000000000081565b6040516001600160a01b0390911681526020016100d8565b6101466101413660046116cd565b6102e5565b005b6101506102f2565b6040516100d89796959493929190611738565b61018e6101713660046115ce565b600260209081526000928352604080842090915290825290205481565b6040519081526020016100d8565b6101466101aa36600461164a565b610338565b6101466101bd3660046117d1565b6103ed565b6101466101d03660046116cd565b61047d565b61011b7f000000000000000000000000000000000000000000000000000000000000000081565b61014661020a36600461164a565b610487565b61014661021d3660046116cd565b6104f8565b6001600160a01b038083166000908152600360209081526040808320938516835292905290812061025290610502565b6001600160d01b031660011490505b92915050565b60006102ce8484848080601f01602080910402602001604051908101604052809392919081815260200183838082843760009201829052506001600160a01b03808e168252600360209081526040808420928f1684529190529020949392505061050d9050565b6001600160d01b0316600114905095945050505050565b6102ef3382610600565b50565b600060608060008060006060610306610659565b61030e61068b565b60408051600080825260208201909252600f60f81b9b939a50919850469750309650945092509050565b826103416106b8565b65ffffffffffff168165ffffffffffff1610156103715760405163df4cc36d60e01b815260040160405180910390fd5b6103be8661038260008989896106c3565b85858080601f01602080910402602001604051908101604052809392919081815260200183838082843760009201919091525061079492505050565b6103db57604051638baa579f60e01b815260040160405180910390fd5b6103e586866107ec565b505050505050565b600080846001600160a01b0316848460405161040a929190611824565b600060405180830381855af49150503d8060008114610445576040519150601f19603f3d011682016040523d82523d6000602084013e61044a565b606091505b509150915060008282604051602001610464929190611834565b6040516020818303038152906040529050805181602001fd5b6102ef338261090f565b826104906106b8565b65ffffffffffff168165ffffffffffff1610156104c05760405163df4cc36d60e01b815260040160405180910390fd5b6104d18661038260018989896106c3565b6104ee57604051638baa579f60e01b815260040160405180910390fd5b6103e5868661090f565b6102ef33826107ec565b600061026182610b0d565b60008151600003610529576105228484610b54565b90506105f9565b60008280602001905181019061053f9190611857565b9050600061054d8683610b60565b90508465ffffffffffff16816000015165ffffffffffff1603610577576020015191506105f99050565b805165ffffffffffff80871691161080156105d85750600161059887610bb4565b6105a29190611893565b8263ffffffff1614806105d8575065ffffffffffff85166105cd876105c88560016118a6565b610b60565b5165ffffffffffff16115b156105ea576020015191506105f99050565b6105f48686610b54565b925050505b9392505050565b6001600160a01b0380831660008181526002602090815260408083209486168084529490915280822080546001019055517f8ed32926585579e6191b145240df788165f4957e1135f30a00e08ee8feb9d6809190a35050565b60606106867f00000000000000000000000000000000000000000000000000000000000000006000610bbe565b905090565b60606106867f00000000000000000000000000000000000000000000000000000000000000006001610bbe565b600061068642610c69565b600061078b856106f3577f7830334d17a05ab8aeca8f1778e27182208fc2d454ac7b38a4edc2069ee3a4a6610715565b7f6ab5200f1123a8d51d1695a9e5e757267926b53c6359f90b8873cc7dcc30ea2c5b6001600160a01b038681166000818152600260209081526040808320948a168084529482529182902054825191820195909552908101919091526060810191909152608081019190915265ffffffffffff841660a082015260c00160405160208183030381529060405280519060200120610ca4565b95945050505050565b60008060006107a38585610cd1565b50909250905060008160038111156107bd576107bd6118ca565b1480156107db5750856001600160a01b0316826001600160a01b0316145b806105f457506105f4868686610d1e565b6001600160a01b0380831660009081526003602090815260408083209385168352929052908120819061081e90610df9565b9250925050806001600160d01b031660000361084d576040516334b09b3960e11b815260040160405180910390fd5b6108556106b8565b65ffffffffffff168265ffffffffffff16036108845760405163291bf4b760e21b815260040160405180910390fd5b6108bd61088f6106b8565b6001600160a01b03808716600090815260036020908152604080832093891683529290529081209190610e14565b50506108c98484610600565b826001600160a01b0316846001600160a01b03167f1629cd9ad365627cf8408d19c50224af8f3213c1a18ae48062d92e22bddf7de560405160405180910390a350505050565b6040516302910f8b60e31b81526001600160a01b0383811660048301527f000000000000000000000000000000000000000000000000000000000000000016906314887c5890602401602060405180830381865afa158015610975573d6000803e3d6000fd5b505050506040513d601f19601f8201168201806040525081019061099991906118e0565b6109b657604051630fb9ff9560e41b815260040160405180910390fd5b6040516302910f8b60e31b81526001600160a01b0382811660048301527f000000000000000000000000000000000000000000000000000000000000000016906314887c5890602401602060405180830381865afa158015610a1c573d6000803e3d6000fd5b505050506040513d601f19601f82011682018060405250810190610a4091906118e0565b610a5d576040516321f5408d60e01b815260040160405180910390fd5b610a678282610222565b15610a855760405163dcdeaba360e01b815260040160405180910390fd5b610abd610a906106b8565b6001600160a01b038085166000908152600360209081526040808320938716835292905220906001610e14565b5050610ac98282610600565b806001600160a01b0316826001600160a01b03167f9b730d5b907ee509de729817a2bb37e404418ba569b3a50f36192372f973cb4160405160405180910390a35050565b80546000908015610b4b57610b3583610b27600184611893565b600091825260209091200190565b54600160301b90046001600160d01b03166105f9565b60009392505050565b60006105f98383610e2f565b60408051808201909152600080825260208201526000610b808484610ed7565b60408051808201909152815165ffffffffffff1681526020918201516001600160d01b031691810191909152949350505050565b6000610261825490565b606060ff8314610bd857610bd183610f47565b9050610261565b818054610be490611902565b80601f0160208091040260200160405190810160405280929190818152602001828054610c1090611902565b8015610c5d5780601f10610c3257610100808354040283529160200191610c5d565b820191906000526020600020905b815481529060010190602001808311610c4057829003601f168201915b50505050509050610261565b600065ffffffffffff821115610ca0576040516306dfcc6560e41b8152603060048201526024810183905260440160405180910390fd5b5090565b6000610261610cb1610f86565b8360405161190160f01b8152600281019290925260228201526042902090565b60008060008351604103610d0b5760208401516040850151606086015160001a610cfd888285856110b1565b955095509550505050610d17565b50508151600091506002905b9250925092565b6000806000856001600160a01b03168585604051602401610d4092919061193c565b60408051601f198184030181529181526020820180516001600160e01b0316630b135d3f60e11b17905251610d759190611955565b600060405180830381855afa9150503d8060008114610db0576040519150601f19603f3d011682016040523d82523d6000602084013e610db5565b606091505b5091509150818015610dc957506020815110155b80156105f457508051630b135d3f60e11b90610dee9083016020908101908401611971565b149695505050505050565b60008080610e0684611180565b9250925092505b9193909250565b600080610e228585856111f3565b915091505b935093915050565b815460009081816005811115610e8e576000610e4a84611201565b610e549085611893565b60008881526020902090915081015465ffffffffffff9081169087161015610e7e57809150610e8c565b610e8981600161198a565b92505b505b6000610e9c878785856112e9565b90508015610ec957610eb387610b27600184611893565b54600160301b90046001600160d01b0316610ecc565b60005b979650505050505050565b6040805180820190915260008082526020820152826000018263ffffffff1681548110610f0657610f0661199d565b60009182526020918290206040805180820190915291015465ffffffffffff81168252600160301b90046001600160d01b0316918101919091529392505050565b60606000610f548361134b565b604080516020808252818301909252919250600091906020820181803683375050509182525060208101929092525090565b6000306001600160a01b037f000000000000000000000000000000000000000000000000000000000000000016148015610fdf57507f000000000000000000000000000000000000000000000000000000000000000046145b1561100957507f000000000000000000000000000000000000000000000000000000000000000090565b610686604080517f8b73c3c69bb8fe3d512ecc4cf759cc79239f7b179b0ffacaa9a75d522b39400f60208201527f0000000000000000000000000000000000000000000000000000000000000000918101919091527f000000000000000000000000000000000000000000000000000000000000000060608201524660808201523060a082015260009060c00160405160208183030381529060405280519060200120905090565b600080807f7fffffffffffffffffffffffffffffff5d576e7357a4501ddfe92f46681b20a08411156110ec5750600091506003905082611176565b604080516000808252602082018084528a905260ff891692820192909252606081018790526080810186905260019060a0016020604051602081039080840390855afa158015611140573d6000803e3d6000fd5b5050604051601f1901519150506001600160a01b03811661116c57506000925060019150829050611176565b9250600091508190505b9450945094915050565b8054600090819081908082036111a157600080600093509350935050610e0d565b60006111b286610b27600185611893565b60408051808201909152905465ffffffffffff8116808352600160301b9091046001600160d01b031660209092018290526001965094509250610e0d915050565b600080610e22858585611373565b60008160000361121357506000919050565b60006001611220846114ed565b901c6001901b90506001818481611239576112396119b3565b048201901c90506001818481611251576112516119b3565b048201901c90506001818481611269576112696119b3565b048201901c90506001818481611281576112816119b3565b048201901c90506001818481611299576112996119b3565b048201901c905060018184816112b1576112b16119b3565b048201901c905060018184816112c9576112c96119b3565b048201901c90506105f9818285816112e3576112e36119b3565b04611581565b60005b818310156113435760006113008484611597565b60008781526020902090915065ffffffffffff86169082015465ffffffffffff16111561132f5780925061133d565b61133a81600161198a565b93505b506112ec565b509392505050565b600060ff8216601f81111561026157604051632cd44ac360e21b815260040160405180910390fd5b82546000908190801561149257600061139187610b27600185611893565b60408051808201909152905465ffffffffffff808216808452600160301b9092046001600160d01b0316602084015291925090871610156113e557604051632520601d60e01b815260040160405180910390fd5b805165ffffffffffff808816911603611431578461140888610b27600186611893565b80546001600160d01b0392909216600160301b0265ffffffffffff909216919091179055611482565b6040805180820190915265ffffffffffff80881682526001600160d01b0380881660208085019182528b54600181018d5560008d81529190912094519151909216600160301b029216919091179101555b602001519250839150610e279050565b50506040805180820190915265ffffffffffff80851682526001600160d01b0380851660208085019182528854600181018a5560008a815291822095519251909316600160301b029190931617920191909155905081610e27565b600080608083901c1561150257608092831c92015b604083901c1561151457604092831c92015b602083901c1561152657602092831c92015b601083901c1561153857601092831c92015b600883901c1561154a57600892831c92015b600483901c1561155c57600492831c92015b600283901c1561156e57600292831c92015b600183901c156102615760010192915050565b600081831061159057816105f9565b5090919050565b60006115a660028484186119c9565b6105f99084841661198a565b80356001600160a01b03811681146115c957600080fd5b919050565b600080604083850312156115e157600080fd5b6115ea836115b2565b91506115f8602084016115b2565b90509250929050565b60008083601f84011261161357600080fd5b50813567ffffffffffffffff81111561162b57600080fd5b60208301915083602082850101111561164357600080fd5b9250929050565b60008060008060006080868803121561166257600080fd5b61166b866115b2565b9450611679602087016115b2565b9350604086013565ffffffffffff8116811461169457600080fd5b9250606086013567ffffffffffffffff8111156116b057600080fd5b6116bc88828901611601565b969995985093965092949392505050565b6000602082840312156116df57600080fd5b6105f9826115b2565b60005b838110156117035781810151838201526020016116eb565b50506000910152565b600081518084526117248160208601602086016116e8565b601f01601f19169290920160200192915050565b60ff60f81b881681526000602060e0602084015261175960e084018a61170c565b838103604085015261176b818a61170c565b606085018990526001600160a01b038816608086015260a0850187905284810360c08601528551808252602080880193509091019060005b818110156117bf578351835292840192918401916001016117a3565b50909c9b505050505050505050505050565b6000806000604084860312156117e657600080fd5b6117ef846115b2565b9250602084013567ffffffffffffffff81111561180b57600080fd5b61181786828701611601565b9497909650939450505050565b8183823760009101908152919050565b821515815260406020820152600061184f604083018461170c565b949350505050565b60006020828403121561186957600080fd5b815163ffffffff811681146105f957600080fd5b634e487b7160e01b600052601160045260246000fd5b818103818111156102615761026161187d565b63ffffffff8181168382160190808211156118c3576118c361187d565b5092915050565b634e487b7160e01b600052602160045260246000fd5b6000602082840312156118f257600080fd5b815180151581146105f957600080fd5b600181811c9082168061191657607f821691505b60208210810361193657634e487b7160e01b600052602260045260246000fd5b50919050565b82815260406020820152600061184f604083018461170c565b600082516119678184602087016116e8565b9190910192915050565b60006020828403121561198357600080fd5b5051919050565b808201808211156102615761026161187d565b634e487b7160e01b600052603260045260246000fd5b634e487b7160e01b600052601260045260246000fd5b6000826119e657634e487b7160e01b600052601260045260246000fd5b50049056fea2646970667358221220eaa1fb759dd61573455c73a93fe87c1f6400528b2ad0e52ba6ff188ca1f1e33d64736f6c63430008190033","linkReferences":{}},"methodIdentifiers":{"WHERE_REGISTRY()":"6d0fae4a","WHO_REGISTRY()":"c4b5d62c","eip712Domain()":"84b0196e","increaseNonce(address)":"8247a97c","isOptedIn(address,address)":"220d32d4","isOptedInAt(address,address,uint48,bytes)":"530e1d43","nonces(address,address)":"9333fbda","optIn(address)":"b1138ad1","optIn(address,address,uint48,bytes)":"ced44ba7","optOut(address)":"d4610483","optOut(address,address,uint48,bytes)":"93f79bc3","staticDelegateCall(address,bytes)":"9f86fd85"},"id":64}