{"abi":[{"type":"constructor","inputs":[],"stateMutability":"nonpayable"},{"type":"function","name":"WHERE_REGISTRY","inputs":[],"outputs":[{"name":"","type":"address","internalType":"address"}],"stateMutability":"view"},{"type":"function","name":"WHO_REGISTRY","inputs":[],"outputs":[{"name":"","type":"address","internalType":"address"}],"stateMutability":"view"},{"type":"function","name":"eip712Domain","inputs":[],"outputs":[{"name":"fields","type":"bytes1","internalType":"bytes1"},{"name":"name","type":"string","internalType":"string"},{"name":"version","type":"string","internalType":"string"},{"name":"chainId","type":"uint256","internalType":"uint256"},{"name":"verifyingContract","type":"address","internalType":"address"},{"name":"salt","type":"bytes32","internalType":"bytes32"},{"name":"extensions","type":"uint256[]","internalType":"uint256[]"}],"stateMutability":"view"},{"type":"function","name":"increaseNonce","inputs":[{"name":"where","type":"address","internalType":"address"}],"outputs":[],"stateMutability":"nonpayable"},{"type":"function","name":"isOptedIn","inputs":[{"name":"who","type":"address","internalType":"address"},{"name":"where","type":"address","internalType":"address"}],"outputs":[{"name":"","type":"bool","internalType":"bool"}],"stateMutability":"view"},{"type":"function","name":"isOptedInAt","inputs":[{"name":"who","type":"address","internalType":"address"},{"name":"where","type":"address","internalType":"address"},{"name":"timestamp","type":"uint48","internalType":"uint48"},{"name":"hint","type":"bytes","internalType":"bytes"}],"outputs":[{"name":"","type":"bool","internalType":"bool"}],"stateMutability":"view"},{"type":"function","name":"nonces","inputs":[{"name":"who","type":"address","internalType":"address"},{"name":"where","type":"address","internalType":"address"}],"outputs":[{"name":"nonce","type":"uint256","internalType":"uint256"}],"stateMutability":"view"},{"type":"function","name":"optIn","inputs":[{"name":"where","type":"address","internalType":"address"}],"outputs":[],"stateMutability":"nonpayable"},{"type":"function","name":"optIn","inputs":[{"name":"who","type":"address","internalType":"address"},{"name":"where","type":"address","internalType":"address"},{"name":"deadline","type":"uint48","internalType":"uint48"},{"name":"signature","type":"bytes","internalType":"bytes"}],"outputs":[],"stateMutability":"nonpayable"},{"type":"function","name":"optInHint","inputs":[{"name":"optInService","type":"address","internalType":"address"},{"name":"who","type":"address","internalType":"address"},{"name":"where","type":"address","internalType":"address"},{"name":"timestamp","type":"uint48","internalType":"uint48"}],"outputs":[{"name":"","type":"bytes","internalType":"bytes"}],"stateMutability":"view"},{"type":"function","name":"optInHintInternal","inputs":[{"name":"who","type":"address","internalType":"address"},{"name":"where","type":"address","internalType":"address"},{"name":"timestamp","type":"uint48","internalType":"uint48"}],"outputs":[{"name":"exists","type":"bool","internalType":"bool"},{"name":"hint","type":"uint32","internalType":"uint32"}],"stateMutability":"view"},{"type":"function","name":"optOut","inputs":[{"name":"who","type":"address","internalType":"address"},{"name":"where","type":"address","internalType":"address"},{"name":"deadline","type":"uint48","internalType":"uint48"},{"name":"signature","type":"bytes","internalType":"bytes"}],"outputs":[],"stateMutability":"nonpayable"},{"type":"function","name":"optOut","inputs":[{"name":"where","type":"address","internalType":"address"}],"outputs":[],"stateMutability":"nonpayable"},{"type":"function","name":"staticDelegateCall","inputs":[{"name":"target","type":"address","internalType":"address"},{"name":"data","type":"bytes","internalType":"bytes"}],"outputs":[],"stateMutability":"nonpayable"},{"type":"event","name":"EIP712DomainChanged","inputs":[],"anonymous":false},{"type":"event","name":"IncreaseNonce","inputs":[{"name":"who","type":"address","indexed":true,"internalType":"address"},{"name":"where","type":"address","indexed":true,"internalType":"address"}],"anonymous":false},{"type":"event","name":"OptIn","inputs":[{"name":"who","type":"address","indexed":true,"internalType":"address"},{"name":"where","type":"address","indexed":true,"internalType":"address"}],"anonymous":false},{"type":"event","name":"OptOut","inputs":[{"name":"who","type":"address","indexed":true,"internalType":"address"},{"name":"where","type":"address","indexed":true,"internalType":"address"}],"anonymous":false},{"type":"error","name":"AlreadyOptedIn","inputs":[]},{"type":"error","name":"CheckpointUnorderedInsertion","inputs":[]},{"type":"error","name":"ExpiredSignature","inputs":[]},{"type":"error","name":"ExternalCall","inputs":[]},{"type":"error","name":"InvalidShortString","inputs":[]},{"type":"error","name":"InvalidSignature","inputs":[]},{"type":"error","name":"NotOptedIn","inputs":[]},{"type":"error","name":"NotWhereEntity","inputs":[]},{"type":"error","name":"NotWho","inputs":[]},{"type":"error","name":"OptOutCooldown","inputs":[]},{"type":"error","name":"SafeCastOverflowedUintDowncast","inputs":[{"name":"bits","type":"uint8","internalType":"uint8"},{"name":"value","type":"uint256","internalType":"uint256"}]},{"type":"error","name":"StringTooLong","inputs":[{"name":"str","type":"string","internalType":"string"}]}],"bytecode":{"object":"0x6101c060405234801561001157600080fd5b5060408051602080820183526000808352835180850190945260018452603160f81b918401919091523060805291829190819061004e828561010f565b6101405261005d81600161010f565b61016052815160208084019190912061010052815190820120610120524660c0526100ec6101005161012051604080517f8b73c3c69bb8fe3d512ecc4cf759cc79239f7b179b0ffacaa9a75d522b39400f60208201529081019290925260608201524660808201523060a082015260009060c00160405160208183030381529060405280519060200120905090565b60a05250503060e052506001600160a01b0391821661018052166101a05261035c565b600060208351101561012b5761012483610142565b905061013c565b81610136848261022a565b5060ff90505b92915050565b600080829050601f81511115610176578260405163305a27a960e01b815260040161016d91906102e9565b60405180910390fd5b805161018182610338565b179392505050565b634e487b7160e01b600052604160045260246000fd5b600181811c908216806101b357607f821691505b6020821081036101d357634e487b7160e01b600052602260045260246000fd5b50919050565b601f821115610225576000816000526020600020601f850160051c810160208610156102025750805b601f850160051c820191505b818110156102215782815560010161020e565b5050505b505050565b81516001600160401b0381111561024357610243610189565b61025781610251845461019f565b846101d9565b602080601f83116001811461028c57600084156102745750858301515b600019600386901b1c1916600185901b178555610221565b600085815260208120601f198616915b828110156102bb5788860151825594840194600190910190840161029c565b50858210156102d95787850151600019600388901b60f8161c191681555b5050505050600190811b01905550565b60006020808352835180602085015260005b81811015610317578581018301518582016040015282016102fb565b506000604082860101526040601f19601f8301168501019250505092915050565b805160208083015191908110156101d35760001960209190910360031b1b16919050565b60805160a05160c05160e05161010051610120516101405161016051610180516101a051611ff06103e56000396000818161012f0152610ca701526000818161023f0152610c000152600061085a015260006108280152600061153e01526000611516015260006114710152600061149b015260006114c5015260006104800152611ff06000f3fe608060405234801561001057600080fd5b50600436106100ea5760003560e01c80639a15d7a51161008c578063c4b5d62c11610066578063c4b5d62c1461023a578063ced44ba714610261578063d461048314610274578063d4a638621461028757600080fd5b80639a15d7a5146101e55780639f86fd8514610214578063b1138ad11461022757600080fd5b80638247a97c116100c85780638247a97c1461016957806384b0196e1461017e5780639333fbda1461019957806393f79bc3146101d257600080fd5b8063220d32d4146100ef578063530e1d43146101175780636d0fae4a1461012a575b600080fd5b6101026100fd3660046119bc565b6102a7565b60405190151581526020015b60405180910390f35b610102610125366004611a4e565b6102ec565b6101517f000000000000000000000000000000000000000000000000000000000000000081565b6040516001600160a01b03909116815260200161010e565b61017c610177366004611ac4565b61036a565b005b610186610377565b60405161010e9796959493929190611b2f565b6101c46101a73660046119bc565b600260209081526000928352604080842090915290825290205481565b60405190815260200161010e565b61017c6101e0366004611a4e565b6103bd565b6101f86101f3366004611bc8565b610472565b60408051921515835263ffffffff90911660208301520161010e565b61017c610222366004611c0b565b6104fc565b61017c610235366004611ac4565b61058c565b6101517f000000000000000000000000000000000000000000000000000000000000000081565b61017c61026f366004611a4e565b610596565b61017c610282366004611ac4565b610607565b61029a610295366004611c5e565b610611565b60405161010e9190611cb2565b6001600160a01b03808316600090815260036020908152604080832093851683529290529081206102d7906106ca565b6001600160d01b031660011490505b92915050565b60006103538484848080601f01602080910402602001604051908101604052809392919081815260200183838082843760009201829052506001600160a01b03808e168252600360209081526040808420928f168452919052902094939250506106d59050565b6001600160d01b0316600114905095945050505050565b61037433826107c8565b50565b60006060806000806000606061038b610821565b610393610853565b60408051600080825260208201909252600f60f81b9b939a50919850469750309650945092509050565b826103c6610880565b65ffffffffffff168165ffffffffffff1610156103f65760405163df4cc36d60e01b815260040160405180910390fd5b61044386610407600089898961088b565b85858080601f01602080910402602001604051908101604052809392919081815260200183838082843760009201919091525061095c92505050565b61046057604051638baa579f60e01b815260040160405180910390fd5b61046a86866109b4565b505050505050565b600080336001600160a01b037f000000000000000000000000000000000000000000000000000000000000000016146104be57604051637ca475e560e11b815260040160405180910390fd5b6001600160a01b0380861660009081526003602090815260408083209388168352929052206104ed9084610ad7565b92989297509195505050505050565b600080846001600160a01b03168484604051610519929190611cdb565b600060405180830381855af49150503d8060008114610554576040519150601f19603f3d011682016040523d82523d6000602084013e610559565b606091505b509150915060008282604051602001610573929190611ceb565b6040516020818303038152906040529050805181602001fd5b6103743382610be1565b8261059f610880565b65ffffffffffff168165ffffffffffff1610156105cf5760405163df4cc36d60e01b815260040160405180910390fd5b6105e086610407600189898961088b565b6105fd57604051638baa579f60e01b815260040160405180910390fd5b61046a8686610be1565b61037433826109b4565b6040516001600160a01b0380851660248301528316604482015265ffffffffffff82166064820152606090600090819061067990889060840160408051601f198184030181529190526020810180516001600160e01b0316639a15d7a560e01b179052610ddf565b80602001905181019061068c9190611d2a565b9150915081156106bf576040805163ffffffff8316602082015201604051602081830303815290604052925050506106c2565b50505b949350505050565b60006102e682610eaf565b600081516000036106f1576106ea8484610ee8565b90506107c1565b6000828060200190518101906107079190611d54565b905060006107158683610ef4565b90508465ffffffffffff16816000015165ffffffffffff160361073f576020015191506107c19050565b805165ffffffffffff80871691161080156107a05750600161076087610f48565b61076a9190611d85565b8263ffffffff1614806107a0575065ffffffffffff851661079587610790856001611d98565b610ef4565b5165ffffffffffff16115b156107b2576020015191506107c19050565b6107bc8686610ee8565b925050505b9392505050565b6001600160a01b0380831660008181526002602090815260408083209486168084529490915280822080546001019055517f8ed32926585579e6191b145240df788165f4957e1135f30a00e08ee8feb9d6809190a35050565b606061084e7f00000000000000000000000000000000000000000000000000000000000000006000610f52565b905090565b606061084e7f00000000000000000000000000000000000000000000000000000000000000006001610f52565b600061084e42610ffd565b6000610953856108bb577f7830334d17a05ab8aeca8f1778e27182208fc2d454ac7b38a4edc2069ee3a4a66108dd565b7f6ab5200f1123a8d51d1695a9e5e757267926b53c6359f90b8873cc7dcc30ea2c5b6001600160a01b038681166000818152600260209081526040808320948a168084529482529182902054825191820195909552908101919091526060810191909152608081019190915265ffffffffffff841660a082015260c00160405160208183030381529060405280519060200120611038565b95945050505050565b600080600061096b8585611065565b509092509050600081600381111561098557610985611dbc565b1480156109a35750856001600160a01b0316826001600160a01b0316145b806107bc57506107bc8686866110b2565b6001600160a01b038083166000908152600360209081526040808320938516835292905290812081906109e69061118d565b9250925050806001600160d01b0316600003610a15576040516334b09b3960e11b815260040160405180910390fd5b610a1d610880565b65ffffffffffff168265ffffffffffff1603610a4c5760405163291bf4b760e21b815260040160405180910390fd5b610a85610a57610880565b6001600160a01b038087166000908152600360209081526040808320938916835292905290812091906111a8565b5050610a9184846107c8565b826001600160a01b0316846001600160a01b03167f1629cd9ad365627cf8408d19c50224af8f3213c1a18ae48062d92e22bddf7de560405160405180910390a350505050565b815460009081908190819081816005811115610b3c576000610af8846111c3565b610b029085611d85565b60008b81526020902090915081015465ffffffffffff908116908a161015610b2c57809150610b3a565b610b37816001611dd2565b92505b505b6000610b4a8a8a85856112ab565b905080600003610b6b57600080600080975097509750975050505050610bd8565b6000610b8a8b610b7c600185611d85565b600091825260209091200190565b60408051808201909152905465ffffffffffff8116808352600160301b9091046001600160d01b031660208301819052919250600191610bca8386611d85565b985098509850985050505050505b92959194509250565b6040516302910f8b60e31b81526001600160a01b0383811660048301527f000000000000000000000000000000000000000000000000000000000000000016906314887c5890602401602060405180830381865afa158015610c47573d6000803e3d6000fd5b505050506040513d601f19601f82011682018060405250810190610c6b9190611de5565b610c8857604051630fb9ff9560e41b815260040160405180910390fd5b6040516302910f8b60e31b81526001600160a01b0382811660048301527f000000000000000000000000000000000000000000000000000000000000000016906314887c5890602401602060405180830381865afa158015610cee573d6000803e3d6000fd5b505050506040513d601f19601f82011682018060405250810190610d129190611de5565b610d2f576040516321f5408d60e01b815260040160405180910390fd5b610d3982826102a7565b15610d575760405163dcdeaba360e01b815260040160405180910390fd5b610d8f610d62610880565b6001600160a01b0380851660009081526003602090815260408083209387168352929052209060016111a8565b5050610d9b82826107c8565b806001600160a01b0316826001600160a01b03167f9b730d5b907ee509de729817a2bb37e404418ba569b3a50f36192372f973cb4160405160405180910390a35050565b60606000836001600160a01b03163084604051602401610e00929190611e00565b60408051601f198184030181529181526020820180516001600160e01b0316639f86fd8560e01b17905251610e359190611e24565b600060405180830381855afa9150503d8060008114610e70576040519150601f19603f3d011682016040523d82523d6000602084013e610e75565b606091505b5091505060008082806020019051810190610e909190611e40565b9150915081610953578051600003610ea757600080fd5b805181602001fd5b80546000908015610edf57610ec983610b7c600184611d85565b54600160301b90046001600160d01b03166107c1565b60009392505050565b60006107c1838361130d565b60408051808201909152600080825260208201526000610f1484846113b5565b60408051808201909152815165ffffffffffff1681526020918201516001600160d01b031691810191909152949350505050565b60006102e6825490565b606060ff8314610f6c57610f6583611425565b90506102e6565b818054610f7890611f00565b80601f0160208091040260200160405190810160405280929190818152602001828054610fa490611f00565b8015610ff15780601f10610fc657610100808354040283529160200191610ff1565b820191906000526020600020905b815481529060010190602001808311610fd457829003601f168201915b505050505090506102e6565b600065ffffffffffff821115611034576040516306dfcc6560e41b8152603060048201526024810183905260440160405180910390fd5b5090565b60006102e6611045611464565b8360405161190160f01b8152600281019290925260228201526042902090565b6000806000835160410361109f5760208401516040850151606086015160001a6110918882858561158f565b9550955095505050506110ab565b50508151600091506002905b9250925092565b6000806000856001600160a01b031685856040516024016110d4929190611f3a565b60408051601f198184030181529181526020820180516001600160e01b0316630b135d3f60e11b179052516111099190611e24565b600060405180830381855afa9150503d8060008114611144576040519150601f19603f3d011682016040523d82523d6000602084013e611149565b606091505b509150915081801561115d57506020815110155b80156107bc57508051630b135d3f60e11b906111829083016020908101908401611f53565b149695505050505050565b6000808061119a8461165e565b9250925092505b9193909250565b6000806111b68585856116d1565b915091505b935093915050565b6000816000036111d557506000919050565b600060016111e2846116df565b901c6001901b905060018184816111fb576111fb611f6c565b048201901c9050600181848161121357611213611f6c565b048201901c9050600181848161122b5761122b611f6c565b048201901c9050600181848161124357611243611f6c565b048201901c9050600181848161125b5761125b611f6c565b048201901c9050600181848161127357611273611f6c565b048201901c9050600181848161128b5761128b611f6c565b048201901c90506107c1818285816112a5576112a5611f6c565b04611773565b60005b818310156113055760006112c28484611789565b60008781526020902090915065ffffffffffff86169082015465ffffffffffff1611156112f1578092506112ff565b6112fc816001611dd2565b93505b506112ae565b509392505050565b81546000908181600581111561136c576000611328846111c3565b6113329085611d85565b60008881526020902090915081015465ffffffffffff908116908716101561135c5780915061136a565b611367816001611dd2565b92505b505b600061137a878785856117a4565b905080156113a75761139187610b7c600184611d85565b54600160301b90046001600160d01b03166113aa565b60005b979650505050505050565b6040805180820190915260008082526020820152826000018263ffffffff16815481106113e4576113e4611f82565b60009182526020918290206040805180820190915291015465ffffffffffff81168252600160301b90046001600160d01b0316918101919091529392505050565b60606000611432836117fe565b604080516020808252818301909252919250600091906020820181803683375050509182525060208101929092525090565b6000306001600160a01b037f0000000000000000000000000000000000000000000000000000000000000000161480156114bd57507f000000000000000000000000000000000000000000000000000000000000000046145b156114e757507f000000000000000000000000000000000000000000000000000000000000000090565b61084e604080517f8b73c3c69bb8fe3d512ecc4cf759cc79239f7b179b0ffacaa9a75d522b39400f60208201527f0000000000000000000000000000000000000000000000000000000000000000918101919091527f000000000000000000000000000000000000000000000000000000000000000060608201524660808201523060a082015260009060c00160405160208183030381529060405280519060200120905090565b600080807f7fffffffffffffffffffffffffffffff5d576e7357a4501ddfe92f46681b20a08411156115ca5750600091506003905082611654565b604080516000808252602082018084528a905260ff891692820192909252606081018790526080810186905260019060a0016020604051602081039080840390855afa15801561161e573d6000803e3d6000fd5b5050604051601f1901519150506001600160a01b03811661164a57506000925060019150829050611654565b9250600091508190505b9450945094915050565b80546000908190819080820361167f576000806000935093509350506111a1565b600061169086610b7c600185611d85565b60408051808201909152905465ffffffffffff8116808352600160301b9091046001600160d01b0316602090920182905260019650945092506111a1915050565b6000806111b6858585611826565b600080608083901c156116f457608092831c92015b604083901c1561170657604092831c92015b602083901c1561171857602092831c92015b601083901c1561172a57601092831c92015b600883901c1561173c57600892831c92015b600483901c1561174e57600492831c92015b600283901c1561176057600292831c92015b600183901c156102e65760010192915050565b600081831061178257816107c1565b5090919050565b60006117986002848418611f98565b6107c190848416611dd2565b60005b818310156113055760006117bb8484611789565b60008781526020902090915065ffffffffffff86169082015465ffffffffffff1611156117ea578092506117f8565b6117f5816001611dd2565b93505b506117a7565b600060ff8216601f8111156102e657604051632cd44ac360e21b815260040160405180910390fd5b82546000908190801561194557600061184487610b7c600185611d85565b60408051808201909152905465ffffffffffff808216808452600160301b9092046001600160d01b03166020840152919250908716101561189857604051632520601d60e01b815260040160405180910390fd5b805165ffffffffffff8088169116036118e457846118bb88610b7c600186611d85565b80546001600160d01b0392909216600160301b0265ffffffffffff909216919091179055611935565b6040805180820190915265ffffffffffff80881682526001600160d01b0380881660208085019182528b54600181018d5560008d81529190912094519151909216600160301b029216919091179101555b6020015192508391506111bb9050565b50506040805180820190915265ffffffffffff80851682526001600160d01b0380851660208085019182528854600181018a5560008a815291822095519251909316600160301b0291909316179201919091559050816111bb565b80356001600160a01b03811681146119b757600080fd5b919050565b600080604083850312156119cf57600080fd5b6119d8836119a0565b91506119e6602084016119a0565b90509250929050565b803565ffffffffffff811681146119b757600080fd5b60008083601f840112611a1757600080fd5b50813567ffffffffffffffff811115611a2f57600080fd5b602083019150836020828501011115611a4757600080fd5b9250929050565b600080600080600060808688031215611a6657600080fd5b611a6f866119a0565b9450611a7d602087016119a0565b9350611a8b604087016119ef565b9250606086013567ffffffffffffffff811115611aa757600080fd5b611ab388828901611a05565b969995985093965092949392505050565b600060208284031215611ad657600080fd5b6107c1826119a0565b60005b83811015611afa578181015183820152602001611ae2565b50506000910152565b60008151808452611b1b816020860160208601611adf565b601f01601f19169290920160200192915050565b60ff60f81b881681526000602060e06020840152611b5060e084018a611b03565b8381036040850152611b62818a611b03565b606085018990526001600160a01b038816608086015260a0850187905284810360c08601528551808252602080880193509091019060005b81811015611bb657835183529284019291840191600101611b9a565b50909c9b505050505050505050505050565b600080600060608486031215611bdd57600080fd5b611be6846119a0565b9250611bf4602085016119a0565b9150611c02604085016119ef565b90509250925092565b600080600060408486031215611c2057600080fd5b611c29846119a0565b9250602084013567ffffffffffffffff811115611c4557600080fd5b611c5186828701611a05565b9497909650939450505050565b60008060008060808587031215611c7457600080fd5b611c7d856119a0565b9350611c8b602086016119a0565b9250611c99604086016119a0565b9150611ca7606086016119ef565b905092959194509250565b6020815260006107c16020830184611b03565b634e487b7160e01b600052604160045260246000fd5b8183823760009101908152919050565b82151581526040602082015260006106c26040830184611b03565b805180151581146119b757600080fd5b805163ffffffff811681146119b757600080fd5b60008060408385031215611d3d57600080fd5b611d4683611d06565b91506119e660208401611d16565b600060208284031215611d6657600080fd5b6107c182611d16565b634e487b7160e01b600052601160045260246000fd5b818103818111156102e6576102e6611d6f565b63ffffffff818116838216019080821115611db557611db5611d6f565b5092915050565b634e487b7160e01b600052602160045260246000fd5b808201808211156102e6576102e6611d6f565b600060208284031215611df757600080fd5b6107c182611d06565b6001600160a01b03831681526040602082018190526000906106c290830184611b03565b60008251611e36818460208701611adf565b9190910192915050565b60008060408385031215611e5357600080fd5b611e5c83611d06565b9150602083015167ffffffffffffffff80821115611e7957600080fd5b818501915085601f830112611e8d57600080fd5b815181811115611e9f57611e9f611cc5565b604051601f8201601f19908116603f01168101908382118183101715611ec757611ec7611cc5565b81604052828152886020848701011115611ee057600080fd5b611ef1836020830160208801611adf565b80955050505050509250929050565b600181811c90821680611f1457607f821691505b602082108103611f3457634e487b7160e01b600052602260045260246000fd5b50919050565b8281526040602082015260006106c26040830184611b03565b600060208284031215611f6557600080fd5b5051919050565b634e487b7160e01b600052601260045260246000fd5b634e487b7160e01b600052603260045260246000fd5b600082611fb557634e487b7160e01b600052601260045260246000fd5b50049056fea264697066735822122076cece2e1a1979fe332e58e1fbeafffea8850f87d5c5ce354392fe18d2bb8f2764736f6c63430008190033","linkReferences":{}},"methodIdentifiers":{"WHERE_REGISTRY()":"6d0fae4a","WHO_REGISTRY()":"c4b5d62c","eip712Domain()":"84b0196e","increaseNonce(address)":"8247a97c","isOptedIn(address,address)":"220d32d4","isOptedInAt(address,address,uint48,bytes)":"530e1d43","nonces(address,address)":"9333fbda","optIn(address)":"b1138ad1","optIn(address,address,uint48,bytes)":"ced44ba7","optInHint(address,address,address,uint48)":"d4a63862","optInHintInternal(address,address,uint48)":"9a15d7a5","optOut(address)":"d4610483","optOut(address,address,uint48,bytes)":"93f79bc3","staticDelegateCall(address,bytes)":"9f86fd85"},"id":56}