{"abi":[{"type":"constructor","inputs":[{"name":"owner_","type":"address","internalType":"address"}],"stateMutability":"nonpayable"},{"type":"function","name":"blacklist","inputs":[{"name":"type_","type":"uint64","internalType":"uint64"}],"outputs":[],"stateMutability":"nonpayable"},{"type":"function","name":"blacklisted","inputs":[{"name":"type_","type":"uint64","internalType":"uint64"}],"outputs":[{"name":"value","type":"bool","internalType":"bool"}],"stateMutability":"view"},{"type":"function","name":"create","inputs":[{"name":"type_","type":"uint64","internalType":"uint64"},{"name":"data","type":"bytes","internalType":"bytes"}],"outputs":[{"name":"entity_","type":"address","internalType":"address"}],"stateMutability":"nonpayable"},{"type":"function","name":"entity","inputs":[{"name":"index","type":"uint256","internalType":"uint256"}],"outputs":[{"name":"","type":"address","internalType":"address"}],"stateMutability":"view"},{"type":"function","name":"implementation","inputs":[{"name":"type_","type":"uint64","internalType":"uint64"}],"outputs":[{"name":"","type":"address","internalType":"address"}],"stateMutability":"view"},{"type":"function","name":"isEntity","inputs":[{"name":"entity_","type":"address","internalType":"address"}],"outputs":[{"name":"","type":"bool","internalType":"bool"}],"stateMutability":"view"},{"type":"function","name":"owner","inputs":[],"outputs":[{"name":"","type":"address","internalType":"address"}],"stateMutability":"view"},{"type":"function","name":"renounceOwnership","inputs":[],"outputs":[],"stateMutability":"nonpayable"},{"type":"function","name":"totalEntities","inputs":[],"outputs":[{"name":"","type":"uint256","internalType":"uint256"}],"stateMutability":"view"},{"type":"function","name":"totalTypes","inputs":[],"outputs":[{"name":"","type":"uint64","internalType":"uint64"}],"stateMutability":"view"},{"type":"function","name":"transferOwnership","inputs":[{"name":"newOwner","type":"address","internalType":"address"}],"outputs":[],"stateMutability":"nonpayable"},{"type":"function","name":"whitelist","inputs":[{"name":"implementation_","type":"address","internalType":"address"}],"outputs":[],"stateMutability":"nonpayable"},{"type":"event","name":"AddEntity","inputs":[{"name":"entity","type":"address","indexed":true,"internalType":"address"}],"anonymous":false},{"type":"event","name":"Blacklist","inputs":[{"name":"type_","type":"uint64","indexed":true,"internalType":"uint64"}],"anonymous":false},{"type":"event","name":"OwnershipTransferred","inputs":[{"name":"previousOwner","type":"address","indexed":true,"internalType":"address"},{"name":"newOwner","type":"address","indexed":true,"internalType":"address"}],"anonymous":false},{"type":"event","name":"Whitelist","inputs":[{"name":"implementation","type":"address","indexed":true,"internalType":"address"}],"anonymous":false},{"type":"error","name":"AlreadyBlacklisted","inputs":[]},{"type":"error","name":"AlreadyWhitelisted","inputs":[]},{"type":"error","name":"ERC1167FailedCreateClone","inputs":[]},{"type":"error","name":"EntityNotExist","inputs":[]},{"type":"error","name":"InvalidImplementation","inputs":[]},{"type":"error","name":"InvalidType","inputs":[]},{"type":"error","name":"OwnableInvalidOwner","inputs":[{"name":"owner","type":"address","internalType":"address"}]},{"type":"error","name":"OwnableUnauthorizedAccount","inputs":[{"name":"account","type":"address","internalType":"address"}]}],"bytecode":{"object":"0x608060405234801561001057600080fd5b50604051610a94380380610a9483398101604081905261002f916100c2565b80806001600160a01b03811661005f57604051631e4fbdf760e01b81526000600482015260240160405180910390fd5b61006881610070565b5050506100f2565b600280546001600160a01b038381166001600160a01b0319831681179093556040519116919082907f8be0079c531659141344cd1fd0a4f28419497f9722a3daafe3b4186f6b6457e090600090a35050565b6000602082840312156100d457600080fd5b81516001600160a01b03811681146100eb57600080fd5b9392505050565b610993806101016000396000f3fe608060405234801561001057600080fd5b50600436106100b45760003560e01c8063b572a96611610071578063b572a9661461014c578063b6caa1191461015f578063cd108ef814610182578063f15df2e514610195578063f2fde38b146101b6578063f9661602146101c957600080fd5b806314887c58146100b95780635cd8b15e146100e1578063715018a6146100f75780638da5cb5b146101015780639b19251a14610126578063b42ba2a214610139575b600080fd5b6100cc6100c73660046107a6565b6101dc565b60405190151581526020015b60405180910390f35b6100e96101ee565b6040519081526020016100d8565b6100ff6101ff565b005b6002546001600160a01b03165b6040516001600160a01b0390911681526020016100d8565b6100ff6101343660046107a6565b610213565b61010e6101473660046107c3565b610396565b6100ff61015a3660046107f2565b6103a2565b6100cc61016d3660046107f2565b60036020526000908152604090205460ff1681565b61010e61019036600461080f565b61046f565b61019d610532565b60405167ffffffffffffffff90911681526020016100d8565b6100ff6101c43660046107a6565b61053e565b61010e6101d73660046107f2565b610581565b60006101e88183610598565b92915050565b60006101fa60006105bd565b905090565b6102076105c7565b61021160006105f4565b565b61021b6105c7565b306001600160a01b0316816001600160a01b0316632dd310006040518163ffffffff1660e01b8152600401602060405180830381865afa158015610263573d6000803e3d6000fd5b505050506040513d601f19601f820116820180604052508101906102879190610894565b6001600160a01b031614158061031957506102a0610532565b67ffffffffffffffff16816001600160a01b031663bb24fe8a6040518163ffffffff1660e01b8152600401602060405180830381865afa1580156102e8573d6000803e3d6000fd5b505050506040513d601f19601f8201168201806040525081019061030c91906108b1565b67ffffffffffffffff1614155b156103375760405163340aafcd60e11b815260040160405180910390fd5b610342600482610646565b61035f5760405163b73e95e160e01b815260040160405180910390fd5b6040516001600160a01b038216907feb73900b98b6a3e2b8b01708fe544760cf570d21e7fbe5225f24e48b5b2b432e90600090a250565b60006101e8818361065b565b6103aa6105c7565b806103b3610532565b67ffffffffffffffff168167ffffffffffffffff16106103e65760405163b968846160e01b815260040160405180910390fd5b67ffffffffffffffff821660009081526003602052604090205460ff16156104215760405163f53de75f60e01b815260040160405180910390fd5b67ffffffffffffffff8216600081815260036020526040808220805460ff19166001179055517ffc8245c2838846b295ae66fbe0d08e20c799b737c93b56f7b209df2e5fa2d4589190a25050565b60006104c061047c6101ee565b85858560405160200161049294939291906108f7565b604051602081830303815290604052805190602001206104b186610581565b6001600160a01b031690610667565b90506104cb816106d5565b60405163439fab9160e01b81526001600160a01b0382169063439fab91906104f9908690869060040161092b565b600060405180830381600087803b15801561051357600080fd5b505af1158015610527573d6000803e3d6000fd5b505050509392505050565b60006101fa60046105bd565b6105466105c7565b6001600160a01b03811661057557604051631e4fbdf760e01b8152600060048201526024015b60405180910390fd5b61057e816105f4565b50565b60006101e8600467ffffffffffffffff841661065b565b6001600160a01b038116600090815260018301602052604081205415155b9392505050565b60006101e8825490565b6002546001600160a01b031633146102115760405163118cdaa760e01b815233600482015260240161056c565b600280546001600160a01b038381166001600160a01b0319831681179093556040519116919082907f8be0079c531659141344cd1fd0a4f28419497f9722a3daafe3b4186f6b6457e090600090a35050565b60006105b6836001600160a01b038416610718565b60006105b68383610767565b6000763d602d80600a3d3981f3363d3d373d3d3d363d730000008360601b60e81c176000526e5af43d82803e903d91602b57fd5bf38360781b1760205281603760096000f590506001600160a01b0381166101e8576040516330be1a3d60e21b815260040160405180910390fd5b6106e0600082610646565b506040516001600160a01b038216907fb919910dcefbf753bfd926ab3b1d3f85d877190c3d01ba1bd585047b99b99f0b90600090a250565b600081815260018301602052604081205461075f575081546001818101845560008481526020808220909301849055845484825282860190935260409020919091556101e8565b5060006101e8565b600082600001828154811061077e5761077e610947565b9060005260206000200154905092915050565b6001600160a01b038116811461057e57600080fd5b6000602082840312156107b857600080fd5b81356105b681610791565b6000602082840312156107d557600080fd5b5035919050565b67ffffffffffffffff8116811461057e57600080fd5b60006020828403121561080457600080fd5b81356105b6816107dc565b60008060006040848603121561082457600080fd5b833561082f816107dc565b9250602084013567ffffffffffffffff8082111561084c57600080fd5b818601915086601f83011261086057600080fd5b81358181111561086f57600080fd5b87602082850101111561088157600080fd5b6020830194508093505050509250925092565b6000602082840312156108a657600080fd5b81516105b681610791565b6000602082840312156108c357600080fd5b81516105b6816107dc565b81835281816020850137506000828201602090810191909152601f909101601f19169091010190565b84815267ffffffffffffffff841660208201526060604082015260006109216060830184866108ce565b9695505050505050565b60208152600061093f6020830184866108ce565b949350505050565b634e487b7160e01b600052603260045260246000fdfea2646970667358221220ff7c3626283e3a994d49027837d5cb90e64494898b040a8853849df50ee7e99d64736f6c63430008190033","linkReferences":{}},"methodIdentifiers":{"blacklist(uint64)":"b572a966","blacklisted(uint64)":"b6caa119","create(uint64,bytes)":"cd108ef8","entity(uint256)":"b42ba2a2","implementation(uint64)":"f9661602","isEntity(address)":"14887c58","owner()":"8da5cb5b","renounceOwnership()":"715018a6","totalEntities()":"5cd8b15e","totalTypes()":"f15df2e5","transferOwnership(address)":"f2fde38b","whitelist(address)":"9b19251a"},"id":40}