{"abi":[{"type":"constructor","inputs":[{"name":"vaultFactory","type":"address","internalType":"address"},{"name":"networkMiddlewareService","type":"address","internalType":"address"},{"name":"slasherFactory","type":"address","internalType":"address"},{"name":"entityType","type":"uint64","internalType":"uint64"}],"stateMutability":"nonpayable"},{"type":"function","name":"BURNER_GAS_LIMIT","inputs":[],"outputs":[{"name":"","type":"uint256","internalType":"uint256"}],"stateMutability":"view"},{"type":"function","name":"BURNER_RESERVE","inputs":[],"outputs":[{"name":"","type":"uint256","internalType":"uint256"}],"stateMutability":"view"},{"type":"function","name":"FACTORY","inputs":[],"outputs":[{"name":"","type":"address","internalType":"address"}],"stateMutability":"view"},{"type":"function","name":"NETWORK_MIDDLEWARE_SERVICE","inputs":[],"outputs":[{"name":"","type":"address","internalType":"address"}],"stateMutability":"view"},{"type":"function","name":"TYPE","inputs":[],"outputs":[{"name":"","type":"uint64","internalType":"uint64"}],"stateMutability":"view"},{"type":"function","name":"VAULT_FACTORY","inputs":[],"outputs":[{"name":"","type":"address","internalType":"address"}],"stateMutability":"view"},{"type":"function","name":"cumulativeSlash","inputs":[{"name":"subnetwork","type":"bytes32","internalType":"bytes32"},{"name":"operator","type":"address","internalType":"address"}],"outputs":[{"name":"","type":"uint256","internalType":"uint256"}],"stateMutability":"view"},{"type":"function","name":"cumulativeSlashAt","inputs":[{"name":"subnetwork","type":"bytes32","internalType":"bytes32"},{"name":"operator","type":"address","internalType":"address"},{"name":"timestamp","type":"uint48","internalType":"uint48"},{"name":"hint","type":"bytes","internalType":"bytes"}],"outputs":[{"name":"","type":"uint256","internalType":"uint256"}],"stateMutability":"view"},{"type":"function","name":"initialize","inputs":[{"name":"data","type":"bytes","internalType":"bytes"}],"outputs":[],"stateMutability":"nonpayable"},{"type":"function","name":"isBurnerHook","inputs":[],"outputs":[{"name":"","type":"bool","internalType":"bool"}],"stateMutability":"view"},{"type":"function","name":"latestSlashedCaptureTimestamp","inputs":[{"name":"subnetwork","type":"bytes32","internalType":"bytes32"},{"name":"operator","type":"address","internalType":"address"}],"outputs":[{"name":"value","type":"uint48","internalType":"uint48"}],"stateMutability":"view"},{"type":"function","name":"slash","inputs":[{"name":"subnetwork","type":"bytes32","internalType":"bytes32"},{"name":"operator","type":"address","internalType":"address"},{"name":"amount","type":"uint256","internalType":"uint256"},{"name":"captureTimestamp","type":"uint48","internalType":"uint48"},{"name":"hints","type":"bytes","internalType":"bytes"}],"outputs":[{"name":"slashedAmount","type":"uint256","internalType":"uint256"}],"stateMutability":"nonpayable"},{"type":"function","name":"slashableStake","inputs":[{"name":"subnetwork","type":"bytes32","internalType":"bytes32"},{"name":"operator","type":"address","internalType":"address"},{"name":"captureTimestamp","type":"uint48","internalType":"uint48"},{"name":"hints","type":"bytes","internalType":"bytes"}],"outputs":[{"name":"amount","type":"uint256","internalType":"uint256"}],"stateMutability":"view"},{"type":"function","name":"staticDelegateCall","inputs":[{"name":"target","type":"address","internalType":"address"},{"name":"data","type":"bytes","internalType":"bytes"}],"outputs":[],"stateMutability":"nonpayable"},{"type":"function","name":"vault","inputs":[],"outputs":[{"name":"","type":"address","internalType":"address"}],"stateMutability":"view"},{"type":"event","name":"Initialized","inputs":[{"name":"version","type":"uint64","indexed":false,"internalType":"uint64"}],"anonymous":false},{"type":"event","name":"Slash","inputs":[{"name":"subnetwork","type":"bytes32","indexed":true,"internalType":"bytes32"},{"name":"operator","type":"address","indexed":true,"internalType":"address"},{"name":"slashedAmount","type":"uint256","indexed":false,"internalType":"uint256"},{"name":"captureTimestamp","type":"uint48","indexed":false,"internalType":"uint48"}],"anonymous":false},{"type":"error","name":"CheckpointUnorderedInsertion","inputs":[]},{"type":"error","name":"InsufficientBurnerGas","inputs":[]},{"type":"error","name":"InsufficientSlash","inputs":[]},{"type":"error","name":"InvalidCaptureTimestamp","inputs":[]},{"type":"error","name":"InvalidInitialization","inputs":[]},{"type":"error","name":"NoBurner","inputs":[]},{"type":"error","name":"NotInitialized","inputs":[]},{"type":"error","name":"NotInitializing","inputs":[]},{"type":"error","name":"NotNetworkMiddleware","inputs":[]},{"type":"error","name":"NotVault","inputs":[]},{"type":"error","name":"ReentrancyGuardReentrantCall","inputs":[]},{"type":"error","name":"SafeCastOverflowedUintDowncast","inputs":[{"name":"bits","type":"uint8","internalType":"uint8"},{"name":"value","type":"uint256","internalType":"uint256"}]}],"bytecode":{"object":"0x61010060405234801561001157600080fd5b506040516123723803806123728339810160408190526100309161013c565b83838383818161003e61006e565b6001600160a01b039182166080526001600160401b031660a05293841660c05250501660e0525061019f92505050565b7ff0c57e16840df040f15088dc2f81fe391c3923bec73e23a9662efc9c229c6a00805468010000000000000000900460ff16156100be5760405163f92ee8a960e01b815260040160405180910390fd5b80546001600160401b039081161461011d5780546001600160401b0319166001600160401b0390811782556040519081527fc7f505b2f371ae2175ee4913f4499e1f2633a7b5936321eed1cdaeb6115181d29060200160405180910390a15b50565b80516001600160a01b038116811461013757600080fd5b919050565b6000806000806080858703121561015257600080fd5b61015b85610120565b935061016960208601610120565b925061017760408601610120565b60608601519092506001600160401b038116811461019457600080fd5b939692955090935050565b60805160a05160c05160e0516121856101ed600039600081816101ca01526107980152600081816101250152610f7a01526000818161028a0152610c53015260006101f101526121856000f3fe608060405234801561001057600080fd5b50600436106100f55760003560e01c806334d098ea11610097578063aab3595f11610066578063aab3595f14610272578063bb24fe8a14610285578063d5c24e1a146102c4578063fbfa77cf146102ce57600080fd5b806334d098ea14610213578063439fab91146102375780639f86fd851461024c578063aa8e64891461025f57600080fd5b8063267de1f3116100d3578063267de1f3146101725780632964f8dc146101bc5780632c9d45b3146101c55780632dd31000146101ec57600080fd5b8063021a8156146100fa578063103f2907146101205780631a2be2c41461015f575b600080fd5b61010d610108366004611a34565b6102e1565b6040519081526020015b60405180910390f35b6101477f000000000000000000000000000000000000000000000000000000000000000081565b6040516001600160a01b039091168152602001610117565b61010d61016d366004611aaf565b610529565b6101a5610180366004611aaf565b600160209081526000928352604080842090915290825290205465ffffffffffff1681565b60405165ffffffffffff9091168152602001610117565b61010d614e2081565b6101477f000000000000000000000000000000000000000000000000000000000000000081565b6101477f000000000000000000000000000000000000000000000000000000000000000081565b60005461022790600160a01b900460ff1681565b6040519015158152602001610117565b61024a610245366004611adf565b61055d565b005b61024a61025a366004611b20565b61066d565b61010d61026d366004611c5f565b6106fd565b61010d610280366004611c5f565b610733565b6102ac7f000000000000000000000000000000000000000000000000000000000000000081565b6040516001600160401b039091168152602001610117565b61010d620249f081565b600054610147906001600160a01b031681565b60006102eb61074b565b866102f581610795565b60408051602081019091526060815283156103195761031684860186611cca565b90505b60008054906101000a90046001600160a01b03166001600160a01b0316634ff0876a6040518163ffffffff1660e01b8152600401602060405180830381865afa15801561036a573d6000803e3d6000fd5b505050506040513d601f19601f8201168201806040525081019061038e9190611d36565b610396610861565b6103a09190611d69565b65ffffffffffff168665ffffffffffff1610806103d457506103c0610861565b65ffffffffffff168665ffffffffffff1610155b156103f257604051631357ac9160e11b815260040160405180910390fd5b6000806104058b8b8a8660000151610871565b915091506104138983610ae5565b9450846000036104365760405163167f871760e31b815260040160405180910390fd5b6104418b8b8a610afb565b61044c8b8b87610b6f565b604080518082018252838152602090810183815282519182018590525181830152815180820383018152606090910190915261048f908c908c9088908c90610bbf565b6104998589610cfc565b6104a58b8b878b610d79565b6040805186815265ffffffffffff8a1660208201526001600160a01b038c16918d917fe0cbbe1f1e6fd806ca87036fafcebaf7ab5247474a3b20e1c37bb50122c3a884910160405180910390a35050505061051f60017f9b779b17422d0df92223018b32b4d1fa46e071723d6817e2486d003becc55f0055565b9695505050505050565b60008281526002602090815260408083206001600160a01b0385168452909152812061055490610eef565b90505b92915050565b7ff0c57e16840df040f15088dc2f81fe391c3923bec73e23a9662efc9c229c6a008054600160401b810460ff1615906001600160401b03166000811580156105a25750825b90506000826001600160401b031660011480156105be5750303b155b9050811580156105cc575080155b156105ea5760405163f92ee8a960e01b815260040160405180910390fd5b845467ffffffffffffffff19166001178555831561061457845460ff60401b1916600160401b1785555b61061e8787610f46565b831561066457845460ff60401b19168555604051600181527fc7f505b2f371ae2175ee4913f4499e1f2633a7b5936321eed1cdaeb6115181d29060200160405180910390a15b50505050505050565b600080846001600160a01b0316848460405161068a929190611d8f565b600060405180830381855af49150503d80600081146106c5576040519150601f19603f3d011682016040523d82523d6000602084013e6106ca565b606091505b5091509150600082826040516020016106e4929190611def565b6040516020818303038152906040529050805181602001fd5b60008481526002602090815260408083206001600160a01b0387168452909152812061072a9084846110f5565b95945050505050565b600061074185858585610871565b5095945050505050565b7f9b779b17422d0df92223018b32b4d1fa46e071723d6817e2486d003becc55f0080546001190161078f57604051633ee5aeb560e01b815260040160405180910390fd5b60029055565b337f00000000000000000000000000000000000000000000000000000000000000006001600160a01b031663bb5ed0326107cf8460601c90565b6040516001600160e01b031960e084901b1681526001600160a01b039091166004820152602401602060405180830381865afa158015610813573d6000803e3d6000fd5b505050506040513d601f19601f820116820180604052508101906108379190611e0a565b6001600160a01b03161461085e5760405163227bf64d60e01b815260040160405180910390fd5b50565b600061086c426111dc565b905090565b600080610891604051806040016040528060608152602001606081525090565b8351156108af57838060200190518101906108ac9190611e6c565b90505b60008054906101000a90046001600160a01b03166001600160a01b0316634ff0876a6040518163ffffffff1660e01b8152600401602060405180830381865afa158015610900573d6000803e3d6000fd5b505050506040513d601f19601f820116820180604052508101906109249190611d36565b61092c610861565b6109369190611d69565b65ffffffffffff168565ffffffffffff16108061096a5750610956610861565b65ffffffffffff168565ffffffffffff1610155b806109a2575060008781526001602090815260408083206001600160a01b038a16845290915290205465ffffffffffff908116908616105b156109b4576000809250925050610adc565b60008054906101000a90046001600160a01b03166001600160a01b031663ce9b79306040518163ffffffff1660e01b8152600401602060405180830381865afa158015610a05573d6000803e3d6000fd5b505050506040513d601f19601f82011682018060405250810190610a299190611e0a565b815160405163e02f693760e01b81526001600160a01b03929092169163e02f693791610a5e918b918b918b9190600401611f12565b602060405180830381865afa158015610a7b573d6000803e3d6000fd5b505050506040513d601f19601f82011682018060405250810190610a9f9190611f4a565b9150610ace610ab488888885602001516106fd565b610abe8989610529565b610ac89190611f63565b83610ae5565b610ad89083611f63565b9250505b94509492505050565b6000818310610af45781610554565b5090919050565b60008381526001602090815260408083206001600160a01b038616845290915290205465ffffffffffff80831691161015610b6a5760008381526001602090815260408083206001600160a01b03861684529091529020805465ffffffffffff191665ffffffffffff83161790555b505050565b610bb8610b7a610861565b82610b858686610529565b610b8f9190611f76565b60008681526002602090815260408083206001600160a01b038916845290915290209190611217565b5050505050565b60008054906101000a90046001600160a01b03166001600160a01b031663ce9b79306040518163ffffffff1660e01b8152600401602060405180830381865afa158015610c10573d6000803e3d6000fd5b505050506040513d601f19601f82011682018060405250810190610c349190611e0a565b6001600160a01b031663e49561ee8686868660405180604001604052807f00000000000000000000000000000000000000000000000000000000000000006001600160401b0316815260200188815250604051602001610c949190611f89565b6040516020818303038152906040526040518663ffffffff1660e01b8152600401610cc3959493929190611fb7565b600060405180830381600087803b158015610cdd57600080fd5b505af1158015610cf1573d6000803e3d6000fd5b505050505050505050565b600054604051631c9e38c760e21b81526004810184905265ffffffffffff831660248201526001600160a01b0390911690637278e31c906044016020604051808303816000875af1158015610d55573d6000803e3d6000fd5b505050506040513d601f19601f82011682018060405250810190610b6a9190611f4a565b600054600160a01b900460ff1615610ec35760008060009054906101000a90046001600160a01b03166001600160a01b03166327810b6e6040518163ffffffff1660e01b8152600401602060405180830381865afa158015610ddf573d6000803e3d6000fd5b505050506040513d601f19601f82011682018060405250810190610e039190611e0a565b604051602481018790526001600160a01b03861660448201526064810185905265ffffffffffff8416608482015290915060009060a40160408051601f198184030181529181526020820180516001600160e01b031663065c1e0360e01b179052909150603f90610e7890620249f090611ff2565b610e82919061201f565b610e8e90614e20611f76565b5a1015610eae57604051632153f33560e21b815260040160405180910390fd5b600080825160208401600086620249f0f15050505b50505050565b60017f9b779b17422d0df92223018b32b4d1fa46e071723d6817e2486d003becc55f0055565b600080610efb836112f1565b90506000816001600160d01b031611610f15576000610f3f565b82600101816001600160d01b031681548110610f3357610f33612041565b90600052602060002001545b9392505050565b600080610f5583850185612057565b6040516302910f8b60e31b81526001600160a01b0380841660048301529294509092507f0000000000000000000000000000000000000000000000000000000000000000909116906314887c5890602401602060405180830381865afa158015610fc3573d6000803e3d6000fd5b505050506040513d601f19601f82011682018060405250810190610fe791906120bb565b611004576040516362df054560e01b815260040160405180910390fd5b61100c611338565b600080546001600160a01b0319166001600160a01b038416178155611031838361134a565b905060006001600160a01b0316836001600160a01b03166327810b6e6040518163ffffffff1660e01b8152600401602060405180830381865afa15801561107c573d6000803e3d6000fd5b505050506040513d601f19601f820116820180604052508101906110a09190611e0a565b6001600160a01b03161480156110b4575080515b156110d25760405163d2420f5960e01b815260040160405180910390fd5b5160008054911515600160a01b0260ff60a01b1990921691909117905550505050565b600081516000036111115761110a8484611378565b9050610f3f565b60008280602001905181019061112791906120d6565b9050600061113586836113d1565b90508465ffffffffffff16816000015165ffffffffffff160361115f57602001519150610f3f9050565b805165ffffffffffff80871691161080156111c05750600161118087611449565b61118a9190611f63565b8263ffffffff1614806111c0575065ffffffffffff85166111b5876111b08560016120fc565b6113d1565b5165ffffffffffff16115b156111d257602001519150610f3f9050565b61051f8686611378565b600065ffffffffffff821115611213576040516306dfcc6560e41b8152603060048201526024810183905260440160405180910390fd5b5090565b60018301546000908190810361124157600180860180549182018155600090815260208120909101555b60008061124d87611453565b5060018901549193509150600061126389610eef565b905083801561128157508265ffffffffffff168865ffffffffffff16145b156112b95786896001016001846112989190611f63565b815481106112a8576112a8612041565b6000918252602090912001556112e0565b6112c48989846114cd565b50506001808a0180549182018155600090815260209020018790555b94508593505050505b935093915050565b8054600090801561132f576113198361130b600184611f63565b600091825260209091200190565b54600160301b90046001600160d01b0316610f3f565b60009392505050565b6113406114e7565b611348611530565b565b60408051602081019091526000815260008280602001905181019061136f9190612119565b51949350505050565b6000806113858484611538565b90506000816001600160d01b03161161139f5760006113c9565b83600101816001600160d01b0316815481106113bd576113bd612041565b90600052602060002001545b949350505050565b604080518082019091526000808252602082015260006113f184846115e0565b90506040518060400160405280826000015165ffffffffffff1681526020018560010183602001516001600160d01b03168154811061143257611432612041565b906000526020600020015481525091505092915050565b6000610557825490565b805460009081908190808203611474576000806000935093509350506114c6565b60006114858661130b600185611f63565b60408051808201909152905465ffffffffffff8116808352600160301b9091046001600160d01b0316602090920182905260019650945092506114c6915050565b9193909250565b6000806114db858585611650565b91509150935093915050565b7ff0c57e16840df040f15088dc2f81fe391c3923bec73e23a9662efc9c229c6a0054600160401b900460ff1661134857604051631afcd79f60e31b815260040160405180910390fd5b610ec96114e7565b815460009081816005811115611597576000611553846117ca565b61155d9085611f63565b60008881526020902090915081015465ffffffffffff908116908716101561158757809150611595565b611592816001611f76565b92505b505b60006115a5878785856118b2565b905080156115d2576115bc8761130b600184611f63565b54600160301b90046001600160d01b03166115d5565b60005b979650505050505050565b6040805180820190915260008082526020820152826000018263ffffffff168154811061160f5761160f612041565b60009182526020918290206040805180820190915291015465ffffffffffff81168252600160301b90046001600160d01b0316918101919091529392505050565b82546000908190801561176f57600061166e8761130b600185611f63565b60408051808201909152905465ffffffffffff808216808452600160301b9092046001600160d01b0316602084015291925090871610156116c257604051632520601d60e01b815260040160405180910390fd5b805165ffffffffffff80881691160361170e57846116e58861130b600186611f63565b80546001600160d01b0392909216600160301b0265ffffffffffff90921691909117905561175f565b6040805180820190915265ffffffffffff80881682526001600160d01b0380881660208085019182528b54600181018d5560008d81529190912094519151909216600160301b029216919091179101555b6020015192508391506112e99050565b50506040805180820190915265ffffffffffff80851682526001600160d01b0380851660208085019182528854600181018a5560008a815291822095519251909316600160301b0291909316179201919091559050816112e9565b6000816000036117dc57506000919050565b600060016117e984611914565b901c6001901b9050600181848161180257611802612009565b048201901c9050600181848161181a5761181a612009565b048201901c9050600181848161183257611832612009565b048201901c9050600181848161184a5761184a612009565b048201901c9050600181848161186257611862612009565b048201901c9050600181848161187a5761187a612009565b048201901c9050600181848161189257611892612009565b048201901c9050610f3f818285816118ac576118ac612009565b04610ae5565b60005b8183101561190c5760006118c984846119a8565b60008781526020902090915065ffffffffffff86169082015465ffffffffffff1611156118f857809250611906565b611903816001611f76565b93505b506118b5565b509392505050565b600080608083901c1561192957608092831c92015b604083901c1561193b57604092831c92015b602083901c1561194d57602092831c92015b601083901c1561195f57601092831c92015b600883901c1561197157600892831c92015b600483901c1561198357600492831c92015b600283901c1561199557600292831c92015b600183901c156105575760010192915050565b60006119b7600284841861201f565b61055490848416611f76565b6001600160a01b038116811461085e57600080fd5b65ffffffffffff8116811461085e57600080fd5b60008083601f8401126119fe57600080fd5b5081356001600160401b03811115611a1557600080fd5b602083019150836020828501011115611a2d57600080fd5b9250929050565b60008060008060008060a08789031215611a4d57600080fd5b863595506020870135611a5f816119c3565b9450604087013593506060870135611a76816119d8565b925060808701356001600160401b03811115611a9157600080fd5b611a9d89828a016119ec565b979a9699509497509295939492505050565b60008060408385031215611ac257600080fd5b823591506020830135611ad4816119c3565b809150509250929050565b60008060208385031215611af257600080fd5b82356001600160401b03811115611b0857600080fd5b611b14858286016119ec565b90969095509350505050565b600080600060408486031215611b3557600080fd5b8335611b40816119c3565b925060208401356001600160401b03811115611b5b57600080fd5b611b67868287016119ec565b9497909650939450505050565b634e487b7160e01b600052604160045260246000fd5b604051602081016001600160401b0381118282101715611bac57611bac611b74565b60405290565b604051601f8201601f191681016001600160401b0381118282101715611bda57611bda611b74565b604052919050565b60006001600160401b03821115611bfb57611bfb611b74565b50601f01601f191660200190565b600082601f830112611c1a57600080fd5b8135611c2d611c2882611be2565b611bb2565b818152846020838601011115611c4257600080fd5b816020850160208301376000918101602001919091529392505050565b60008060008060808587031215611c7557600080fd5b843593506020850135611c87816119c3565b92506040850135611c97816119d8565b915060608501356001600160401b03811115611cb257600080fd5b611cbe87828801611c09565b91505092959194509250565b600060208284031215611cdc57600080fd5b81356001600160401b0380821115611cf357600080fd5b9083019060208286031215611d0757600080fd5b611d0f611b8a565b823582811115611d1e57600080fd5b611d2a87828601611c09565b82525095945050505050565b600060208284031215611d4857600080fd5b8151610f3f816119d8565b634e487b7160e01b600052601160045260246000fd5b65ffffffffffff828116828216039080821115611d8857611d88611d53565b5092915050565b8183823760009101908152919050565b60005b83811015611dba578181015183820152602001611da2565b50506000910152565b60008151808452611ddb816020860160208601611d9f565b601f01601f19169290920160200192915050565b82151581526040602082015260006113c96040830184611dc3565b600060208284031215611e1c57600080fd5b8151610f3f816119c3565b600082601f830112611e3857600080fd5b8151611e46611c2882611be2565b818152846020838601011115611e5b57600080fd5b6113c9826020830160208701611d9f565b600060208284031215611e7e57600080fd5b81516001600160401b0380821115611e9557600080fd5b9083019060408286031215611ea957600080fd5b604051604081018181108382111715611ec457611ec4611b74565b604052825182811115611ed657600080fd5b611ee287828601611e27565b825250602083015182811115611ef757600080fd5b611f0387828601611e27565b60208301525095945050505050565b8481526001600160a01b038416602082015265ffffffffffff8316604082015260806060820181905260009061051f90830184611dc3565b600060208284031215611f5c57600080fd5b5051919050565b8181038181111561055757610557611d53565b8082018082111561055757610557611d53565b602081526001600160401b038251166020820152600060208301516040808401526113c96060840182611dc3565b85815260018060a01b038516602082015283604082015265ffffffffffff8316606082015260a0608082015260006115d560a0830184611dc3565b808202811582820484141761055757610557611d53565b634e487b7160e01b600052601260045260246000fd5b60008261203c57634e487b7160e01b600052601260045260246000fd5b500490565b634e487b7160e01b600052603260045260246000fd5b6000806040838503121561206a57600080fd5b8235612075816119c3565b915060208301356001600160401b0381111561209057600080fd5b61209c85828601611c09565b9150509250929050565b805180151581146120b657600080fd5b919050565b6000602082840312156120cd57600080fd5b610554826120a6565b6000602082840312156120e857600080fd5b815163ffffffff81168114610f3f57600080fd5b63ffffffff818116838216019080821115611d8857611d88611d53565b60006020828403121561212b57600080fd5b612133611b8a565b61213b611b8a565b612144846120a6565b81528152939250505056fea264697066735822122001295abdaa5a5ad117275184660476c9cc22fc601735ca747e49d39e3b7ed07a64736f6c63430008190033","linkReferences":{}},"methodIdentifiers":{"BURNER_GAS_LIMIT()":"d5c24e1a","BURNER_RESERVE()":"2964f8dc","FACTORY()":"2dd31000","NETWORK_MIDDLEWARE_SERVICE()":"2c9d45b3","TYPE()":"bb24fe8a","VAULT_FACTORY()":"103f2907","cumulativeSlash(bytes32,address)":"1a2be2c4","cumulativeSlashAt(bytes32,address,uint48,bytes)":"aa8e6489","initialize(bytes)":"439fab91","isBurnerHook()":"34d098ea","latestSlashedCaptureTimestamp(bytes32,address)":"267de1f3","slash(bytes32,address,uint256,uint48,bytes)":"021a8156","slashableStake(bytes32,address,uint48,bytes)":"aab3595f","staticDelegateCall(address,bytes)":"9f86fd85","vault()":"fbfa77cf"},"id":66}