{"abi":[{"type":"constructor","inputs":[{"name":"baseSlasherHints","type":"address","internalType":"address"}],"stateMutability":"nonpayable"},{"type":"function","name":"BASE_SLASHER_HINTS","inputs":[],"outputs":[{"name":"","type":"address","internalType":"address"}],"stateMutability":"view"},{"type":"function","name":"BURNER_GAS_LIMIT","inputs":[],"outputs":[{"name":"","type":"uint256","internalType":"uint256"}],"stateMutability":"view"},{"type":"function","name":"BURNER_RESERVE","inputs":[],"outputs":[{"name":"","type":"uint256","internalType":"uint256"}],"stateMutability":"view"},{"type":"function","name":"FACTORY","inputs":[],"outputs":[{"name":"","type":"address","internalType":"address"}],"stateMutability":"view"},{"type":"function","name":"NETWORK_MIDDLEWARE_SERVICE","inputs":[],"outputs":[{"name":"","type":"address","internalType":"address"}],"stateMutability":"view"},{"type":"function","name":"TYPE","inputs":[],"outputs":[{"name":"","type":"uint64","internalType":"uint64"}],"stateMutability":"view"},{"type":"function","name":"VAULT_FACTORY","inputs":[],"outputs":[{"name":"","type":"address","internalType":"address"}],"stateMutability":"view"},{"type":"function","name":"cumulativeSlash","inputs":[{"name":"subnetwork","type":"bytes32","internalType":"bytes32"},{"name":"operator","type":"address","internalType":"address"}],"outputs":[{"name":"","type":"uint256","internalType":"uint256"}],"stateMutability":"view"},{"type":"function","name":"cumulativeSlashAt","inputs":[{"name":"subnetwork","type":"bytes32","internalType":"bytes32"},{"name":"operator","type":"address","internalType":"address"},{"name":"timestamp","type":"uint48","internalType":"uint48"},{"name":"hint","type":"bytes","internalType":"bytes"}],"outputs":[{"name":"","type":"uint256","internalType":"uint256"}],"stateMutability":"view"},{"type":"function","name":"initialize","inputs":[{"name":"data","type":"bytes","internalType":"bytes"}],"outputs":[],"stateMutability":"nonpayable"},{"type":"function","name":"isBurnerHook","inputs":[],"outputs":[{"name":"","type":"bool","internalType":"bool"}],"stateMutability":"view"},{"type":"function","name":"latestSlashedCaptureTimestamp","inputs":[{"name":"subnetwork","type":"bytes32","internalType":"bytes32"},{"name":"operator","type":"address","internalType":"address"}],"outputs":[{"name":"value","type":"uint48","internalType":"uint48"}],"stateMutability":"view"},{"type":"function","name":"slash","inputs":[{"name":"subnetwork","type":"bytes32","internalType":"bytes32"},{"name":"operator","type":"address","internalType":"address"},{"name":"amount","type":"uint256","internalType":"uint256"},{"name":"captureTimestamp","type":"uint48","internalType":"uint48"},{"name":"hints","type":"bytes","internalType":"bytes"}],"outputs":[{"name":"slashedAmount","type":"uint256","internalType":"uint256"}],"stateMutability":"nonpayable"},{"type":"function","name":"slashHints","inputs":[{"name":"slasher","type":"address","internalType":"address"},{"name":"msgSender","type":"address","internalType":"address"},{"name":"subnetwork","type":"bytes32","internalType":"bytes32"},{"name":"operator","type":"address","internalType":"address"},{"name":"amount","type":"uint256","internalType":"uint256"},{"name":"captureTimestamp","type":"uint48","internalType":"uint48"}],"outputs":[{"name":"","type":"bytes","internalType":"bytes"}],"stateMutability":"view"},{"type":"function","name":"slashableStake","inputs":[{"name":"subnetwork","type":"bytes32","internalType":"bytes32"},{"name":"operator","type":"address","internalType":"address"},{"name":"captureTimestamp","type":"uint48","internalType":"uint48"},{"name":"hints","type":"bytes","internalType":"bytes"}],"outputs":[{"name":"amount","type":"uint256","internalType":"uint256"}],"stateMutability":"view"},{"type":"function","name":"staticDelegateCall","inputs":[{"name":"target","type":"address","internalType":"address"},{"name":"data","type":"bytes","internalType":"bytes"}],"outputs":[],"stateMutability":"nonpayable"},{"type":"function","name":"vault","inputs":[],"outputs":[{"name":"","type":"address","internalType":"address"}],"stateMutability":"view"},{"type":"event","name":"Initialized","inputs":[{"name":"version","type":"uint64","indexed":false,"internalType":"uint64"}],"anonymous":false},{"type":"event","name":"Slash","inputs":[{"name":"subnetwork","type":"bytes32","indexed":true,"internalType":"bytes32"},{"name":"operator","type":"address","indexed":true,"internalType":"address"},{"name":"slashedAmount","type":"uint256","indexed":false,"internalType":"uint256"},{"name":"captureTimestamp","type":"uint48","indexed":false,"internalType":"uint48"}],"anonymous":false},{"type":"error","name":"CheckpointUnorderedInsertion","inputs":[]},{"type":"error","name":"ExternalCall","inputs":[]},{"type":"error","name":"InsufficientBurnerGas","inputs":[]},{"type":"error","name":"InsufficientSlash","inputs":[]},{"type":"error","name":"InvalidCaptureTimestamp","inputs":[]},{"type":"error","name":"InvalidInitialization","inputs":[]},{"type":"error","name":"NoBurner","inputs":[]},{"type":"error","name":"NotInitialized","inputs":[]},{"type":"error","name":"NotInitializing","inputs":[]},{"type":"error","name":"NotNetworkMiddleware","inputs":[]},{"type":"error","name":"NotVault","inputs":[]},{"type":"error","name":"ReentrancyGuardReentrantCall","inputs":[]},{"type":"error","name":"SafeCastOverflowedUintDowncast","inputs":[{"name":"bits","type":"uint8","internalType":"uint8"},{"name":"value","type":"uint256","internalType":"uint256"}]}],"bytecode":{"object":"0x61014060405234801561001157600080fd5b5060405161257638038061257683398101604081905261003091610133565b306080526000808080808080808080610047610081565b6001600160a01b0391821660a0526001600160401b031660c05293841660e052505081166101005294909416610120525061016392505050565b7ff0c57e16840df040f15088dc2f81fe391c3923bec73e23a9662efc9c229c6a00805468010000000000000000900460ff16156100d15760405163f92ee8a960e01b815260040160405180910390fd5b80546001600160401b03908116146101305780546001600160401b0319166001600160401b0390811782556040519081527fc7f505b2f371ae2175ee4913f4499e1f2633a7b5936321eed1cdaeb6115181d29060200160405180910390a15b50565b60006020828403121561014557600080fd5b81516001600160a01b038116811461015c57600080fd5b9392505050565b60805160a05160c05160e05161010051610120516123ab6101cb6000396000818161028701526105fc01526000818161020001526108ec01526000818161013b01526110ce0152600081816102e70152610da7015260006102270152600050506123ab6000f3fe608060405234801561001057600080fd5b506004361061010b5760003560e01c806334d098ea116100a2578063aa8e648911610071578063aa8e6489146102bc578063aab3595f146102cf578063bb24fe8a146102e2578063d5c24e1a14610321578063fbfa77cf1461032b57600080fd5b806334d098ea14610249578063439fab911461026d578063457821b7146102825780639f86fd85146102a957600080fd5b8063267de1f3116100de578063267de1f3146101a85780632964f8dc146101f25780632c9d45b3146101fb5780632dd310001461022257600080fd5b8063021a815614610110578063103f2907146101365780631a2be2c414610175578063238ab85f14610188575b600080fd5b61012361011e366004611b88565b61033e565b6040519081526020015b60405180910390f35b61015d7f000000000000000000000000000000000000000000000000000000000000000081565b6040516001600160a01b03909116815260200161012d565b610123610183366004611c03565b610586565b61019b610196366004611c33565b6105ba565b60405161012d9190611cf3565b6101db6101b6366004611c03565b600160209081526000928352604080842090915290825290205465ffffffffffff1681565b60405165ffffffffffff909116815260200161012d565b610123614e2081565b61015d7f000000000000000000000000000000000000000000000000000000000000000081565b61015d7f000000000000000000000000000000000000000000000000000000000000000081565b60005461025d90600160a01b900460ff1681565b604051901515815260200161012d565b61028061027b366004611d06565b6106b1565b005b61015d7f000000000000000000000000000000000000000000000000000000000000000081565b6102806102b7366004611d47565b6107c1565b6101236102ca366004611e86565b610851565b6101236102dd366004611e86565b610887565b6103097f000000000000000000000000000000000000000000000000000000000000000081565b6040516001600160401b03909116815260200161012d565b610123620249f081565b60005461015d906001600160a01b031681565b600061034861089f565b86610352816108e9565b60408051602081019091526060815283156103765761037384860186611ef1565b90505b60008054906101000a90046001600160a01b03166001600160a01b0316634ff0876a6040518163ffffffff1660e01b8152600401602060405180830381865afa1580156103c7573d6000803e3d6000fd5b505050506040513d601f19601f820116820180604052508101906103eb9190611f5d565b6103f36109b5565b6103fd9190611f90565b65ffffffffffff168665ffffffffffff161080610431575061041d6109b5565b65ffffffffffff168665ffffffffffff1610155b1561044f57604051631357ac9160e11b815260040160405180910390fd5b6000806104628b8b8a86600001516109c5565b915091506104708983610c39565b9450846000036104935760405163167f871760e31b815260040160405180910390fd5b61049e8b8b8a610c4f565b6104a98b8b87610cc3565b60408051808201825283815260209081018381528251918201859052518183015281518082038301815260609091019091526104ec908c908c9088908c90610d13565b6104f68589610e50565b6105028b8b878b610ecd565b6040805186815265ffffffffffff8a1660208201526001600160a01b038c16918d917fe0cbbe1f1e6fd806ca87036fafcebaf7ab5247474a3b20e1c37bb50122c3a884910160405180910390a35050505061057c60017f9b779b17422d0df92223018b32b4d1fa46e071723d6817e2486d003becc55f0055565b9695505050505050565b60008281526002602090815260408083206001600160a01b038516845290915281206105b190611043565b90505b92915050565b604051632751749360e11b81526001600160a01b03878116600483015260248201869052848116604483015265ffffffffffff831660648301526060916000917f00000000000000000000000000000000000000000000000000000000000000001690634ea2e92690608401600060405180830381865afa158015610643573d6000803e3d6000fd5b505050506040513d6000823e601f3d908101601f1916820160405261066b9190810190611ffb565b8051909150156106a6576040805160208082018352838252915161068f920161202f565b60405160208183030381529060405291505061057c565b509695505050505050565b7ff0c57e16840df040f15088dc2f81fe391c3923bec73e23a9662efc9c229c6a008054600160401b810460ff1615906001600160401b03166000811580156106f65750825b90506000826001600160401b031660011480156107125750303b155b905081158015610720575080155b1561073e5760405163f92ee8a960e01b815260040160405180910390fd5b845467ffffffffffffffff19166001178555831561076857845460ff60401b1916600160401b1785555b610772878761109a565b83156107b857845460ff60401b19168555604051600181527fc7f505b2f371ae2175ee4913f4499e1f2633a7b5936321eed1cdaeb6115181d29060200160405180910390a15b50505050505050565b600080846001600160a01b031684846040516107de92919061204a565b600060405180830381855af49150503d8060008114610819576040519150601f19603f3d011682016040523d82523d6000602084013e61081e565b606091505b50915091506000828260405160200161083892919061205a565b6040516020818303038152906040529050805181602001fd5b60008481526002602090815260408083206001600160a01b0387168452909152812061087e908484611249565b95945050505050565b6000610895858585856109c5565b5095945050505050565b7f9b779b17422d0df92223018b32b4d1fa46e071723d6817e2486d003becc55f008054600119016108e357604051633ee5aeb560e01b815260040160405180910390fd5b60029055565b337f00000000000000000000000000000000000000000000000000000000000000006001600160a01b031663bb5ed0326109238460601c90565b6040516001600160e01b031960e084901b1681526001600160a01b039091166004820152602401602060405180830381865afa158015610967573d6000803e3d6000fd5b505050506040513d601f19601f8201168201806040525081019061098b9190612075565b6001600160a01b0316146109b25760405163227bf64d60e01b815260040160405180910390fd5b50565b60006109c042611330565b905090565b6000806109e5604051806040016040528060608152602001606081525090565b835115610a035783806020019051810190610a009190612092565b90505b60008054906101000a90046001600160a01b03166001600160a01b0316634ff0876a6040518163ffffffff1660e01b8152600401602060405180830381865afa158015610a54573d6000803e3d6000fd5b505050506040513d601f19601f82011682018060405250810190610a789190611f5d565b610a806109b5565b610a8a9190611f90565b65ffffffffffff168565ffffffffffff161080610abe5750610aaa6109b5565b65ffffffffffff168565ffffffffffff1610155b80610af6575060008781526001602090815260408083206001600160a01b038a16845290915290205465ffffffffffff908116908616105b15610b08576000809250925050610c30565b60008054906101000a90046001600160a01b03166001600160a01b031663ce9b79306040518163ffffffff1660e01b8152600401602060405180830381865afa158015610b59573d6000803e3d6000fd5b505050506040513d601f19601f82011682018060405250810190610b7d9190612075565b815160405163e02f693760e01b81526001600160a01b03929092169163e02f693791610bb2918b918b918b9190600401612138565b602060405180830381865afa158015610bcf573d6000803e3d6000fd5b505050506040513d601f19601f82011682018060405250810190610bf39190612170565b9150610c22610c088888888560200151610851565b610c128989610586565b610c1c9190612189565b83610c39565b610c2c9083612189565b9250505b94509492505050565b6000818310610c4857816105b1565b5090919050565b60008381526001602090815260408083206001600160a01b038616845290915290205465ffffffffffff80831691161015610cbe5760008381526001602090815260408083206001600160a01b03861684529091529020805465ffffffffffff191665ffffffffffff83161790555b505050565b610d0c610cce6109b5565b82610cd98686610586565b610ce3919061219c565b60008681526002602090815260408083206001600160a01b03891684529091529020919061136b565b5050505050565b60008054906101000a90046001600160a01b03166001600160a01b031663ce9b79306040518163ffffffff1660e01b8152600401602060405180830381865afa158015610d64573d6000803e3d6000fd5b505050506040513d601f19601f82011682018060405250810190610d889190612075565b6001600160a01b031663e49561ee8686868660405180604001604052807f00000000000000000000000000000000000000000000000000000000000000006001600160401b0316815260200188815250604051602001610de891906121af565b6040516020818303038152906040526040518663ffffffff1660e01b8152600401610e179594939291906121dd565b600060405180830381600087803b158015610e3157600080fd5b505af1158015610e45573d6000803e3d6000fd5b505050505050505050565b600054604051631c9e38c760e21b81526004810184905265ffffffffffff831660248201526001600160a01b0390911690637278e31c906044016020604051808303816000875af1158015610ea9573d6000803e3d6000fd5b505050506040513d601f19601f82011682018060405250810190610cbe9190612170565b600054600160a01b900460ff16156110175760008060009054906101000a90046001600160a01b03166001600160a01b03166327810b6e6040518163ffffffff1660e01b8152600401602060405180830381865afa158015610f33573d6000803e3d6000fd5b505050506040513d601f19601f82011682018060405250810190610f579190612075565b604051602481018790526001600160a01b03861660448201526064810185905265ffffffffffff8416608482015290915060009060a40160408051601f198184030181529181526020820180516001600160e01b031663065c1e0360e01b179052909150603f90610fcc90620249f090612218565b610fd69190612245565b610fe290614e2061219c565b5a101561100257604051632153f33560e21b815260040160405180910390fd5b600080825160208401600086620249f0f15050505b50505050565b60017f9b779b17422d0df92223018b32b4d1fa46e071723d6817e2486d003becc55f0055565b60008061104f83611445565b90506000816001600160d01b031611611069576000611093565b82600101816001600160d01b03168154811061108757611087612267565b90600052602060002001545b9392505050565b6000806110a98385018561227d565b6040516302910f8b60e31b81526001600160a01b0380841660048301529294509092507f0000000000000000000000000000000000000000000000000000000000000000909116906314887c5890602401602060405180830381865afa158015611117573d6000803e3d6000fd5b505050506040513d601f19601f8201168201806040525081019061113b91906122e1565b611158576040516362df054560e01b815260040160405180910390fd5b61116061148c565b600080546001600160a01b0319166001600160a01b038416178155611185838361149e565b905060006001600160a01b0316836001600160a01b03166327810b6e6040518163ffffffff1660e01b8152600401602060405180830381865afa1580156111d0573d6000803e3d6000fd5b505050506040513d601f19601f820116820180604052508101906111f49190612075565b6001600160a01b0316148015611208575080515b156112265760405163d2420f5960e01b815260040160405180910390fd5b5160008054911515600160a01b0260ff60a01b1990921691909117905550505050565b600081516000036112655761125e84846114cc565b9050611093565b60008280602001905181019061127b91906122fc565b905060006112898683611525565b90508465ffffffffffff16816000015165ffffffffffff16036112b3576020015191506110939050565b805165ffffffffffff8087169116108015611314575060016112d48761159d565b6112de9190612189565b8263ffffffff161480611314575065ffffffffffff851661130987611304856001612322565b611525565b5165ffffffffffff16115b15611326576020015191506110939050565b61057c86866114cc565b600065ffffffffffff821115611367576040516306dfcc6560e41b8152603060048201526024810183905260440160405180910390fd5b5090565b60018301546000908190810361139557600180860180549182018155600090815260208120909101555b6000806113a1876115a7565b506001890154919350915060006113b789611043565b90508380156113d557508265ffffffffffff168865ffffffffffff16145b1561140d5786896001016001846113ec9190612189565b815481106113fc576113fc612267565b600091825260209091200155611434565b611418898984611621565b50506001808a0180549182018155600090815260209020018790555b94508593505050505b935093915050565b805460009080156114835761146d8361145f600184612189565b600091825260209091200190565b54600160301b90046001600160d01b0316611093565b60009392505050565b61149461163b565b61149c611684565b565b6040805160208101909152600081526000828060200190518101906114c3919061233f565b51949350505050565b6000806114d9848461168c565b90506000816001600160d01b0316116114f357600061151d565b83600101816001600160d01b03168154811061151157611511612267565b90600052602060002001545b949350505050565b604080518082019091526000808252602082015260006115458484611734565b90506040518060400160405280826000015165ffffffffffff1681526020018560010183602001516001600160d01b03168154811061158657611586612267565b906000526020600020015481525091505092915050565b60006105b4825490565b8054600090819081908082036115c85760008060009350935093505061161a565b60006115d98661145f600185612189565b60408051808201909152905465ffffffffffff8116808352600160301b9091046001600160d01b03166020909201829052600196509450925061161a915050565b9193909250565b60008061162f8585856117a4565b91509150935093915050565b7ff0c57e16840df040f15088dc2f81fe391c3923bec73e23a9662efc9c229c6a0054600160401b900460ff1661149c57604051631afcd79f60e31b815260040160405180910390fd5b61101d61163b565b8154600090818160058111156116eb5760006116a78461191e565b6116b19085612189565b60008881526020902090915081015465ffffffffffff90811690871610156116db578091506116e9565b6116e681600161219c565b92505b505b60006116f987878585611a06565b90508015611726576117108761145f600184612189565b54600160301b90046001600160d01b0316611729565b60005b979650505050505050565b6040805180820190915260008082526020820152826000018263ffffffff168154811061176357611763612267565b60009182526020918290206040805180820190915291015465ffffffffffff81168252600160301b90046001600160d01b0316918101919091529392505050565b8254600090819080156118c35760006117c28761145f600185612189565b60408051808201909152905465ffffffffffff808216808452600160301b9092046001600160d01b03166020840152919250908716101561181657604051632520601d60e01b815260040160405180910390fd5b805165ffffffffffff80881691160361186257846118398861145f600186612189565b80546001600160d01b0392909216600160301b0265ffffffffffff9092169190911790556118b3565b6040805180820190915265ffffffffffff80881682526001600160d01b0380881660208085019182528b54600181018d5560008d81529190912094519151909216600160301b029216919091179101555b60200151925083915061143d9050565b50506040805180820190915265ffffffffffff80851682526001600160d01b0380851660208085019182528854600181018a5560008a815291822095519251909316600160301b02919093161792019190915590508161143d565b60008160000361193057506000919050565b6000600161193d84611a68565b901c6001901b905060018184816119565761195661222f565b048201901c9050600181848161196e5761196e61222f565b048201901c905060018184816119865761198661222f565b048201901c9050600181848161199e5761199e61222f565b048201901c905060018184816119b6576119b661222f565b048201901c905060018184816119ce576119ce61222f565b048201901c905060018184816119e6576119e661222f565b048201901c905061109381828581611a0057611a0061222f565b04610c39565b60005b81831015611a60576000611a1d8484611afc565b60008781526020902090915065ffffffffffff86169082015465ffffffffffff161115611a4c57809250611a5a565b611a5781600161219c565b93505b50611a09565b509392505050565b600080608083901c15611a7d57608092831c92015b604083901c15611a8f57604092831c92015b602083901c15611aa157602092831c92015b601083901c15611ab357601092831c92015b600883901c15611ac557600892831c92015b600483901c15611ad757600492831c92015b600283901c15611ae957600292831c92015b600183901c156105b45760010192915050565b6000611b0b6002848418612245565b6105b19084841661219c565b6001600160a01b03811681146109b257600080fd5b65ffffffffffff811681146109b257600080fd5b60008083601f840112611b5257600080fd5b5081356001600160401b03811115611b6957600080fd5b602083019150836020828501011115611b8157600080fd5b9250929050565b60008060008060008060a08789031215611ba157600080fd5b863595506020870135611bb381611b17565b9450604087013593506060870135611bca81611b2c565b925060808701356001600160401b03811115611be557600080fd5b611bf189828a01611b40565b979a9699509497509295939492505050565b60008060408385031215611c1657600080fd5b823591506020830135611c2881611b17565b809150509250929050565b60008060008060008060c08789031215611c4c57600080fd5b8635611c5781611b17565b95506020870135611c6781611b17565b9450604087013593506060870135611c7e81611b17565b92506080870135915060a0870135611c9581611b2c565b809150509295509295509295565b60005b83811015611cbe578181015183820152602001611ca6565b50506000910152565b60008151808452611cdf816020860160208601611ca3565b601f01601f19169290920160200192915050565b6020815260006105b16020830184611cc7565b60008060208385031215611d1957600080fd5b82356001600160401b03811115611d2f57600080fd5b611d3b85828601611b40565b90969095509350505050565b600080600060408486031215611d5c57600080fd5b8335611d6781611b17565b925060208401356001600160401b03811115611d8257600080fd5b611d8e86828701611b40565b9497909650939450505050565b634e487b7160e01b600052604160045260246000fd5b604051602081016001600160401b0381118282101715611dd357611dd3611d9b565b60405290565b604051601f8201601f191681016001600160401b0381118282101715611e0157611e01611d9b565b604052919050565b60006001600160401b03821115611e2257611e22611d9b565b50601f01601f191660200190565b600082601f830112611e4157600080fd5b8135611e54611e4f82611e09565b611dd9565b818152846020838601011115611e6957600080fd5b816020850160208301376000918101602001919091529392505050565b60008060008060808587031215611e9c57600080fd5b843593506020850135611eae81611b17565b92506040850135611ebe81611b2c565b915060608501356001600160401b03811115611ed957600080fd5b611ee587828801611e30565b91505092959194509250565b600060208284031215611f0357600080fd5b81356001600160401b0380821115611f1a57600080fd5b9083019060208286031215611f2e57600080fd5b611f36611db1565b823582811115611f4557600080fd5b611f5187828601611e30565b82525095945050505050565b600060208284031215611f6f57600080fd5b815161109381611b2c565b634e487b7160e01b600052601160045260246000fd5b65ffffffffffff828116828216039080821115611faf57611faf611f7a565b5092915050565b600082601f830112611fc757600080fd5b8151611fd5611e4f82611e09565b818152846020838601011115611fea57600080fd5b61151d826020830160208701611ca3565b60006020828403121561200d57600080fd5b81516001600160401b0381111561202357600080fd5b61151d84828501611fb6565b602081526000825160208084015261151d6040840182611cc7565b8183823760009101908152919050565b821515815260406020820152600061151d6040830184611cc7565b60006020828403121561208757600080fd5b815161109381611b17565b6000602082840312156120a457600080fd5b81516001600160401b03808211156120bb57600080fd5b90830190604082860312156120cf57600080fd5b6040516040810181811083821117156120ea576120ea611d9b565b6040528251828111156120fc57600080fd5b61210887828601611fb6565b82525060208301518281111561211d57600080fd5b61212987828601611fb6565b60208301525095945050505050565b8481526001600160a01b038416602082015265ffffffffffff8316604082015260806060820181905260009061057c90830184611cc7565b60006020828403121561218257600080fd5b5051919050565b818103818111156105b4576105b4611f7a565b808201808211156105b4576105b4611f7a565b602081526001600160401b0382511660208201526000602083015160408084015261151d6060840182611cc7565b85815260018060a01b038516602082015283604082015265ffffffffffff8316606082015260a06080820152600061172960a0830184611cc7565b80820281158282048414176105b4576105b4611f7a565b634e487b7160e01b600052601260045260246000fd5b60008261226257634e487b7160e01b600052601260045260246000fd5b500490565b634e487b7160e01b600052603260045260246000fd5b6000806040838503121561229057600080fd5b823561229b81611b17565b915060208301356001600160401b038111156122b657600080fd5b6122c285828601611e30565b9150509250929050565b805180151581146122dc57600080fd5b919050565b6000602082840312156122f357600080fd5b6105b1826122cc565b60006020828403121561230e57600080fd5b815163ffffffff8116811461109357600080fd5b63ffffffff818116838216019080821115611faf57611faf611f7a565b60006020828403121561235157600080fd5b612359611db1565b612361611db1565b61236a846122cc565b81528152939250505056fea26469706673582212204460536445ad2352ff9dd3e78198cb916e1e435a1d0d841c72a2b1b757fa0b7164736f6c63430008190033","linkReferences":{}},"methodIdentifiers":{"BASE_SLASHER_HINTS()":"457821b7","BURNER_GAS_LIMIT()":"d5c24e1a","BURNER_RESERVE()":"2964f8dc","FACTORY()":"2dd31000","NETWORK_MIDDLEWARE_SERVICE()":"2c9d45b3","TYPE()":"bb24fe8a","VAULT_FACTORY()":"103f2907","cumulativeSlash(bytes32,address)":"1a2be2c4","cumulativeSlashAt(bytes32,address,uint48,bytes)":"aa8e6489","initialize(bytes)":"439fab91","isBurnerHook()":"34d098ea","latestSlashedCaptureTimestamp(bytes32,address)":"267de1f3","slash(bytes32,address,uint256,uint48,bytes)":"021a8156","slashHints(address,address,bytes32,address,uint256,uint48)":"238ab85f","slashableStake(bytes32,address,uint48,bytes)":"aab3595f","staticDelegateCall(address,bytes)":"9f86fd85","vault()":"fbfa77cf"},"id":57}