{"abi":[{"type":"constructor","inputs":[{"name":"delegatorFactory","type":"address","internalType":"address"},{"name":"slasherFactory","type":"address","internalType":"address"},{"name":"vaultFactory","type":"address","internalType":"address"}],"stateMutability":"nonpayable"},{"type":"function","name":"DEFAULT_ADMIN_ROLE","inputs":[],"outputs":[{"name":"","type":"bytes32","internalType":"bytes32"}],"stateMutability":"view"},{"type":"function","name":"DELEGATOR_FACTORY","inputs":[],"outputs":[{"name":"","type":"address","internalType":"address"}],"stateMutability":"view"},{"type":"function","name":"DEPOSITOR_WHITELIST_ROLE","inputs":[],"outputs":[{"name":"","type":"bytes32","internalType":"bytes32"}],"stateMutability":"view"},{"type":"function","name":"DEPOSIT_LIMIT_SET_ROLE","inputs":[],"outputs":[{"name":"","type":"bytes32","internalType":"bytes32"}],"stateMutability":"view"},{"type":"function","name":"DEPOSIT_WHITELIST_SET_ROLE","inputs":[],"outputs":[{"name":"","type":"bytes32","internalType":"bytes32"}],"stateMutability":"view"},{"type":"function","name":"FACTORY","inputs":[],"outputs":[{"name":"","type":"address","internalType":"address"}],"stateMutability":"view"},{"type":"function","name":"IS_DEPOSIT_LIMIT_SET_ROLE","inputs":[],"outputs":[{"name":"","type":"bytes32","internalType":"bytes32"}],"stateMutability":"view"},{"type":"function","name":"SLASHER_FACTORY","inputs":[],"outputs":[{"name":"","type":"address","internalType":"address"}],"stateMutability":"view"},{"type":"function","name":"activeBalanceOf","inputs":[{"name":"account","type":"address","internalType":"address"}],"outputs":[{"name":"","type":"uint256","internalType":"uint256"}],"stateMutability":"view"},{"type":"function","name":"activeBalanceOfAt","inputs":[{"name":"account","type":"address","internalType":"address"},{"name":"timestamp","type":"uint48","internalType":"uint48"},{"name":"hints","type":"bytes","internalType":"bytes"}],"outputs":[{"name":"","type":"uint256","internalType":"uint256"}],"stateMutability":"view"},{"type":"function","name":"activeShares","inputs":[],"outputs":[{"name":"","type":"uint256","internalType":"uint256"}],"stateMutability":"view"},{"type":"function","name":"activeSharesAt","inputs":[{"name":"timestamp","type":"uint48","internalType":"uint48"},{"name":"hint","type":"bytes","internalType":"bytes"}],"outputs":[{"name":"","type":"uint256","internalType":"uint256"}],"stateMutability":"view"},{"type":"function","name":"activeSharesOf","inputs":[{"name":"account","type":"address","internalType":"address"}],"outputs":[{"name":"","type":"uint256","internalType":"uint256"}],"stateMutability":"view"},{"type":"function","name":"activeSharesOfAt","inputs":[{"name":"account","type":"address","internalType":"address"},{"name":"timestamp","type":"uint48","internalType":"uint48"},{"name":"hint","type":"bytes","internalType":"bytes"}],"outputs":[{"name":"","type":"uint256","internalType":"uint256"}],"stateMutability":"view"},{"type":"function","name":"activeStake","inputs":[],"outputs":[{"name":"","type":"uint256","internalType":"uint256"}],"stateMutability":"view"},{"type":"function","name":"activeStakeAt","inputs":[{"name":"timestamp","type":"uint48","internalType":"uint48"},{"name":"hint","type":"bytes","internalType":"bytes"}],"outputs":[{"name":"","type":"uint256","internalType":"uint256"}],"stateMutability":"view"},{"type":"function","name":"allowance","inputs":[{"name":"owner","type":"address","internalType":"address"},{"name":"spender","type":"address","internalType":"address"}],"outputs":[{"name":"","type":"uint256","internalType":"uint256"}],"stateMutability":"view"},{"type":"function","name":"approve","inputs":[{"name":"spender","type":"address","internalType":"address"},{"name":"value","type":"uint256","internalType":"uint256"}],"outputs":[{"name":"","type":"bool","internalType":"bool"}],"stateMutability":"nonpayable"},{"type":"function","name":"balanceOf","inputs":[{"name":"account","type":"address","internalType":"address"}],"outputs":[{"name":"","type":"uint256","internalType":"uint256"}],"stateMutability":"view"},{"type":"function","name":"burner","inputs":[],"outputs":[{"name":"","type":"address","internalType":"address"}],"stateMutability":"view"},{"type":"function","name":"claim","inputs":[{"name":"recipient","type":"address","internalType":"address"},{"name":"epoch","type":"uint256","internalType":"uint256"}],"outputs":[{"name":"amount","type":"uint256","internalType":"uint256"}],"stateMutability":"nonpayable"},{"type":"function","name":"claimBatch","inputs":[{"name":"recipient","type":"address","internalType":"address"},{"name":"epochs","type":"uint256[]","internalType":"uint256[]"}],"outputs":[{"name":"amount","type":"uint256","internalType":"uint256"}],"stateMutability":"nonpayable"},{"type":"function","name":"collateral","inputs":[],"outputs":[{"name":"","type":"address","internalType":"address"}],"stateMutability":"view"},{"type":"function","name":"currentEpoch","inputs":[],"outputs":[{"name":"","type":"uint256","internalType":"uint256"}],"stateMutability":"view"},{"type":"function","name":"currentEpochStart","inputs":[],"outputs":[{"name":"","type":"uint48","internalType":"uint48"}],"stateMutability":"view"},{"type":"function","name":"decimals","inputs":[],"outputs":[{"name":"","type":"uint8","internalType":"uint8"}],"stateMutability":"view"},{"type":"function","name":"delegator","inputs":[],"outputs":[{"name":"","type":"address","internalType":"address"}],"stateMutability":"view"},{"type":"function","name":"deposit","inputs":[{"name":"onBehalfOf","type":"address","internalType":"address"},{"name":"amount","type":"uint256","internalType":"uint256"}],"outputs":[{"name":"depositedAmount","type":"uint256","internalType":"uint256"},{"name":"mintedShares","type":"uint256","internalType":"uint256"}],"stateMutability":"nonpayable"},{"type":"function","name":"depositLimit","inputs":[],"outputs":[{"name":"","type":"uint256","internalType":"uint256"}],"stateMutability":"view"},{"type":"function","name":"depositWhitelist","inputs":[],"outputs":[{"name":"","type":"bool","internalType":"bool"}],"stateMutability":"view"},{"type":"function","name":"epochAt","inputs":[{"name":"timestamp","type":"uint48","internalType":"uint48"}],"outputs":[{"name":"","type":"uint256","internalType":"uint256"}],"stateMutability":"view"},{"type":"function","name":"epochDuration","inputs":[],"outputs":[{"name":"","type":"uint48","internalType":"uint48"}],"stateMutability":"view"},{"type":"function","name":"epochDurationInit","inputs":[],"outputs":[{"name":"","type":"uint48","internalType":"uint48"}],"stateMutability":"view"},{"type":"function","name":"getRoleAdmin","inputs":[{"name":"role","type":"bytes32","internalType":"bytes32"}],"outputs":[{"name":"","type":"bytes32","internalType":"bytes32"}],"stateMutability":"view"},{"type":"function","name":"grantRole","inputs":[{"name":"role","type":"bytes32","internalType":"bytes32"},{"name":"account","type":"address","internalType":"address"}],"outputs":[],"stateMutability":"nonpayable"},{"type":"function","name":"hasRole","inputs":[{"name":"role","type":"bytes32","internalType":"bytes32"},{"name":"account","type":"address","internalType":"address"}],"outputs":[{"name":"","type":"bool","internalType":"bool"}],"stateMutability":"view"},{"type":"function","name":"initialize","inputs":[{"name":"initialVersion","type":"uint64","internalType":"uint64"},{"name":"owner_","type":"address","internalType":"address"},{"name":"data","type":"bytes","internalType":"bytes"}],"outputs":[],"stateMutability":"nonpayable"},{"type":"function","name":"isDelegatorInitialized","inputs":[],"outputs":[{"name":"","type":"bool","internalType":"bool"}],"stateMutability":"view"},{"type":"function","name":"isDepositLimit","inputs":[],"outputs":[{"name":"","type":"bool","internalType":"bool"}],"stateMutability":"view"},{"type":"function","name":"isDepositorWhitelisted","inputs":[{"name":"account","type":"address","internalType":"address"}],"outputs":[{"name":"value","type":"bool","internalType":"bool"}],"stateMutability":"view"},{"type":"function","name":"isInitialized","inputs":[],"outputs":[{"name":"","type":"bool","internalType":"bool"}],"stateMutability":"view"},{"type":"function","name":"isSlasherInitialized","inputs":[],"outputs":[{"name":"","type":"bool","internalType":"bool"}],"stateMutability":"view"},{"type":"function","name":"isWithdrawalsClaimed","inputs":[{"name":"epoch","type":"uint256","internalType":"uint256"},{"name":"account","type":"address","internalType":"address"}],"outputs":[{"name":"value","type":"bool","internalType":"bool"}],"stateMutability":"view"},{"type":"function","name":"migrate","inputs":[{"name":"newVersion","type":"uint64","internalType":"uint64"},{"name":"data","type":"bytes","internalType":"bytes"}],"outputs":[],"stateMutability":"nonpayable"},{"type":"function","name":"name","inputs":[],"outputs":[{"name":"","type":"string","internalType":"string"}],"stateMutability":"view"},{"type":"function","name":"nextEpochStart","inputs":[],"outputs":[{"name":"","type":"uint48","internalType":"uint48"}],"stateMutability":"view"},{"type":"function","name":"onSlash","inputs":[{"name":"amount","type":"uint256","internalType":"uint256"},{"name":"captureTimestamp","type":"uint48","internalType":"uint48"}],"outputs":[{"name":"slashedAmount","type":"uint256","internalType":"uint256"}],"stateMutability":"nonpayable"},{"type":"function","name":"owner","inputs":[],"outputs":[{"name":"","type":"address","internalType":"address"}],"stateMutability":"view"},{"type":"function","name":"previousEpochStart","inputs":[],"outputs":[{"name":"","type":"uint48","internalType":"uint48"}],"stateMutability":"view"},{"type":"function","name":"redeem","inputs":[{"name":"claimer","type":"address","internalType":"address"},{"name":"shares","type":"uint256","internalType":"uint256"}],"outputs":[{"name":"withdrawnAssets","type":"uint256","internalType":"uint256"},{"name":"mintedShares","type":"uint256","internalType":"uint256"}],"stateMutability":"nonpayable"},{"type":"function","name":"renounceOwnership","inputs":[],"outputs":[],"stateMutability":"nonpayable"},{"type":"function","name":"renounceRole","inputs":[{"name":"role","type":"bytes32","internalType":"bytes32"},{"name":"callerConfirmation","type":"address","internalType":"address"}],"outputs":[],"stateMutability":"nonpayable"},{"type":"function","name":"revokeRole","inputs":[{"name":"role","type":"bytes32","internalType":"bytes32"},{"name":"account","type":"address","internalType":"address"}],"outputs":[],"stateMutability":"nonpayable"},{"type":"function","name":"setDelegator","inputs":[{"name":"delegator_","type":"address","internalType":"address"}],"outputs":[],"stateMutability":"nonpayable"},{"type":"function","name":"setDepositLimit","inputs":[{"name":"limit","type":"uint256","internalType":"uint256"}],"outputs":[],"stateMutability":"nonpayable"},{"type":"function","name":"setDepositWhitelist","inputs":[{"name":"status","type":"bool","internalType":"bool"}],"outputs":[],"stateMutability":"nonpayable"},{"type":"function","name":"setDepositorWhitelistStatus","inputs":[{"name":"account","type":"address","internalType":"address"},{"name":"status","type":"bool","internalType":"bool"}],"outputs":[],"stateMutability":"nonpayable"},{"type":"function","name":"setIsDepositLimit","inputs":[{"name":"status","type":"bool","internalType":"bool"}],"outputs":[],"stateMutability":"nonpayable"},{"type":"function","name":"setSlasher","inputs":[{"name":"slasher_","type":"address","internalType":"address"}],"outputs":[],"stateMutability":"nonpayable"},{"type":"function","name":"slashableBalanceOf","inputs":[{"name":"account","type":"address","internalType":"address"}],"outputs":[{"name":"","type":"uint256","internalType":"uint256"}],"stateMutability":"view"},{"type":"function","name":"slasher","inputs":[],"outputs":[{"name":"","type":"address","internalType":"address"}],"stateMutability":"view"},{"type":"function","name":"staticDelegateCall","inputs":[{"name":"target","type":"address","internalType":"address"},{"name":"data","type":"bytes","internalType":"bytes"}],"outputs":[],"stateMutability":"nonpayable"},{"type":"function","name":"supportsInterface","inputs":[{"name":"interfaceId","type":"bytes4","internalType":"bytes4"}],"outputs":[{"name":"","type":"bool","internalType":"bool"}],"stateMutability":"view"},{"type":"function","name":"symbol","inputs":[],"outputs":[{"name":"","type":"string","internalType":"string"}],"stateMutability":"view"},{"type":"function","name":"totalStake","inputs":[],"outputs":[{"name":"","type":"uint256","internalType":"uint256"}],"stateMutability":"view"},{"type":"function","name":"totalSupply","inputs":[],"outputs":[{"name":"","type":"uint256","internalType":"uint256"}],"stateMutability":"view"},{"type":"function","name":"transfer","inputs":[{"name":"to","type":"address","internalType":"address"},{"name":"value","type":"uint256","internalType":"uint256"}],"outputs":[{"name":"","type":"bool","internalType":"bool"}],"stateMutability":"nonpayable"},{"type":"function","name":"transferFrom","inputs":[{"name":"from","type":"address","internalType":"address"},{"name":"to","type":"address","internalType":"address"},{"name":"value","type":"uint256","internalType":"uint256"}],"outputs":[{"name":"","type":"bool","internalType":"bool"}],"stateMutability":"nonpayable"},{"type":"function","name":"transferOwnership","inputs":[{"name":"newOwner","type":"address","internalType":"address"}],"outputs":[],"stateMutability":"nonpayable"},{"type":"function","name":"version","inputs":[],"outputs":[{"name":"","type":"uint64","internalType":"uint64"}],"stateMutability":"view"},{"type":"function","name":"withdraw","inputs":[{"name":"claimer","type":"address","internalType":"address"},{"name":"amount","type":"uint256","internalType":"uint256"}],"outputs":[{"name":"burnedShares","type":"uint256","internalType":"uint256"},{"name":"mintedShares","type":"uint256","internalType":"uint256"}],"stateMutability":"nonpayable"},{"type":"function","name":"withdrawalShares","inputs":[{"name":"epoch","type":"uint256","internalType":"uint256"}],"outputs":[{"name":"amount","type":"uint256","internalType":"uint256"}],"stateMutability":"view"},{"type":"function","name":"withdrawalSharesOf","inputs":[{"name":"epoch","type":"uint256","internalType":"uint256"},{"name":"account","type":"address","internalType":"address"}],"outputs":[{"name":"amount","type":"uint256","internalType":"uint256"}],"stateMutability":"view"},{"type":"function","name":"withdrawals","inputs":[{"name":"epoch","type":"uint256","internalType":"uint256"}],"outputs":[{"name":"amount","type":"uint256","internalType":"uint256"}],"stateMutability":"view"},{"type":"function","name":"withdrawalsOf","inputs":[{"name":"epoch","type":"uint256","internalType":"uint256"},{"name":"account","type":"address","internalType":"address"}],"outputs":[{"name":"","type":"uint256","internalType":"uint256"}],"stateMutability":"view"},{"type":"event","name":"Approval","inputs":[{"name":"owner","type":"address","indexed":true,"internalType":"address"},{"name":"spender","type":"address","indexed":true,"internalType":"address"},{"name":"value","type":"uint256","indexed":false,"internalType":"uint256"}],"anonymous":false},{"type":"event","name":"Claim","inputs":[{"name":"claimer","type":"address","indexed":true,"internalType":"address"},{"name":"recipient","type":"address","indexed":true,"internalType":"address"},{"name":"epoch","type":"uint256","indexed":false,"internalType":"uint256"},{"name":"amount","type":"uint256","indexed":false,"internalType":"uint256"}],"anonymous":false},{"type":"event","name":"ClaimBatch","inputs":[{"name":"claimer","type":"address","indexed":true,"internalType":"address"},{"name":"recipient","type":"address","indexed":true,"internalType":"address"},{"name":"epochs","type":"uint256[]","indexed":false,"internalType":"uint256[]"},{"name":"amount","type":"uint256","indexed":false,"internalType":"uint256"}],"anonymous":false},{"type":"event","name":"Deposit","inputs":[{"name":"depositor","type":"address","indexed":true,"internalType":"address"},{"name":"onBehalfOf","type":"address","indexed":true,"internalType":"address"},{"name":"amount","type":"uint256","indexed":false,"internalType":"uint256"},{"name":"shares","type":"uint256","indexed":false,"internalType":"uint256"}],"anonymous":false},{"type":"event","name":"Initialized","inputs":[{"name":"version","type":"uint64","indexed":false,"internalType":"uint64"}],"anonymous":false},{"type":"event","name":"OnSlash","inputs":[{"name":"amount","type":"uint256","indexed":false,"internalType":"uint256"},{"name":"captureTimestamp","type":"uint48","indexed":false,"internalType":"uint48"},{"name":"slashedAmount","type":"uint256","indexed":false,"internalType":"uint256"}],"anonymous":false},{"type":"event","name":"OwnershipTransferred","inputs":[{"name":"previousOwner","type":"address","indexed":true,"internalType":"address"},{"name":"newOwner","type":"address","indexed":true,"internalType":"address"}],"anonymous":false},{"type":"event","name":"RoleAdminChanged","inputs":[{"name":"role","type":"bytes32","indexed":true,"internalType":"bytes32"},{"name":"previousAdminRole","type":"bytes32","indexed":true,"internalType":"bytes32"},{"name":"newAdminRole","type":"bytes32","indexed":true,"internalType":"bytes32"}],"anonymous":false},{"type":"event","name":"RoleGranted","inputs":[{"name":"role","type":"bytes32","indexed":true,"internalType":"bytes32"},{"name":"account","type":"address","indexed":true,"internalType":"address"},{"name":"sender","type":"address","indexed":true,"internalType":"address"}],"anonymous":false},{"type":"event","name":"RoleRevoked","inputs":[{"name":"role","type":"bytes32","indexed":true,"internalType":"bytes32"},{"name":"account","type":"address","indexed":true,"internalType":"address"},{"name":"sender","type":"address","indexed":true,"internalType":"address"}],"anonymous":false},{"type":"event","name":"SetDelegator","inputs":[{"name":"delegator","type":"address","indexed":true,"internalType":"address"}],"anonymous":false},{"type":"event","name":"SetDepositLimit","inputs":[{"name":"limit","type":"uint256","indexed":false,"internalType":"uint256"}],"anonymous":false},{"type":"event","name":"SetDepositWhitelist","inputs":[{"name":"status","type":"bool","indexed":false,"internalType":"bool"}],"anonymous":false},{"type":"event","name":"SetDepositorWhitelistStatus","inputs":[{"name":"account","type":"address","indexed":true,"internalType":"address"},{"name":"status","type":"bool","indexed":false,"internalType":"bool"}],"anonymous":false},{"type":"event","name":"SetIsDepositLimit","inputs":[{"name":"status","type":"bool","indexed":false,"internalType":"bool"}],"anonymous":false},{"type":"event","name":"SetSlasher","inputs":[{"name":"slasher","type":"address","indexed":true,"internalType":"address"}],"anonymous":false},{"type":"event","name":"Transfer","inputs":[{"name":"from","type":"address","indexed":true,"internalType":"address"},{"name":"to","type":"address","indexed":true,"internalType":"address"},{"name":"value","type":"uint256","indexed":false,"internalType":"uint256"}],"anonymous":false},{"type":"event","name":"Withdraw","inputs":[{"name":"withdrawer","type":"address","indexed":true,"internalType":"address"},{"name":"claimer","type":"address","indexed":true,"internalType":"address"},{"name":"amount","type":"uint256","indexed":false,"internalType":"uint256"},{"name":"burnedShares","type":"uint256","indexed":false,"internalType":"uint256"},{"name":"mintedShares","type":"uint256","indexed":false,"internalType":"uint256"}],"anonymous":false},{"type":"error","name":"AccessControlBadConfirmation","inputs":[]},{"type":"error","name":"AccessControlUnauthorizedAccount","inputs":[{"name":"account","type":"address","internalType":"address"},{"name":"neededRole","type":"bytes32","internalType":"bytes32"}]},{"type":"error","name":"AddressEmptyCode","inputs":[{"name":"target","type":"address","internalType":"address"}]},{"type":"error","name":"AddressInsufficientBalance","inputs":[{"name":"account","type":"address","internalType":"address"}]},{"type":"error","name":"AlreadyClaimed","inputs":[]},{"type":"error","name":"AlreadyInitialized","inputs":[]},{"type":"error","name":"AlreadySet","inputs":[]},{"type":"error","name":"CheckpointUnorderedInsertion","inputs":[]},{"type":"error","name":"DelegatorAlreadyInitialized","inputs":[]},{"type":"error","name":"DepositLimitReached","inputs":[]},{"type":"error","name":"ERC20InsufficientAllowance","inputs":[{"name":"spender","type":"address","internalType":"address"},{"name":"allowance","type":"uint256","internalType":"uint256"},{"name":"needed","type":"uint256","internalType":"uint256"}]},{"type":"error","name":"ERC20InsufficientBalance","inputs":[{"name":"sender","type":"address","internalType":"address"},{"name":"balance","type":"uint256","internalType":"uint256"},{"name":"needed","type":"uint256","internalType":"uint256"}]},{"type":"error","name":"ERC20InvalidApprover","inputs":[{"name":"approver","type":"address","internalType":"address"}]},{"type":"error","name":"ERC20InvalidReceiver","inputs":[{"name":"receiver","type":"address","internalType":"address"}]},{"type":"error","name":"ERC20InvalidSender","inputs":[{"name":"sender","type":"address","internalType":"address"}]},{"type":"error","name":"ERC20InvalidSpender","inputs":[{"name":"spender","type":"address","internalType":"address"}]},{"type":"error","name":"FailedInnerCall","inputs":[]},{"type":"error","name":"InsufficientClaim","inputs":[]},{"type":"error","name":"InsufficientDeposit","inputs":[]},{"type":"error","name":"InsufficientRedemption","inputs":[]},{"type":"error","name":"InsufficientWithdrawal","inputs":[]},{"type":"error","name":"InvalidAccount","inputs":[]},{"type":"error","name":"InvalidCaptureEpoch","inputs":[]},{"type":"error","name":"InvalidClaimer","inputs":[]},{"type":"error","name":"InvalidCollateral","inputs":[]},{"type":"error","name":"InvalidDelegator","inputs":[]},{"type":"error","name":"InvalidEpoch","inputs":[]},{"type":"error","name":"InvalidEpochDuration","inputs":[]},{"type":"error","name":"InvalidInitialization","inputs":[]},{"type":"error","name":"InvalidLengthEpochs","inputs":[]},{"type":"error","name":"InvalidOnBehalfOf","inputs":[]},{"type":"error","name":"InvalidRecipient","inputs":[]},{"type":"error","name":"InvalidSlasher","inputs":[]},{"type":"error","name":"InvalidTimestamp","inputs":[]},{"type":"error","name":"MathOverflowedMulDiv","inputs":[]},{"type":"error","name":"MissingRoles","inputs":[]},{"type":"error","name":"NoPreviousEpoch","inputs":[]},{"type":"error","name":"NotDelegator","inputs":[]},{"type":"error","name":"NotFactory","inputs":[]},{"type":"error","name":"NotInitialized","inputs":[]},{"type":"error","name":"NotInitializing","inputs":[]},{"type":"error","name":"NotSlasher","inputs":[]},{"type":"error","name":"NotWhitelistedDepositor","inputs":[]},{"type":"error","name":"OwnableInvalidOwner","inputs":[{"name":"owner","type":"address","internalType":"address"}]},{"type":"error","name":"OwnableUnauthorizedAccount","inputs":[{"name":"account","type":"address","internalType":"address"}]},{"type":"error","name":"ReentrancyGuardReentrantCall","inputs":[]},{"type":"error","name":"SafeCastOverflowedUintDowncast","inputs":[{"name":"bits","type":"uint8","internalType":"uint8"},{"name":"value","type":"uint256","internalType":"uint256"}]},{"type":"error","name":"SafeERC20FailedOperation","inputs":[{"name":"token","type":"address","internalType":"address"}]},{"type":"error","name":"SlasherAlreadyInitialized","inputs":[]},{"type":"error","name":"TooMuchRedeem","inputs":[]},{"type":"error","name":"TooMuchWithdraw","inputs":[]}],"bytecode":{"object":"0x60e060405234801561001057600080fd5b50604051614e7e380380614e7e83398101604081905261002f91610134565b6001600160a01b03808416608052821660a0528282828061004e610066565b6001600160a01b031660c05250610177945050505050565b7ff0c57e16840df040f15088dc2f81fe391c3923bec73e23a9662efc9c229c6a00805468010000000000000000900460ff16156100b65760405163f92ee8a960e01b815260040160405180910390fd5b80546001600160401b03908116146101155780546001600160401b0319166001600160401b0390811782556040519081527fc7f505b2f371ae2175ee4913f4499e1f2633a7b5936321eed1cdaeb6115181d29060200160405180910390a15b50565b80516001600160a01b038116811461012f57600080fd5b919050565b60008060006060848603121561014957600080fd5b61015284610118565b925061016060208501610118565b915061016e60408501610118565b90509250925092565b60805160a05160c051614cc36101bb600039600081816105c70152610d9601526000818161082b0152611c4501526000818161074301526117e10152614cc36000f3fe608060405234801561001057600080fd5b50600436106104495760003560e01c80637667180811610241578063a9059cbb1161013b578063ce9b7930116100c3578063ecf7085811610087578063ecf7085814610a8e578063efb559d614610a97578063f2fde38b14610aaa578063f3fef3a314610abd578063f5e7ee0f14610ad057600080fd5b8063ce9b793014610a15578063d547741f14610a28578063d8dfeb4514610a3b578063db38871514610a54578063dd62ed3e14610a7b57600080fd5b8063b13442711161010a578063b1344271146109cc578063bd49c35f146109df578063bdc8144b146109e7578063bfefcd7b146109fa578063c31e8dd714610a0257600080fd5b8063a9059cbb14610973578063aabc249614610986578063aad3ec9614610999578063afba70ad146109ac57600080fd5b806391d14854116101c9578063a217fddf1161018d578063a217fddf146108d8578063a21a1df9146108e0578063a286146614610907578063a3b541721461091a578063a5d032231461094557600080fd5b806391d148541461088557806395d89b41146108985780639d66201b146108a05780639f86fd85146108b3578063a1b12202146108c657600080fd5b8063810da75d11610210578063810da75d1461080057806383cd9cc31461081357806387df0788146108265780638b0e9f3f1461084d5780638da5cb5b1461085557600080fd5b806376671808146107af578063794b15b7146107b75780637953b33b146107da5780637c04c80a146107ed57600080fd5b80634105a7dd1161035257806357ec83cc116102da5780636ec1e3f81161029e5780636ec1e3f81461076557806370a0823114610779578063715018a61461078c5780637278e31c1461079457806373790ab3146107a757600080fd5b806357ec83cc146106f057806359f769a9146107035780635cc070761461071657806361a8c8c4146107365780636da3e06d1461073e57600080fd5b80634ff0876a116103215780634ff0876a1461067d57806350861adc1461069657806350f22068146106aa5780635346e34f146106bd57806354fd4d50146106d057600080fd5b80634105a7dd14610631578063463616711461064457806347e7ef241461065d57806348d3b7751461067057600080fd5b806327810b6e116103d55780632dd31000116103a45780632dd31000146105c25780632f2ff15d146105e9578063313ce567146105fc57806336568abe14610616578063392e53cd1461062957600080fd5b806327810b6e14610550578063281f57521461057b5780632abe30481461059a5780632d73c69c146105af57600080fd5b806318160ddd1161041c57806318160ddd146104d35780631b66c9e1146104db5780631e9a69501461050257806323b872dd1461052a578063248a9ca31461053d57600080fd5b806301ffc9a71461044e57806306fdde0314610476578063095ea7b31461048b5780631415519b1461049e575b600080fd5b61046161045c366004613e22565b610ae3565b60405190151581526020015b60405180910390f35b61047e610b1a565b60405161046d9190613e9c565b610461610499366004613ec4565b610bdd565b6104c57fc6aaadd7371d5e8f9ed6849dd66a66573a3ba37167d03f4352c9ba5693678fac81565b60405190815260200161046d565b6104c5610bf5565b6104c57f9c56d972d63cbb4195b3c1484691dfc220fa96a4c47e7b6613bd82a022029e0681565b610515610510366004613ec4565b610c04565b6040805192835260208301919091520161046d565b610461610538366004613ef0565b610cb9565b6104c561054b366004613f31565b610cdf565b600154610563906001600160a01b031681565b6040516001600160a01b03909116815260200161046d565b610583610d01565b60405165ffffffffffff909116815260200161046d565b6105ad6105a8366004613fa7565b610d83565b005b6104c56105bd36600461411b565b610e0b565b6105637f000000000000000000000000000000000000000000000000000000000000000081565b6105ad6105f736600461417c565b610e36565b610604610e58565b60405160ff909116815260200161046d565b6105ad61062436600461417c565b610ed0565b610461610f03565b6105ad61063f3660046141ba565b610f2b565b60015461058390600160a01b900465ffffffffffff1681565b61051561066b366004613ec4565b610fd9565b6000546104619060ff1681565b60015461058390600160d01b900465ffffffffffff1681565b60025461046190600160a01b900460ff1681565b6104c56106b83660046141d7565b611033565b6105ad6106cb3660046141ba565b611041565b6106d86110ef565b6040516001600160401b03909116815260200161046d565b6105ad6106fe366004614226565b611110565b6104c5610711366004614288565b611270565b6104c5610724366004613f31565b60066020526000908152604090205481565b610583611286565b6105637f000000000000000000000000000000000000000000000000000000000000000081565b60035461046190600160a01b900460ff1681565b6104c5610787366004614288565b6112a7565b6105ad6112b2565b6104c56107a23660046142a5565b6112c6565b61058361158b565b6104c56115b7565b6104616107c5366004614288565b60056020526000908152604090205460ff1681565b6104c56107e83660046142ca565b6115ff565b6104c56107fb3660046142e7565b611677565b6104c561080e3660046141d7565b611781565b6105ad610821366004614288565b61178f565b6105637f000000000000000000000000000000000000000000000000000000000000000081565b6104c5611951565b7f9016d09d72d40fdae2fd8ceac6b6234c7706214fd39c1cd1e609a0528c199300546001600160a01b0316610563565b61046161089336600461417c565b6119ac565b61047e6119e4565b6104c56108ae366004614288565b611a23565b6105ad6108c136600461436e565b611a44565b60005461046190610100900460ff1681565b6104c5600081565b6104c57f4a634bc14d77baf979756509ef4298c6f6318af357828612545267ee2eb7923381565b6105ad61091536600461438e565b611ad4565b6104c561092836600461417c565b600860209081526000928352604080842090915290825290205481565b61046161095336600461417c565b600960209081526000928352604080842090915290825290205460ff1681565b610461610981366004613ec4565b611bd6565b6105ad610994366004614288565b611be4565b6104c56109a7366004613ec4565b611dcb565b6104c56109ba366004613f31565b60076020526000908152604090205481565b600354610563906001600160a01b031681565b6104c5611e73565b6105ad6109f5366004613f31565b611e7f565b6104c5611f08565b6104c5610a10366004614288565b611f14565b600254610563906001600160a01b031681565b6105ad610a3636600461417c565b611f5c565b600054610563906201000090046001600160a01b031681565b6104c57fbae4ee3de6c709ff9a002e774c5b78cb381560b219213c88ae0f1e207c03c02381565b6104c5610a893660046143bc565b611f78565b6104c560045481565b6104c5610aa53660046143ea565b611fc2565b6105ad610ab8366004614288565b612035565b610515610acb366004613ec4565b612075565b6104c5610ade36600461417c565b612116565b60006001600160e01b03198216637965db0b60e01b1480610b1457506301ffc9a760e01b6001600160e01b03198316145b92915050565b7f52c63247e1f47db19d5ce0460030c497f067ca4cebf71ba98eeadabe20bace038054606091600080516020614c2e83398151915291610b599061441b565b80601f0160208091040260200160405190810160405280929190818152602001828054610b859061441b565b8015610bd25780601f10610ba757610100808354040283529160200191610bd2565b820191906000526020600020905b815481529060010190602001808311610bb557829003601f168201915b505050505091505090565b600033610beb818585612157565b5060019392505050565b6000610bff611f08565b905090565b600080610c0f612164565b6001600160a01b038416610c35576040516208978560e71b815260040160405180910390fd5b610c3e33611a23565b831115610c5e57604051632418411f60e11b815260040160405180910390fd5b610c7783610c6a611e73565b610c72611f08565b6121ae565b915081600003610c9d5760405160016245ddc760e11b0319815260040160405180910390fd5b610ca88483856121bd565b9050610cb261220c565b9250929050565b600033610cc7858285612232565b610cd2858585612292565b60019150505b9392505050565b6000908152600080516020614c4e833981519152602052604090206001015490565b600080610d0c6115b7565b905080600003610d2f57604051639fa56a5b60e01b815260040160405180910390fd5b60018054610d7d91600160d01b90910465ffffffffffff1690610d52908461446b565b610d5c919061447e565b600154610d789190600160a01b900465ffffffffffff16614495565b6122f1565b91505090565b610d8b612164565b336001600160a01b037f00000000000000000000000000000000000000000000000000000000000000001614610dd457604051631966391b60e11b815260040160405180910390fd5b610dfe610df6600080516020614c6e833981519152546001600160401b031690565b848484612328565b610e0661220c565b505050565b6001600160a01b0383166000908152600e60205260408120610e2e9084846123a5565b949350505050565b610e3f82610cdf565b610e488161248c565b610e528383612496565b50505050565b60008060029054906101000a90046001600160a01b03166001600160a01b031663313ce5676040518163ffffffff1660e01b8152600401602060405180830381865afa158015610eac573d6000803e3d6000fd5b505050506040513d601f19601f82011682018060405250810190610bff91906144a8565b6001600160a01b0381163314610ef95760405163334bd91960e11b815260040160405180910390fd5b610e068282612542565b600254600090600160a01b900460ff168015610bff575050600354600160a01b900460ff1690565b610f33612164565b7fbae4ee3de6c709ff9a002e774c5b78cb381560b219213c88ae0f1e207c03c023610f5d8161248c565b60005482151560ff909116151503610f885760405163a741a04560e01b815260040160405180910390fd5b6000805460ff19168315159081179091556040519081527f3e12b7b36c75ac9609a3f58609b331210428e1a85909132638955ba0301eec33906020015b60405180910390a150610fd661220c565b50565b600080610fe684846125be565b60405181815291935091506001600160a01b038516906000907fddf252ad1be2c89b69c2b068fc378daa952ba7f163c4a11628f55a4df523b3ef9060200160405180910390a39250929050565b6000610cd8600a84846123a5565b611049612164565b7fc6aaadd7371d5e8f9ed6849dd66a66573a3ba37167d03f4352c9ba5693678fac6110738161248c565b811515600060019054906101000a900460ff161515036110a65760405163a741a04560e01b815260040160405180910390fd5b600080548315156101000261ff00199091161790556040517ffa7a25a0b611d4ba3c0ea990e90dc23d484a5dd7a1be4733fef2946ba74530c690610fc590841515815260200190565b6000610bff600080516020614c6e833981519152546001600160401b031690565b600080516020614c6e833981519152546001600160401b0316156111465760405162dc149f60e41b815260040160405180910390fd5b600080516020614c6e8339815191528054859190600160401b900460ff168061117c575080546001600160401b03808416911610155b1561119a5760405163f92ee8a960e01b815260040160405180910390fd5b805468ffffffffffffffffff19166001600160401b03831617600160401b1781556111c3612897565b6001600160a01b038516156111db576111db856128a7565b61121c868686868080601f0160208091040260200160405190810160405280939291908181526020018383808284376000920191909152506128b892505050565b805468ff0000000000000000191681556040516001600160401b03831681527fc7f505b2f371ae2175ee4913f4499e1f2633a7b5936321eed1cdaeb6115181d29060200160405180910390a1505050505050565b6000610b1461127e83611a23565b610c6a611e73565b600154600090610bff90600160d01b900465ffffffffffff16610d526115b7565b6000610b1482611a23565b6112ba612910565b6112c4600061296b565b565b60006112d0612164565b6003546001600160a01b031633146112fb5760405163dabc4ad960e01b815260040160405180910390fd5b60006113056115b7565b90506000611312846115ff565b905060008211801561132d575061132a60018361446b565b81105b8061133757508181115b1561135557604051635e18d2a560e01b815260040160405180910390fd5b600061135f611e73565b90506000600681611371866001614495565b815260200190815260200160002054905083830361141a5760006113958284614495565b90506113a188826129dc565b955085156114145760006113b68785846129f2565b905060006113c4828961446b565b90506113e46113d1612ab6565b6113db848861446b565b600c9190612ac1565b506113f19050818561446b565b60066000611400896001614495565b815260208101919091526040016000205550505b5061150e565b60008481526006602052604081205490826114358386614495565b61143f9190614495565b905061144b89826129dc565b9650861561150b5760006114608886846129f2565b9050600061146f8986856129f2565b905060008161147e848c61446b565b611488919061446b565b9050808510156114ac5761149c858261446b565b6114a69083614495565b91508490505b6114c16114b7612ab6565b6113db858a61446b565b506114ce9050828761446b565b600660006114dd8c6001614495565b81526020810191909152604001600020556114f8818661446b565b60008a8152600660205260409020555050505b50505b841561153757600154600054611537916001600160a01b03620100009092048216911687612b9b565b6040805188815265ffffffffffff881660208201529081018690527ff9d090c096f71cd1659861a9ce5b6f384bceb4e2fa4e4a19edf6489a9b8d56c79060600160405180910390a150505050610b1461220c565b600154600090610bff90600160d01b900465ffffffffffff166115ac6115b7565b610d52906001614495565b60015460009065ffffffffffff600160d01b8204811691600160a01b9004166115de612ab6565b6115e891906144cb565b6115f29190614500565b65ffffffffffff16905090565b60015460009065ffffffffffff600160a01b909104811690831610156116385760405163b7d0949760e01b815260040160405180910390fd5b60015465ffffffffffff600160d01b820481169161165f91600160a01b90910416846144cb565b6116699190614500565b65ffffffffffff1692915050565b6000611681612164565b6001600160a01b0384166116a857604051634e46966960e11b815260040160405180910390fd5b8160008190036116cb5760405163edf3b93360e01b815260040160405180910390fd5b60005b8181101561170b576116f78585838181106116eb576116eb614525565b90506020020135612bfa565b6117019084614495565b92506001016116ce565b50600054611729906201000090046001600160a01b03168684612b9b565b846001600160a01b0316336001600160a01b03167f326b6aff1cd2fb1c8234de4f9dcfb9047c5c36eb9ef2eb34af5121e969a75d278686866040516117709392919061453b565b60405180910390a350610cd861220c565b6000610cd8600c84846123a5565b611797612164565b600254600160a01b900460ff16156117c257604051631380833b60e01b815260040160405180910390fd5b6040516302910f8b60e31b81526001600160a01b0382811660048301527f000000000000000000000000000000000000000000000000000000000000000016906314887c5890602401602060405180830381865afa158015611828573d6000803e3d6000fd5b505050506040513d601f19601f8201168201806040525081019061184c9190614584565b611869576040516324e5af8d60e21b815260040160405180910390fd5b306001600160a01b0316816001600160a01b031663fbfa77cf6040518163ffffffff1660e01b8152600401602060405180830381865afa1580156118b1573d6000803e3d6000fd5b505050506040513d601f19601f820116820180604052508101906118d591906145ac565b6001600160a01b0316146118fc5760405163b9f0f17160e01b815260040160405180910390fd5b600280546001600160a81b0319166001600160a01b038316908117600160a01b179091556040517fdb2160616f776a37b24808115554e79439bf26cccbbd4438190cc6d28e80ecd190600090a2610fd661220c565b60008061195c6115b7565b90506006600061196d836001614495565b8152602001908152602001600020546006600083815260200190815260200160002054611998611e73565b6119a29190614495565b610d7d9190614495565b6000918252600080516020614c4e833981519152602090815260408084206001600160a01b0393909316845291905290205460ff1690565b7f52c63247e1f47db19d5ce0460030c497f067ca4cebf71ba98eeadabe20bace048054606091600080516020614c2e83398151915291610b599061441b565b6001600160a01b0381166000908152600e60205260408120610b1490612cb3565b600080846001600160a01b03168484604051611a619291906145c9565b600060405180830381855af49150503d8060008114611a9c576040519150601f19603f3d011682016040523d82523d6000602084013e611aa1565b606091505b509150915060008282604051602001611abb9291906145d9565b6040516020818303038152906040529050805181602001fd5b611adc612164565b7f9c56d972d63cbb4195b3c1484691dfc220fa96a4c47e7b6613bd82a022029e06611b068161248c565b6001600160a01b038316611b2d57604051630da30f6560e31b815260040160405180910390fd5b6001600160a01b03831660009081526005602052604090205482151560ff909116151503611b6e5760405163a741a04560e01b815260040160405180910390fd5b6001600160a01b038316600081815260056020908152604091829020805460ff191686151590811790915591519182527ff991b1ecfb5115cbb36a2b2e2240c058406d2acc2fcc6e9e2dc99d845ff70a62910160405180910390a250611bd261220c565b5050565b600033610beb818585612292565b611bec612164565b600354600160a01b900460ff1615611c175760405163703fe2e560e01b815260040160405180910390fd5b6001600160a01b03811615611d7c576040516302910f8b60e31b81526001600160a01b0382811660048301527f000000000000000000000000000000000000000000000000000000000000000016906314887c5890602401602060405180830381865afa158015611c8c573d6000803e3d6000fd5b505050506040513d601f19601f82011682018060405250810190611cb09190614584565b611ccd5760405163dabc4ad960e01b815260040160405180910390fd5b306001600160a01b0316816001600160a01b031663fbfa77cf6040518163ffffffff1660e01b8152600401602060405180830381865afa158015611d15573d6000803e3d6000fd5b505050506040513d601f19601f82011682018060405250810190611d3991906145ac565b6001600160a01b031614611d6057604051633f3e089160e21b815260040160405180910390fd5b600380546001600160a01b0319166001600160a01b0383161790555b6003805460ff60a01b1916600160a01b1790556040516001600160a01b038216907fe7e4c932e03abddfe20f83af42c33627e816115c7ec2b168441f65dc14bfc3ba90600090a2610fd661220c565b6000611dd5612164565b6001600160a01b038316611dfc57604051634e46966960e11b815260040160405180910390fd5b611e0582612bfa565b600054909150611e25906201000090046001600160a01b03168483612b9b565b60408051838152602081018390526001600160a01b0385169133917f865ca08d59f5cb456e85cd2f7ef63664ea4f73327414e9d8152c4158b0e94645910160405180910390a3610b1461220c565b6000610bff600c612cb3565b611e87612164565b7f4a634bc14d77baf979756509ef4298c6f6318af357828612545267ee2eb79233611eb18161248c565b8160045403611ed35760405163a741a04560e01b815260040160405180910390fd5b60048290556040518281527f854df3eb95564502c8bc871ebdd15310ee26270f955f6c6bd8cea68e75045bc090602001610fc5565b6000610bff600a612cb3565b600080611f1f6115b7565b9050611f35611f2f826001614495565b84612116565b611f3f8285612116565b611f4885611270565b611f529190614495565b610cd89190614495565b611f6582610cdf565b611f6e8161248c565b610e528383612542565b6001600160a01b0391821660009081527f52c63247e1f47db19d5ce0460030c497f067ca4cebf71ba98eeadabe20bace016020908152604080832093909416825291909152205490565b6000611fe860405180606001604052806060815260200160608152602001606081525090565b8215611ffd57611ffa838501856145f4565b90505b61202b61200f87878460000151610e0b565b61201d878460200151611781565b610c72888560400151611033565b9695505050505050565b61203d612910565b6001600160a01b03811661206c57604051631e4fbdf760e01b8152600060048201526024015b60405180910390fd5b610fd68161296b565b600080612080612164565b6001600160a01b0384166120a6576040516208978560e71b815260040160405180910390fd5b826000036120c757604051636c6c627d60e11b815260040160405180910390fd5b6120e0836120d3611f08565b6120db611e73565b612d09565b91506120eb33611a23565b82111561210b576040516321727a3760e11b815260040160405180910390fd5b610ca88484846121bd565b60008281526008602090815260408083206001600160a01b03851684528252808320548584526006835281842054600790935290832054610cd892906121ae565b610e068383836001612d18565b7f9b779b17422d0df92223018b32b4d1fa46e071723d6817e2486d003becc55f008054600119016121a857604051633ee5aeb560e01b815260040160405180910390fd5b60029055565b6000610e2e8484846000612e00565b60006121ca848484612e38565b60405183815290915060009033907fddf252ad1be2c89b69c2b068fc378daa952ba7f163c4a11628f55a4df523b3ef9060200160405180910390a39392505050565b60017f9b779b17422d0df92223018b32b4d1fa46e071723d6817e2486d003becc55f0055565b600061223e8484611f78565b90506000198114610e52578181101561228357604051637dc7a0d960e11b81526001600160a01b03841660048201526024810182905260448101839052606401612063565b610e5284848484036000612d18565b6001600160a01b0383166122bc57604051634b637e8f60e11b815260006004820152602401612063565b6001600160a01b0382166122e65760405163ec442f0560e01b815260006004820152602401612063565b610e06838383612faf565b600065ffffffffffff821115612324576040516306dfcc6560e41b81526030600482015260248101839052604401612063565b5090565b600080516020614c6e8339815191528054849190600160401b900460ff168061235e575080546001600160401b03808416911610155b1561237c5760405163f92ee8a960e01b815260040160405180910390fd5b805468ffffffffffffffffff19166001600160401b03831617600160401b17815561121c600080fd5b600081516000036123c1576123ba8484613117565b9050610cd8565b6000828060200190518101906123d791906146a8565b905060006123e5868361316f565b90508465ffffffffffff16816000015165ffffffffffff160361240f57602001519150610cd89050565b805165ffffffffffff808716911610801561247057506001612430876131e7565b61243a919061446b565b8263ffffffff161480612470575065ffffffffffff8516612465876124608560016146ce565b61316f565b5165ffffffffffff16115b1561248257602001519150610cd89050565b61202b8686613117565b610fd681336131f1565b6000600080516020614c4e8339815191526124b184846119ac565b612531576000848152602082815260408083206001600160a01b03871684529091529020805460ff191660011790556124e73390565b6001600160a01b0316836001600160a01b0316857f2f8788117e7eff1d82e926ec794901d17c78024a50270940304540a733656f0d60405160405180910390a46001915050610b14565b6000915050610b14565b5092915050565b6000600080516020614c4e83398151915261255d84846119ac565b15612531576000848152602082815260408083206001600160a01b0387168085529252808320805460ff1916905551339287917ff6391f5c32d9c69d2a47ea670b442974b53935d1edc7fd64eb21e047a839171b9190a46001915050610b14565b6000806125c9612164565b6001600160a01b0384166125f057604051630d534ce360e11b815260040160405180910390fd5b60005460ff16801561261257503360009081526005602052604090205460ff16155b15612630576040516304f63b8560e01b815260040160405180910390fd5b600080546040516370a0823160e01b8152306004820152620100009091046001600160a01b0316906370a0823190602401602060405180830381865afa15801561267e573d6000803e3d6000fd5b505050506040513d601f19601f820116820180604052508101906126a291906146eb565b6000549091506126c3906201000090046001600160a01b031633308761322a565b6000546040516370a0823160e01b815230600482015282916201000090046001600160a01b0316906370a0823190602401602060405180830381865afa158015612711573d6000803e3d6000fd5b505050506040513d601f19601f8201168201806040525081019061273591906146eb565b61273f919061446b565b9250826000036127625760405163070f6eed60e11b815260040160405180910390fd5b600054610100900460ff16801561278c575060045483612780611e73565b61278a9190614495565b115b156127aa57604051632484557960e01b815260040160405180910390fd5b60006127b4611e73565b905060006127c0611f08565b90506127cd858284613263565b93506127e46127da612ab6565b6113db8785614495565b50506128046127f1612ab6565b6127fb8684614495565b600a9190612ac1565b5050612844612811612ab6565b8561281b8a611a23565b6128259190614495565b6001600160a01b038a166000908152600e602052604090209190612ac1565b505060408051868152602081018690526001600160a01b0389169133917fdcbc1c05240f31ff3ad067ef1ee35ce4997762752e3a095284754544f4c709d7910160405180910390a3505050610cb261220c565b61289f613272565b6112c46132a9565b6128af613272565b610fd6816132b1565b6000818060200190518101906128ce9190614828565b90506128fe848483600001516040516020016128ea91906148be565b6040516020818303038152906040526132b9565b610e5281602001518260400151613639565b336129427f9016d09d72d40fdae2fd8ceac6b6234c7706214fd39c1cd1e609a0528c199300546001600160a01b031690565b6001600160a01b0316146112c45760405163118cdaa760e01b8152336004820152602401612063565b7f9016d09d72d40fdae2fd8ceac6b6234c7706214fd39c1cd1e609a0528c19930080546001600160a01b031981166001600160a01b03848116918217845560405192169182907f8be0079c531659141344cd1fd0a4f28419497f9722a3daafe3b4186f6b6457e090600090a3505050565b60008183106129eb5781610cd8565b5090919050565b6000838302816000198587098281108382030391505080600003612a2957838281612a1f57612a1f6144ea565b0492505050610cd8565b808411612a495760405163227bc15360e01b815260040160405180910390fd5b6000848688096000868103871696879004966002600389028118808a02820302808a02820302808a02820302808a02820302808a02820302808a02909103029181900381900460010186841190950394909402919094039290920491909117919091029150509392505050565b6000610bff426122f1565b600183015460009081908103612aeb57600180860180549182018155600090815260208120909101555b600080612af78761364b565b50600189015491935091506000612b0d89612cb3565b9050838015612b2b57508265ffffffffffff168865ffffffffffff16145b15612b63578689600101600184612b42919061446b565b81548110612b5257612b52614525565b600091825260209091200155612b8a565b612b6e8989846136d3565b50506001808a0180549182018155600090815260209020018790555b94508593505050505b935093915050565b6040516001600160a01b03838116602483015260448201839052610e0691859182169063a9059cbb906064015b604051602081830303815290604052915060e01b6020820180516001600160e01b0383818316178352505050506136ed565b6000612c046115b7565b8210612c235760405163d5b25b6360e01b815260040160405180910390fd5b600082815260096020908152604080832033845290915290205460ff1615612c5e57604051630c8d9eab60e31b815260040160405180910390fd5b612c688233612116565b905080600003612c8b576040516366c0bcbf60e11b815260040160405180910390fd5b6000918252600960209081526040808420338552909152909120805460ff1916600117905590565b600080612cbf83613750565b90506000816001600160d01b031611612cd9576000610cd8565b82600101816001600160d01b031681548110612cf757612cf7614525565b90600052602060002001549392505050565b6000610e2e8484846001613789565b600080516020614c2e8339815191526001600160a01b038516612d515760405163e602df0560e01b815260006004820152602401612063565b6001600160a01b038416612d7b57604051634a1406b160e11b815260006004820152602401612063565b6001600160a01b03808616600090815260018301602090815260408083209388168352929052208390558115612df957836001600160a01b0316856001600160a01b03167f8c5be1e5ebec7d5bd14f71427d1e84f3dd0314c0f7b2291e5b200ac8c7c3b92585604051612df091815260200190565b60405180910390a35b5050505050565b6000612e2f612e10856001614495565b612e1c6000600a614a8a565b612e269086614495565b879190856137ae565b95945050505050565b6000612e6f612e45612ab6565b83612e4f33611a23565b612e59919061446b565b336000908152600e602052604090209190612ac1565b5050612e8f612e7c612ab6565b83612e85611f08565b6127fb919061446b565b5050612eaf612e9c612ab6565b84612ea5611e73565b6113db919061446b565b50506000612ebb6115b7565b612ec6906001614495565b60008181526006602090815260408083205460079092529091205491925090612ef0868284613263565b9350612efc8683614495565b600084815260066020526040902055612f158482614495565b600084815260076020908152604080832093909355600881528282206001600160a01b038b16835290529081208054869290612f52908490614495565b909155505060408051878152602081018790529081018590526001600160a01b0388169033907febff2602b3f468259e1e99f613fed6691f3a6526effe6ef3e768ba7ae7a36c4f9060600160405180910390a35050509392505050565b6001600160a01b038316612fe257612fdb612fc8612ab6565b82612fd1610bf5565b6127fb9190614495565b5050613059565b6000612fed846112a7565b9050818110156130295760405163391434e360e21b81526001600160a01b03851660048201526024810182905260448101839052606401612063565b613055613034612ab6565b6001600160a01b0386166000908152600e6020526040902090848403612ac1565b5050505b6001600160a01b03821661308d57613086613072612ab6565b8261307b610bf5565b600a92919003612ac1565b50506130c5565b6130c2613098612ab6565b826130a2856112a7565b6001600160a01b0386166000908152600e60205260409020929101612ac1565b50505b816001600160a01b0316836001600160a01b03167fddf252ad1be2c89b69c2b068fc378daa952ba7f163c4a11628f55a4df523b3ef8360405161310a91815260200190565b60405180910390a3505050565b60008061312484846137f3565b90506000816001600160d01b03161161313e576000610e2e565b83600101816001600160d01b03168154811061315c5761315c614525565b9060005260206000200154949350505050565b6040805180820190915260008082526020820152600061318f848461389b565b90506040518060400160405280826000015165ffffffffffff1681526020018560010183602001516001600160d01b0316815481106131d0576131d0614525565b906000526020600020015481525091505092915050565b6000610b14825490565b6131fb82826119ac565b611bd25760405163e2517d3f60e01b81526001600160a01b038216600482015260248101839052604401612063565b6040516001600160a01b038481166024830152838116604483015260648201839052610e529186918216906323b872dd90608401612bc8565b6000610e2e8484846000613789565b600080516020614c6e83398151915254600160401b900460ff166112c457604051631afcd79f60e31b815260040160405180910390fd5b61220c613272565b61203d613272565b6000818060200190518101906132cf9190614a99565b80519091506001600160a01b03166132fa576040516368f7a67560e11b815260040160405180910390fd5b806040015165ffffffffffff16600003613327576040516368f5f8f160e11b815260040160405180910390fd5b60c08101516001600160a01b031661344e5760e08101516001600160a01b03166133b357806060015115613386576101008101516001600160a01b03166133815760405163183c854560e21b815260040160405180910390fd5b6133b3565b6101008101516001600160a01b0316156133b35760405163183c854560e21b815260040160405180910390fd5b6101208101516001600160a01b031661344e578060800151156134115760a08101511580156133ee57506101408101516001600160a01b0316155b1561340c5760405163183c854560e21b815260040160405180910390fd5b61344e565b60a081015115158061343057506101408101516001600160a01b031615155b1561344e5760405163183c854560e21b815260040160405180910390fd5b80516000805462010000600160b01b031916620100006001600160a01b03938416021790556020820151600180546001600160a01b03191691909216179055613495612ab6565b60018054604084015165ffffffffffff908116600160d01b026001600160d01b0394909116600160a01b02939093166001600160a01b0391821617929092179055606082015160008054608085015115156101000261ff00199315159390931661ffff199091161791909117905560a082015160045560c08201511615613529576135276000801b8260c00151612496565b505b60e08101516001600160a01b03161561356c5761356a7fbae4ee3de6c709ff9a002e774c5b78cb381560b219213c88ae0f1e207c03c0238260e00151612496565b505b6101008101516001600160a01b0316156135b1576135af7f9c56d972d63cbb4195b3c1484691dfc220fa96a4c47e7b6613bd82a022029e06826101000151612496565b505b6101208101516001600160a01b0316156135f6576135f47fc6aaadd7371d5e8f9ed6849dd66a66573a3ba37167d03f4352c9ba5693678fac826101200151612496565b505b6101408101516001600160a01b031615610e5257612df97f4a634bc14d77baf979756509ef4298c6f6318af357828612545267ee2eb79233826101400151612496565b613641613272565b611bd2828261390b565b80546000908190819080820361366c576000806000935093509350506136cc565b600061368b8661367d60018561446b565b600091825260209091200190565b60408051808201909152905465ffffffffffff8116808352600160301b9091046001600160d01b0316602090920182905260019650945092506136cc915050565b9193909250565b6000806136e185858561395c565b91509150935093915050565b60006137026001600160a01b03841683613ad6565b905080516000141580156137275750808060200190518101906137259190614584565b155b15610e0657604051635274afe760e01b81526001600160a01b0384166004820152602401612063565b805460009080156137805761376a8361367d60018461446b565b54600160301b90046001600160d01b0316610cd8565b60009392505050565b6000612e2f61379982600a614a8a565b6137a39086614495565b612e26856001614495565b6000806137bc8686866129f2565b90506137c783613ae4565b80156137e35750600084806137de576137de6144ea565b868809115b15612e2f5761202b600182614495565b81546000908181600581111561385257600061380e84613b11565b613818908561446b565b60008881526020902090915081015465ffffffffffff908116908716101561384257809150613850565b61384d816001614495565b92505b505b600061386087878585613bf9565b9050801561388d576138778761367d60018461446b565b54600160301b90046001600160d01b0316613890565b60005b979650505050505050565b6040805180820190915260008082526020820152826000018263ffffffff16815481106138ca576138ca614525565b60009182526020918290206040805180820190915291015465ffffffffffff81168252600160301b90046001600160d01b0316918101919091529392505050565b613913613272565b600080516020614c2e8339815191527f52c63247e1f47db19d5ce0460030c497f067ca4cebf71ba98eeadabe20bace0361394d8482614b06565b5060048101610e528382614b06565b825460009081908015613a7b57600061397a8761367d60018561446b565b60408051808201909152905465ffffffffffff808216808452600160301b9092046001600160d01b0316602084015291925090871610156139ce57604051632520601d60e01b815260040160405180910390fd5b805165ffffffffffff808816911603613a1a57846139f18861367d60018661446b565b80546001600160d01b0392909216600160301b0265ffffffffffff909216919091179055613a6b565b6040805180820190915265ffffffffffff80881682526001600160d01b0380881660208085019182528b54600181018d5560008d81529190912094519151909216600160301b029216919091179101555b602001519250839150612b939050565b50506040805180820190915265ffffffffffff80851682526001600160d01b0380851660208085019182528854600181018a5560008a815291822095519251909316600160301b029190931617920191909155905081612b93565b6060610cd883836000613c5b565b60006002826003811115613afa57613afa614bc5565b613b049190614bdb565b60ff166001149050919050565b600081600003613b2357506000919050565b60006001613b3084613cee565b901c6001901b90506001818481613b4957613b496144ea565b048201901c90506001818481613b6157613b616144ea565b048201901c90506001818481613b7957613b796144ea565b048201901c90506001818481613b9157613b916144ea565b048201901c90506001818481613ba957613ba96144ea565b048201901c90506001818481613bc157613bc16144ea565b048201901c90506001818481613bd957613bd96144ea565b048201901c9050610cd881828581613bf357613bf36144ea565b046129dc565b60005b81831015613c53576000613c108484613d82565b60008781526020902090915065ffffffffffff86169082015465ffffffffffff161115613c3f57809250613c4d565b613c4a816001614495565b93505b50613bfc565b509392505050565b606081471015613c805760405163cd78605960e01b8152306004820152602401612063565b600080856001600160a01b03168486604051613c9c9190614bfd565b60006040518083038185875af1925050503d8060008114613cd9576040519150601f19603f3d011682016040523d82523d6000602084013e613cde565b606091505b509150915061202b868383613d9d565b600080608083901c15613d0357608092831c92015b604083901c15613d1557604092831c92015b602083901c15613d2757602092831c92015b601083901c15613d3957601092831c92015b600883901c15613d4b57600892831c92015b600483901c15613d5d57600492831c92015b600283901c15613d6f57600292831c92015b600183901c15610b145760010192915050565b6000613d916002848418614c19565b610cd890848416614495565b606082613db257613dad82613df9565b610cd8565b8151158015613dc957506001600160a01b0384163b155b15613df257604051639996b31560e01b81526001600160a01b0385166004820152602401612063565b5080610cd8565b805115613e095780518082602001fd5b604051630a12f52160e11b815260040160405180910390fd5b600060208284031215613e3457600080fd5b81356001600160e01b031981168114610cd857600080fd5b60005b83811015613e67578181015183820152602001613e4f565b50506000910152565b60008151808452613e88816020860160208601613e4c565b601f01601f19169290920160200192915050565b602081526000610cd86020830184613e70565b6001600160a01b0381168114610fd657600080fd5b60008060408385031215613ed757600080fd5b8235613ee281613eaf565b946020939093013593505050565b600080600060608486031215613f0557600080fd5b8335613f1081613eaf565b92506020840135613f2081613eaf565b929592945050506040919091013590565b600060208284031215613f4357600080fd5b5035919050565b80356001600160401b0381168114613f6157600080fd5b919050565b60008083601f840112613f7857600080fd5b5081356001600160401b03811115613f8f57600080fd5b602083019150836020828501011115610cb257600080fd5b600080600060408486031215613fbc57600080fd5b613fc584613f4a565b925060208401356001600160401b03811115613fe057600080fd5b613fec86828701613f66565b9497909650939450505050565b65ffffffffffff81168114610fd657600080fd5b634e487b7160e01b600052604160045260246000fd5b604051606081016001600160401b03811182821017156140455761404561400d565b60405290565b60405161016081016001600160401b03811182821017156140455761404561400d565b604051601f8201601f191681016001600160401b03811182821017156140965761409661400d565b604052919050565b60006001600160401b038211156140b7576140b761400d565b50601f01601f191660200190565b600082601f8301126140d657600080fd5b81356140e96140e48261409e565b61406e565b8181528460208386010111156140fe57600080fd5b816020850160208301376000918101602001919091529392505050565b60008060006060848603121561413057600080fd5b833561413b81613eaf565b9250602084013561414b81613ff9565b915060408401356001600160401b0381111561416657600080fd5b614172868287016140c5565b9150509250925092565b6000806040838503121561418f57600080fd5b8235915060208301356141a181613eaf565b809150509250929050565b8015158114610fd657600080fd5b6000602082840312156141cc57600080fd5b8135610cd8816141ac565b600080604083850312156141ea57600080fd5b82356141f581613ff9565b915060208301356001600160401b0381111561421057600080fd5b61421c858286016140c5565b9150509250929050565b6000806000806060858703121561423c57600080fd5b61424585613f4a565b9350602085013561425581613eaf565b925060408501356001600160401b0381111561427057600080fd5b61427c87828801613f66565b95989497509550505050565b60006020828403121561429a57600080fd5b8135610cd881613eaf565b600080604083850312156142b857600080fd5b8235915060208301356141a181613ff9565b6000602082840312156142dc57600080fd5b8135610cd881613ff9565b6000806000604084860312156142fc57600080fd5b833561430781613eaf565b925060208401356001600160401b038082111561432357600080fd5b818601915086601f83011261433757600080fd5b81358181111561434657600080fd5b8760208260051b850101111561435b57600080fd5b6020830194508093505050509250925092565b60008060006040848603121561438357600080fd5b8335613fc581613eaf565b600080604083850312156143a157600080fd5b82356143ac81613eaf565b915060208301356141a1816141ac565b600080604083850312156143cf57600080fd5b82356143da81613eaf565b915060208301356141a181613eaf565b6000806000806060858703121561440057600080fd5b843561440b81613eaf565b9350602085013561425581613ff9565b600181811c9082168061442f57607f821691505b60208210810361444f57634e487b7160e01b600052602260045260246000fd5b50919050565b634e487b7160e01b600052601160045260246000fd5b81810381811115610b1457610b14614455565b8082028115828204841417610b1457610b14614455565b80820180821115610b1457610b14614455565b6000602082840312156144ba57600080fd5b815160ff81168114610cd857600080fd5b65ffffffffffff82811682821603908082111561253b5761253b614455565b634e487b7160e01b600052601260045260246000fd5b600065ffffffffffff80841680614519576145196144ea565b92169190910492915050565b634e487b7160e01b600052603260045260246000fd5b6040808252810183905260006001600160fb1b0384111561455b57600080fd5b8360051b808660608501376020830193909352500160600192915050565b8051613f61816141ac565b60006020828403121561459657600080fd5b8151610cd8816141ac565b8051613f6181613eaf565b6000602082840312156145be57600080fd5b8151610cd881613eaf565b8183823760009101908152919050565b8215158152604060208201526000610e2e6040830184613e70565b60006020828403121561460657600080fd5b81356001600160401b038082111561461d57600080fd5b908301906060828603121561463157600080fd5b614639614023565b82358281111561464857600080fd5b614654878286016140c5565b82525060208301358281111561466957600080fd5b614675878286016140c5565b60208301525060408301358281111561468d57600080fd5b614699878286016140c5565b60408301525095945050505050565b6000602082840312156146ba57600080fd5b815163ffffffff81168114610cd857600080fd5b63ffffffff81811683821601908082111561253b5761253b614455565b6000602082840312156146fd57600080fd5b5051919050565b8051613f6181613ff9565b6000610160828403121561472257600080fd5b61472a61404b565b9050614735826145a1565b8152614743602083016145a1565b602082015261475460408301614704565b604082015261476560608301614579565b606082015261477660808301614579565b608082015260a082015160a082015261479160c083016145a1565b60c08201526147a260e083016145a1565b60e08201526101006147b58184016145a1565b908201526101206147c78382016145a1565b908201526101406147d98382016145a1565b9082015292915050565b600082601f8301126147f457600080fd5b81516148026140e48261409e565b81815284602083860101111561481757600080fd5b610e2e826020830160208701613e4c565b60006020828403121561483a57600080fd5b81516001600160401b038082111561485157600080fd5b908301906101a0828603121561486657600080fd5b61486e614023565b614878868461470f565b81526101608301518281111561488d57600080fd5b614899878286016147e3565b602083015250610180830151828111156148b257600080fd5b614699878286016147e3565b81516001600160a01b03168152610160810160208301516148ea60208401826001600160a01b03169052565b506040830151614904604084018265ffffffffffff169052565b506060830151614918606084018215159052565b50608083015161492c608084018215159052565b5060a083015160a083015260c083015161495160c08401826001600160a01b03169052565b5060e083015161496c60e08401826001600160a01b03169052565b50610100838101516001600160a01b0390811691840191909152610120808501518216908401526101409384015116929091019190915290565b600181815b808511156149e15781600019048211156149c7576149c7614455565b808516156149d457918102915b93841c93908002906149ab565b509250929050565b6000826149f857506001610b14565b81614a0557506000610b14565b8160018114614a1b5760028114614a2557614a41565b6001915050610b14565b60ff841115614a3657614a36614455565b50506001821b610b14565b5060208310610133831016604e8410600b8410161715614a64575081810a610b14565b614a6e83836149a6565b8060001904821115614a8257614a82614455565b029392505050565b6000610cd860ff8416836149e9565b60006101608284031215614aac57600080fd5b610cd8838361470f565b601f821115610e06576000816000526020600020601f850160051c81016020861015614adf5750805b601f850160051c820191505b81811015614afe57828155600101614aeb565b505050505050565b81516001600160401b03811115614b1f57614b1f61400d565b614b3381614b2d845461441b565b84614ab6565b602080601f831160018114614b685760008415614b505750858301515b600019600386901b1c1916600185901b178555614afe565b600085815260208120601f198616915b82811015614b9757888601518255948401946001909101908401614b78565b5085821015614bb55787850151600019600388901b60f8161c191681555b5050505050600190811b01905550565b634e487b7160e01b600052602160045260246000fd5b600060ff831680614bee57614bee6144ea565b8060ff84160691505092915050565b60008251614c0f818460208701613e4c565b9190910192915050565b600082614c2857614c286144ea565b50049056fe52c63247e1f47db19d5ce0460030c497f067ca4cebf71ba98eeadabe20bace0002dd7bc7dec4dceedda775e58dd541e08a116c6c53815c0bd028192f7b626800f0c57e16840df040f15088dc2f81fe391c3923bec73e23a9662efc9c229c6a00a26469706673582212207dbc178b53e85f590634985339a48355ef89341b3cc58437ccaaff3427e8ca8764736f6c63430008190033","linkReferences":{}},"methodIdentifiers":{"DEFAULT_ADMIN_ROLE()":"a217fddf","DELEGATOR_FACTORY()":"6da3e06d","DEPOSITOR_WHITELIST_ROLE()":"1b66c9e1","DEPOSIT_LIMIT_SET_ROLE()":"a21a1df9","DEPOSIT_WHITELIST_SET_ROLE()":"db388715","FACTORY()":"2dd31000","IS_DEPOSIT_LIMIT_SET_ROLE()":"1415519b","SLASHER_FACTORY()":"87df0788","activeBalanceOf(address)":"59f769a9","activeBalanceOfAt(address,uint48,bytes)":"efb559d6","activeShares()":"bfefcd7b","activeSharesAt(uint48,bytes)":"50f22068","activeSharesOf(address)":"9d66201b","activeSharesOfAt(address,uint48,bytes)":"2d73c69c","activeStake()":"bd49c35f","activeStakeAt(uint48,bytes)":"810da75d","allowance(address,address)":"dd62ed3e","approve(address,uint256)":"095ea7b3","balanceOf(address)":"70a08231","burner()":"27810b6e","claim(address,uint256)":"aad3ec96","claimBatch(address,uint256[])":"7c04c80a","collateral()":"d8dfeb45","currentEpoch()":"76671808","currentEpochStart()":"61a8c8c4","decimals()":"313ce567","delegator()":"ce9b7930","deposit(address,uint256)":"47e7ef24","depositLimit()":"ecf70858","depositWhitelist()":"48d3b775","epochAt(uint48)":"7953b33b","epochDuration()":"4ff0876a","epochDurationInit()":"46361671","getRoleAdmin(bytes32)":"248a9ca3","grantRole(bytes32,address)":"2f2ff15d","hasRole(bytes32,address)":"91d14854","initialize(uint64,address,bytes)":"57ec83cc","isDelegatorInitialized()":"50861adc","isDepositLimit()":"a1b12202","isDepositorWhitelisted(address)":"794b15b7","isInitialized()":"392e53cd","isSlasherInitialized()":"6ec1e3f8","isWithdrawalsClaimed(uint256,address)":"a5d03223","migrate(uint64,bytes)":"2abe3048","name()":"06fdde03","nextEpochStart()":"73790ab3","onSlash(uint256,uint48)":"7278e31c","owner()":"8da5cb5b","previousEpochStart()":"281f5752","redeem(address,uint256)":"1e9a6950","renounceOwnership()":"715018a6","renounceRole(bytes32,address)":"36568abe","revokeRole(bytes32,address)":"d547741f","setDelegator(address)":"83cd9cc3","setDepositLimit(uint256)":"bdc8144b","setDepositWhitelist(bool)":"4105a7dd","setDepositorWhitelistStatus(address,bool)":"a2861466","setIsDepositLimit(bool)":"5346e34f","setSlasher(address)":"aabc2496","slashableBalanceOf(address)":"c31e8dd7","slasher()":"b1344271","staticDelegateCall(address,bytes)":"9f86fd85","supportsInterface(bytes4)":"01ffc9a7","symbol()":"95d89b41","totalStake()":"8b0e9f3f","totalSupply()":"18160ddd","transfer(address,uint256)":"a9059cbb","transferFrom(address,address,uint256)":"23b872dd","transferOwnership(address)":"f2fde38b","version()":"54fd4d50","withdraw(address,uint256)":"f3fef3a3","withdrawalShares(uint256)":"afba70ad","withdrawalSharesOf(uint256,address)":"a3b54172","withdrawals(uint256)":"5cc07076","withdrawalsOf(uint256,address)":"f5e7ee0f"},"id":70}