{"abi":[{"type":"constructor","inputs":[{"name":"delegatorFactory","type":"address","internalType":"address"},{"name":"slasherFactory","type":"address","internalType":"address"},{"name":"vaultFactory","type":"address","internalType":"address"}],"stateMutability":"nonpayable"},{"type":"function","name":"DEFAULT_ADMIN_ROLE","inputs":[],"outputs":[{"name":"","type":"bytes32","internalType":"bytes32"}],"stateMutability":"view"},{"type":"function","name":"DELEGATOR_FACTORY","inputs":[],"outputs":[{"name":"","type":"address","internalType":"address"}],"stateMutability":"view"},{"type":"function","name":"DEPOSITOR_WHITELIST_ROLE","inputs":[],"outputs":[{"name":"","type":"bytes32","internalType":"bytes32"}],"stateMutability":"view"},{"type":"function","name":"DEPOSIT_LIMIT_SET_ROLE","inputs":[],"outputs":[{"name":"","type":"bytes32","internalType":"bytes32"}],"stateMutability":"view"},{"type":"function","name":"DEPOSIT_WHITELIST_SET_ROLE","inputs":[],"outputs":[{"name":"","type":"bytes32","internalType":"bytes32"}],"stateMutability":"view"},{"type":"function","name":"FACTORY","inputs":[],"outputs":[{"name":"","type":"address","internalType":"address"}],"stateMutability":"view"},{"type":"function","name":"IS_DEPOSIT_LIMIT_SET_ROLE","inputs":[],"outputs":[{"name":"","type":"bytes32","internalType":"bytes32"}],"stateMutability":"view"},{"type":"function","name":"SLASHER_FACTORY","inputs":[],"outputs":[{"name":"","type":"address","internalType":"address"}],"stateMutability":"view"},{"type":"function","name":"activeBalanceOf","inputs":[{"name":"account","type":"address","internalType":"address"}],"outputs":[{"name":"","type":"uint256","internalType":"uint256"}],"stateMutability":"view"},{"type":"function","name":"activeBalanceOfAt","inputs":[{"name":"account","type":"address","internalType":"address"},{"name":"timestamp","type":"uint48","internalType":"uint48"},{"name":"hints","type":"bytes","internalType":"bytes"}],"outputs":[{"name":"","type":"uint256","internalType":"uint256"}],"stateMutability":"view"},{"type":"function","name":"activeShares","inputs":[],"outputs":[{"name":"","type":"uint256","internalType":"uint256"}],"stateMutability":"view"},{"type":"function","name":"activeSharesAt","inputs":[{"name":"timestamp","type":"uint48","internalType":"uint48"},{"name":"hint","type":"bytes","internalType":"bytes"}],"outputs":[{"name":"","type":"uint256","internalType":"uint256"}],"stateMutability":"view"},{"type":"function","name":"activeSharesOf","inputs":[{"name":"account","type":"address","internalType":"address"}],"outputs":[{"name":"","type":"uint256","internalType":"uint256"}],"stateMutability":"view"},{"type":"function","name":"activeSharesOfAt","inputs":[{"name":"account","type":"address","internalType":"address"},{"name":"timestamp","type":"uint48","internalType":"uint48"},{"name":"hint","type":"bytes","internalType":"bytes"}],"outputs":[{"name":"","type":"uint256","internalType":"uint256"}],"stateMutability":"view"},{"type":"function","name":"activeStake","inputs":[],"outputs":[{"name":"","type":"uint256","internalType":"uint256"}],"stateMutability":"view"},{"type":"function","name":"activeStakeAt","inputs":[{"name":"timestamp","type":"uint48","internalType":"uint48"},{"name":"hint","type":"bytes","internalType":"bytes"}],"outputs":[{"name":"","type":"uint256","internalType":"uint256"}],"stateMutability":"view"},{"type":"function","name":"burner","inputs":[],"outputs":[{"name":"","type":"address","internalType":"address"}],"stateMutability":"view"},{"type":"function","name":"claim","inputs":[{"name":"recipient","type":"address","internalType":"address"},{"name":"epoch","type":"uint256","internalType":"uint256"}],"outputs":[{"name":"amount","type":"uint256","internalType":"uint256"}],"stateMutability":"nonpayable"},{"type":"function","name":"claimBatch","inputs":[{"name":"recipient","type":"address","internalType":"address"},{"name":"epochs","type":"uint256[]","internalType":"uint256[]"}],"outputs":[{"name":"amount","type":"uint256","internalType":"uint256"}],"stateMutability":"nonpayable"},{"type":"function","name":"collateral","inputs":[],"outputs":[{"name":"","type":"address","internalType":"address"}],"stateMutability":"view"},{"type":"function","name":"currentEpoch","inputs":[],"outputs":[{"name":"","type":"uint256","internalType":"uint256"}],"stateMutability":"view"},{"type":"function","name":"currentEpochStart","inputs":[],"outputs":[{"name":"","type":"uint48","internalType":"uint48"}],"stateMutability":"view"},{"type":"function","name":"delegator","inputs":[],"outputs":[{"name":"","type":"address","internalType":"address"}],"stateMutability":"view"},{"type":"function","name":"deposit","inputs":[{"name":"onBehalfOf","type":"address","internalType":"address"},{"name":"amount","type":"uint256","internalType":"uint256"}],"outputs":[{"name":"depositedAmount","type":"uint256","internalType":"uint256"},{"name":"mintedShares","type":"uint256","internalType":"uint256"}],"stateMutability":"nonpayable"},{"type":"function","name":"depositLimit","inputs":[],"outputs":[{"name":"","type":"uint256","internalType":"uint256"}],"stateMutability":"view"},{"type":"function","name":"depositWhitelist","inputs":[],"outputs":[{"name":"","type":"bool","internalType":"bool"}],"stateMutability":"view"},{"type":"function","name":"epochAt","inputs":[{"name":"timestamp","type":"uint48","internalType":"uint48"}],"outputs":[{"name":"","type":"uint256","internalType":"uint256"}],"stateMutability":"view"},{"type":"function","name":"epochDuration","inputs":[],"outputs":[{"name":"","type":"uint48","internalType":"uint48"}],"stateMutability":"view"},{"type":"function","name":"epochDurationInit","inputs":[],"outputs":[{"name":"","type":"uint48","internalType":"uint48"}],"stateMutability":"view"},{"type":"function","name":"getRoleAdmin","inputs":[{"name":"role","type":"bytes32","internalType":"bytes32"}],"outputs":[{"name":"","type":"bytes32","internalType":"bytes32"}],"stateMutability":"view"},{"type":"function","name":"grantRole","inputs":[{"name":"role","type":"bytes32","internalType":"bytes32"},{"name":"account","type":"address","internalType":"address"}],"outputs":[],"stateMutability":"nonpayable"},{"type":"function","name":"hasRole","inputs":[{"name":"role","type":"bytes32","internalType":"bytes32"},{"name":"account","type":"address","internalType":"address"}],"outputs":[{"name":"","type":"bool","internalType":"bool"}],"stateMutability":"view"},{"type":"function","name":"initialize","inputs":[{"name":"initialVersion","type":"uint64","internalType":"uint64"},{"name":"owner_","type":"address","internalType":"address"},{"name":"data","type":"bytes","internalType":"bytes"}],"outputs":[],"stateMutability":"nonpayable"},{"type":"function","name":"isDelegatorInitialized","inputs":[],"outputs":[{"name":"","type":"bool","internalType":"bool"}],"stateMutability":"view"},{"type":"function","name":"isDepositLimit","inputs":[],"outputs":[{"name":"","type":"bool","internalType":"bool"}],"stateMutability":"view"},{"type":"function","name":"isDepositorWhitelisted","inputs":[{"name":"account","type":"address","internalType":"address"}],"outputs":[{"name":"value","type":"bool","internalType":"bool"}],"stateMutability":"view"},{"type":"function","name":"isInitialized","inputs":[],"outputs":[{"name":"","type":"bool","internalType":"bool"}],"stateMutability":"view"},{"type":"function","name":"isSlasherInitialized","inputs":[],"outputs":[{"name":"","type":"bool","internalType":"bool"}],"stateMutability":"view"},{"type":"function","name":"isWithdrawalsClaimed","inputs":[{"name":"epoch","type":"uint256","internalType":"uint256"},{"name":"account","type":"address","internalType":"address"}],"outputs":[{"name":"value","type":"bool","internalType":"bool"}],"stateMutability":"view"},{"type":"function","name":"migrate","inputs":[{"name":"newVersion","type":"uint64","internalType":"uint64"},{"name":"data","type":"bytes","internalType":"bytes"}],"outputs":[],"stateMutability":"nonpayable"},{"type":"function","name":"nextEpochStart","inputs":[],"outputs":[{"name":"","type":"uint48","internalType":"uint48"}],"stateMutability":"view"},{"type":"function","name":"onSlash","inputs":[{"name":"amount","type":"uint256","internalType":"uint256"},{"name":"captureTimestamp","type":"uint48","internalType":"uint48"}],"outputs":[{"name":"slashedAmount","type":"uint256","internalType":"uint256"}],"stateMutability":"nonpayable"},{"type":"function","name":"owner","inputs":[],"outputs":[{"name":"","type":"address","internalType":"address"}],"stateMutability":"view"},{"type":"function","name":"previousEpochStart","inputs":[],"outputs":[{"name":"","type":"uint48","internalType":"uint48"}],"stateMutability":"view"},{"type":"function","name":"redeem","inputs":[{"name":"claimer","type":"address","internalType":"address"},{"name":"shares","type":"uint256","internalType":"uint256"}],"outputs":[{"name":"withdrawnAssets","type":"uint256","internalType":"uint256"},{"name":"mintedShares","type":"uint256","internalType":"uint256"}],"stateMutability":"nonpayable"},{"type":"function","name":"renounceOwnership","inputs":[],"outputs":[],"stateMutability":"nonpayable"},{"type":"function","name":"renounceRole","inputs":[{"name":"role","type":"bytes32","internalType":"bytes32"},{"name":"callerConfirmation","type":"address","internalType":"address"}],"outputs":[],"stateMutability":"nonpayable"},{"type":"function","name":"revokeRole","inputs":[{"name":"role","type":"bytes32","internalType":"bytes32"},{"name":"account","type":"address","internalType":"address"}],"outputs":[],"stateMutability":"nonpayable"},{"type":"function","name":"setDelegator","inputs":[{"name":"delegator_","type":"address","internalType":"address"}],"outputs":[],"stateMutability":"nonpayable"},{"type":"function","name":"setDepositLimit","inputs":[{"name":"limit","type":"uint256","internalType":"uint256"}],"outputs":[],"stateMutability":"nonpayable"},{"type":"function","name":"setDepositWhitelist","inputs":[{"name":"status","type":"bool","internalType":"bool"}],"outputs":[],"stateMutability":"nonpayable"},{"type":"function","name":"setDepositorWhitelistStatus","inputs":[{"name":"account","type":"address","internalType":"address"},{"name":"status","type":"bool","internalType":"bool"}],"outputs":[],"stateMutability":"nonpayable"},{"type":"function","name":"setIsDepositLimit","inputs":[{"name":"status","type":"bool","internalType":"bool"}],"outputs":[],"stateMutability":"nonpayable"},{"type":"function","name":"setSlasher","inputs":[{"name":"slasher_","type":"address","internalType":"address"}],"outputs":[],"stateMutability":"nonpayable"},{"type":"function","name":"slashableBalanceOf","inputs":[{"name":"account","type":"address","internalType":"address"}],"outputs":[{"name":"","type":"uint256","internalType":"uint256"}],"stateMutability":"view"},{"type":"function","name":"slasher","inputs":[],"outputs":[{"name":"","type":"address","internalType":"address"}],"stateMutability":"view"},{"type":"function","name":"staticDelegateCall","inputs":[{"name":"target","type":"address","internalType":"address"},{"name":"data","type":"bytes","internalType":"bytes"}],"outputs":[],"stateMutability":"nonpayable"},{"type":"function","name":"supportsInterface","inputs":[{"name":"interfaceId","type":"bytes4","internalType":"bytes4"}],"outputs":[{"name":"","type":"bool","internalType":"bool"}],"stateMutability":"view"},{"type":"function","name":"totalStake","inputs":[],"outputs":[{"name":"","type":"uint256","internalType":"uint256"}],"stateMutability":"view"},{"type":"function","name":"transferOwnership","inputs":[{"name":"newOwner","type":"address","internalType":"address"}],"outputs":[],"stateMutability":"nonpayable"},{"type":"function","name":"version","inputs":[],"outputs":[{"name":"","type":"uint64","internalType":"uint64"}],"stateMutability":"view"},{"type":"function","name":"withdraw","inputs":[{"name":"claimer","type":"address","internalType":"address"},{"name":"amount","type":"uint256","internalType":"uint256"}],"outputs":[{"name":"burnedShares","type":"uint256","internalType":"uint256"},{"name":"mintedShares","type":"uint256","internalType":"uint256"}],"stateMutability":"nonpayable"},{"type":"function","name":"withdrawalShares","inputs":[{"name":"epoch","type":"uint256","internalType":"uint256"}],"outputs":[{"name":"amount","type":"uint256","internalType":"uint256"}],"stateMutability":"view"},{"type":"function","name":"withdrawalSharesOf","inputs":[{"name":"epoch","type":"uint256","internalType":"uint256"},{"name":"account","type":"address","internalType":"address"}],"outputs":[{"name":"amount","type":"uint256","internalType":"uint256"}],"stateMutability":"view"},{"type":"function","name":"withdrawals","inputs":[{"name":"epoch","type":"uint256","internalType":"uint256"}],"outputs":[{"name":"amount","type":"uint256","internalType":"uint256"}],"stateMutability":"view"},{"type":"function","name":"withdrawalsOf","inputs":[{"name":"epoch","type":"uint256","internalType":"uint256"},{"name":"account","type":"address","internalType":"address"}],"outputs":[{"name":"","type":"uint256","internalType":"uint256"}],"stateMutability":"view"},{"type":"event","name":"Claim","inputs":[{"name":"claimer","type":"address","indexed":true,"internalType":"address"},{"name":"recipient","type":"address","indexed":true,"internalType":"address"},{"name":"epoch","type":"uint256","indexed":false,"internalType":"uint256"},{"name":"amount","type":"uint256","indexed":false,"internalType":"uint256"}],"anonymous":false},{"type":"event","name":"ClaimBatch","inputs":[{"name":"claimer","type":"address","indexed":true,"internalType":"address"},{"name":"recipient","type":"address","indexed":true,"internalType":"address"},{"name":"epochs","type":"uint256[]","indexed":false,"internalType":"uint256[]"},{"name":"amount","type":"uint256","indexed":false,"internalType":"uint256"}],"anonymous":false},{"type":"event","name":"Deposit","inputs":[{"name":"depositor","type":"address","indexed":true,"internalType":"address"},{"name":"onBehalfOf","type":"address","indexed":true,"internalType":"address"},{"name":"amount","type":"uint256","indexed":false,"internalType":"uint256"},{"name":"shares","type":"uint256","indexed":false,"internalType":"uint256"}],"anonymous":false},{"type":"event","name":"Initialized","inputs":[{"name":"version","type":"uint64","indexed":false,"internalType":"uint64"}],"anonymous":false},{"type":"event","name":"OnSlash","inputs":[{"name":"amount","type":"uint256","indexed":false,"internalType":"uint256"},{"name":"captureTimestamp","type":"uint48","indexed":false,"internalType":"uint48"},{"name":"slashedAmount","type":"uint256","indexed":false,"internalType":"uint256"}],"anonymous":false},{"type":"event","name":"OwnershipTransferred","inputs":[{"name":"previousOwner","type":"address","indexed":true,"internalType":"address"},{"name":"newOwner","type":"address","indexed":true,"internalType":"address"}],"anonymous":false},{"type":"event","name":"RoleAdminChanged","inputs":[{"name":"role","type":"bytes32","indexed":true,"internalType":"bytes32"},{"name":"previousAdminRole","type":"bytes32","indexed":true,"internalType":"bytes32"},{"name":"newAdminRole","type":"bytes32","indexed":true,"internalType":"bytes32"}],"anonymous":false},{"type":"event","name":"RoleGranted","inputs":[{"name":"role","type":"bytes32","indexed":true,"internalType":"bytes32"},{"name":"account","type":"address","indexed":true,"internalType":"address"},{"name":"sender","type":"address","indexed":true,"internalType":"address"}],"anonymous":false},{"type":"event","name":"RoleRevoked","inputs":[{"name":"role","type":"bytes32","indexed":true,"internalType":"bytes32"},{"name":"account","type":"address","indexed":true,"internalType":"address"},{"name":"sender","type":"address","indexed":true,"internalType":"address"}],"anonymous":false},{"type":"event","name":"SetDelegator","inputs":[{"name":"delegator","type":"address","indexed":true,"internalType":"address"}],"anonymous":false},{"type":"event","name":"SetDepositLimit","inputs":[{"name":"limit","type":"uint256","indexed":false,"internalType":"uint256"}],"anonymous":false},{"type":"event","name":"SetDepositWhitelist","inputs":[{"name":"status","type":"bool","indexed":false,"internalType":"bool"}],"anonymous":false},{"type":"event","name":"SetDepositorWhitelistStatus","inputs":[{"name":"account","type":"address","indexed":true,"internalType":"address"},{"name":"status","type":"bool","indexed":false,"internalType":"bool"}],"anonymous":false},{"type":"event","name":"SetIsDepositLimit","inputs":[{"name":"status","type":"bool","indexed":false,"internalType":"bool"}],"anonymous":false},{"type":"event","name":"SetSlasher","inputs":[{"name":"slasher","type":"address","indexed":true,"internalType":"address"}],"anonymous":false},{"type":"event","name":"Withdraw","inputs":[{"name":"withdrawer","type":"address","indexed":true,"internalType":"address"},{"name":"claimer","type":"address","indexed":true,"internalType":"address"},{"name":"amount","type":"uint256","indexed":false,"internalType":"uint256"},{"name":"burnedShares","type":"uint256","indexed":false,"internalType":"uint256"},{"name":"mintedShares","type":"uint256","indexed":false,"internalType":"uint256"}],"anonymous":false},{"type":"error","name":"AccessControlBadConfirmation","inputs":[]},{"type":"error","name":"AccessControlUnauthorizedAccount","inputs":[{"name":"account","type":"address","internalType":"address"},{"name":"neededRole","type":"bytes32","internalType":"bytes32"}]},{"type":"error","name":"AddressEmptyCode","inputs":[{"name":"target","type":"address","internalType":"address"}]},{"type":"error","name":"AddressInsufficientBalance","inputs":[{"name":"account","type":"address","internalType":"address"}]},{"type":"error","name":"AlreadyClaimed","inputs":[]},{"type":"error","name":"AlreadyInitialized","inputs":[]},{"type":"error","name":"AlreadySet","inputs":[]},{"type":"error","name":"CheckpointUnorderedInsertion","inputs":[]},{"type":"error","name":"DelegatorAlreadyInitialized","inputs":[]},{"type":"error","name":"DepositLimitReached","inputs":[]},{"type":"error","name":"FailedInnerCall","inputs":[]},{"type":"error","name":"InsufficientClaim","inputs":[]},{"type":"error","name":"InsufficientDeposit","inputs":[]},{"type":"error","name":"InsufficientRedemption","inputs":[]},{"type":"error","name":"InsufficientWithdrawal","inputs":[]},{"type":"error","name":"InvalidAccount","inputs":[]},{"type":"error","name":"InvalidCaptureEpoch","inputs":[]},{"type":"error","name":"InvalidClaimer","inputs":[]},{"type":"error","name":"InvalidCollateral","inputs":[]},{"type":"error","name":"InvalidDelegator","inputs":[]},{"type":"error","name":"InvalidEpoch","inputs":[]},{"type":"error","name":"InvalidEpochDuration","inputs":[]},{"type":"error","name":"InvalidInitialization","inputs":[]},{"type":"error","name":"InvalidLengthEpochs","inputs":[]},{"type":"error","name":"InvalidOnBehalfOf","inputs":[]},{"type":"error","name":"InvalidRecipient","inputs":[]},{"type":"error","name":"InvalidSlasher","inputs":[]},{"type":"error","name":"InvalidTimestamp","inputs":[]},{"type":"error","name":"MathOverflowedMulDiv","inputs":[]},{"type":"error","name":"MissingRoles","inputs":[]},{"type":"error","name":"NoPreviousEpoch","inputs":[]},{"type":"error","name":"NotDelegator","inputs":[]},{"type":"error","name":"NotFactory","inputs":[]},{"type":"error","name":"NotInitialized","inputs":[]},{"type":"error","name":"NotInitializing","inputs":[]},{"type":"error","name":"NotSlasher","inputs":[]},{"type":"error","name":"NotWhitelistedDepositor","inputs":[]},{"type":"error","name":"OwnableInvalidOwner","inputs":[{"name":"owner","type":"address","internalType":"address"}]},{"type":"error","name":"OwnableUnauthorizedAccount","inputs":[{"name":"account","type":"address","internalType":"address"}]},{"type":"error","name":"ReentrancyGuardReentrantCall","inputs":[]},{"type":"error","name":"SafeCastOverflowedUintDowncast","inputs":[{"name":"bits","type":"uint8","internalType":"uint8"},{"name":"value","type":"uint256","internalType":"uint256"}]},{"type":"error","name":"SafeERC20FailedOperation","inputs":[{"name":"token","type":"address","internalType":"address"}]},{"type":"error","name":"SlasherAlreadyInitialized","inputs":[]},{"type":"error","name":"TooMuchRedeem","inputs":[]},{"type":"error","name":"TooMuchWithdraw","inputs":[]}],"bytecode":{"object":"0x60e060405234801561001057600080fd5b506040516142be3803806142be83398101604081905261002f9161012e565b6001600160a01b03808416608052821660a0528061004b610060565b6001600160a01b031660c05250610171915050565b7ff0c57e16840df040f15088dc2f81fe391c3923bec73e23a9662efc9c229c6a00805468010000000000000000900460ff16156100b05760405163f92ee8a960e01b815260040160405180910390fd5b80546001600160401b039081161461010f5780546001600160401b0319166001600160401b0390811782556040519081527fc7f505b2f371ae2175ee4913f4499e1f2633a7b5936321eed1cdaeb6115181d29060200160405180910390a15b50565b80516001600160a01b038116811461012957600080fd5b919050565b60008060006060848603121561014357600080fd5b61014c84610112565b925061015a60208501610112565b915061016860408501610112565b90509250925092565b60805160a05160c0516141096101b5600039600081816105210152610b850152600081816107580152611be701526000818161068301526117d001526141096000f3fe608060405234801561001057600080fd5b50600436106103e65760003560e01c80637953b33b1161020a578063aabc249611610125578063ce9b7930116100b8578063ecf7085811610087578063ecf708581461098d578063efb559d614610996578063f2fde38b146109a9578063f3fef3a3146109bc578063f5e7ee0f146109cf57600080fd5b8063ce9b793014610927578063d547741f1461093a578063d8dfeb451461094d578063db3887151461096657600080fd5b8063bd49c35f116100f4578063bd49c35f146108f1578063bdc8144b146108f9578063bfefcd7b1461090c578063c31e8dd71461091457600080fd5b8063aabc249614610898578063aad3ec96146108ab578063afba70ad146108be578063b1344271146108de57600080fd5b80639d66201b1161019d578063a21a1df91161016c578063a21a1df914610805578063a28614661461082c578063a3b541721461083f578063a5d032231461086a57600080fd5b80639d66201b146107c55780639f86fd85146107d8578063a1b12202146107eb578063a217fddf146107fd57600080fd5b806387df0788116101d957806387df0788146107535780638b0e9f3f1461077a5780638da5cb5b1461078257806391d14854146107b257600080fd5b80637953b33b146107075780637c04c80a1461071a578063810da75d1461072d57806383cd9cc31461074057600080fd5b806348d3b775116103055780635cc0707611610298578063715018a611610267578063715018a6146106b95780637278e31c146106c157806373790ab3146106d457806376671808146106dc578063794b15b7146106e457600080fd5b80635cc070761461065657806361a8c8c4146106765780636da3e06d1461067e5780636ec1e3f8146106a557600080fd5b80635346e34f116102d45780635346e34f146105fd57806354fd4d501461061057806357ec83cc1461063057806359f769a91461064357600080fd5b806348d3b775146105b05780634ff0876a146105bd57806350861adc146105d657806350f22068146105ea57600080fd5b80632d73c69c1161037d578063392e53cd1161034c578063392e53cd146105695780634105a7dd14610571578063463616711461058457806347e7ef241461059d57600080fd5b80632d73c69c146105095780632dd310001461051c5780632f2ff15d1461054357806336568abe1461055657600080fd5b8063248a9ca3116103b9578063248a9ca31461049757806327810b6e146104aa578063281f5752146104d55780632abe3048146104f457600080fd5b806301ffc9a7146103eb5780631415519b146104135780631b66c9e1146104485780631e9a69501461046f575b600080fd5b6103fe6103f9366004613683565b6109e2565b60405190151581526020015b60405180910390f35b61043a7fc6aaadd7371d5e8f9ed6849dd66a66573a3ba37167d03f4352c9ba5693678fac81565b60405190815260200161040a565b61043a7f9c56d972d63cbb4195b3c1484691dfc220fa96a4c47e7b6613bd82a022029e0681565b61048261047d3660046136c2565b610a19565b6040805192835260208301919091520161040a565b61043a6104a53660046136ee565b610ace565b6001546104bd906001600160a01b031681565b6040516001600160a01b03909116815260200161040a565b6104dd610af0565b60405165ffffffffffff909116815260200161040a565b610507610502366004613764565b610b72565b005b61043a6105173660046138b7565b610bfa565b6104bd7f000000000000000000000000000000000000000000000000000000000000000081565b610507610551366004613918565b610c27565b610507610564366004613918565b610c49565b6103fe610c7c565b61050761057f366004613956565b610ca6565b6001546104dd90600160a01b900465ffffffffffff1681565b6104826105ab3660046136c2565b610d54565b6000546103fe9060ff1681565b6001546104dd90600160d01b900465ffffffffffff1681565b6002546103fe90600160a01b900460ff1681565b61043a6105f8366004613973565b611036565b61050761060b366004613956565b611044565b6106186110f2565b6040516001600160401b03909116815260200161040a565b61050761063e3660046139c2565b611113565b61043a610651366004613a24565b611273565b61043a6106643660046136ee565b60066020526000908152604090205481565b6104dd611289565b6104bd7f000000000000000000000000000000000000000000000000000000000000000081565b6003546103fe90600160a01b900460ff1681565b6105076112aa565b61043a6106cf366004613a41565b6112be565b6104dd61157a565b61043a6115a6565b6103fe6106f2366004613a24565b60056020526000908152604090205460ff1681565b61043a610715366004613a66565b6115ee565b61043a610728366004613a83565b611666565b61043a61073b366004613973565b611770565b61050761074e366004613a24565b61177e565b6104bd7f000000000000000000000000000000000000000000000000000000000000000081565b61043a611940565b7f9016d09d72d40fdae2fd8ceac6b6234c7706214fd39c1cd1e609a0528c199300546001600160a01b03166104bd565b6103fe6107c0366004613918565b61199b565b61043a6107d3366004613a24565b6119d3565b6105076107e6366004613b0a565b6119f4565b6000546103fe90610100900460ff1681565b61043a600081565b61043a7f4a634bc14d77baf979756509ef4298c6f6318af357828612545267ee2eb7923381565b61050761083a366004613b2a565b611a84565b61043a61084d366004613918565b600860209081526000928352604080842090915290825290205481565b6103fe610878366004613918565b600960209081526000928352604080842090915290825290205460ff1681565b6105076108a6366004613a24565b611b86565b61043a6108b93660046136c2565b611d6d565b61043a6108cc3660046136ee565b60076020526000908152604090205481565b6003546104bd906001600160a01b031681565b61043a611e15565b6105076109073660046136ee565b611e21565b61043a611eaa565b61043a610922366004613a24565b611eb6565b6002546104bd906001600160a01b031681565b610507610948366004613918565b611efe565b6000546104bd906201000090046001600160a01b031681565b61043a7fbae4ee3de6c709ff9a002e774c5b78cb381560b219213c88ae0f1e207c03c02381565b61043a60045481565b61043a6109a4366004613b58565b611f1a565b6105076109b7366004613a24565b611f8d565b6104826109ca3660046136c2565b611fcd565b61043a6109dd366004613918565b61206e565b60006001600160e01b03198216637965db0b60e01b1480610a1357506301ffc9a760e01b6001600160e01b03198316145b92915050565b600080610a246120af565b6001600160a01b038416610a4a576040516208978560e71b815260040160405180910390fd5b610a53336119d3565b831115610a7357604051632418411f60e11b815260040160405180910390fd5b610a8c83610a7f611e15565b610a87611eaa565b6120f9565b915081600003610ab25760405160016245ddc760e11b0319815260040160405180910390fd5b610abd848385612108565b9050610ac761227f565b9250929050565b6000908152600080516020614094833981519152602052604090206001015490565b600080610afb6115a6565b905080600003610b1e57604051639fa56a5b60e01b815260040160405180910390fd5b60018054610b6c91600160d01b90910465ffffffffffff1690610b419084613b9f565b610b4b9190613bb2565b600154610b679190600160a01b900465ffffffffffff16613bc9565b6122a5565b91505090565b610b7a6120af565b336001600160a01b037f00000000000000000000000000000000000000000000000000000000000000001614610bc357604051631966391b60e11b815260040160405180910390fd5b610bed610be56000805160206140b4833981519152546001600160401b031690565b8484846122dc565b610bf561227f565b505050565b6001600160a01b0383166000908152600e60205260408120610c1d908484612359565b90505b9392505050565b610c3082610ace565b610c3981612440565b610c43838361244a565b50505050565b6001600160a01b0381163314610c725760405163334bd91960e11b815260040160405180910390fd5b610bf582826124f6565b600254600090600160a01b900460ff168015610ca15750600354600160a01b900460ff165b905090565b610cae6120af565b7fbae4ee3de6c709ff9a002e774c5b78cb381560b219213c88ae0f1e207c03c023610cd881612440565b60005482151560ff909116151503610d035760405163a741a04560e01b815260040160405180910390fd5b6000805460ff19168315159081179091556040519081527f3e12b7b36c75ac9609a3f58609b331210428e1a85909132638955ba0301eec33906020015b60405180910390a150610d5161227f565b50565b600080610d5f6120af565b6001600160a01b038416610d8657604051630d534ce360e11b815260040160405180910390fd5b60005460ff168015610da857503360009081526005602052604090205460ff16155b15610dc6576040516304f63b8560e01b815260040160405180910390fd5b600080546040516370a0823160e01b8152306004820152620100009091046001600160a01b0316906370a0823190602401602060405180830381865afa158015610e14573d6000803e3d6000fd5b505050506040513d601f19601f82011682018060405250810190610e389190613bdc565b600054909150610e59906201000090046001600160a01b0316333087612572565b6000546040516370a0823160e01b815230600482015282916201000090046001600160a01b0316906370a0823190602401602060405180830381865afa158015610ea7573d6000803e3d6000fd5b505050506040513d601f19601f82011682018060405250810190610ecb9190613bdc565b610ed59190613b9f565b925082600003610ef85760405163070f6eed60e11b815260040160405180910390fd5b600054610100900460ff168015610f22575060045483610f16611e15565b610f209190613bc9565b115b15610f4057604051632484557960e01b815260040160405180910390fd5b6000610f4a611e15565b90506000610f56611eaa565b9050610f638582846125d9565b9350610f83610f706125e8565b610f7a8785613bc9565b600c91906125f3565b5050610fa3610f906125e8565b610f9a8684613bc9565b600a91906125f3565b5050610fe3610fb06125e8565b85610fba8a6119d3565b610fc49190613bc9565b6001600160a01b038a166000908152600e6020526040902091906125f3565b505060408051868152602081018690526001600160a01b0389169133917fdcbc1c05240f31ff3ad067ef1ee35ce4997762752e3a095284754544f4c709d7910160405180910390a3505050610ac761227f565b6000610c20600a8484612359565b61104c6120af565b7fc6aaadd7371d5e8f9ed6849dd66a66573a3ba37167d03f4352c9ba5693678fac61107681612440565b811515600060019054906101000a900460ff161515036110a95760405163a741a04560e01b815260040160405180910390fd5b600080548315156101000261ff00199091161790556040517ffa7a25a0b611d4ba3c0ea990e90dc23d484a5dd7a1be4733fef2946ba74530c690610d4090841515815260200190565b6000610ca16000805160206140b4833981519152546001600160401b031690565b6000805160206140b4833981519152546001600160401b0316156111495760405162dc149f60e41b815260040160405180910390fd5b6000805160206140b48339815191528054859190600160401b900460ff168061117f575080546001600160401b03808416911610155b1561119d5760405163f92ee8a960e01b815260040160405180910390fd5b805468ffffffffffffffffff19166001600160401b03831617600160401b1781556111c66126cd565b6001600160a01b038516156111de576111de856126dd565b61121f868686868080601f0160208091040260200160405190810160405280939291908181526020018383808284376000920191909152506126ee92505050565b805468ff0000000000000000191681556040516001600160401b03831681527fc7f505b2f371ae2175ee4913f4499e1f2633a7b5936321eed1cdaeb6115181d29060200160405180910390a1505050505050565b6000610a13611281836119d3565b610a7f611e15565b600154600090610ca190600160d01b900465ffffffffffff16610b416115a6565b6112b2612a75565b6112bc6000612ad0565b565b60006112c86120af565b6003546001600160a01b031633146112f35760405163dabc4ad960e01b815260040160405180910390fd5b60006112fd6115a6565b9050600061130a846115ee565b90506000821180156113255750611322600183613b9f565b81105b8061132f57508181115b1561134d57604051635e18d2a560e01b815260040160405180910390fd5b6000611357611e15565b90506000600681611369866001613bc9565b815260200190815260200160002054905083830361140957600061138d8284613bc9565b90506113998882612b41565b955085156114035760006113ae878584612b57565b905060006113bc8289613b9f565b90506113d36113c96125e8565b610f7a8488613b9f565b506113e090508185613b9f565b600660006113ef896001613bc9565b815260208101919091526040016000205550505b506114fd565b60008481526006602052604081205490826114248386613bc9565b61142e9190613bc9565b905061143a8982612b41565b965086156114fa57600061144f888684612b57565b9050600061145e898685612b57565b905060008161146d848c613b9f565b6114779190613b9f565b90508085101561149b5761148b8582613b9f565b6114959083613bc9565b91508490505b6114b06114a66125e8565b610f7a858a613b9f565b506114bd90508287613b9f565b600660006114cc8c6001613bc9565b81526020810191909152604001600020556114e78186613b9f565b60008a8152600660205260409020555050505b50505b841561152657600154600054611526916001600160a01b03620100009092048216911687612c1b565b6040805188815265ffffffffffff881660208201529081018690527ff9d090c096f71cd1659861a9ce5b6f384bceb4e2fa4e4a19edf6489a9b8d56c79060600160405180910390a150505050610a1361227f565b600154600090610ca190600160d01b900465ffffffffffff1661159b6115a6565b610b41906001613bc9565b60015460009065ffffffffffff600160d01b8204811691600160a01b9004166115cd6125e8565b6115d79190613bf5565b6115e19190613c2a565b65ffffffffffff16905090565b60015460009065ffffffffffff600160a01b909104811690831610156116275760405163b7d0949760e01b815260040160405180910390fd5b60015465ffffffffffff600160d01b820481169161164e91600160a01b9091041684613bf5565b6116589190613c2a565b65ffffffffffff1692915050565b60006116706120af565b6001600160a01b03841661169757604051634e46966960e11b815260040160405180910390fd5b8160008190036116ba5760405163edf3b93360e01b815260040160405180910390fd5b60005b818110156116fa576116e68585838181106116da576116da613c4f565b90506020020135612c4c565b6116f09084613bc9565b92506001016116bd565b50600054611718906201000090046001600160a01b03168684612c1b565b846001600160a01b0316336001600160a01b03167f326b6aff1cd2fb1c8234de4f9dcfb9047c5c36eb9ef2eb34af5121e969a75d2786868660405161175f93929190613c65565b60405180910390a350610c2061227f565b6000610c20600c8484612359565b6117866120af565b600254600160a01b900460ff16156117b157604051631380833b60e01b815260040160405180910390fd5b6040516302910f8b60e31b81526001600160a01b0382811660048301527f000000000000000000000000000000000000000000000000000000000000000016906314887c5890602401602060405180830381865afa158015611817573d6000803e3d6000fd5b505050506040513d601f19601f8201168201806040525081019061183b9190613cae565b611858576040516324e5af8d60e21b815260040160405180910390fd5b306001600160a01b0316816001600160a01b031663fbfa77cf6040518163ffffffff1660e01b8152600401602060405180830381865afa1580156118a0573d6000803e3d6000fd5b505050506040513d601f19601f820116820180604052508101906118c49190613cd6565b6001600160a01b0316146118eb5760405163b9f0f17160e01b815260040160405180910390fd5b600280546001600160a81b0319166001600160a01b038316908117600160a01b179091556040517fdb2160616f776a37b24808115554e79439bf26cccbbd4438190cc6d28e80ecd190600090a2610d5161227f565b60008061194b6115a6565b90506006600061195c836001613bc9565b8152602001908152602001600020546006600083815260200190815260200160002054611987611e15565b6119919190613bc9565b610b6c9190613bc9565b6000918252600080516020614094833981519152602090815260408084206001600160a01b0393909316845291905290205460ff1690565b6001600160a01b0381166000908152600e60205260408120610a1390612d05565b600080846001600160a01b03168484604051611a11929190613cf3565b600060405180830381855af49150503d8060008114611a4c576040519150601f19603f3d011682016040523d82523d6000602084013e611a51565b606091505b509150915060008282604051602001611a6b929190613d27565b6040516020818303038152906040529050805181602001fd5b611a8c6120af565b7f9c56d972d63cbb4195b3c1484691dfc220fa96a4c47e7b6613bd82a022029e06611ab681612440565b6001600160a01b038316611add57604051630da30f6560e31b815260040160405180910390fd5b6001600160a01b03831660009081526005602052604090205482151560ff909116151503611b1e5760405163a741a04560e01b815260040160405180910390fd5b6001600160a01b038316600081815260056020908152604091829020805460ff191686151590811790915591519182527ff991b1ecfb5115cbb36a2b2e2240c058406d2acc2fcc6e9e2dc99d845ff70a62910160405180910390a250611b8261227f565b5050565b611b8e6120af565b600354600160a01b900460ff1615611bb95760405163703fe2e560e01b815260040160405180910390fd5b6001600160a01b03811615611d1e576040516302910f8b60e31b81526001600160a01b0382811660048301527f000000000000000000000000000000000000000000000000000000000000000016906314887c5890602401602060405180830381865afa158015611c2e573d6000803e3d6000fd5b505050506040513d601f19601f82011682018060405250810190611c529190613cae565b611c6f5760405163dabc4ad960e01b815260040160405180910390fd5b306001600160a01b0316816001600160a01b031663fbfa77cf6040518163ffffffff1660e01b8152600401602060405180830381865afa158015611cb7573d6000803e3d6000fd5b505050506040513d601f19601f82011682018060405250810190611cdb9190613cd6565b6001600160a01b031614611d0257604051633f3e089160e21b815260040160405180910390fd5b600380546001600160a01b0319166001600160a01b0383161790555b6003805460ff60a01b1916600160a01b1790556040516001600160a01b038216907fe7e4c932e03abddfe20f83af42c33627e816115c7ec2b168441f65dc14bfc3ba90600090a2610d5161227f565b6000611d776120af565b6001600160a01b038316611d9e57604051634e46966960e11b815260040160405180910390fd5b611da782612c4c565b600054909150611dc7906201000090046001600160a01b03168483612c1b565b60408051838152602081018390526001600160a01b0385169133917f865ca08d59f5cb456e85cd2f7ef63664ea4f73327414e9d8152c4158b0e94645910160405180910390a3610a1361227f565b6000610ca1600c612d05565b611e296120af565b7f4a634bc14d77baf979756509ef4298c6f6318af357828612545267ee2eb79233611e5381612440565b8160045403611e755760405163a741a04560e01b815260040160405180910390fd5b60048290556040518281527f854df3eb95564502c8bc871ebdd15310ee26270f955f6c6bd8cea68e75045bc090602001610d40565b6000610ca1600a612d05565b600080611ec16115a6565b9050611ed7611ed1826001613bc9565b8461206e565b611ee1828561206e565b611eea85611273565b611ef49190613bc9565b610c209190613bc9565b611f0782610ace565b611f1081612440565b610c4383836124f6565b6000611f4060405180606001604052806060815260200160608152602001606081525090565b8215611f5557611f5283850185613d63565b90505b611f83611f6787878460000151610bfa565b611f75878460200151611770565b610a87888560400151611036565b9695505050505050565b611f95612a75565b6001600160a01b038116611fc457604051631e4fbdf760e01b8152600060048201526024015b60405180910390fd5b610d5181612ad0565b600080611fd86120af565b6001600160a01b038416611ffe576040516208978560e71b815260040160405180910390fd5b8260000361201f57604051636c6c627d60e11b815260040160405180910390fd5b6120388361202b611eaa565b612033611e15565b612d5b565b9150612043336119d3565b821115612063576040516321727a3760e11b815260040160405180910390fd5b610abd848484612108565b60008281526008602090815260408083206001600160a01b03851684528252808320548584526006835281842054600790935290832054610c2092906120f9565b7f9b779b17422d0df92223018b32b4d1fa46e071723d6817e2486d003becc55f008054600119016120f357604051633ee5aeb560e01b815260040160405180910390fd5b60029055565b6000610c1d8484846000612d6a565b600061213f6121156125e8565b8361211f336119d3565b6121299190613b9f565b336000908152600e6020526040902091906125f3565b505061215f61214c6125e8565b83612155611eaa565b610f9a9190613b9f565b505061217f61216c6125e8565b84612175611e15565b610f7a9190613b9f565b5050600061218b6115a6565b612196906001613bc9565b600081815260066020908152604080832054600790925290912054919250906121c08682846125d9565b93506121cc8683613bc9565b6000848152600660205260409020556121e58482613bc9565b600084815260076020908152604080832093909355600881528282206001600160a01b038b16835290529081208054869290612222908490613bc9565b909155505060408051878152602081018790529081018590526001600160a01b0388169033907febff2602b3f468259e1e99f613fed6691f3a6526effe6ef3e768ba7ae7a36c4f9060600160405180910390a35050509392505050565b60017f9b779b17422d0df92223018b32b4d1fa46e071723d6817e2486d003becc55f0055565b600065ffffffffffff8211156122d8576040516306dfcc6560e41b81526030600482015260248101839052604401611fbb565b5090565b6000805160206140b48339815191528054849190600160401b900460ff1680612312575080546001600160401b03808416911610155b156123305760405163f92ee8a960e01b815260040160405180910390fd5b805468ffffffffffffffffff19166001600160401b03831617600160401b17815561121f600080fd5b600081516000036123755761236e8484612da2565b9050610c20565b60008280602001905181019061238b9190613e17565b905060006123998683612dfb565b90508465ffffffffffff16816000015165ffffffffffff16036123c357602001519150610c209050565b805165ffffffffffff8087169116108015612424575060016123e487612e73565b6123ee9190613b9f565b8263ffffffff161480612424575065ffffffffffff851661241987612414856001613e3d565b612dfb565b5165ffffffffffff16115b1561243657602001519150610c209050565b611f838686612da2565b610d518133612e7d565b6000600080516020614094833981519152612465848461199b565b6124e5576000848152602082815260408083206001600160a01b03871684529091529020805460ff1916600117905561249b3390565b6001600160a01b0316836001600160a01b0316857f2f8788117e7eff1d82e926ec794901d17c78024a50270940304540a733656f0d60405160405180910390a46001915050610a13565b6000915050610a13565b5092915050565b6000600080516020614094833981519152612511848461199b565b156124e5576000848152602082815260408083206001600160a01b0387168085529252808320805460ff1916905551339287917ff6391f5c32d9c69d2a47ea670b442974b53935d1edc7fd64eb21e047a839171b9190a46001915050610a13565b6040516001600160a01b038481166024830152838116604483015260648201839052610c439186918216906323b872dd906084015b604051602081830303815290604052915060e01b6020820180516001600160e01b038381831617835250505050612eb6565b6000610c1d8484846000612f19565b6000610ca1426122a5565b60018301546000908190810361261d57600180860180549182018155600090815260208120909101555b60008061262987612f3e565b5060018901549193509150600061263f89612d05565b905083801561265d57508265ffffffffffff168865ffffffffffff16145b156126955786896001016001846126749190613b9f565b8154811061268457612684613c4f565b6000918252602090912001556126bc565b6126a0898984612fc6565b50506001808a0180549182018155600090815260209020018790555b94508593505050505b935093915050565b6126d5612fe0565b6112bc613017565b6126e5612fe0565b610d518161301f565b6000818060200190518101906127049190613e65565b80519091506001600160a01b031661272f576040516368f7a67560e11b815260040160405180910390fd5b806040015165ffffffffffff1660000361275c576040516368f5f8f160e11b815260040160405180910390fd5b60c08101516001600160a01b03166128835760e08101516001600160a01b03166127e8578060600151156127bb576101008101516001600160a01b03166127b65760405163183c854560e21b815260040160405180910390fd5b6127e8565b6101008101516001600160a01b0316156127e85760405163183c854560e21b815260040160405180910390fd5b6101208101516001600160a01b0316612883578060800151156128465760a081015115801561282357506101408101516001600160a01b0316155b156128415760405163183c854560e21b815260040160405180910390fd5b612883565b60a081015115158061286557506101408101516001600160a01b031615155b156128835760405163183c854560e21b815260040160405180910390fd5b80516000805462010000600160b01b031916620100006001600160a01b03938416021790556020820151600180546001600160a01b031916919092161790556128ca6125e8565b60018054604084015165ffffffffffff908116600160d01b026001600160d01b0394909116600160a01b02939093166001600160a01b0391821617929092179055606082015160008054608085015115156101000261ff00199315159390931661ffff199091161791909117905560a082015160045560c0820151161561295e5761295c6000801b8260c0015161244a565b505b60e08101516001600160a01b0316156129a15761299f7fbae4ee3de6c709ff9a002e774c5b78cb381560b219213c88ae0f1e207c03c0238260e0015161244a565b505b6101008101516001600160a01b0316156129e6576129e47f9c56d972d63cbb4195b3c1484691dfc220fa96a4c47e7b6613bd82a022029e0682610100015161244a565b505b6101208101516001600160a01b031615612a2b57612a297fc6aaadd7371d5e8f9ed6849dd66a66573a3ba37167d03f4352c9ba5693678fac82610120015161244a565b505b6101408101516001600160a01b031615610c4357612a6e7f4a634bc14d77baf979756509ef4298c6f6318af357828612545267ee2eb7923382610140015161244a565b5050505050565b33612aa77f9016d09d72d40fdae2fd8ceac6b6234c7706214fd39c1cd1e609a0528c199300546001600160a01b031690565b6001600160a01b0316146112bc5760405163118cdaa760e01b8152336004820152602401611fbb565b7f9016d09d72d40fdae2fd8ceac6b6234c7706214fd39c1cd1e609a0528c19930080546001600160a01b031981166001600160a01b03848116918217845560405192169182907f8be0079c531659141344cd1fd0a4f28419497f9722a3daafe3b4186f6b6457e090600090a3505050565b6000818310612b505781610c20565b5090919050565b6000838302816000198587098281108382030391505080600003612b8e57838281612b8457612b84613c14565b0492505050610c20565b808411612bae5760405163227bc15360e01b815260040160405180910390fd5b6000848688096000868103871696879004966002600389028118808a02820302808a02820302808a02820302808a02820302808a02820302808a02909103029181900381900460010186841190950394909402919094039290920491909117919091029150509392505050565b6040516001600160a01b03838116602483015260448201839052610bf591859182169063a9059cbb906064016125a7565b6000612c566115a6565b8210612c755760405163d5b25b6360e01b815260040160405180910390fd5b600082815260096020908152604080832033845290915290205460ff1615612cb057604051630c8d9eab60e31b815260040160405180910390fd5b612cba823361206e565b905080600003612cdd576040516366c0bcbf60e11b815260040160405180910390fd5b6000918252600960209081526040808420338552909152909120805460ff1916600117905590565b600080612d1183613027565b90506000816001600160d01b031611612d2b576000610c20565b82600101816001600160d01b031681548110612d4957612d49613c4f565b90600052602060002001549392505050565b6000610c1d8484846001612f19565b6000612d99612d7a856001613bc9565b612d866000600a61401c565b612d909086613bc9565b87919085613060565b95945050505050565b600080612daf84846130a5565b90506000816001600160d01b031611612dc9576000612df3565b83600101816001600160d01b031681548110612de757612de7613c4f565b90600052602060002001545b949350505050565b60408051808201909152600080825260208201526000612e1b848461314d565b90506040518060400160405280826000015165ffffffffffff1681526020018560010183602001516001600160d01b031681548110612e5c57612e5c613c4f565b906000526020600020015481525091505092915050565b6000610a13825490565b612e87828261199b565b611b825760405163e2517d3f60e01b81526001600160a01b038216600482015260248101839052604401611fbb565b6000612ecb6001600160a01b038416836131bd565b90508051600014158015612ef0575080806020019051810190612eee9190613cae565b155b15610bf557604051635274afe760e01b81526001600160a01b0384166004820152602401611fbb565b6000612d99612f2982600a61401c565b612f339086613bc9565b612d90856001613bc9565b805460009081908190808203612f5f57600080600093509350935050612fbf565b6000612f7e86612f70600185613b9f565b600091825260209091200190565b60408051808201909152905465ffffffffffff8116808352600160301b9091046001600160d01b031660209092018290526001965094509250612fbf915050565b9193909250565b600080612fd48585856131cb565b91509150935093915050565b6000805160206140b483398151915254600160401b900460ff166112bc57604051631afcd79f60e31b815260040160405180910390fd5b61227f612fe0565b611f95612fe0565b805460009080156130575761304183612f70600184613b9f565b54600160301b90046001600160d01b0316610c20565b60009392505050565b60008061306e868686612b57565b905061307983613345565b801561309557506000848061309057613090613c14565b868809115b15612d9957611f83600182613bc9565b8154600090818160058111156131045760006130c084613372565b6130ca9085613b9f565b60008881526020902090915081015465ffffffffffff90811690871610156130f457809150613102565b6130ff816001613bc9565b92505b505b60006131128787858561345a565b9050801561313f5761312987612f70600184613b9f565b54600160301b90046001600160d01b0316613142565b60005b979650505050505050565b6040805180820190915260008082526020820152826000018263ffffffff168154811061317c5761317c613c4f565b60009182526020918290206040805180820190915291015465ffffffffffff81168252600160301b90046001600160d01b0316918101919091529392505050565b6060610c20838360006134bc565b8254600090819080156132ea5760006131e987612f70600185613b9f565b60408051808201909152905465ffffffffffff808216808452600160301b9092046001600160d01b03166020840152919250908716101561323d57604051632520601d60e01b815260040160405180910390fd5b805165ffffffffffff808816911603613289578461326088612f70600186613b9f565b80546001600160d01b0392909216600160301b0265ffffffffffff9092169190911790556132da565b6040805180820190915265ffffffffffff80881682526001600160d01b0380881660208085019182528b54600181018d5560008d81529190912094519151909216600160301b029216919091179101555b6020015192508391506126c59050565b50506040805180820190915265ffffffffffff80851682526001600160d01b0380851660208085019182528854600181018a5560008a815291822095519251909316600160301b0291909316179201919091559050816126c5565b6000600282600381111561335b5761335b61402b565b6133659190614041565b60ff166001149050919050565b60008160000361338457506000919050565b600060016133918461354f565b901c6001901b905060018184816133aa576133aa613c14565b048201901c905060018184816133c2576133c2613c14565b048201901c905060018184816133da576133da613c14565b048201901c905060018184816133f2576133f2613c14565b048201901c9050600181848161340a5761340a613c14565b048201901c9050600181848161342257613422613c14565b048201901c9050600181848161343a5761343a613c14565b048201901c9050610c208182858161345457613454613c14565b04612b41565b60005b818310156134b457600061347184846135e3565b60008781526020902090915065ffffffffffff86169082015465ffffffffffff1611156134a0578092506134ae565b6134ab816001613bc9565b93505b5061345d565b509392505050565b6060814710156134e15760405163cd78605960e01b8152306004820152602401611fbb565b600080856001600160a01b031684866040516134fd9190614063565b60006040518083038185875af1925050503d806000811461353a576040519150601f19603f3d011682016040523d82523d6000602084013e61353f565b606091505b5091509150611f838683836135fe565b600080608083901c1561356457608092831c92015b604083901c1561357657604092831c92015b602083901c1561358857602092831c92015b601083901c1561359a57601092831c92015b600883901c156135ac57600892831c92015b600483901c156135be57600492831c92015b600283901c156135d057600292831c92015b600183901c15610a135760010192915050565b60006135f2600284841861407f565b610c2090848416613bc9565b6060826136135761360e8261365a565b610c20565b815115801561362a57506001600160a01b0384163b155b1561365357604051639996b31560e01b81526001600160a01b0385166004820152602401611fbb565b5080610c20565b80511561366a5780518082602001fd5b604051630a12f52160e11b815260040160405180910390fd5b60006020828403121561369557600080fd5b81356001600160e01b031981168114610c2057600080fd5b6001600160a01b0381168114610d5157600080fd5b600080604083850312156136d557600080fd5b82356136e0816136ad565b946020939093013593505050565b60006020828403121561370057600080fd5b5035919050565b80356001600160401b038116811461371e57600080fd5b919050565b60008083601f84011261373557600080fd5b5081356001600160401b0381111561374c57600080fd5b602083019150836020828501011115610ac757600080fd5b60008060006040848603121561377957600080fd5b61378284613707565b925060208401356001600160401b0381111561379d57600080fd5b6137a986828701613723565b9497909650939450505050565b65ffffffffffff81168114610d5157600080fd5b634e487b7160e01b600052604160045260246000fd5b604051606081016001600160401b0381118282101715613802576138026137ca565b60405290565b60405161016081016001600160401b0381118282101715613802576138026137ca565b600082601f83011261383c57600080fd5b81356001600160401b0380821115613856576138566137ca565b604051601f8301601f19908116603f0116810190828211818310171561387e5761387e6137ca565b8160405283815286602085880101111561389757600080fd5b836020870160208301376000602085830101528094505050505092915050565b6000806000606084860312156138cc57600080fd5b83356138d7816136ad565b925060208401356138e7816137b6565b915060408401356001600160401b0381111561390257600080fd5b61390e8682870161382b565b9150509250925092565b6000806040838503121561392b57600080fd5b82359150602083013561393d816136ad565b809150509250929050565b8015158114610d5157600080fd5b60006020828403121561396857600080fd5b8135610c2081613948565b6000806040838503121561398657600080fd5b8235613991816137b6565b915060208301356001600160401b038111156139ac57600080fd5b6139b88582860161382b565b9150509250929050565b600080600080606085870312156139d857600080fd5b6139e185613707565b935060208501356139f1816136ad565b925060408501356001600160401b03811115613a0c57600080fd5b613a1887828801613723565b95989497509550505050565b600060208284031215613a3657600080fd5b8135610c20816136ad565b60008060408385031215613a5457600080fd5b82359150602083013561393d816137b6565b600060208284031215613a7857600080fd5b8135610c20816137b6565b600080600060408486031215613a9857600080fd5b8335613aa3816136ad565b925060208401356001600160401b0380821115613abf57600080fd5b818601915086601f830112613ad357600080fd5b813581811115613ae257600080fd5b8760208260051b8501011115613af757600080fd5b6020830194508093505050509250925092565b600080600060408486031215613b1f57600080fd5b8335613782816136ad565b60008060408385031215613b3d57600080fd5b8235613b48816136ad565b9150602083013561393d81613948565b60008060008060608587031215613b6e57600080fd5b8435613b79816136ad565b935060208501356139f1816137b6565b634e487b7160e01b600052601160045260246000fd5b81810381811115610a1357610a13613b89565b8082028115828204841417610a1357610a13613b89565b80820180821115610a1357610a13613b89565b600060208284031215613bee57600080fd5b5051919050565b65ffffffffffff8281168282160390808211156124ef576124ef613b89565b634e487b7160e01b600052601260045260246000fd5b600065ffffffffffff80841680613c4357613c43613c14565b92169190910492915050565b634e487b7160e01b600052603260045260246000fd5b6040808252810183905260006001600160fb1b03841115613c8557600080fd5b8360051b808660608501376020830193909352500160600192915050565b805161371e81613948565b600060208284031215613cc057600080fd5b8151610c2081613948565b805161371e816136ad565b600060208284031215613ce857600080fd5b8151610c20816136ad565b8183823760009101908152919050565b60005b83811015613d1e578181015183820152602001613d06565b50506000910152565b82151581526040602082015260008251806040840152613d4e816060850160208701613d03565b601f01601f1916919091016060019392505050565b600060208284031215613d7557600080fd5b81356001600160401b0380821115613d8c57600080fd5b9083019060608286031215613da057600080fd5b613da86137e0565b823582811115613db757600080fd5b613dc38782860161382b565b825250602083013582811115613dd857600080fd5b613de48782860161382b565b602083015250604083013582811115613dfc57600080fd5b613e088782860161382b565b60408301525095945050505050565b600060208284031215613e2957600080fd5b815163ffffffff81168114610c2057600080fd5b63ffffffff8181168382160190808211156124ef576124ef613b89565b805161371e816137b6565b60006101608284031215613e7857600080fd5b613e80613808565b613e8983613ccb565b8152613e9760208401613ccb565b6020820152613ea860408401613e5a565b6040820152613eb960608401613ca3565b6060820152613eca60808401613ca3565b608082015260a083015160a0820152613ee560c08401613ccb565b60c0820152613ef660e08401613ccb565b60e0820152610100613f09818501613ccb565b90820152610120613f1b848201613ccb565b90820152610140613f2d848201613ccb565b908201529392505050565b600181815b80851115613f73578160001904821115613f5957613f59613b89565b80851615613f6657918102915b93841c9390800290613f3d565b509250929050565b600082613f8a57506001610a13565b81613f9757506000610a13565b8160018114613fad5760028114613fb757613fd3565b6001915050610a13565b60ff841115613fc857613fc8613b89565b50506001821b610a13565b5060208310610133831016604e8410600b8410161715613ff6575081810a610a13565b6140008383613f38565b806000190482111561401457614014613b89565b029392505050565b6000610c2060ff841683613f7b565b634e487b7160e01b600052602160045260246000fd5b600060ff83168061405457614054613c14565b8060ff84160691505092915050565b60008251614075818460208701613d03565b9190910192915050565b60008261408e5761408e613c14565b50049056fe02dd7bc7dec4dceedda775e58dd541e08a116c6c53815c0bd028192f7b626800f0c57e16840df040f15088dc2f81fe391c3923bec73e23a9662efc9c229c6a00a2646970667358221220f0f7df65b0c76cc30a0afd64b1fc129ee7f3efd2799da2945d705db28393228b64736f6c63430008190033","linkReferences":{}},"methodIdentifiers":{"DEFAULT_ADMIN_ROLE()":"a217fddf","DELEGATOR_FACTORY()":"6da3e06d","DEPOSITOR_WHITELIST_ROLE()":"1b66c9e1","DEPOSIT_LIMIT_SET_ROLE()":"a21a1df9","DEPOSIT_WHITELIST_SET_ROLE()":"db388715","FACTORY()":"2dd31000","IS_DEPOSIT_LIMIT_SET_ROLE()":"1415519b","SLASHER_FACTORY()":"87df0788","activeBalanceOf(address)":"59f769a9","activeBalanceOfAt(address,uint48,bytes)":"efb559d6","activeShares()":"bfefcd7b","activeSharesAt(uint48,bytes)":"50f22068","activeSharesOf(address)":"9d66201b","activeSharesOfAt(address,uint48,bytes)":"2d73c69c","activeStake()":"bd49c35f","activeStakeAt(uint48,bytes)":"810da75d","burner()":"27810b6e","claim(address,uint256)":"aad3ec96","claimBatch(address,uint256[])":"7c04c80a","collateral()":"d8dfeb45","currentEpoch()":"76671808","currentEpochStart()":"61a8c8c4","delegator()":"ce9b7930","deposit(address,uint256)":"47e7ef24","depositLimit()":"ecf70858","depositWhitelist()":"48d3b775","epochAt(uint48)":"7953b33b","epochDuration()":"4ff0876a","epochDurationInit()":"46361671","getRoleAdmin(bytes32)":"248a9ca3","grantRole(bytes32,address)":"2f2ff15d","hasRole(bytes32,address)":"91d14854","initialize(uint64,address,bytes)":"57ec83cc","isDelegatorInitialized()":"50861adc","isDepositLimit()":"a1b12202","isDepositorWhitelisted(address)":"794b15b7","isInitialized()":"392e53cd","isSlasherInitialized()":"6ec1e3f8","isWithdrawalsClaimed(uint256,address)":"a5d03223","migrate(uint64,bytes)":"2abe3048","nextEpochStart()":"73790ab3","onSlash(uint256,uint48)":"7278e31c","owner()":"8da5cb5b","previousEpochStart()":"281f5752","redeem(address,uint256)":"1e9a6950","renounceOwnership()":"715018a6","renounceRole(bytes32,address)":"36568abe","revokeRole(bytes32,address)":"d547741f","setDelegator(address)":"83cd9cc3","setDepositLimit(uint256)":"bdc8144b","setDepositWhitelist(bool)":"4105a7dd","setDepositorWhitelistStatus(address,bool)":"a2861466","setIsDepositLimit(bool)":"5346e34f","setSlasher(address)":"aabc2496","slashableBalanceOf(address)":"c31e8dd7","slasher()":"b1344271","staticDelegateCall(address,bytes)":"9f86fd85","supportsInterface(bytes4)":"01ffc9a7","totalStake()":"8b0e9f3f","transferOwnership(address)":"f2fde38b","version()":"54fd4d50","withdraw(address,uint256)":"f3fef3a3","withdrawalShares(uint256)":"afba70ad","withdrawalSharesOf(uint256,address)":"a3b54172","withdrawals(uint256)":"5cc07076","withdrawalsOf(uint256,address)":"f5e7ee0f"},"id":68}