{"abi":[{"type":"constructor","inputs":[{"name":"vaultFactory","type":"address","internalType":"address"},{"name":"delegatorFactory","type":"address","internalType":"address"},{"name":"slasherFactory","type":"address","internalType":"address"}],"stateMutability":"nonpayable"},{"type":"function","name":"DELEGATOR_FACTORY","inputs":[],"outputs":[{"name":"","type":"address","internalType":"address"}],"stateMutability":"view"},{"type":"function","name":"SLASHER_FACTORY","inputs":[],"outputs":[{"name":"","type":"address","internalType":"address"}],"stateMutability":"view"},{"type":"function","name":"VAULT_FACTORY","inputs":[],"outputs":[{"name":"","type":"address","internalType":"address"}],"stateMutability":"view"},{"type":"function","name":"create","inputs":[{"name":"params","type":"tuple","internalType":"struct IVaultConfigurator.InitParams","components":[{"name":"version","type":"uint64","internalType":"uint64"},{"name":"owner","type":"address","internalType":"address"},{"name":"vaultParams","type":"bytes","internalType":"bytes"},{"name":"delegatorIndex","type":"uint64","internalType":"uint64"},{"name":"delegatorParams","type":"bytes","internalType":"bytes"},{"name":"withSlasher","type":"bool","internalType":"bool"},{"name":"slasherIndex","type":"uint64","internalType":"uint64"},{"name":"slasherParams","type":"bytes","internalType":"bytes"}]}],"outputs":[{"name":"vault","type":"address","internalType":"address"},{"name":"delegator","type":"address","internalType":"address"},{"name":"slasher","type":"address","internalType":"address"}],"stateMutability":"nonpayable"}],"bytecode":{"object":"0x60e060405234801561001057600080fd5b5060405161084638038061084683398101604081905261002f91610068565b6001600160a01b0392831660805290821660a0521660c0526100ab565b80516001600160a01b038116811461006357600080fd5b919050565b60008060006060848603121561007d57600080fd5b6100868461004c565b92506100946020850161004c565b91506100a26040850161004c565b90509250925092565b60805160a05160c05161075a6100ec6000396000818160c1015261028e015260008181609a01526101c801526000818160560152610127015261075a6000f3fe608060405234801561001057600080fd5b506004361061004c5760003560e01c8063103f2907146100515780636da3e06d1461009557806387df0788146100bc578063c48927e4146100e3575b600080fd5b6100787f000000000000000000000000000000000000000000000000000000000000000081565b6040516001600160a01b0390911681526020015b60405180910390f35b6100787f000000000000000000000000000000000000000000000000000000000000000081565b6100787f000000000000000000000000000000000000000000000000000000000000000081565b6100f66100f1366004610523565b610120565b604080516001600160a01b039485168152928416602084015292169181019190915260600161008c565b60008060007f00000000000000000000000000000000000000000000000000000000000000006001600160a01b0316633ac049118560000151866020015187604001516040518463ffffffff1660e01b815260040161018193929190610674565b6020604051808303816000875af11580156101a0573d6000803e3d6000fd5b505050506040513d601f19601f820116820180604052508101906101c491906106b1565b92507f00000000000000000000000000000000000000000000000000000000000000006001600160a01b031663cd108ef885606001518587608001516040516020016102119291906106d5565b6040516020818303038152906040526040518363ffffffff1660e01b815260040161023d929190610701565b6020604051808303816000875af115801561025c573d6000803e3d6000fd5b505050506040513d601f19601f8201168201806040525081019061028091906106b1565b91508360a0015115610349577f00000000000000000000000000000000000000000000000000000000000000006001600160a01b031663cd108ef88560c00151858760e001516040516020016102d79291906106d5565b6040516020818303038152906040526040518363ffffffff1660e01b8152600401610303929190610701565b6020604051808303816000875af1158015610322573d6000803e3d6000fd5b505050506040513d601f19601f8201168201806040525081019061034691906106b1565b90505b6040516383cd9cc360e01b81526001600160a01b0383811660048301528416906383cd9cc390602401600060405180830381600087803b15801561038c57600080fd5b505af11580156103a0573d6000803e3d6000fd5b505060405163555e124b60e11b81526001600160a01b0384811660048301528616925063aabc24969150602401600060405180830381600087803b1580156103e757600080fd5b505af11580156103fb573d6000803e3d6000fd5b505050509193909250565b634e487b7160e01b600052604160045260246000fd5b604051610100810167ffffffffffffffff8111828210171561044057610440610406565b60405290565b803567ffffffffffffffff8116811461045e57600080fd5b919050565b6001600160a01b038116811461047857600080fd5b50565b803561045e81610463565b600082601f83011261049757600080fd5b813567ffffffffffffffff808211156104b2576104b2610406565b604051601f8301601f19908116603f011681019082821181831017156104da576104da610406565b816040528381528660208588010111156104f357600080fd5b836020870160208301376000602085830101528094505050505092915050565b8035801515811461045e57600080fd5b60006020828403121561053557600080fd5b813567ffffffffffffffff8082111561054d57600080fd5b90830190610100828603121561056257600080fd5b61056a61041c565b61057383610446565b81526105816020840161047b565b602082015260408301358281111561059857600080fd5b6105a487828601610486565b6040830152506105b660608401610446565b60608201526080830135828111156105cd57600080fd5b6105d987828601610486565b6080830152506105eb60a08401610513565b60a08201526105fc60c08401610446565b60c082015260e08301358281111561061357600080fd5b61061f87828601610486565b60e08301525095945050505050565b6000815180845260005b8181101561065457602081850181015186830182015201610638565b506000602082860101526020601f19601f83011685010191505092915050565b67ffffffffffffffff841681526001600160a01b03831660208201526060604082018190526000906106a89083018461062e565b95945050505050565b6000602082840312156106c357600080fd5b81516106ce81610463565b9392505050565b6001600160a01b03831681526040602082018190526000906106f99083018461062e565b949350505050565b67ffffffffffffffff831681526040602082015260006106f9604083018461062e56fea26469706673582212206997db951293cbf9dd3058f8cf0d5a2804492d5cab42e4b3aef33825787bc32564736f6c63430008190033","linkReferences":{}},"methodIdentifiers":{"DELEGATOR_FACTORY()":"6da3e06d","SLASHER_FACTORY()":"87df0788","VAULT_FACTORY()":"103f2907","create((uint64,address,bytes,uint64,bytes,bool,uint64,bytes))":"c48927e4"},"id":41}