{"abi":[{"type":"constructor","inputs":[],"stateMutability":"nonpayable"},{"type":"function","name":"DEFAULT_ADMIN_ROLE","inputs":[],"outputs":[{"name":"","type":"bytes32","internalType":"bytes32"}],"stateMutability":"view"},{"type":"function","name":"DELEGATOR_FACTORY","inputs":[],"outputs":[{"name":"","type":"address","internalType":"address"}],"stateMutability":"view"},{"type":"function","name":"DEPOSITOR_WHITELIST_ROLE","inputs":[],"outputs":[{"name":"","type":"bytes32","internalType":"bytes32"}],"stateMutability":"view"},{"type":"function","name":"DEPOSIT_LIMIT_SET_ROLE","inputs":[],"outputs":[{"name":"","type":"bytes32","internalType":"bytes32"}],"stateMutability":"view"},{"type":"function","name":"DEPOSIT_WHITELIST_SET_ROLE","inputs":[],"outputs":[{"name":"","type":"bytes32","internalType":"bytes32"}],"stateMutability":"view"},{"type":"function","name":"FACTORY","inputs":[],"outputs":[{"name":"","type":"address","internalType":"address"}],"stateMutability":"view"},{"type":"function","name":"IS_DEPOSIT_LIMIT_SET_ROLE","inputs":[],"outputs":[{"name":"","type":"bytes32","internalType":"bytes32"}],"stateMutability":"view"},{"type":"function","name":"SLASHER_FACTORY","inputs":[],"outputs":[{"name":"","type":"address","internalType":"address"}],"stateMutability":"view"},{"type":"function","name":"activeBalanceOf","inputs":[{"name":"account","type":"address","internalType":"address"}],"outputs":[{"name":"","type":"uint256","internalType":"uint256"}],"stateMutability":"view"},{"type":"function","name":"activeBalanceOfAt","inputs":[{"name":"account","type":"address","internalType":"address"},{"name":"timestamp","type":"uint48","internalType":"uint48"},{"name":"hints","type":"bytes","internalType":"bytes"}],"outputs":[{"name":"","type":"uint256","internalType":"uint256"}],"stateMutability":"view"},{"type":"function","name":"activeBalanceOfHints","inputs":[{"name":"vault","type":"address","internalType":"address"},{"name":"account","type":"address","internalType":"address"},{"name":"timestamp","type":"uint48","internalType":"uint48"}],"outputs":[{"name":"","type":"bytes","internalType":"bytes"}],"stateMutability":"view"},{"type":"function","name":"activeShares","inputs":[],"outputs":[{"name":"","type":"uint256","internalType":"uint256"}],"stateMutability":"view"},{"type":"function","name":"activeSharesAt","inputs":[{"name":"timestamp","type":"uint48","internalType":"uint48"},{"name":"hint","type":"bytes","internalType":"bytes"}],"outputs":[{"name":"","type":"uint256","internalType":"uint256"}],"stateMutability":"view"},{"type":"function","name":"activeSharesHint","inputs":[{"name":"vault","type":"address","internalType":"address"},{"name":"timestamp","type":"uint48","internalType":"uint48"}],"outputs":[{"name":"","type":"bytes","internalType":"bytes"}],"stateMutability":"view"},{"type":"function","name":"activeSharesHintInternal","inputs":[{"name":"timestamp","type":"uint48","internalType":"uint48"}],"outputs":[{"name":"exists","type":"bool","internalType":"bool"},{"name":"hint","type":"uint32","internalType":"uint32"}],"stateMutability":"view"},{"type":"function","name":"activeSharesOf","inputs":[{"name":"account","type":"address","internalType":"address"}],"outputs":[{"name":"","type":"uint256","internalType":"uint256"}],"stateMutability":"view"},{"type":"function","name":"activeSharesOfAt","inputs":[{"name":"account","type":"address","internalType":"address"},{"name":"timestamp","type":"uint48","internalType":"uint48"},{"name":"hint","type":"bytes","internalType":"bytes"}],"outputs":[{"name":"","type":"uint256","internalType":"uint256"}],"stateMutability":"view"},{"type":"function","name":"activeSharesOfHint","inputs":[{"name":"vault","type":"address","internalType":"address"},{"name":"account","type":"address","internalType":"address"},{"name":"timestamp","type":"uint48","internalType":"uint48"}],"outputs":[{"name":"","type":"bytes","internalType":"bytes"}],"stateMutability":"view"},{"type":"function","name":"activeSharesOfHintInternal","inputs":[{"name":"account","type":"address","internalType":"address"},{"name":"timestamp","type":"uint48","internalType":"uint48"}],"outputs":[{"name":"exists","type":"bool","internalType":"bool"},{"name":"hint","type":"uint32","internalType":"uint32"}],"stateMutability":"view"},{"type":"function","name":"activeStake","inputs":[],"outputs":[{"name":"","type":"uint256","internalType":"uint256"}],"stateMutability":"view"},{"type":"function","name":"activeStakeAt","inputs":[{"name":"timestamp","type":"uint48","internalType":"uint48"},{"name":"hint","type":"bytes","internalType":"bytes"}],"outputs":[{"name":"","type":"uint256","internalType":"uint256"}],"stateMutability":"view"},{"type":"function","name":"activeStakeHint","inputs":[{"name":"vault","type":"address","internalType":"address"},{"name":"timestamp","type":"uint48","internalType":"uint48"}],"outputs":[{"name":"","type":"bytes","internalType":"bytes"}],"stateMutability":"view"},{"type":"function","name":"activeStakeHintInternal","inputs":[{"name":"timestamp","type":"uint48","internalType":"uint48"}],"outputs":[{"name":"exists","type":"bool","internalType":"bool"},{"name":"hint","type":"uint32","internalType":"uint32"}],"stateMutability":"view"},{"type":"function","name":"burner","inputs":[],"outputs":[{"name":"","type":"address","internalType":"address"}],"stateMutability":"view"},{"type":"function","name":"claim","inputs":[{"name":"recipient","type":"address","internalType":"address"},{"name":"epoch","type":"uint256","internalType":"uint256"}],"outputs":[{"name":"amount","type":"uint256","internalType":"uint256"}],"stateMutability":"nonpayable"},{"type":"function","name":"claimBatch","inputs":[{"name":"recipient","type":"address","internalType":"address"},{"name":"epochs","type":"uint256[]","internalType":"uint256[]"}],"outputs":[{"name":"amount","type":"uint256","internalType":"uint256"}],"stateMutability":"nonpayable"},{"type":"function","name":"collateral","inputs":[],"outputs":[{"name":"","type":"address","internalType":"address"}],"stateMutability":"view"},{"type":"function","name":"currentEpoch","inputs":[],"outputs":[{"name":"","type":"uint256","internalType":"uint256"}],"stateMutability":"view"},{"type":"function","name":"currentEpochStart","inputs":[],"outputs":[{"name":"","type":"uint48","internalType":"uint48"}],"stateMutability":"view"},{"type":"function","name":"delegator","inputs":[],"outputs":[{"name":"","type":"address","internalType":"address"}],"stateMutability":"view"},{"type":"function","name":"deposit","inputs":[{"name":"onBehalfOf","type":"address","internalType":"address"},{"name":"amount","type":"uint256","internalType":"uint256"}],"outputs":[{"name":"depositedAmount","type":"uint256","internalType":"uint256"},{"name":"mintedShares","type":"uint256","internalType":"uint256"}],"stateMutability":"nonpayable"},{"type":"function","name":"depositLimit","inputs":[],"outputs":[{"name":"","type":"uint256","internalType":"uint256"}],"stateMutability":"view"},{"type":"function","name":"depositWhitelist","inputs":[],"outputs":[{"name":"","type":"bool","internalType":"bool"}],"stateMutability":"view"},{"type":"function","name":"epochAt","inputs":[{"name":"timestamp","type":"uint48","internalType":"uint48"}],"outputs":[{"name":"","type":"uint256","internalType":"uint256"}],"stateMutability":"view"},{"type":"function","name":"epochDuration","inputs":[],"outputs":[{"name":"","type":"uint48","internalType":"uint48"}],"stateMutability":"view"},{"type":"function","name":"epochDurationInit","inputs":[],"outputs":[{"name":"","type":"uint48","internalType":"uint48"}],"stateMutability":"view"},{"type":"function","name":"getRoleAdmin","inputs":[{"name":"role","type":"bytes32","internalType":"bytes32"}],"outputs":[{"name":"","type":"bytes32","internalType":"bytes32"}],"stateMutability":"view"},{"type":"function","name":"grantRole","inputs":[{"name":"role","type":"bytes32","internalType":"bytes32"},{"name":"account","type":"address","internalType":"address"}],"outputs":[],"stateMutability":"nonpayable"},{"type":"function","name":"hasRole","inputs":[{"name":"role","type":"bytes32","internalType":"bytes32"},{"name":"account","type":"address","internalType":"address"}],"outputs":[{"name":"","type":"bool","internalType":"bool"}],"stateMutability":"view"},{"type":"function","name":"initialize","inputs":[{"name":"initialVersion","type":"uint64","internalType":"uint64"},{"name":"owner_","type":"address","internalType":"address"},{"name":"data","type":"bytes","internalType":"bytes"}],"outputs":[],"stateMutability":"nonpayable"},{"type":"function","name":"isDelegatorInitialized","inputs":[],"outputs":[{"name":"","type":"bool","internalType":"bool"}],"stateMutability":"view"},{"type":"function","name":"isDepositLimit","inputs":[],"outputs":[{"name":"","type":"bool","internalType":"bool"}],"stateMutability":"view"},{"type":"function","name":"isDepositorWhitelisted","inputs":[{"name":"account","type":"address","internalType":"address"}],"outputs":[{"name":"value","type":"bool","internalType":"bool"}],"stateMutability":"view"},{"type":"function","name":"isInitialized","inputs":[],"outputs":[{"name":"","type":"bool","internalType":"bool"}],"stateMutability":"view"},{"type":"function","name":"isSlasherInitialized","inputs":[],"outputs":[{"name":"","type":"bool","internalType":"bool"}],"stateMutability":"view"},{"type":"function","name":"isWithdrawalsClaimed","inputs":[{"name":"epoch","type":"uint256","internalType":"uint256"},{"name":"account","type":"address","internalType":"address"}],"outputs":[{"name":"value","type":"bool","internalType":"bool"}],"stateMutability":"view"},{"type":"function","name":"migrate","inputs":[{"name":"newVersion","type":"uint64","internalType":"uint64"},{"name":"data","type":"bytes","internalType":"bytes"}],"outputs":[],"stateMutability":"nonpayable"},{"type":"function","name":"nextEpochStart","inputs":[],"outputs":[{"name":"","type":"uint48","internalType":"uint48"}],"stateMutability":"view"},{"type":"function","name":"onSlash","inputs":[{"name":"amount","type":"uint256","internalType":"uint256"},{"name":"captureTimestamp","type":"uint48","internalType":"uint48"}],"outputs":[{"name":"slashedAmount","type":"uint256","internalType":"uint256"}],"stateMutability":"nonpayable"},{"type":"function","name":"owner","inputs":[],"outputs":[{"name":"","type":"address","internalType":"address"}],"stateMutability":"view"},{"type":"function","name":"previousEpochStart","inputs":[],"outputs":[{"name":"","type":"uint48","internalType":"uint48"}],"stateMutability":"view"},{"type":"function","name":"redeem","inputs":[{"name":"claimer","type":"address","internalType":"address"},{"name":"shares","type":"uint256","internalType":"uint256"}],"outputs":[{"name":"withdrawnAssets","type":"uint256","internalType":"uint256"},{"name":"mintedShares","type":"uint256","internalType":"uint256"}],"stateMutability":"nonpayable"},{"type":"function","name":"renounceOwnership","inputs":[],"outputs":[],"stateMutability":"nonpayable"},{"type":"function","name":"renounceRole","inputs":[{"name":"role","type":"bytes32","internalType":"bytes32"},{"name":"callerConfirmation","type":"address","internalType":"address"}],"outputs":[],"stateMutability":"nonpayable"},{"type":"function","name":"revokeRole","inputs":[{"name":"role","type":"bytes32","internalType":"bytes32"},{"name":"account","type":"address","internalType":"address"}],"outputs":[],"stateMutability":"nonpayable"},{"type":"function","name":"setDelegator","inputs":[{"name":"delegator_","type":"address","internalType":"address"}],"outputs":[],"stateMutability":"nonpayable"},{"type":"function","name":"setDepositLimit","inputs":[{"name":"limit","type":"uint256","internalType":"uint256"}],"outputs":[],"stateMutability":"nonpayable"},{"type":"function","name":"setDepositWhitelist","inputs":[{"name":"status","type":"bool","internalType":"bool"}],"outputs":[],"stateMutability":"nonpayable"},{"type":"function","name":"setDepositorWhitelistStatus","inputs":[{"name":"account","type":"address","internalType":"address"},{"name":"status","type":"bool","internalType":"bool"}],"outputs":[],"stateMutability":"nonpayable"},{"type":"function","name":"setIsDepositLimit","inputs":[{"name":"status","type":"bool","internalType":"bool"}],"outputs":[],"stateMutability":"nonpayable"},{"type":"function","name":"setSlasher","inputs":[{"name":"slasher_","type":"address","internalType":"address"}],"outputs":[],"stateMutability":"nonpayable"},{"type":"function","name":"slashableBalanceOf","inputs":[{"name":"account","type":"address","internalType":"address"}],"outputs":[{"name":"","type":"uint256","internalType":"uint256"}],"stateMutability":"view"},{"type":"function","name":"slasher","inputs":[],"outputs":[{"name":"","type":"address","internalType":"address"}],"stateMutability":"view"},{"type":"function","name":"staticDelegateCall","inputs":[{"name":"target","type":"address","internalType":"address"},{"name":"data","type":"bytes","internalType":"bytes"}],"outputs":[],"stateMutability":"nonpayable"},{"type":"function","name":"supportsInterface","inputs":[{"name":"interfaceId","type":"bytes4","internalType":"bytes4"}],"outputs":[{"name":"","type":"bool","internalType":"bool"}],"stateMutability":"view"},{"type":"function","name":"totalStake","inputs":[],"outputs":[{"name":"","type":"uint256","internalType":"uint256"}],"stateMutability":"view"},{"type":"function","name":"transferOwnership","inputs":[{"name":"newOwner","type":"address","internalType":"address"}],"outputs":[],"stateMutability":"nonpayable"},{"type":"function","name":"version","inputs":[],"outputs":[{"name":"","type":"uint64","internalType":"uint64"}],"stateMutability":"view"},{"type":"function","name":"withdraw","inputs":[{"name":"claimer","type":"address","internalType":"address"},{"name":"amount","type":"uint256","internalType":"uint256"}],"outputs":[{"name":"burnedShares","type":"uint256","internalType":"uint256"},{"name":"mintedShares","type":"uint256","internalType":"uint256"}],"stateMutability":"nonpayable"},{"type":"function","name":"withdrawalShares","inputs":[{"name":"epoch","type":"uint256","internalType":"uint256"}],"outputs":[{"name":"amount","type":"uint256","internalType":"uint256"}],"stateMutability":"view"},{"type":"function","name":"withdrawalSharesOf","inputs":[{"name":"epoch","type":"uint256","internalType":"uint256"},{"name":"account","type":"address","internalType":"address"}],"outputs":[{"name":"amount","type":"uint256","internalType":"uint256"}],"stateMutability":"view"},{"type":"function","name":"withdrawals","inputs":[{"name":"epoch","type":"uint256","internalType":"uint256"}],"outputs":[{"name":"amount","type":"uint256","internalType":"uint256"}],"stateMutability":"view"},{"type":"function","name":"withdrawalsOf","inputs":[{"name":"epoch","type":"uint256","internalType":"uint256"},{"name":"account","type":"address","internalType":"address"}],"outputs":[{"name":"","type":"uint256","internalType":"uint256"}],"stateMutability":"view"},{"type":"event","name":"Claim","inputs":[{"name":"claimer","type":"address","indexed":true,"internalType":"address"},{"name":"recipient","type":"address","indexed":true,"internalType":"address"},{"name":"epoch","type":"uint256","indexed":false,"internalType":"uint256"},{"name":"amount","type":"uint256","indexed":false,"internalType":"uint256"}],"anonymous":false},{"type":"event","name":"ClaimBatch","inputs":[{"name":"claimer","type":"address","indexed":true,"internalType":"address"},{"name":"recipient","type":"address","indexed":true,"internalType":"address"},{"name":"epochs","type":"uint256[]","indexed":false,"internalType":"uint256[]"},{"name":"amount","type":"uint256","indexed":false,"internalType":"uint256"}],"anonymous":false},{"type":"event","name":"Deposit","inputs":[{"name":"depositor","type":"address","indexed":true,"internalType":"address"},{"name":"onBehalfOf","type":"address","indexed":true,"internalType":"address"},{"name":"amount","type":"uint256","indexed":false,"internalType":"uint256"},{"name":"shares","type":"uint256","indexed":false,"internalType":"uint256"}],"anonymous":false},{"type":"event","name":"Initialized","inputs":[{"name":"version","type":"uint64","indexed":false,"internalType":"uint64"}],"anonymous":false},{"type":"event","name":"OnSlash","inputs":[{"name":"amount","type":"uint256","indexed":false,"internalType":"uint256"},{"name":"captureTimestamp","type":"uint48","indexed":false,"internalType":"uint48"},{"name":"slashedAmount","type":"uint256","indexed":false,"internalType":"uint256"}],"anonymous":false},{"type":"event","name":"OwnershipTransferred","inputs":[{"name":"previousOwner","type":"address","indexed":true,"internalType":"address"},{"name":"newOwner","type":"address","indexed":true,"internalType":"address"}],"anonymous":false},{"type":"event","name":"RoleAdminChanged","inputs":[{"name":"role","type":"bytes32","indexed":true,"internalType":"bytes32"},{"name":"previousAdminRole","type":"bytes32","indexed":true,"internalType":"bytes32"},{"name":"newAdminRole","type":"bytes32","indexed":true,"internalType":"bytes32"}],"anonymous":false},{"type":"event","name":"RoleGranted","inputs":[{"name":"role","type":"bytes32","indexed":true,"internalType":"bytes32"},{"name":"account","type":"address","indexed":true,"internalType":"address"},{"name":"sender","type":"address","indexed":true,"internalType":"address"}],"anonymous":false},{"type":"event","name":"RoleRevoked","inputs":[{"name":"role","type":"bytes32","indexed":true,"internalType":"bytes32"},{"name":"account","type":"address","indexed":true,"internalType":"address"},{"name":"sender","type":"address","indexed":true,"internalType":"address"}],"anonymous":false},{"type":"event","name":"SetDelegator","inputs":[{"name":"delegator","type":"address","indexed":true,"internalType":"address"}],"anonymous":false},{"type":"event","name":"SetDepositLimit","inputs":[{"name":"limit","type":"uint256","indexed":false,"internalType":"uint256"}],"anonymous":false},{"type":"event","name":"SetDepositWhitelist","inputs":[{"name":"status","type":"bool","indexed":false,"internalType":"bool"}],"anonymous":false},{"type":"event","name":"SetDepositorWhitelistStatus","inputs":[{"name":"account","type":"address","indexed":true,"internalType":"address"},{"name":"status","type":"bool","indexed":false,"internalType":"bool"}],"anonymous":false},{"type":"event","name":"SetIsDepositLimit","inputs":[{"name":"status","type":"bool","indexed":false,"internalType":"bool"}],"anonymous":false},{"type":"event","name":"SetSlasher","inputs":[{"name":"slasher","type":"address","indexed":true,"internalType":"address"}],"anonymous":false},{"type":"event","name":"Withdraw","inputs":[{"name":"withdrawer","type":"address","indexed":true,"internalType":"address"},{"name":"claimer","type":"address","indexed":true,"internalType":"address"},{"name":"amount","type":"uint256","indexed":false,"internalType":"uint256"},{"name":"burnedShares","type":"uint256","indexed":false,"internalType":"uint256"},{"name":"mintedShares","type":"uint256","indexed":false,"internalType":"uint256"}],"anonymous":false},{"type":"error","name":"AccessControlBadConfirmation","inputs":[]},{"type":"error","name":"AccessControlUnauthorizedAccount","inputs":[{"name":"account","type":"address","internalType":"address"},{"name":"neededRole","type":"bytes32","internalType":"bytes32"}]},{"type":"error","name":"AddressEmptyCode","inputs":[{"name":"target","type":"address","internalType":"address"}]},{"type":"error","name":"AddressInsufficientBalance","inputs":[{"name":"account","type":"address","internalType":"address"}]},{"type":"error","name":"AlreadyClaimed","inputs":[]},{"type":"error","name":"AlreadyInitialized","inputs":[]},{"type":"error","name":"AlreadySet","inputs":[]},{"type":"error","name":"CheckpointUnorderedInsertion","inputs":[]},{"type":"error","name":"DelegatorAlreadyInitialized","inputs":[]},{"type":"error","name":"DepositLimitReached","inputs":[]},{"type":"error","name":"ExternalCall","inputs":[]},{"type":"error","name":"FailedInnerCall","inputs":[]},{"type":"error","name":"InsufficientClaim","inputs":[]},{"type":"error","name":"InsufficientDeposit","inputs":[]},{"type":"error","name":"InsufficientRedemption","inputs":[]},{"type":"error","name":"InsufficientWithdrawal","inputs":[]},{"type":"error","name":"InvalidAccount","inputs":[]},{"type":"error","name":"InvalidCaptureEpoch","inputs":[]},{"type":"error","name":"InvalidClaimer","inputs":[]},{"type":"error","name":"InvalidCollateral","inputs":[]},{"type":"error","name":"InvalidDelegator","inputs":[]},{"type":"error","name":"InvalidEpoch","inputs":[]},{"type":"error","name":"InvalidEpochDuration","inputs":[]},{"type":"error","name":"InvalidInitialization","inputs":[]},{"type":"error","name":"InvalidLengthEpochs","inputs":[]},{"type":"error","name":"InvalidOnBehalfOf","inputs":[]},{"type":"error","name":"InvalidRecipient","inputs":[]},{"type":"error","name":"InvalidSlasher","inputs":[]},{"type":"error","name":"InvalidTimestamp","inputs":[]},{"type":"error","name":"MathOverflowedMulDiv","inputs":[]},{"type":"error","name":"MissingRoles","inputs":[]},{"type":"error","name":"NoPreviousEpoch","inputs":[]},{"type":"error","name":"NotDelegator","inputs":[]},{"type":"error","name":"NotFactory","inputs":[]},{"type":"error","name":"NotInitialized","inputs":[]},{"type":"error","name":"NotInitializing","inputs":[]},{"type":"error","name":"NotSlasher","inputs":[]},{"type":"error","name":"NotWhitelistedDepositor","inputs":[]},{"type":"error","name":"OwnableInvalidOwner","inputs":[{"name":"owner","type":"address","internalType":"address"}]},{"type":"error","name":"OwnableUnauthorizedAccount","inputs":[{"name":"account","type":"address","internalType":"address"}]},{"type":"error","name":"ReentrancyGuardReentrantCall","inputs":[]},{"type":"error","name":"SafeCastOverflowedUintDowncast","inputs":[{"name":"bits","type":"uint8","internalType":"uint8"},{"name":"value","type":"uint256","internalType":"uint256"}]},{"type":"error","name":"SafeERC20FailedOperation","inputs":[{"name":"token","type":"address","internalType":"address"}]},{"type":"error","name":"SlasherAlreadyInitialized","inputs":[]},{"type":"error","name":"TooMuchRedeem","inputs":[]},{"type":"error","name":"TooMuchWithdraw","inputs":[]}],"bytecode":{"object":"0x61010060405234801561001157600080fd5b5030608052600060a081905260c081905280808061002d610042565b6001600160a01b031660e052506100f4915050565b7ff0c57e16840df040f15088dc2f81fe391c3923bec73e23a9662efc9c229c6a00805468010000000000000000900460ff16156100925760405163f92ee8a960e01b815260040160405180910390fd5b80546001600160401b03908116146100f15780546001600160401b0319166001600160401b0390811782556040519081527fc7f505b2f371ae2175ee4913f4499e1f2633a7b5936321eed1cdaeb6115181d29060200160405180910390a15b50565b60805160a05160c05160e0516149bb6101506000396000818161056e0152610c8001526000818161081a0152611e8d0152600081816107320152611a7601526000818161121c015281816114b6015261227d01526149bb6000f3fe608060405234801561001057600080fd5b50600436106104335760003560e01c80637953b33b11610236578063aad3ec961161013b578063d8dfeb45116100c3578063efb559d611610087578063efb559d614610a7e578063f2fde38b14610a91578063f3fef3a314610aa4578063f5e7ee0f14610ab7578063f9e1bf6c14610aca57600080fd5b8063d8dfeb4514610a0f578063db38871514610a28578063de49971614610a4f578063eb55623814610a62578063ecf7085814610a7557600080fd5b8063bdc8144b1161010a578063bdc8144b146109bb578063bfefcd7b146109ce578063c31e8dd7146109d6578063ce9b7930146109e9578063d547741f146109fc57600080fd5b8063aad3ec961461096d578063afba70ad14610980578063b1344271146109a0578063bd49c35f146109b357600080fd5b80639d66201b116101be578063a21a1df91161018d578063a21a1df9146108c7578063a2861466146108ee578063a3b5417214610901578063a5d032231461092c578063aabc24961461095a57600080fd5b80639d66201b146108875780639f86fd851461089a578063a1b12202146108ad578063a217fddf146108bf57600080fd5b806383cd9cc31161020557806383cd9cc31461080257806387df0788146108155780638b0e9f3f1461083c5780638da5cb5b1461084457806391d148541461087457600080fd5b80637953b33b146107b65780637c04c80a146107c9578063810da75d146107dc5780638326056f146107ef57600080fd5b806350861adc1161033c57806364b03fdc116102c4578063715018a611610293578063715018a6146107685780637278e31c1461077057806373790ab314610783578063766718081461078b578063794b15b71461079357600080fd5b806364b03fdc146106fa57806367567add1461071a5780636da3e06d1461072d5780636ec1e3f81461075457600080fd5b806355a2c6721161030b57806355a2c6721461067d57806357ec83cc146106ac57806359f769a9146106bf5780635cc07076146106d257806361a8c8c4146106f257600080fd5b806350861adc1461062357806350f22068146106375780635346e34f1461064a57806354fd4d501461065d57600080fd5b80632dd31000116103bf5780634105a7dd1161038e5780634105a7dd146105be57806346361671146105d157806347e7ef24146105ea57806348d3b775146105fd5780634ff0876a1461060a57600080fd5b80632dd31000146105695780632f2ff15d1461059057806336568abe146105a3578063392e53cd146105b657600080fd5b8063248a9ca311610406578063248a9ca3146104e457806327810b6e146104f7578063281f5752146105225780632abe3048146105415780632d73c69c1461055657600080fd5b806301ffc9a7146104385780631415519b146104605780631b66c9e1146104955780631e9a6950146104bc575b600080fd5b61044b610446366004613d37565b610add565b60405190151581526020015b60405180910390f35b6104877fc6aaadd7371d5e8f9ed6849dd66a66573a3ba37167d03f4352c9ba5693678fac81565b604051908152602001610457565b6104877f9c56d972d63cbb4195b3c1484691dfc220fa96a4c47e7b6613bd82a022029e0681565b6104cf6104ca366004613d76565b610b14565b60408051928352602083019190915201610457565b6104876104f2366004613da2565b610bc9565b60015461050a906001600160a01b031681565b6040516001600160a01b039091168152602001610457565b61052a610beb565b60405165ffffffffffff9091168152602001610457565b61055461054f366004613e18565b610c6d565b005b610487610564366004613f8c565b610cf5565b61050a7f000000000000000000000000000000000000000000000000000000000000000081565b61055461059e366004613fed565b610d22565b6105546105b1366004613fed565b610d44565b61044b610d77565b6105546105cc36600461402b565b610da1565b60015461052a90600160a01b900465ffffffffffff1681565b6104cf6105f8366004613d76565b610e4f565b60005461044b9060ff1681565b60015461052a90600160d01b900465ffffffffffff1681565b60025461044b90600160a01b900460ff1681565b610487610645366004614048565b611131565b61055461065836600461402b565b61113f565b6106656111ed565b6040516001600160401b039091168152602001610457565b61069061068b366004614097565b61120e565b60408051921515835263ffffffff909116602083015201610457565b6105546106ba3660046140b4565b611272565b6104876106cd366004614116565b6113d2565b6104876106e0366004613da2565b60066020526000908152604090205481565b61052a6113e8565b61070d610708366004614133565b611409565b60405161045791906141b1565b610690610728366004614097565b6114a8565b61050a7f000000000000000000000000000000000000000000000000000000000000000081565b60035461044b90600160a01b900460ff1681565b6105546114ff565b61048761077e3660046141c4565b611513565b61052a6117cf565b6104876117fb565b61044b6107a1366004614116565b60056020526000908152604090205460ff1681565b6104876107c4366004614097565b611843565b6104876107d73660046141e9565b6118bb565b6104876107ea366004614048565b6119c5565b61070d6107fd366004614133565b6119d3565b610554610810366004614116565b611a24565b61050a7f000000000000000000000000000000000000000000000000000000000000000081565b610487611be6565b7f9016d09d72d40fdae2fd8ceac6b6234c7706214fd39c1cd1e609a0528c199300546001600160a01b031661050a565b61044b610882366004613fed565b611c41565b610487610895366004614116565b611c79565b6105546108a8366004614270565b611c9a565b60005461044b90610100900460ff1681565b610487600081565b6104877f4a634bc14d77baf979756509ef4298c6f6318af357828612545267ee2eb7923381565b6105546108fc366004614290565b611d2a565b61048761090f366004613fed565b600860209081526000928352604080842090915290825290205481565b61044b61093a366004613fed565b600960209081526000928352604080842090915290825290205460ff1681565b610554610968366004614116565b611e2c565b61048761097b366004613d76565b612013565b61048761098e366004613da2565b60076020526000908152604090205481565b60035461050a906001600160a01b031681565b6104876120bb565b6105546109c9366004613da2565b6120c7565b610487612150565b6104876109e4366004614116565b61215c565b60025461050a906001600160a01b031681565b610554610a0a366004613fed565b6121a4565b60005461050a906201000090046001600160a01b031681565b6104877fbae4ee3de6c709ff9a002e774c5b78cb381560b219213c88ae0f1e207c03c02381565b61070d610a5d3660046142be565b6121c0565b610690610a70366004614133565b61226f565b61048760045481565b610487610a8c366004614309565b6122eb565b610554610a9f366004614116565b61235e565b6104cf610ab2366004613d76565b61239e565b610487610ac5366004613fed565b61243f565b61070d610ad83660046142be565b612480565b60006001600160e01b03198216637965db0b60e01b1480610b0e57506301ffc9a760e01b6001600160e01b03198316145b92915050565b600080610b1f61251d565b6001600160a01b038416610b45576040516208978560e71b815260040160405180910390fd5b610b4e33611c79565b831115610b6e57604051632418411f60e11b815260040160405180910390fd5b610b8783610b7a6120bb565b610b82612150565b612567565b915081600003610bad5760405160016245ddc760e11b0319815260040160405180910390fd5b610bb8848385612576565b9050610bc26126ed565b9250929050565b6000908152600080516020614946833981519152602052604090206001015490565b600080610bf66117fb565b905080600003610c1957604051639fa56a5b60e01b815260040160405180910390fd5b60018054610c6791600160d01b90910465ffffffffffff1690610c3c9084614350565b610c469190614363565b600154610c629190600160a01b900465ffffffffffff1661437a565b612713565b91505090565b610c7561251d565b336001600160a01b037f00000000000000000000000000000000000000000000000000000000000000001614610cbe57604051631966391b60e11b815260040160405180910390fd5b610ce8610ce0600080516020614966833981519152546001600160401b031690565b84848461274a565b610cf06126ed565b505050565b6001600160a01b0383166000908152600e60205260408120610d189084846127c7565b90505b9392505050565b610d2b82610bc9565b610d34816128ae565b610d3e83836128b8565b50505050565b6001600160a01b0381163314610d6d5760405163334bd91960e11b815260040160405180910390fd5b610cf08282612964565b600254600090600160a01b900460ff168015610d9c5750600354600160a01b900460ff165b905090565b610da961251d565b7fbae4ee3de6c709ff9a002e774c5b78cb381560b219213c88ae0f1e207c03c023610dd3816128ae565b60005482151560ff909116151503610dfe5760405163a741a04560e01b815260040160405180910390fd5b6000805460ff19168315159081179091556040519081527f3e12b7b36c75ac9609a3f58609b331210428e1a85909132638955ba0301eec33906020015b60405180910390a150610e4c6126ed565b50565b600080610e5a61251d565b6001600160a01b038416610e8157604051630d534ce360e11b815260040160405180910390fd5b60005460ff168015610ea357503360009081526005602052604090205460ff16155b15610ec1576040516304f63b8560e01b815260040160405180910390fd5b600080546040516370a0823160e01b8152306004820152620100009091046001600160a01b0316906370a0823190602401602060405180830381865afa158015610f0f573d6000803e3d6000fd5b505050506040513d601f19601f82011682018060405250810190610f33919061438d565b600054909150610f54906201000090046001600160a01b03163330876129e0565b6000546040516370a0823160e01b815230600482015282916201000090046001600160a01b0316906370a0823190602401602060405180830381865afa158015610fa2573d6000803e3d6000fd5b505050506040513d601f19601f82011682018060405250810190610fc6919061438d565b610fd09190614350565b925082600003610ff35760405163070f6eed60e11b815260040160405180910390fd5b600054610100900460ff16801561101d5750600454836110116120bb565b61101b919061437a565b115b1561103b57604051632484557960e01b815260040160405180910390fd5b60006110456120bb565b90506000611051612150565b905061105e858284612a47565b935061107e61106b612a56565b611075878561437a565b600c9190612a61565b505061109e61108b612a56565b611095868461437a565b600a9190612a61565b50506110de6110ab612a56565b856110b58a611c79565b6110bf919061437a565b6001600160a01b038a166000908152600e602052604090209190612a61565b505060408051868152602081018690526001600160a01b0389169133917fdcbc1c05240f31ff3ad067ef1ee35ce4997762752e3a095284754544f4c709d7910160405180910390a3505050610bc26126ed565b6000610d1b600a84846127c7565b61114761251d565b7fc6aaadd7371d5e8f9ed6849dd66a66573a3ba37167d03f4352c9ba5693678fac611171816128ae565b811515600060019054906101000a900460ff161515036111a45760405163a741a04560e01b815260040160405180910390fd5b600080548315156101000261ff00199091161790556040517ffa7a25a0b611d4ba3c0ea990e90dc23d484a5dd7a1be4733fef2946ba74530c690610e3b90841515815260200190565b6000610d9c600080516020614966833981519152546001600160401b031690565b600080336001600160a01b037f0000000000000000000000000000000000000000000000000000000000000000161461125a57604051637ca475e560e11b815260040160405180910390fd5b611265600a84612b3b565b9296929550919350505050565b600080516020614966833981519152546001600160401b0316156112a85760405162dc149f60e41b815260040160405180910390fd5b6000805160206149668339815191528054859190600160401b900460ff16806112de575080546001600160401b03808416911610155b156112fc5760405163f92ee8a960e01b815260040160405180910390fd5b805468ffffffffffffffffff19166001600160401b03831617600160401b178155611325612c6a565b6001600160a01b0385161561133d5761133d85612c7a565b61137e868686868080601f016020809104026020016040519081016040528093929190818152602001838380828437600092019190915250612c8b92505050565b805468ff0000000000000000191681556040516001600160401b03831681527fc7f505b2f371ae2175ee4913f4499e1f2633a7b5936321eed1cdaeb6115181d29060200160405180910390a1505050505050565b6000610b0e6113e083611c79565b610b7a6120bb565b600154600090610d9c90600160d01b900465ffffffffffff16610c3c6117fb565b60405165ffffffffffff82166024820152606090600090819061145a90869060440160408051601f198184030181529190526020810180516001600160e01b03166367567add60e01b179052613012565b80602001905181019061146d91906143c5565b9150915081156114a0576040805163ffffffff831660208201520160405160208183030381529060405292505050610b0e565b505092915050565b600080336001600160a01b037f000000000000000000000000000000000000000000000000000000000000000016146114f457604051637ca475e560e11b815260040160405180910390fd5b611265600c84612b3b565b6115076130eb565b6115116000613146565b565b600061151d61251d565b6003546001600160a01b031633146115485760405163dabc4ad960e01b815260040160405180910390fd5b60006115526117fb565b9050600061155f84611843565b905060008211801561157a5750611577600183614350565b81105b8061158457508181115b156115a257604051635e18d2a560e01b815260040160405180910390fd5b60006115ac6120bb565b905060006006816115be86600161437a565b815260200190815260200160002054905083830361165e5760006115e2828461437a565b90506115ee88826131b7565b955085156116585760006116038785846131cd565b905060006116118289614350565b905061162861161e612a56565b6110758488614350565b5061163590508185614350565b6006600061164489600161437a565b815260208101919091526040016000205550505b50611752565b6000848152600660205260408120549082611679838661437a565b611683919061437a565b905061168f89826131b7565b9650861561174f5760006116a48886846131cd565b905060006116b38986856131cd565b90506000816116c2848c614350565b6116cc9190614350565b9050808510156116f0576116e08582614350565b6116ea908361437a565b91508490505b6117056116fb612a56565b611075858a614350565b5061171290508287614350565b600660006117218c600161437a565b815260208101919091526040016000205561173c8186614350565b60008a8152600660205260409020555050505b50505b841561177b5760015460005461177b916001600160a01b03620100009092048216911687613291565b6040805188815265ffffffffffff881660208201529081018690527ff9d090c096f71cd1659861a9ce5b6f384bceb4e2fa4e4a19edf6489a9b8d56c79060600160405180910390a150505050610b0e6126ed565b600154600090610d9c90600160d01b900465ffffffffffff166117f06117fb565b610c3c90600161437a565b60015460009065ffffffffffff600160d01b8204811691600160a01b900416611822612a56565b61182c91906143fa565b611836919061442f565b65ffffffffffff16905090565b60015460009065ffffffffffff600160a01b9091048116908316101561187c5760405163b7d0949760e01b815260040160405180910390fd5b60015465ffffffffffff600160d01b82048116916118a391600160a01b90910416846143fa565b6118ad919061442f565b65ffffffffffff1692915050565b60006118c561251d565b6001600160a01b0384166118ec57604051634e46966960e11b815260040160405180910390fd5b81600081900361190f5760405163edf3b93360e01b815260040160405180910390fd5b60005b8181101561194f5761193b85858381811061192f5761192f614454565b905060200201356132c2565b611945908461437a565b9250600101611912565b5060005461196d906201000090046001600160a01b03168684613291565b846001600160a01b0316336001600160a01b03167f326b6aff1cd2fb1c8234de4f9dcfb9047c5c36eb9ef2eb34af5121e969a75d278686866040516119b49392919061446a565b60405180910390a350610d1b6126ed565b6000610d1b600c84846127c7565b60405165ffffffffffff82166024820152606090600090819061145a90869060440160408051601f198184030181529190526020810180516001600160e01b0316632ad1633960e11b179052613012565b611a2c61251d565b600254600160a01b900460ff1615611a5757604051631380833b60e01b815260040160405180910390fd5b6040516302910f8b60e31b81526001600160a01b0382811660048301527f000000000000000000000000000000000000000000000000000000000000000016906314887c5890602401602060405180830381865afa158015611abd573d6000803e3d6000fd5b505050506040513d601f19601f82011682018060405250810190611ae191906144a8565b611afe576040516324e5af8d60e21b815260040160405180910390fd5b306001600160a01b0316816001600160a01b031663fbfa77cf6040518163ffffffff1660e01b8152600401602060405180830381865afa158015611b46573d6000803e3d6000fd5b505050506040513d601f19601f82011682018060405250810190611b6a91906144d0565b6001600160a01b031614611b915760405163b9f0f17160e01b815260040160405180910390fd5b600280546001600160a81b0319166001600160a01b038316908117600160a01b179091556040517fdb2160616f776a37b24808115554e79439bf26cccbbd4438190cc6d28e80ecd190600090a2610e4c6126ed565b600080611bf16117fb565b905060066000611c0283600161437a565b8152602001908152602001600020546006600083815260200190815260200160002054611c2d6120bb565b611c37919061437a565b610c67919061437a565b6000918252600080516020614946833981519152602090815260408084206001600160a01b0393909316845291905290205460ff1690565b6001600160a01b0381166000908152600e60205260408120610b0e9061337b565b600080846001600160a01b03168484604051611cb79291906144ed565b600060405180830381855af49150503d8060008114611cf2576040519150601f19603f3d011682016040523d82523d6000602084013e611cf7565b606091505b509150915060008282604051602001611d119291906144fd565b6040516020818303038152906040529050805181602001fd5b611d3261251d565b7f9c56d972d63cbb4195b3c1484691dfc220fa96a4c47e7b6613bd82a022029e06611d5c816128ae565b6001600160a01b038316611d8357604051630da30f6560e31b815260040160405180910390fd5b6001600160a01b03831660009081526005602052604090205482151560ff909116151503611dc45760405163a741a04560e01b815260040160405180910390fd5b6001600160a01b038316600081815260056020908152604091829020805460ff191686151590811790915591519182527ff991b1ecfb5115cbb36a2b2e2240c058406d2acc2fcc6e9e2dc99d845ff70a62910160405180910390a250611e286126ed565b5050565b611e3461251d565b600354600160a01b900460ff1615611e5f5760405163703fe2e560e01b815260040160405180910390fd5b6001600160a01b03811615611fc4576040516302910f8b60e31b81526001600160a01b0382811660048301527f000000000000000000000000000000000000000000000000000000000000000016906314887c5890602401602060405180830381865afa158015611ed4573d6000803e3d6000fd5b505050506040513d601f19601f82011682018060405250810190611ef891906144a8565b611f155760405163dabc4ad960e01b815260040160405180910390fd5b306001600160a01b0316816001600160a01b031663fbfa77cf6040518163ffffffff1660e01b8152600401602060405180830381865afa158015611f5d573d6000803e3d6000fd5b505050506040513d601f19601f82011682018060405250810190611f8191906144d0565b6001600160a01b031614611fa857604051633f3e089160e21b815260040160405180910390fd5b600380546001600160a01b0319166001600160a01b0383161790555b6003805460ff60a01b1916600160a01b1790556040516001600160a01b038216907fe7e4c932e03abddfe20f83af42c33627e816115c7ec2b168441f65dc14bfc3ba90600090a2610e4c6126ed565b600061201d61251d565b6001600160a01b03831661204457604051634e46966960e11b815260040160405180910390fd5b61204d826132c2565b60005490915061206d906201000090046001600160a01b03168483613291565b60408051838152602081018390526001600160a01b0385169133917f865ca08d59f5cb456e85cd2f7ef63664ea4f73327414e9d8152c4158b0e94645910160405180910390a3610b0e6126ed565b6000610d9c600c61337b565b6120cf61251d565b7f4a634bc14d77baf979756509ef4298c6f6318af357828612545267ee2eb792336120f9816128ae565b816004540361211b5760405163a741a04560e01b815260040160405180910390fd5b60048290556040518281527f854df3eb95564502c8bc871ebdd15310ee26270f955f6c6bd8cea68e75045bc090602001610e3b565b6000610d9c600a61337b565b6000806121676117fb565b905061217d61217782600161437a565b8461243f565b612187828561243f565b612190856113d2565b61219a919061437a565b610d1b919061437a565b6121ad82610bc9565b6121b6816128ae565b610d3e8383612964565b6040516001600160a01b038316602482015265ffffffffffff82166044820152606090600090819061222090879060640160408051601f198184030181529190526020810180516001600160e01b0316631d6aac4760e31b179052613012565b80602001905181019061223391906143c5565b915091508115612266576040805163ffffffff831660208201520160405160208183030381529060405292505050610d1b565b50509392505050565b600080336001600160a01b037f000000000000000000000000000000000000000000000000000000000000000016146122bb57604051637ca475e560e11b815260040160405180910390fd5b6001600160a01b0384166000908152600e602052604090206122dd9084612b3b565b929792965091945050505050565b600061231160405180606001604052806060815260200160608152602001606081525090565b82156123265761232383850185614518565b90505b61235461233887878460000151610cf5565b6123468784602001516119c5565b610b82888560400151611131565b9695505050505050565b6123666130eb565b6001600160a01b03811661239557604051631e4fbdf760e01b8152600060048201526024015b60405180910390fd5b610e4c81613146565b6000806123a961251d565b6001600160a01b0384166123cf576040516208978560e71b815260040160405180910390fd5b826000036123f057604051636c6c627d60e11b815260040160405180910390fd5b612409836123fc612150565b6124046120bb565b6133d1565b915061241433611c79565b821115612434576040516321727a3760e11b815260040160405180910390fd5b610bb8848484612576565b60008281526008602090815260408083206001600160a01b03851684528252808320548584526006835281842054600790935290832054610d1b9290612567565b6060600061248f8585856121c0565b9050600061249d8685611409565b905060006124ab87866119d3565b90506000835111806124be575060008251115b806124ca575060008151115b15612513576040518060600160405280848152602001838152602001828152506040516020016124fa91906145cc565b6040516020818303038152906040529350505050610d1b565b5050509392505050565b7f9b779b17422d0df92223018b32b4d1fa46e071723d6817e2486d003becc55f0080546001190161256157604051633ee5aeb560e01b815260040160405180910390fd5b60029055565b6000610d1884848460006133e0565b60006125ad612583612a56565b8361258d33611c79565b6125979190614350565b336000908152600e602052604090209190612a61565b50506125cd6125ba612a56565b836125c3612150565b6110959190614350565b50506125ed6125da612a56565b846125e36120bb565b6110759190614350565b505060006125f96117fb565b61260490600161437a565b6000818152600660209081526040808320546007909252909120549192509061262e868284612a47565b935061263a868361437a565b600084815260066020526040902055612653848261437a565b600084815260076020908152604080832093909355600881528282206001600160a01b038b1683529052908120805486929061269090849061437a565b909155505060408051878152602081018790529081018590526001600160a01b0388169033907febff2602b3f468259e1e99f613fed6691f3a6526effe6ef3e768ba7ae7a36c4f9060600160405180910390a35050509392505050565b60017f9b779b17422d0df92223018b32b4d1fa46e071723d6817e2486d003becc55f0055565b600065ffffffffffff821115612746576040516306dfcc6560e41b8152603060048201526024810183905260440161238c565b5090565b6000805160206149668339815191528054849190600160401b900460ff1680612780575080546001600160401b03808416911610155b1561279e5760405163f92ee8a960e01b815260040160405180910390fd5b805468ffffffffffffffffff19166001600160401b03831617600160401b17815561137e600080fd5b600081516000036127e3576127dc848461340f565b9050610d1b565b6000828060200190518101906127f99190614624565b905060006128078683613468565b90508465ffffffffffff16816000015165ffffffffffff160361283157602001519150610d1b9050565b805165ffffffffffff808716911610801561289257506001612852876134e0565b61285c9190614350565b8263ffffffff161480612892575065ffffffffffff85166128878761288285600161463f565b613468565b5165ffffffffffff16115b156128a457602001519150610d1b9050565b612354868661340f565b610e4c81336134ea565b60006000805160206149468339815191526128d38484611c41565b612953576000848152602082815260408083206001600160a01b03871684529091529020805460ff191660011790556129093390565b6001600160a01b0316836001600160a01b0316857f2f8788117e7eff1d82e926ec794901d17c78024a50270940304540a733656f0d60405160405180910390a46001915050610b0e565b6000915050610b0e565b5092915050565b600060008051602061494683398151915261297f8484611c41565b15612953576000848152602082815260408083206001600160a01b0387168085529252808320805460ff1916905551339287917ff6391f5c32d9c69d2a47ea670b442974b53935d1edc7fd64eb21e047a839171b9190a46001915050610b0e565b6040516001600160a01b038481166024830152838116604483015260648201839052610d3e9186918216906323b872dd906084015b604051602081830303815290604052915060e01b6020820180516001600160e01b038381831617835250505050613523565b6000610d188484846000613586565b6000610d9c42612713565b600183015460009081908103612a8b57600180860180549182018155600090815260208120909101555b600080612a97876135ab565b50600189015491935091506000612aad8961337b565b9050838015612acb57508265ffffffffffff168865ffffffffffff16145b15612b03578689600101600184612ae29190614350565b81548110612af257612af2614454565b600091825260209091200155612b2a565b612b0e898984613625565b50506001808a0180549182018155600090815260209020018790555b94508593505050505b935093915050565b815460009081908190819081816005811115612ba0576000612b5c8461363f565b612b669085614350565b60008b81526020902090915081015465ffffffffffff908116908a161015612b9057809150612b9e565b612b9b81600161437a565b92505b505b6000612bae8a8a8585613727565b905080600003612bcf57600080600080975097509750975050505050612c61565b6000612bee8b612be0600185614350565b600091825260209091200190565b60408051808201909152905465ffffffffffff8116808352600160301b9091046001600160d01b03166020830181905260018e8101805494955090939091908110612c3b57612c3b614454565b9060005260206000200154600185612c539190614350565b985098509850985050505050505b92959194509250565b612c72613789565b6115116137c0565b612c82613789565b610e4c816137c8565b600081806020019051810190612ca19190614667565b80519091506001600160a01b0316612ccc576040516368f7a67560e11b815260040160405180910390fd5b806040015165ffffffffffff16600003612cf9576040516368f5f8f160e11b815260040160405180910390fd5b60c08101516001600160a01b0316612e205760e08101516001600160a01b0316612d8557806060015115612d58576101008101516001600160a01b0316612d535760405163183c854560e21b815260040160405180910390fd5b612d85565b6101008101516001600160a01b031615612d855760405163183c854560e21b815260040160405180910390fd5b6101208101516001600160a01b0316612e2057806080015115612de35760a0810151158015612dc057506101408101516001600160a01b0316155b15612dde5760405163183c854560e21b815260040160405180910390fd5b612e20565b60a0810151151580612e0257506101408101516001600160a01b031615155b15612e205760405163183c854560e21b815260040160405180910390fd5b80516000805462010000600160b01b031916620100006001600160a01b03938416021790556020820151600180546001600160a01b03191691909216179055612e67612a56565b60018054604084015165ffffffffffff908116600160d01b026001600160d01b0394909116600160a01b02939093166001600160a01b0391821617929092179055606082015160008054608085015115156101000261ff00199315159390931661ffff199091161791909117905560a082015160045560c08201511615612efb57612ef96000801b8260c001516128b8565b505b60e08101516001600160a01b031615612f3e57612f3c7fbae4ee3de6c709ff9a002e774c5b78cb381560b219213c88ae0f1e207c03c0238260e001516128b8565b505b6101008101516001600160a01b031615612f8357612f817f9c56d972d63cbb4195b3c1484691dfc220fa96a4c47e7b6613bd82a022029e068261010001516128b8565b505b6101208101516001600160a01b031615612fc857612fc67fc6aaadd7371d5e8f9ed6849dd66a66573a3ba37167d03f4352c9ba5693678fac8261012001516128b8565b505b6101408101516001600160a01b031615610d3e5761300b7f4a634bc14d77baf979756509ef4298c6f6318af357828612545267ee2eb792338261014001516128b8565b5050505050565b60606000836001600160a01b0316308460405160240161303392919061473a565b60408051601f198184030181529181526020820180516001600160e01b0316639f86fd8560e01b17905251613068919061475e565b600060405180830381855afa9150503d80600081146130a3576040519150601f19603f3d011682016040523d82523d6000602084013e6130a8565b606091505b50915050600080828060200190518101906130c3919061477a565b91509150816130e25780516000036130da57600080fd5b805181602001fd5b95945050505050565b3361311d7f9016d09d72d40fdae2fd8ceac6b6234c7706214fd39c1cd1e609a0528c199300546001600160a01b031690565b6001600160a01b0316146115115760405163118cdaa760e01b815233600482015260240161238c565b7f9016d09d72d40fdae2fd8ceac6b6234c7706214fd39c1cd1e609a0528c19930080546001600160a01b031981166001600160a01b03848116918217845560405192169182907f8be0079c531659141344cd1fd0a4f28419497f9722a3daafe3b4186f6b6457e090600090a3505050565b60008183106131c65781610d1b565b5090919050565b6000838302816000198587098281108382030391505080600003613204578382816131fa576131fa614419565b0492505050610d1b565b8084116132245760405163227bc15360e01b815260040160405180910390fd5b6000848688096000868103871696879004966002600389028118808a02820302808a02820302808a02820302808a02820302808a02820302808a02909103029181900381900460010186841190950394909402919094039290920491909117919091029150509392505050565b6040516001600160a01b03838116602483015260448201839052610cf091859182169063a9059cbb90606401612a15565b60006132cc6117fb565b82106132eb5760405163d5b25b6360e01b815260040160405180910390fd5b600082815260096020908152604080832033845290915290205460ff161561332657604051630c8d9eab60e31b815260040160405180910390fd5b613330823361243f565b905080600003613353576040516366c0bcbf60e11b815260040160405180910390fd5b6000918252600960209081526040808420338552909152909120805460ff1916600117905590565b600080613387836137d0565b90506000816001600160d01b0316116133a1576000610d1b565b82600101816001600160d01b0316815481106133bf576133bf614454565b90600052602060002001549392505050565b6000610d188484846001613586565b60006130e26133f085600161437a565b6133fc6000600a6148ea565b613406908661437a565b87919085613809565b60008061341c848461384e565b90506000816001600160d01b031611613436576000613460565b83600101816001600160d01b03168154811061345457613454614454565b90600052602060002001545b949350505050565b6040805180820190915260008082526020820152600061348884846138f6565b90506040518060400160405280826000015165ffffffffffff1681526020018560010183602001516001600160d01b0316815481106134c9576134c9614454565b906000526020600020015481525091505092915050565b6000610b0e825490565b6134f48282611c41565b611e285760405163e2517d3f60e01b81526001600160a01b03821660048201526024810183905260440161238c565b60006135386001600160a01b03841683613966565b9050805160001415801561355d57508080602001905181019061355b91906144a8565b155b15610cf057604051635274afe760e01b81526001600160a01b038416600482015260240161238c565b60006130e261359682600a6148ea565b6135a0908661437a565b61340685600161437a565b8054600090819081908082036135cc5760008060009350935093505061361e565b60006135dd86612be0600185614350565b60408051808201909152905465ffffffffffff8116808352600160301b9091046001600160d01b03166020909201829052600196509450925061361e915050565b9193909250565b600080613633858585613974565b91509150935093915050565b60008160000361365157506000919050565b6000600161365e84613aee565b901c6001901b9050600181848161367757613677614419565b048201901c9050600181848161368f5761368f614419565b048201901c905060018184816136a7576136a7614419565b048201901c905060018184816136bf576136bf614419565b048201901c905060018184816136d7576136d7614419565b048201901c905060018184816136ef576136ef614419565b048201901c9050600181848161370757613707614419565b048201901c9050610d1b8182858161372157613721614419565b046131b7565b60005b8183101561378157600061373e8484613b82565b60008781526020902090915065ffffffffffff86169082015465ffffffffffff16111561376d5780925061377b565b61377881600161437a565b93505b5061372a565b509392505050565b60008051602061496683398151915254600160401b900460ff1661151157604051631afcd79f60e31b815260040160405180910390fd5b6126ed613789565b612366613789565b80546000908015613800576137ea83612be0600184614350565b54600160301b90046001600160d01b0316610d1b565b60009392505050565b6000806138178686866131cd565b905061382283613b9d565b801561383e57506000848061383957613839614419565b868809115b156130e25761235460018261437a565b8154600090818160058111156138ad5760006138698461363f565b6138739085614350565b60008881526020902090915081015465ffffffffffff908116908716101561389d578091506138ab565b6138a881600161437a565b92505b505b60006138bb87878585613bca565b905080156138e8576138d287612be0600184614350565b54600160301b90046001600160d01b03166138eb565b60005b979650505050505050565b6040805180820190915260008082526020820152826000018263ffffffff168154811061392557613925614454565b60009182526020918290206040805180820190915291015465ffffffffffff81168252600160301b90046001600160d01b0316918101919091529392505050565b6060610d1b83836000613c24565b825460009081908015613a9357600061399287612be0600185614350565b60408051808201909152905465ffffffffffff808216808452600160301b9092046001600160d01b0316602084015291925090871610156139e657604051632520601d60e01b815260040160405180910390fd5b805165ffffffffffff808816911603613a325784613a0988612be0600186614350565b80546001600160d01b0392909216600160301b0265ffffffffffff909216919091179055613a83565b6040805180820190915265ffffffffffff80881682526001600160d01b0380881660208085019182528b54600181018d5560008d81529190912094519151909216600160301b029216919091179101555b602001519250839150612b339050565b50506040805180820190915265ffffffffffff80851682526001600160d01b0380851660208085019182528854600181018a5560008a815291822095519251909316600160301b029190931617920191909155905081612b33565b600080608083901c15613b0357608092831c92015b604083901c15613b1557604092831c92015b602083901c15613b2757602092831c92015b601083901c15613b3957601092831c92015b600883901c15613b4b57600892831c92015b600483901c15613b5d57600492831c92015b600283901c15613b6f57600292831c92015b600183901c15610b0e5760010192915050565b6000613b9160028484186148f9565b610d1b9084841661437a565b60006002826003811115613bb357613bb361490d565b613bbd9190614923565b60ff166001149050919050565b60005b81831015613781576000613be18484613b82565b60008781526020902090915065ffffffffffff86169082015465ffffffffffff161115613c1057809250613c1e565b613c1b81600161437a565b93505b50613bcd565b606081471015613c495760405163cd78605960e01b815230600482015260240161238c565b600080856001600160a01b03168486604051613c65919061475e565b60006040518083038185875af1925050503d8060008114613ca2576040519150601f19603f3d011682016040523d82523d6000602084013e613ca7565b606091505b5091509150612354868383606082613cc757613cc282613d0e565b610d1b565b8151158015613cde57506001600160a01b0384163b155b15613d0757604051639996b31560e01b81526001600160a01b038516600482015260240161238c565b5080610d1b565b805115613d1e5780518082602001fd5b604051630a12f52160e11b815260040160405180910390fd5b600060208284031215613d4957600080fd5b81356001600160e01b031981168114610d1b57600080fd5b6001600160a01b0381168114610e4c57600080fd5b60008060408385031215613d8957600080fd5b8235613d9481613d61565b946020939093013593505050565b600060208284031215613db457600080fd5b5035919050565b80356001600160401b0381168114613dd257600080fd5b919050565b60008083601f840112613de957600080fd5b5081356001600160401b03811115613e0057600080fd5b602083019150836020828501011115610bc257600080fd5b600080600060408486031215613e2d57600080fd5b613e3684613dbb565b925060208401356001600160401b03811115613e5157600080fd5b613e5d86828701613dd7565b9497909650939450505050565b65ffffffffffff81168114610e4c57600080fd5b634e487b7160e01b600052604160045260246000fd5b604051606081016001600160401b0381118282101715613eb657613eb6613e7e565b60405290565b60405161016081016001600160401b0381118282101715613eb657613eb6613e7e565b604051601f8201601f191681016001600160401b0381118282101715613f0757613f07613e7e565b604052919050565b60006001600160401b03821115613f2857613f28613e7e565b50601f01601f191660200190565b600082601f830112613f4757600080fd5b8135613f5a613f5582613f0f565b613edf565b818152846020838601011115613f6f57600080fd5b816020850160208301376000918101602001919091529392505050565b600080600060608486031215613fa157600080fd5b8335613fac81613d61565b92506020840135613fbc81613e6a565b915060408401356001600160401b03811115613fd757600080fd5b613fe386828701613f36565b9150509250925092565b6000806040838503121561400057600080fd5b82359150602083013561401281613d61565b809150509250929050565b8015158114610e4c57600080fd5b60006020828403121561403d57600080fd5b8135610d1b8161401d565b6000806040838503121561405b57600080fd5b823561406681613e6a565b915060208301356001600160401b0381111561408157600080fd5b61408d85828601613f36565b9150509250929050565b6000602082840312156140a957600080fd5b8135610d1b81613e6a565b600080600080606085870312156140ca57600080fd5b6140d385613dbb565b935060208501356140e381613d61565b925060408501356001600160401b038111156140fe57600080fd5b61410a87828801613dd7565b95989497509550505050565b60006020828403121561412857600080fd5b8135610d1b81613d61565b6000806040838503121561414657600080fd5b823561415181613d61565b9150602083013561401281613e6a565b60005b8381101561417c578181015183820152602001614164565b50506000910152565b6000815180845261419d816020860160208601614161565b601f01601f19169290920160200192915050565b602081526000610d1b6020830184614185565b600080604083850312156141d757600080fd5b82359150602083013561401281613e6a565b6000806000604084860312156141fe57600080fd5b833561420981613d61565b925060208401356001600160401b038082111561422557600080fd5b818601915086601f83011261423957600080fd5b81358181111561424857600080fd5b8760208260051b850101111561425d57600080fd5b6020830194508093505050509250925092565b60008060006040848603121561428557600080fd5b8335613e3681613d61565b600080604083850312156142a357600080fd5b82356142ae81613d61565b915060208301356140128161401d565b6000806000606084860312156142d357600080fd5b83356142de81613d61565b925060208401356142ee81613d61565b915060408401356142fe81613e6a565b809150509250925092565b6000806000806060858703121561431f57600080fd5b843561432a81613d61565b935060208501356140e381613e6a565b634e487b7160e01b600052601160045260246000fd5b81810381811115610b0e57610b0e61433a565b8082028115828204841417610b0e57610b0e61433a565b80820180821115610b0e57610b0e61433a565b60006020828403121561439f57600080fd5b5051919050565b8051613dd28161401d565b805163ffffffff81168114613dd257600080fd5b600080604083850312156143d857600080fd5b82516143e38161401d565b91506143f1602084016143b1565b90509250929050565b65ffffffffffff82811682821603908082111561295d5761295d61433a565b634e487b7160e01b600052601260045260246000fd5b600065ffffffffffff8084168061444857614448614419565b92169190910492915050565b634e487b7160e01b600052603260045260246000fd5b6040808252810183905260006001600160fb1b0384111561448a57600080fd5b8360051b808660608501376020830193909352500160600192915050565b6000602082840312156144ba57600080fd5b8151610d1b8161401d565b8051613dd281613d61565b6000602082840312156144e257600080fd5b8151610d1b81613d61565b8183823760009101908152919050565b8215158152604060208201526000610d186040830184614185565b60006020828403121561452a57600080fd5b81356001600160401b038082111561454157600080fd5b908301906060828603121561455557600080fd5b61455d613e94565b82358281111561456c57600080fd5b61457887828601613f36565b82525060208301358281111561458d57600080fd5b61459987828601613f36565b6020830152506040830135828111156145b157600080fd5b6145bd87828601613f36565b60408301525095945050505050565b6020815260008251606060208401526145e86080840182614185565b90506020840151601f19808584030160408601526146068383614185565b92506040860151915080858403016060860152506130e28282614185565b60006020828403121561463657600080fd5b610d1b826143b1565b63ffffffff81811683821601908082111561295d5761295d61433a565b8051613dd281613e6a565b6000610160828403121561467a57600080fd5b614682613ebc565b61468b836144c5565b8152614699602084016144c5565b60208201526146aa6040840161465c565b60408201526146bb606084016143a6565b60608201526146cc608084016143a6565b608082015260a083015160a08201526146e760c084016144c5565b60c08201526146f860e084016144c5565b60e082015261010061470b8185016144c5565b9082015261012061471d8482016144c5565b9082015261014061472f8482016144c5565b908201529392505050565b6001600160a01b0383168152604060208201819052600090610d1890830184614185565b60008251614770818460208701614161565b9190910192915050565b6000806040838503121561478d57600080fd5b82516147988161401d565b60208401519092506001600160401b038111156147b457600080fd5b8301601f810185136147c557600080fd5b80516147d3613f5582613f0f565b8181528660208385010111156147e857600080fd5b6147f9826020830160208601614161565b8093505050509250929050565b600181815b808511156148415781600019048211156148275761482761433a565b8085161561483457918102915b93841c939080029061480b565b509250929050565b60008261485857506001610b0e565b8161486557506000610b0e565b816001811461487b5760028114614885576148a1565b6001915050610b0e565b60ff8411156148965761489661433a565b50506001821b610b0e565b5060208310610133831016604e8410600b84101617156148c4575081810a610b0e565b6148ce8383614806565b80600019048211156148e2576148e261433a565b029392505050565b6000610d1b60ff841683614849565b60008261490857614908614419565b500490565b634e487b7160e01b600052602160045260246000fd5b600060ff83168061493657614936614419565b8060ff8416069150509291505056fe02dd7bc7dec4dceedda775e58dd541e08a116c6c53815c0bd028192f7b626800f0c57e16840df040f15088dc2f81fe391c3923bec73e23a9662efc9c229c6a00a26469706673582212207aad71f60f827de5005304b99d8a498c58ab4d93f707d1ab570d41af60132c8464736f6c63430008190033","linkReferences":{}},"methodIdentifiers":{"DEFAULT_ADMIN_ROLE()":"a217fddf","DELEGATOR_FACTORY()":"6da3e06d","DEPOSITOR_WHITELIST_ROLE()":"1b66c9e1","DEPOSIT_LIMIT_SET_ROLE()":"a21a1df9","DEPOSIT_WHITELIST_SET_ROLE()":"db388715","FACTORY()":"2dd31000","IS_DEPOSIT_LIMIT_SET_ROLE()":"1415519b","SLASHER_FACTORY()":"87df0788","activeBalanceOf(address)":"59f769a9","activeBalanceOfAt(address,uint48,bytes)":"efb559d6","activeBalanceOfHints(address,address,uint48)":"f9e1bf6c","activeShares()":"bfefcd7b","activeSharesAt(uint48,bytes)":"50f22068","activeSharesHint(address,uint48)":"8326056f","activeSharesHintInternal(uint48)":"55a2c672","activeSharesOf(address)":"9d66201b","activeSharesOfAt(address,uint48,bytes)":"2d73c69c","activeSharesOfHint(address,address,uint48)":"de499716","activeSharesOfHintInternal(address,uint48)":"eb556238","activeStake()":"bd49c35f","activeStakeAt(uint48,bytes)":"810da75d","activeStakeHint(address,uint48)":"64b03fdc","activeStakeHintInternal(uint48)":"67567add","burner()":"27810b6e","claim(address,uint256)":"aad3ec96","claimBatch(address,uint256[])":"7c04c80a","collateral()":"d8dfeb45","currentEpoch()":"76671808","currentEpochStart()":"61a8c8c4","delegator()":"ce9b7930","deposit(address,uint256)":"47e7ef24","depositLimit()":"ecf70858","depositWhitelist()":"48d3b775","epochAt(uint48)":"7953b33b","epochDuration()":"4ff0876a","epochDurationInit()":"46361671","getRoleAdmin(bytes32)":"248a9ca3","grantRole(bytes32,address)":"2f2ff15d","hasRole(bytes32,address)":"91d14854","initialize(uint64,address,bytes)":"57ec83cc","isDelegatorInitialized()":"50861adc","isDepositLimit()":"a1b12202","isDepositorWhitelisted(address)":"794b15b7","isInitialized()":"392e53cd","isSlasherInitialized()":"6ec1e3f8","isWithdrawalsClaimed(uint256,address)":"a5d03223","migrate(uint64,bytes)":"2abe3048","nextEpochStart()":"73790ab3","onSlash(uint256,uint48)":"7278e31c","owner()":"8da5cb5b","previousEpochStart()":"281f5752","redeem(address,uint256)":"1e9a6950","renounceOwnership()":"715018a6","renounceRole(bytes32,address)":"36568abe","revokeRole(bytes32,address)":"d547741f","setDelegator(address)":"83cd9cc3","setDepositLimit(uint256)":"bdc8144b","setDepositWhitelist(bool)":"4105a7dd","setDepositorWhitelistStatus(address,bool)":"a2861466","setIsDepositLimit(bool)":"5346e34f","setSlasher(address)":"aabc2496","slashableBalanceOf(address)":"c31e8dd7","slasher()":"b1344271","staticDelegateCall(address,bytes)":"9f86fd85","supportsInterface(bytes4)":"01ffc9a7","totalStake()":"8b0e9f3f","transferOwnership(address)":"f2fde38b","version()":"54fd4d50","withdraw(address,uint256)":"f3fef3a3","withdrawalShares(uint256)":"afba70ad","withdrawalSharesOf(uint256,address)":"a3b54172","withdrawals(uint256)":"5cc07076","withdrawalsOf(uint256,address)":"f5e7ee0f"},"id":58}