{"abi":[{"type":"constructor","inputs":[{"name":"owner_","type":"address","internalType":"address"}],"stateMutability":"nonpayable"},{"type":"function","name":"blacklist","inputs":[{"name":"version","type":"uint64","internalType":"uint64"}],"outputs":[],"stateMutability":"nonpayable"},{"type":"function","name":"blacklisted","inputs":[{"name":"version","type":"uint64","internalType":"uint64"}],"outputs":[{"name":"value","type":"bool","internalType":"bool"}],"stateMutability":"view"},{"type":"function","name":"create","inputs":[{"name":"version","type":"uint64","internalType":"uint64"},{"name":"owner_","type":"address","internalType":"address"},{"name":"data","type":"bytes","internalType":"bytes"}],"outputs":[{"name":"entity_","type":"address","internalType":"address"}],"stateMutability":"nonpayable"},{"type":"function","name":"entity","inputs":[{"name":"index","type":"uint256","internalType":"uint256"}],"outputs":[{"name":"","type":"address","internalType":"address"}],"stateMutability":"view"},{"type":"function","name":"implementation","inputs":[{"name":"version","type":"uint64","internalType":"uint64"}],"outputs":[{"name":"","type":"address","internalType":"address"}],"stateMutability":"view"},{"type":"function","name":"isEntity","inputs":[{"name":"entity_","type":"address","internalType":"address"}],"outputs":[{"name":"","type":"bool","internalType":"bool"}],"stateMutability":"view"},{"type":"function","name":"lastVersion","inputs":[],"outputs":[{"name":"","type":"uint64","internalType":"uint64"}],"stateMutability":"view"},{"type":"function","name":"migrate","inputs":[{"name":"entity_","type":"address","internalType":"address"},{"name":"newVersion","type":"uint64","internalType":"uint64"},{"name":"data","type":"bytes","internalType":"bytes"}],"outputs":[],"stateMutability":"nonpayable"},{"type":"function","name":"owner","inputs":[],"outputs":[{"name":"","type":"address","internalType":"address"}],"stateMutability":"view"},{"type":"function","name":"renounceOwnership","inputs":[],"outputs":[],"stateMutability":"nonpayable"},{"type":"function","name":"totalEntities","inputs":[],"outputs":[{"name":"","type":"uint256","internalType":"uint256"}],"stateMutability":"view"},{"type":"function","name":"transferOwnership","inputs":[{"name":"newOwner","type":"address","internalType":"address"}],"outputs":[],"stateMutability":"nonpayable"},{"type":"function","name":"whitelist","inputs":[{"name":"implementation_","type":"address","internalType":"address"}],"outputs":[],"stateMutability":"nonpayable"},{"type":"event","name":"AddEntity","inputs":[{"name":"entity","type":"address","indexed":true,"internalType":"address"}],"anonymous":false},{"type":"event","name":"Blacklist","inputs":[{"name":"version","type":"uint64","indexed":true,"internalType":"uint64"}],"anonymous":false},{"type":"event","name":"Migrate","inputs":[{"name":"entity","type":"address","indexed":true,"internalType":"address"},{"name":"newVersion","type":"uint64","indexed":false,"internalType":"uint64"}],"anonymous":false},{"type":"event","name":"OwnershipTransferred","inputs":[{"name":"previousOwner","type":"address","indexed":true,"internalType":"address"},{"name":"newOwner","type":"address","indexed":true,"internalType":"address"}],"anonymous":false},{"type":"event","name":"Whitelist","inputs":[{"name":"implementation","type":"address","indexed":true,"internalType":"address"}],"anonymous":false},{"type":"error","name":"AlreadyBlacklisted","inputs":[]},{"type":"error","name":"AlreadyWhitelisted","inputs":[]},{"type":"error","name":"EntityNotExist","inputs":[]},{"type":"error","name":"InvalidImplementation","inputs":[]},{"type":"error","name":"InvalidVersion","inputs":[]},{"type":"error","name":"NotOwner","inputs":[]},{"type":"error","name":"OldVersion","inputs":[]},{"type":"error","name":"OwnableInvalidOwner","inputs":[{"name":"owner","type":"address","internalType":"address"}]},{"type":"error","name":"OwnableUnauthorizedAccount","inputs":[{"name":"account","type":"address","internalType":"address"}]}],"bytecode":{"object":"0x608060405234801561001057600080fd5b5060405161166138038061166183398101604081905261002f916100c2565b80806001600160a01b03811661005f57604051631e4fbdf760e01b81526000600482015260240160405180910390fd5b61006881610070565b5050506100f2565b600280546001600160a01b038381166001600160a01b0319831681179093556040519116919082907f8be0079c531659141344cd1fd0a4f28419497f9722a3daafe3b4186f6b6457e090600090a35050565b6000602082840312156100d457600080fd5b81516001600160a01b03811681146100eb57600080fd5b9392505050565b611560806101016000396000f3fe608060405234801561001057600080fd5b50600436106100cf5760003560e01c80638da5cb5b1161008c578063b572a96611610066578063b572a966146101b1578063b6caa119146101c4578063f2fde38b146101e7578063f9661602146101fa57600080fd5b80638da5cb5b1461017a5780639b19251a1461018b578063b42ba2a21461019e57600080fd5b806314887c58146100d45780633ac04911146100fc57806358336662146101275780635cd8b15e1461013c57806364dfea0614610152578063715018a614610172575b600080fd5b6100e76100e236600461099a565b61020d565b60405190151581526020015b60405180910390f35b61010f61010a366004610a14565b61022f565b6040516001600160a01b0390911681526020016100f3565b61013a610135366004610a78565b6102fa565b005b610144610521565b6040519081526020016100f3565b61015a610532565b6040516001600160401b0390911681526020016100f3565b61013a61053e565b6002546001600160a01b031661010f565b61013a61019936600461099a565b610552565b61010f6101ac366004610aa9565b61064c565b61013a6101bf366004610ac2565b610658565b6100e76101d2366004610ac2565b60036020526000908152604090205460ff1681565b61013a6101f536600461099a565b610734565b61010f610208366004610ac2565b610777565b6001600160a01b03811660009081526001602052604081205415155b92915050565b6000610239610521565b85858585604051602001610251959493929190610b08565b6040516020818303038152906040528051906020012061027086610777565b868686866040516024016102879493929190610b4d565b60408051601f198184030181529181526020820180516001600160e01b03166315fb20f360e21b179052516102bb90610978565b6102c6929190610b8b565b8190604051809103906000f59050801580156102e6573d6000803e3d6000fd5b5090506102f2816107ec565b949350505050565b836103048161082f565b846001600160a01b0316638da5cb5b6040518163ffffffff1660e01b8152600401602060405180830381865afa158015610342573d6000803e3d6000fd5b505050506040513d601f19601f820116820180604052508101906103669190610bea565b6001600160a01b0316336001600160a01b031614610397576040516330cd747160e01b815260040160405180910390fd5b846001600160a01b03166354fd4d506040518163ffffffff1660e01b8152600401602060405180830381865afa1580156103d5573d6000803e3d6000fd5b505050506040513d601f19601f820116820180604052508101906103f99190610c07565b6001600160401b0316846001600160401b03161161042a57604051630384ebd960e41b815260040160405180910390fd5b846001600160a01b0316634f1ef28661044286610777565b86868660405160240161045793929190610c24565b60408051601f198184030181529181526020820180516001600160e01b0316630557c60960e31b179052516001600160e01b031960e085901b1681526104a1929190600401610b8b565b600060405180830381600087803b1580156104bb57600080fd5b505af11580156104cf573d6000803e3d6000fd5b50506040516001600160401b03871681526001600160a01b03881692507fb91c18bf7dbfdff96560fb98128531c4c6187079fe0bd7f24a81f54ea87f35a7915060200160405180910390a25050505050565b600061052d6000610855565b905090565b600061052d6004610855565b61054661085f565b610550600061088c565b565b61055a61085f565b306001600160a01b0316816001600160a01b0316632dd310006040518163ffffffff1660e01b8152600401602060405180830381865afa1580156105a2573d6000803e3d6000fd5b505050506040513d601f19601f820116820180604052508101906105c69190610bea565b6001600160a01b0316146105ed5760405163340aafcd60e11b815260040160405180910390fd5b6105f86004826108de565b6106155760405163b73e95e160e01b815260040160405180910390fd5b6040516001600160a01b038216907feb73900b98b6a3e2b8b01708fe544760cf570d21e7fbe5225f24e48b5b2b432e90600090a250565b600061022981836108f3565b61066061085f565b806001600160401b038116158061068f575061067a610532565b6001600160401b0316816001600160401b0316115b156106ad5760405163a9146eeb60e01b815260040160405180910390fd5b6001600160401b03821660009081526003602052604090205460ff16156106e75760405163f53de75f60e01b815260040160405180910390fd5b6001600160401b038216600081815260036020526040808220805460ff19166001179055517ffc8245c2838846b295ae66fbe0d08e20c799b737c93b56f7b209df2e5fa2d4589190a25050565b61073c61085f565b6001600160a01b03811661076b57604051631e4fbdf760e01b8152600060048201526024015b60405180910390fd5b6107748161088c565b50565b6000816001600160401b03811615806107a85750610793610532565b6001600160401b0316816001600160401b0316115b156107c65760405163a9146eeb60e01b815260040160405180910390fd5b6107e56107d4600185610c50565b6004906001600160401b03166108f3565b9392505050565b6107f76000826108de565b506040516001600160a01b038216907fb919910dcefbf753bfd926ab3b1d3f85d877190c3d01ba1bd585047b99b99f0b90600090a250565b6108388161020d565b6107745760405163e3fd10ff60e01b815260040160405180910390fd5b6000610229825490565b6002546001600160a01b031633146105505760405163118cdaa760e01b8152336004820152602401610762565b600280546001600160a01b038381166001600160a01b0319831681179093556040519116919082907f8be0079c531659141344cd1fd0a4f28419497f9722a3daafe3b4186f6b6457e090600090a35050565b60006107e5836001600160a01b0384166108ff565b60006107e5838361094e565b600081815260018301602052604081205461094657508154600181810184556000848152602080822090930184905584548482528286019093526040902091909155610229565b506000610229565b600082600001828154811061096557610965610c85565b9060005260206000200154905092915050565b61088f80610c9c83390190565b6001600160a01b038116811461077457600080fd5b6000602082840312156109ac57600080fd5b81356107e581610985565b6001600160401b038116811461077457600080fd5b60008083601f8401126109de57600080fd5b5081356001600160401b038111156109f557600080fd5b602083019150836020828501011115610a0d57600080fd5b9250929050565b60008060008060608587031215610a2a57600080fd5b8435610a35816109b7565b93506020850135610a4581610985565b925060408501356001600160401b03811115610a6057600080fd5b610a6c878288016109cc565b95989497509550505050565b60008060008060608587031215610a8e57600080fd5b8435610a9981610985565b93506020850135610a45816109b7565b600060208284031215610abb57600080fd5b5035919050565b600060208284031215610ad457600080fd5b81356107e5816109b7565b81835281816020850137506000828201602090810191909152601f909101601f19169091010190565b8581526001600160401b03851660208201526001600160a01b0384166040820152608060608201819052600090610b429083018486610adf565b979650505050505050565b6001600160401b03851681526001600160a01b0384166020820152606060408201819052600090610b819083018486610adf565b9695505050505050565b60018060a01b03831681526000602060406020840152835180604085015260005b81811015610bc857858101830151858201606001528201610bac565b506000606082860101526060601f19601f830116850101925050509392505050565b600060208284031215610bfc57600080fd5b81516107e581610985565b600060208284031215610c1957600080fd5b81516107e5816109b7565b6001600160401b0384168152604060208201526000610c47604083018486610adf565b95945050505050565b6001600160401b03828116828216039080821115610c7e57634e487b7160e01b600052601160045260246000fd5b5092915050565b634e487b7160e01b600052603260045260246000fdfe60a060405234801561001057600080fd5b5060405161088f38038061088f83398101604081905261002f9161033e565b818161003b8282610059565b50503360805261005261004d60805190565b6100b8565b5050610428565b61006282610126565b6040516001600160a01b038316907fbc7cd75a20ee27fd9adebab32041f755214dbc6bffa90cc0225b39da2e5c2d3b90600090a28051156100ac576100a782826101a5565b505050565b6100b461021c565b5050565b7f7e644d79422f17c01e4894b5f4f588d331ebfa28653d42ae832dc59e38c9798f6100f860008051602061086f833981519152546001600160a01b031690565b604080516001600160a01b03928316815291841660208301520160405180910390a16101238161023d565b50565b806001600160a01b03163b60000361016157604051634c9c8ce360e01b81526001600160a01b03821660048201526024015b60405180910390fd5b807f360894a13ba1a3210667c828492db98dca3e2076cc3735a920a3ca505d382bbc5b80546001600160a01b0319166001600160a01b039290921691909117905550565b6060600080846001600160a01b0316846040516101c2919061040c565b600060405180830381855af49150503d80600081146101fd576040519150601f19603f3d011682016040523d82523d6000602084013e610202565b606091505b50909250905061021385838361027c565b95945050505050565b341561023b5760405163b398979f60e01b815260040160405180910390fd5b565b6001600160a01b03811661026757604051633173bdd160e11b815260006004820152602401610158565b8060008051602061086f833981519152610184565b6060826102915761028c826102db565b6102d4565b81511580156102a857506001600160a01b0384163b155b156102d157604051639996b31560e01b81526001600160a01b0385166004820152602401610158565b50805b9392505050565b8051156102eb5780518082602001fd5b604051630a12f52160e11b815260040160405180910390fd5b634e487b7160e01b600052604160045260246000fd5b60005b8381101561033557818101518382015260200161031d565b50506000910152565b6000806040838503121561035157600080fd5b82516001600160a01b038116811461036857600080fd5b60208401519092506001600160401b038082111561038557600080fd5b818501915085601f83011261039957600080fd5b8151818111156103ab576103ab610304565b604051601f8201601f19908116603f011681019083821181831017156103d3576103d3610304565b816040528281528860208487010111156103ec57600080fd5b6103fd83602083016020880161031a565b80955050505050509250929050565b6000825161041e81846020870161031a565b9190910192915050565b60805161042d61044260003960006065015261042d6000f3fe60806040526004361061001e5760003560e01c80634f1ef28614610028575b610026610048565b005b34801561003457600080fd5b50610026610043366004610337565b61005a565b6100586100536100e8565b610120565b565b336001600160a01b037f000000000000000000000000000000000000000000000000000000000000000016146100a3576040516334ad5dbb60e21b815260040160405180910390fd5b6100e38383838080601f01602080910402602001604051908101604052809392919081815260200183838082843760009201919091525061014492505050565b505050565b600061011b7f360894a13ba1a3210667c828492db98dca3e2076cc3735a920a3ca505d382bbc546001600160a01b031690565b905090565b3660008037600080366000845af43d6000803e80801561013f573d6000f35b3d6000fd5b61014d8261019e565b6040516001600160a01b038316907fbc7cd75a20ee27fd9adebab32041f755214dbc6bffa90cc0225b39da2e5c2d3b90600090a2805115610192576100e3828261021a565b61019a610290565b5050565b806001600160a01b03163b6000036101d957604051634c9c8ce360e01b81526001600160a01b03821660048201526024015b60405180910390fd5b7f360894a13ba1a3210667c828492db98dca3e2076cc3735a920a3ca505d382bbc80546001600160a01b0319166001600160a01b0392909216919091179055565b6060600080846001600160a01b03168460405161023791906103c8565b600060405180830381855af49150503d8060008114610272576040519150601f19603f3d011682016040523d82523d6000602084013e610277565b606091505b50915091506102878583836102af565b95945050505050565b34156100585760405163b398979f60e01b815260040160405180910390fd5b6060826102c4576102bf8261030e565b610307565b81511580156102db57506001600160a01b0384163b155b1561030457604051639996b31560e01b81526001600160a01b03851660048201526024016101d0565b50805b9392505050565b80511561031e5780518082602001fd5b604051630a12f52160e11b815260040160405180910390fd5b60008060006040848603121561034c57600080fd5b83356001600160a01b038116811461036357600080fd5b9250602084013567ffffffffffffffff8082111561038057600080fd5b818601915086601f83011261039457600080fd5b8135818111156103a357600080fd5b8760208285010111156103b557600080fd5b6020830194508093505050509250925092565b6000825160005b818110156103e957602081860181015185830152016103cf565b50600092019182525091905056fea26469706673582212206ca8631c533572543b3664831a6e6b5772fa58ccdc8820c36fd3f428da15ab7d64736f6c63430008190033b53127684a568b3173ae13b9f8a6016e243e63b6e8ee1178d6a717850b5d6103a26469706673582212206e84d1acab976c5ffcd09c5647a3d34e457b1f28903b181e727e31db9d9e89aa64736f6c63430008190033","linkReferences":{}},"methodIdentifiers":{"blacklist(uint64)":"b572a966","blacklisted(uint64)":"b6caa119","create(uint64,address,bytes)":"3ac04911","entity(uint256)":"b42ba2a2","implementation(uint64)":"f9661602","isEntity(address)":"14887c58","lastVersion()":"64dfea06","migrate(address,uint64,bytes)":"58336662","owner()":"8da5cb5b","renounceOwnership()":"715018a6","totalEntities()":"5cd8b15e","transferOwnership(address)":"f2fde38b","whitelist(address)":"9b19251a"},"id":42}