{"abi":[{"type":"constructor","inputs":[{"name":"vaultFactory","type":"address","internalType":"address"},{"name":"networkMiddlewareService","type":"address","internalType":"address"},{"name":"networkRegistry","type":"address","internalType":"address"},{"name":"slasherFactory","type":"address","internalType":"address"},{"name":"entityType","type":"uint64","internalType":"uint64"}],"stateMutability":"nonpayable"},{"type":"function","name":"BURNER_GAS_LIMIT","inputs":[],"outputs":[{"name":"","type":"uint256","internalType":"uint256"}],"stateMutability":"view"},{"type":"function","name":"BURNER_RESERVE","inputs":[],"outputs":[{"name":"","type":"uint256","internalType":"uint256"}],"stateMutability":"view"},{"type":"function","name":"FACTORY","inputs":[],"outputs":[{"name":"","type":"address","internalType":"address"}],"stateMutability":"view"},{"type":"function","name":"NETWORK_MIDDLEWARE_SERVICE","inputs":[],"outputs":[{"name":"","type":"address","internalType":"address"}],"stateMutability":"view"},{"type":"function","name":"NETWORK_REGISTRY","inputs":[],"outputs":[{"name":"","type":"address","internalType":"address"}],"stateMutability":"view"},{"type":"function","name":"TYPE","inputs":[],"outputs":[{"name":"","type":"uint64","internalType":"uint64"}],"stateMutability":"view"},{"type":"function","name":"VAULT_FACTORY","inputs":[],"outputs":[{"name":"","type":"address","internalType":"address"}],"stateMutability":"view"},{"type":"function","name":"cumulativeSlash","inputs":[{"name":"subnetwork","type":"bytes32","internalType":"bytes32"},{"name":"operator","type":"address","internalType":"address"}],"outputs":[{"name":"","type":"uint256","internalType":"uint256"}],"stateMutability":"view"},{"type":"function","name":"cumulativeSlashAt","inputs":[{"name":"subnetwork","type":"bytes32","internalType":"bytes32"},{"name":"operator","type":"address","internalType":"address"},{"name":"timestamp","type":"uint48","internalType":"uint48"},{"name":"hint","type":"bytes","internalType":"bytes"}],"outputs":[{"name":"","type":"uint256","internalType":"uint256"}],"stateMutability":"view"},{"type":"function","name":"executeSlash","inputs":[{"name":"slashIndex","type":"uint256","internalType":"uint256"},{"name":"hints","type":"bytes","internalType":"bytes"}],"outputs":[{"name":"slashedAmount","type":"uint256","internalType":"uint256"}],"stateMutability":"nonpayable"},{"type":"function","name":"initialize","inputs":[{"name":"data","type":"bytes","internalType":"bytes"}],"outputs":[],"stateMutability":"nonpayable"},{"type":"function","name":"isBurnerHook","inputs":[],"outputs":[{"name":"","type":"bool","internalType":"bool"}],"stateMutability":"view"},{"type":"function","name":"latestSlashedCaptureTimestamp","inputs":[{"name":"subnetwork","type":"bytes32","internalType":"bytes32"},{"name":"operator","type":"address","internalType":"address"}],"outputs":[{"name":"value","type":"uint48","internalType":"uint48"}],"stateMutability":"view"},{"type":"function","name":"requestSlash","inputs":[{"name":"subnetwork","type":"bytes32","internalType":"bytes32"},{"name":"operator","type":"address","internalType":"address"},{"name":"amount","type":"uint256","internalType":"uint256"},{"name":"captureTimestamp","type":"uint48","internalType":"uint48"},{"name":"hints","type":"bytes","internalType":"bytes"}],"outputs":[{"name":"slashIndex","type":"uint256","internalType":"uint256"}],"stateMutability":"nonpayable"},{"type":"function","name":"resolver","inputs":[{"name":"subnetwork","type":"bytes32","internalType":"bytes32"},{"name":"hint","type":"bytes","internalType":"bytes"}],"outputs":[{"name":"","type":"address","internalType":"address"}],"stateMutability":"view"},{"type":"function","name":"resolverAt","inputs":[{"name":"subnetwork","type":"bytes32","internalType":"bytes32"},{"name":"timestamp","type":"uint48","internalType":"uint48"},{"name":"hint","type":"bytes","internalType":"bytes"}],"outputs":[{"name":"","type":"address","internalType":"address"}],"stateMutability":"view"},{"type":"function","name":"resolverSetEpochsDelay","inputs":[],"outputs":[{"name":"","type":"uint256","internalType":"uint256"}],"stateMutability":"view"},{"type":"function","name":"setResolver","inputs":[{"name":"identifier","type":"uint96","internalType":"uint96"},{"name":"resolver_","type":"address","internalType":"address"},{"name":"hints","type":"bytes","internalType":"bytes"}],"outputs":[],"stateMutability":"nonpayable"},{"type":"function","name":"slashRequests","inputs":[{"name":"","type":"uint256","internalType":"uint256"}],"outputs":[{"name":"subnetwork","type":"bytes32","internalType":"bytes32"},{"name":"operator","type":"address","internalType":"address"},{"name":"amount","type":"uint256","internalType":"uint256"},{"name":"captureTimestamp","type":"uint48","internalType":"uint48"},{"name":"vetoDeadline","type":"uint48","internalType":"uint48"},{"name":"completed","type":"bool","internalType":"bool"}],"stateMutability":"view"},{"type":"function","name":"slashRequestsLength","inputs":[],"outputs":[{"name":"","type":"uint256","internalType":"uint256"}],"stateMutability":"view"},{"type":"function","name":"slashableStake","inputs":[{"name":"subnetwork","type":"bytes32","internalType":"bytes32"},{"name":"operator","type":"address","internalType":"address"},{"name":"captureTimestamp","type":"uint48","internalType":"uint48"},{"name":"hints","type":"bytes","internalType":"bytes"}],"outputs":[{"name":"amount","type":"uint256","internalType":"uint256"}],"stateMutability":"view"},{"type":"function","name":"staticDelegateCall","inputs":[{"name":"target","type":"address","internalType":"address"},{"name":"data","type":"bytes","internalType":"bytes"}],"outputs":[],"stateMutability":"nonpayable"},{"type":"function","name":"vault","inputs":[],"outputs":[{"name":"","type":"address","internalType":"address"}],"stateMutability":"view"},{"type":"function","name":"vetoDuration","inputs":[],"outputs":[{"name":"","type":"uint48","internalType":"uint48"}],"stateMutability":"view"},{"type":"function","name":"vetoSlash","inputs":[{"name":"slashIndex","type":"uint256","internalType":"uint256"},{"name":"hints","type":"bytes","internalType":"bytes"}],"outputs":[],"stateMutability":"nonpayable"},{"type":"event","name":"ExecuteSlash","inputs":[{"name":"slashIndex","type":"uint256","indexed":true,"internalType":"uint256"},{"name":"slashedAmount","type":"uint256","indexed":false,"internalType":"uint256"}],"anonymous":false},{"type":"event","name":"Initialized","inputs":[{"name":"version","type":"uint64","indexed":false,"internalType":"uint64"}],"anonymous":false},{"type":"event","name":"RequestSlash","inputs":[{"name":"slashIndex","type":"uint256","indexed":true,"internalType":"uint256"},{"name":"subnetwork","type":"bytes32","indexed":true,"internalType":"bytes32"},{"name":"operator","type":"address","indexed":true,"internalType":"address"},{"name":"slashAmount","type":"uint256","indexed":false,"internalType":"uint256"},{"name":"captureTimestamp","type":"uint48","indexed":false,"internalType":"uint48"},{"name":"vetoDeadline","type":"uint48","indexed":false,"internalType":"uint48"}],"anonymous":false},{"type":"event","name":"SetResolver","inputs":[{"name":"subnetwork","type":"bytes32","indexed":true,"internalType":"bytes32"},{"name":"resolver","type":"address","indexed":false,"internalType":"address"}],"anonymous":false},{"type":"event","name":"VetoSlash","inputs":[{"name":"slashIndex","type":"uint256","indexed":true,"internalType":"uint256"},{"name":"resolver","type":"address","indexed":true,"internalType":"address"}],"anonymous":false},{"type":"error","name":"AlreadySet","inputs":[]},{"type":"error","name":"CheckpointUnorderedInsertion","inputs":[]},{"type":"error","name":"InsufficientBurnerGas","inputs":[]},{"type":"error","name":"InsufficientSlash","inputs":[]},{"type":"error","name":"InvalidCaptureTimestamp","inputs":[]},{"type":"error","name":"InvalidInitialization","inputs":[]},{"type":"error","name":"InvalidResolverSetEpochsDelay","inputs":[]},{"type":"error","name":"InvalidVetoDuration","inputs":[]},{"type":"error","name":"NoBurner","inputs":[]},{"type":"error","name":"NoResolver","inputs":[]},{"type":"error","name":"NotInitialized","inputs":[]},{"type":"error","name":"NotInitializing","inputs":[]},{"type":"error","name":"NotNetwork","inputs":[]},{"type":"error","name":"NotNetworkMiddleware","inputs":[]},{"type":"error","name":"NotResolver","inputs":[]},{"type":"error","name":"NotVault","inputs":[]},{"type":"error","name":"ReentrancyGuardReentrantCall","inputs":[]},{"type":"error","name":"SafeCastOverflowedUintDowncast","inputs":[{"name":"bits","type":"uint8","internalType":"uint8"},{"name":"value","type":"uint256","internalType":"uint256"}]},{"type":"error","name":"SlashPeriodEnded","inputs":[]},{"type":"error","name":"SlashRequestCompleted","inputs":[]},{"type":"error","name":"SlashRequestNotExist","inputs":[]},{"type":"error","name":"VetoPeriodEnded","inputs":[]},{"type":"error","name":"VetoPeriodNotEnded","inputs":[]}],"bytecode":{"object":"0x61012060405234801561001157600080fd5b506040516135d63803806135d683398101604081905261003091610145565b84848383818161003e610077565b6001600160a01b039182166080526001600160401b031660a05293841660c0525050811660e0529290921661010052506101bb92505050565b7ff0c57e16840df040f15088dc2f81fe391c3923bec73e23a9662efc9c229c6a00805468010000000000000000900460ff16156100c75760405163f92ee8a960e01b815260040160405180910390fd5b80546001600160401b03908116146101265780546001600160401b0319166001600160401b0390811782556040519081527fc7f505b2f371ae2175ee4913f4499e1f2633a7b5936321eed1cdaeb6115181d29060200160405180910390a15b50565b80516001600160a01b038116811461014057600080fd5b919050565b600080600080600060a0868803121561015d57600080fd5b61016686610129565b945061017460208701610129565b935061018260408701610129565b925061019060608701610129565b60808701519092506001600160401b03811681146101ad57600080fd5b809150509295509295909350565b60805160a05160c05160e051610100516133bb61021b600039600081816103e6015261094201526000818161023501526116f601526000818161017d015261154001526000818161039e0152611d5e0152600061025c01526133bb6000f3fe608060405234801561001057600080fd5b50600436106101735760003560e01c80639a896551116100de578063bc6eac5b11610097578063d5c24e1a11610071578063d5c24e1a1461041b578063e054e08b14610425578063f9268d1814610437578063fbfa77cf1461044a57600080fd5b8063bc6eac5b146103d8578063c0cd7c3e146103e1578063cd05b8a11461040857600080fd5b80639a896551146102f85780639f86fd851461034d578063aa8e648914610360578063aab3595f14610373578063b94c386e14610386578063bb24fe8a1461039957600080fd5b806331ce4dfe1161013057806331ce4dfe1461027e57806334d098ea14610291578063439fab91146102b5578063545ce389146102ca5780638f42f9ab146102dd5780639168f9d2146102e557600080fd5b8063103f2907146101785780631a2be2c4146101bc578063267de1f3146101dd5780632964f8dc146102275780632c9d45b3146102305780632dd3100014610257575b600080fd5b61019f7f000000000000000000000000000000000000000000000000000000000000000081565b6040516001600160a01b0390911681526020015b60405180910390f35b6101cf6101ca3660046128ca565b61045d565b6040519081526020016101b3565b6102106101eb3660046128ca565b600160209081526000928352604080842090915290825290205465ffffffffffff1681565b60405165ffffffffffff90911681526020016101b3565b6101cf614e2081565b61019f7f000000000000000000000000000000000000000000000000000000000000000081565b61019f7f000000000000000000000000000000000000000000000000000000000000000081565b61019f61028c366004612a3d565b610491565b6000546102a590600160a01b900460ff1681565b60405190151581526020016101b3565b6102c86102c3366004612add565b6104b4565b005b6101cf6102d8366004612b1e565b6105c4565b6003546101cf565b6102c86102f3366004612b99565b610901565b61030b610306366004612c0e565b610c8d565b604080519687526001600160a01b0390951660208701529385019290925265ffffffffffff9081166060850152166080830152151560a082015260c0016101b3565b6102c861035b366004612c27565b610cf0565b6101cf61036e366004612c7b565b610d80565b6101cf610381366004612c7b565b610db6565b6101cf610394366004612ce6565b610dce565b6103c07f000000000000000000000000000000000000000000000000000000000000000081565b6040516001600160401b0390911681526020016101b3565b6101cf60055481565b61019f7f000000000000000000000000000000000000000000000000000000000000000081565b61019f610416366004612d18565b6111cb565b6101cf620249f081565b6004546102109065ffffffffffff1681565b6102c8610445366004612ce6565b6111df565b60005461019f906001600160a01b031681565b60008281526002602090815260408083206001600160a01b03851684529091528120610488906113cf565b90505b92915050565b60008381526006602052604081206104aa908484611425565b90505b9392505050565b7ff0c57e16840df040f15088dc2f81fe391c3923bec73e23a9662efc9c229c6a008054600160401b810460ff1615906001600160401b03166000811580156104f95750825b90506000826001600160401b031660011480156105155750303b155b905081158015610523575080155b156105415760405163f92ee8a960e01b815260040160405180910390fd5b845467ffffffffffffffff19166001178555831561056b57845460ff60401b1916600160401b1785555b610575878761150c565b83156105bb57845460ff60401b19168555604051600181527fc7f505b2f371ae2175ee4913f4499e1f2633a7b5936321eed1cdaeb6115181d29060200160405180910390a15b50505050505050565b60006105ce6116bb565b866105d8816116f3565b60408051602081019091526060815283156105fc576105f984860186612da5565b90505b60008054906101000a90046001600160a01b03166001600160a01b0316634ff0876a6040518163ffffffff1660e01b8152600401602060405180830381865afa15801561064d573d6000803e3d6000fd5b505050506040513d601f19601f820116820180604052508101906106719190612dd9565b60045465ffffffffffff166106846117bf565b61068e9190612e0c565b6106989190612e32565b65ffffffffffff168665ffffffffffff1610806106cc57506106b86117bf565b65ffffffffffff168665ffffffffffff1610155b156106ea57604051631357ac9160e11b815260040160405180910390fd5b610703876106fe8b8b8a8660000151610db6565b6117cf565b9650866000036107265760405163167f871760e31b815260040160405180910390fd5b60045460009065ffffffffffff1661073c6117bf565b6107469190612e0c565b9050600380549050935060036040518060c001604052808c81526020018b6001600160a01b031681526020018a81526020018965ffffffffffff1681526020018365ffffffffffff1681526020016000151581525090806001815401808255809150506001900390600052602060002090600402016000909190919091506000820151816000015560208201518160010160006101000a8154816001600160a01b0302191690836001600160a01b031602179055506040820151816002015560608201518160030160006101000a81548165ffffffffffff021916908365ffffffffffff16021790555060808201518160030160066101000a81548165ffffffffffff021916908365ffffffffffff16021790555060a082015181600301600c6101000a81548160ff0219169083151502179055505050886001600160a01b03168a857f3cb7f4ff6cecf74cee0eb9ae3ebf8933fa60a53014cce52f96da72a78dba84648b8b866040516108d59392919092835265ffffffffffff918216602084015216604082015260600190565b60405180910390a45050506108f7600160008051602061336683398151915255565b9695505050505050565b6109096116bb565b604080516020810190915260608152811561092d5761092a82840184612da5565b90505b6040516302910f8b60e31b81523360048201527f00000000000000000000000000000000000000000000000000000000000000006001600160a01b0316906314887c5890602401602060405180830381865afa158015610991573d6000803e3d6000fd5b505050506040513d601f19601f820116820180604052508101906109b59190612e66565b6109d2576040516323d53b9760e21b815260040160405180910390fd5b600080546bffffffffffffffffffffffff87163360601b6bffffffffffffffffffffffff1916178083526006602052604083206001600160a01b039092169290918190610a1e906117f9565b50915091508115610bf857610a316117bf565b65ffffffffffff168165ffffffffffff161115610a65576000838152600660205260409020610a5f90611814565b50610aad565b6000838152600660205260409020610a7c90611850565b6001600160a01b0316886001600160a01b031603610aad5760405163a741a04560e01b815260040160405180910390fd5b6000838152600660205260409020610ac490611850565b6001600160a01b0316886001600160a01b031614610bf357610bf0610bd2856001600160a01b0316634ff0876a6040518163ffffffff1660e01b8152600401602060405180830381865afa158015610b20573d6000803e3d6000fd5b505050506040513d601f19601f82011682018060405250810190610b449190612dd9565b65ffffffffffff16600554610b599190612e81565b866001600160a01b03166361a8c8c46040518163ffffffff1660e01b8152600401602060405180830381865afa158015610b97573d6000803e3d6000fd5b505050506040513d601f19601f82011682018060405250810190610bbb9190612dd9565b65ffffffffffff16610bcd9190612e98565b61185b565b6000858152600660205260409020906001600160a01b038b16611896565b50505b610c2d565b6001600160a01b038816610c1f5760405163a741a04560e01b815260040160405180910390fd5b610c2a610bd26117bf565b50505b6040516001600160a01b038916815283907f7b0b759b513b299fd2811f51926dca8854222a675557e8d544ce0933bf5b75709060200160405180910390a25050505050610c87600160008051602061336683398151915255565b50505050565b60038181548110610c9d57600080fd5b600091825260209091206004909102018054600182015460028301546003909301549193506001600160a01b0316919065ffffffffffff80821691600160301b810490911690600160601b900460ff1686565b600080846001600160a01b03168484604051610d0d929190612eab565b600060405180830381855af49150503d8060008114610d48576040519150601f19603f3d011682016040523d82523d6000602084013e610d4d565b606091505b509150915060008282604051602001610d67929190612f0b565b6040516020818303038152906040529050805181602001fd5b60008481526002602090815260408083206001600160a01b03871684529091528120610dad9084846118b1565b95945050505050565b6000610dc485858585611991565b5095945050505050565b6000610dd86116bb565b610dfc60405180606001604052806060815260200160608152602001606081525090565b8215610e1157610e0e83850185612f26565b90505b6003548510610e3357604051637822972360e11b815260040160405180910390fd5b600060038681548110610e4857610e48612fda565b90600052602060002090600402019050610e6581600001546116f3565b805460038201548351600092610e8792909165ffffffffffff90911690610491565b6001600160a01b031614158015610ecc57508054600090610ec0906001610eac6117bf565b610eb69190612e32565b8560200151610491565b6001600160a01b031614155b8015610ef75750610edb6117bf565b600382015465ffffffffffff918216600160301b909104909116115b15610f155760405163b62b15c760e01b815260040160405180910390fd5b60008054906101000a90046001600160a01b03166001600160a01b0316634ff0876a6040518163ffffffff1660e01b8152600401602060405180830381865afa158015610f66573d6000803e3d6000fd5b505050506040513d601f19601f82011682018060405250810190610f8a9190612dd9565b600382015465ffffffffffff9182169116610fa36117bf565b610fad9190612e32565b65ffffffffffff161115610fd457604051639ea153eb60e01b815260040160405180910390fd5b8054600182015460038301546040850151600093849361100a9391926001600160a01b039091169165ffffffffffff1690611991565b9150915061101c8360020154836117cf565b94508460000361103f5760405163167f871760e31b815260040160405180910390fd5b6003830154600160601b900460ff161561106c57604051633428e90760e01b815260040160405180910390fd5b60038301805460ff60601b198116600160601b17909155835460018501546110a7926001600160a01b039091169065ffffffffffff16611c05565b825460018401546110c291906001600160a01b031687611c7a565b825460018401546003850154604080516060808201835287825260208083018881529284018f815284519182018a905292519381019390935290519082015261113493926001600160a01b031691899165ffffffffffff90911690608001604051602081830303815290604052611cca565b600383015461114c90869065ffffffffffff16611e07565b82546001840154600385015461117692916001600160a01b031690889065ffffffffffff16611e84565b877f5cc28df3b54da9d06f805d87616ebf969c81310f2aa8369cb14ca50f815d4111866040516111a891815260200190565b60405180910390a2505050506104ad600160008051602061336683398151915255565b6000610488836111d96117bf565b84610491565b6111e76116bb565b604080518082019091526060808252602082015281156112105761120d82840184612ff0565b90505b600354841061123257604051637822972360e11b815260040160405180910390fd5b60006003858154811061124757611247612fda565b6000918252602082206004909102018054600382015485519294506112769265ffffffffffff90911690610491565b90506001600160a01b03811615806112bb575081546000906112b090600161129c6117bf565b6112a69190612e32565b8660200151610491565b6001600160a01b0316145b156112d95760405163dd1ebd9d60e01b815260040160405180910390fd5b336001600160a01b0382161461130257604051635d154fe160e11b815260040160405180910390fd5b61130a6117bf565b600383015465ffffffffffff918216600160301b909104909116116113415760405162c457e560e81b815260040160405180910390fd5b6003820154600160601b900460ff161561136e57604051633428e90760e01b815260040160405180910390fd5b60038201805460ff60601b1916600160601b179055604051339087907f7d3d269c851b72257a5194a401d151902e9be4347d555996dcff3ff86a077e9290600090a35050506113ca600160008051602061336683398151915255565b505050565b6000806113db83611fd3565b90506000816001600160d01b0316116113f55760006104ad565b82600101816001600160d01b03168154811061141357611413612fda565b90600052602060002001549392505050565b600081516000036114415761143a848461201a565b90506104ad565b6000828060200190518101906114579190613080565b905060006114658683612026565b90508465ffffffffffff16816000015165ffffffffffff160361148f576020015191506104ad9050565b805165ffffffffffff80871691161080156114f0575060016114b08761207a565b6114ba91906130a6565b8263ffffffff1614806114f0575065ffffffffffff85166114e5876114e08560016130b9565b612026565b5165ffffffffffff16115b15611502576020015191506104ad9050565b6108f7868661201a565b60008061151b838501856130d6565b6040516302910f8b60e31b81526001600160a01b0380841660048301529294509092507f0000000000000000000000000000000000000000000000000000000000000000909116906314887c5890602401602060405180830381865afa158015611589573d6000803e3d6000fd5b505050506040513d601f19601f820116820180604052508101906115ad9190612e66565b6115ca576040516362df054560e01b815260040160405180910390fd5b6115d2612084565b600080546001600160a01b0319166001600160a01b0384161781556115f78383612096565b905060006001600160a01b0316836001600160a01b03166327810b6e6040518163ffffffff1660e01b8152600401602060405180830381865afa158015611642573d6000803e3d6000fd5b505050506040513d601f19601f82011682018060405250810190611666919061310f565b6001600160a01b031614801561167a575080515b156116985760405163d2420f5960e01b815260040160405180910390fd5b5160008054911515600160a01b0260ff60a01b1990921691909117905550505050565b6000805160206133668339815191528054600119016116ed57604051633ee5aeb560e01b815260040160405180910390fd5b60029055565b337f00000000000000000000000000000000000000000000000000000000000000006001600160a01b031663bb5ed03261172d8460601c90565b6040516001600160e01b031960e084901b1681526001600160a01b039091166004820152602401602060405180830381865afa158015611771573d6000803e3d6000fd5b505050506040513d601f19601f82011682018060405250810190611795919061310f565b6001600160a01b0316146117bc5760405163227bf64d60e01b815260040160405180910390fd5b50565b60006117ca4261185b565b905090565b60008183106117de5781610488565b5090919050565b600160008051602061336683398151915255565b60008080611806846121b0565b9250925092505b9193909250565b600061181f82611fd3565b82549091508290806118335761183361312c565b600082815260208120820160001990810191909155019055919050565b600061048b82611fd3565b600065ffffffffffff821115611892576040516306dfcc6560e41b8152603060048201526024810183905260440160405180910390fd5b5090565b6000806118a4858585612223565b915091505b935093915050565b600081516000036118c65761143a8484612231565b6000828060200190518101906118dc9190613080565b905060006118ea868361228a565b90508465ffffffffffff16816000015165ffffffffffff1603611914576020015191506104ad9050565b805165ffffffffffff8087169116108015611975575060016119358761207a565b61193f91906130a6565b8263ffffffff161480611975575065ffffffffffff851661196a876119658560016130b9565b61228a565b5165ffffffffffff16115b15611987576020015191506104ad9050565b6108f78686612231565b6000806119b1604051806040016040528060608152602001606081525090565b8351156119cf57838060200190518101906119cc9190613187565b90505b60008054906101000a90046001600160a01b03166001600160a01b0316634ff0876a6040518163ffffffff1660e01b8152600401602060405180830381865afa158015611a20573d6000803e3d6000fd5b505050506040513d601f19601f82011682018060405250810190611a449190612dd9565b611a4c6117bf565b611a569190612e32565b65ffffffffffff168565ffffffffffff161080611a8a5750611a766117bf565b65ffffffffffff168565ffffffffffff1610155b80611ac2575060008781526001602090815260408083206001600160a01b038a16845290915290205465ffffffffffff908116908616105b15611ad4576000809250925050611bfc565b60008054906101000a90046001600160a01b03166001600160a01b031663ce9b79306040518163ffffffff1660e01b8152600401602060405180830381865afa158015611b25573d6000803e3d6000fd5b505050506040513d601f19601f82011682018060405250810190611b49919061310f565b815160405163e02f693760e01b81526001600160a01b03929092169163e02f693791611b7e918b918b918b9190600401613208565b602060405180830381865afa158015611b9b573d6000803e3d6000fd5b505050506040513d601f19601f82011682018060405250810190611bbf9190613240565b9150611bee611bd48888888560200151610d80565b611bde898961045d565b611be891906130a6565b836117cf565b611bf890836130a6565b9250505b94509492505050565b60008381526001602090815260408083206001600160a01b038616845290915290205465ffffffffffff808316911610156113ca5760008381526001602090815260408083206001600160a01b03861684529091529020805465ffffffffffff831665ffffffffffff19909116179055505050565b611cc3611c856117bf565b82611c90868661045d565b611c9a9190612e98565b60008681526002602090815260408083206001600160a01b038916845290915290209190612302565b5050505050565b60008054906101000a90046001600160a01b03166001600160a01b031663ce9b79306040518163ffffffff1660e01b8152600401602060405180830381865afa158015611d1b573d6000803e3d6000fd5b505050506040513d601f19601f82011682018060405250810190611d3f919061310f565b6001600160a01b031663e49561ee8686868660405180604001604052807f00000000000000000000000000000000000000000000000000000000000000006001600160401b0316815260200188815250604051602001611d9f9190613259565b6040516020818303038152906040526040518663ffffffff1660e01b8152600401611dce959493929190613287565b600060405180830381600087803b158015611de857600080fd5b505af1158015611dfc573d6000803e3d6000fd5b505050505050505050565b600054604051631c9e38c760e21b81526004810184905265ffffffffffff831660248201526001600160a01b0390911690637278e31c906044016020604051808303816000875af1158015611e60573d6000803e3d6000fd5b505050506040513d601f19601f820116820180604052508101906113ca9190613240565b600054600160a01b900460ff1615610c875760008060009054906101000a90046001600160a01b03166001600160a01b03166327810b6e6040518163ffffffff1660e01b8152600401602060405180830381865afa158015611eea573d6000803e3d6000fd5b505050506040513d601f19601f82011682018060405250810190611f0e919061310f565b604051602481018790526001600160a01b03861660448201526064810185905265ffffffffffff8416608482015290915060009060a40160408051601f198184030181529181526020820180516001600160e01b031663065c1e0360e01b179052909150603f90611f8390620249f090612e81565b611f8d91906132d8565b611f9990614e20612e98565b5a1015611fb957604051632153f33560e21b815260040160405180910390fd5b600080825160208401600086620249f0f150505050505050565b8054600090801561201157611ffb83611fed6001846130a6565b600091825260209091200190565b54600160301b90046001600160d01b03166104ad565b60009392505050565b600061048883836123d9565b604080518082019091526000808252602082015260006120468484612481565b60408051808201909152815165ffffffffffff1681526020918201516001600160d01b031691810191909152949350505050565b600061048b825490565b61208c6124f1565b61209461253a565b565b6040805160208101909152600081526000828060200190518101906120bb91906132fa565b90506000846001600160a01b0316634ff0876a6040518163ffffffff1660e01b8152600401602060405180830381865afa1580156120fd573d6000803e3d6000fd5b505050506040513d601f19601f820116820180604052508101906121219190612dd9565b90508065ffffffffffff16826020015165ffffffffffff1610612157576040516367d5e3df60e11b815260040160405180910390fd5b60038260400151101561217d576040516354f778f360e01b815260040160405180910390fd5b5060208101516004805465ffffffffffff191665ffffffffffff9092169190911790556040810151600555519392505050565b8054600090819081908082036121d15760008060009350935093505061180d565b60006121e286611fed6001856130a6565b60408051808201909152905465ffffffffffff8116808352600160301b9091046001600160d01b03166020909201829052600196509450925061180d915050565b6000806118a4858585612542565b60008061223e84846123d9565b90506000816001600160d01b031611612258576000612282565b83600101816001600160d01b03168154811061227657612276612fda565b90600052602060002001545b949350505050565b604080518082019091526000808252602082015260006122aa8484612481565b90506040518060400160405280826000015165ffffffffffff1681526020018560010183602001516001600160d01b0316815481106122eb576122eb612fda565b906000526020600020015481525091505092915050565b60018301546000908190810361232c57600180860180549182018155600090815260208120909101555b600080612338876121b0565b5060018901549193509150600061234e896113cf565b905083801561236c57508265ffffffffffff168865ffffffffffff16145b156123a457868960010160018461238391906130a6565b8154811061239357612393612fda565b6000918252602090912001556123cb565b6123af898984612223565b50506001808a0180549182018155600090815260209020018790555b989597509495505050505050565b8154600090818160058111156124385760006123f4846126bc565b6123fe90856130a6565b60008881526020902090915081015465ffffffffffff908116908716101561242857809150612436565b612433816001612e98565b92505b505b6000612446878785856127a4565b905080156124735761245d87611fed6001846130a6565b54600160301b90046001600160d01b0316612476565b60005b979650505050505050565b6040805180820190915260008082526020820152826000018263ffffffff16815481106124b0576124b0612fda565b60009182526020918290206040805180820190915291015465ffffffffffff81168252600160301b90046001600160d01b0316918101919091529392505050565b7ff0c57e16840df040f15088dc2f81fe391c3923bec73e23a9662efc9c229c6a0054600160401b900460ff1661209457604051631afcd79f60e31b815260040160405180910390fd5b6117e56124f1565b82546000908190801561266157600061256087611fed6001856130a6565b60408051808201909152905465ffffffffffff808216808452600160301b9092046001600160d01b0316602084015291925090871610156125b457604051632520601d60e01b815260040160405180910390fd5b805165ffffffffffff80881691160361260057846125d788611fed6001866130a6565b80546001600160d01b0392909216600160301b0265ffffffffffff909216919091179055612651565b6040805180820190915265ffffffffffff80881682526001600160d01b0380881660208085019182528b54600181018d5560008d81529190912094519151909216600160301b029216919091179101555b6020015192508391506118a99050565b50506040805180820190915265ffffffffffff80851682526001600160d01b0380851660208085019182528854600181018a5560008a815291822095519251909316600160301b0291909316179201919091559050816118a9565b6000816000036126ce57506000919050565b600060016126db84612806565b901c6001901b905060018184816126f4576126f46132c2565b048201901c9050600181848161270c5761270c6132c2565b048201901c90506001818481612724576127246132c2565b048201901c9050600181848161273c5761273c6132c2565b048201901c90506001818481612754576127546132c2565b048201901c9050600181848161276c5761276c6132c2565b048201901c90506001818481612784576127846132c2565b048201901c90506104ad8182858161279e5761279e6132c2565b046117cf565b60005b818310156127fe5760006127bb848461289a565b60008781526020902090915065ffffffffffff86169082015465ffffffffffff1611156127ea578092506127f8565b6127f5816001612e98565b93505b506127a7565b509392505050565b600080608083901c1561281b57608092831c92015b604083901c1561282d57604092831c92015b602083901c1561283f57602092831c92015b601083901c1561285157601092831c92015b600883901c1561286357600892831c92015b600483901c1561287557600492831c92015b600283901c1561288757600292831c92015b600183901c1561048b5760010192915050565b60006128a960028484186132d8565b61048890848416612e98565b6001600160a01b03811681146117bc57600080fd5b600080604083850312156128dd57600080fd5b8235915060208301356128ef816128b5565b809150509250929050565b65ffffffffffff811681146117bc57600080fd5b634e487b7160e01b600052604160045260246000fd5b604051602081016001600160401b03811182821017156129465761294661290e565b60405290565b604051606081016001600160401b03811182821017156129465761294661290e565b604080519081016001600160401b03811182821017156129465761294661290e565b604051601f8201601f191681016001600160401b03811182821017156129b8576129b861290e565b604052919050565b60006001600160401b038211156129d9576129d961290e565b50601f01601f191660200190565b600082601f8301126129f857600080fd5b8135612a0b612a06826129c0565b612990565b818152846020838601011115612a2057600080fd5b816020850160208301376000918101602001919091529392505050565b600080600060608486031215612a5257600080fd5b833592506020840135612a64816128fa565b915060408401356001600160401b03811115612a7f57600080fd5b612a8b868287016129e7565b9150509250925092565b60008083601f840112612aa757600080fd5b5081356001600160401b03811115612abe57600080fd5b602083019150836020828501011115612ad657600080fd5b9250929050565b60008060208385031215612af057600080fd5b82356001600160401b03811115612b0657600080fd5b612b1285828601612a95565b90969095509350505050565b60008060008060008060a08789031215612b3757600080fd5b863595506020870135612b49816128b5565b9450604087013593506060870135612b60816128fa565b925060808701356001600160401b03811115612b7b57600080fd5b612b8789828a01612a95565b979a9699509497509295939492505050565b60008060008060608587031215612baf57600080fd5b84356bffffffffffffffffffffffff81168114612bcb57600080fd5b93506020850135612bdb816128b5565b925060408501356001600160401b03811115612bf657600080fd5b612c0287828801612a95565b95989497509550505050565b600060208284031215612c2057600080fd5b5035919050565b600080600060408486031215612c3c57600080fd5b8335612c47816128b5565b925060208401356001600160401b03811115612c6257600080fd5b612c6e86828701612a95565b9497909650939450505050565b60008060008060808587031215612c9157600080fd5b843593506020850135612ca3816128b5565b92506040850135612cb3816128fa565b915060608501356001600160401b03811115612cce57600080fd5b612cda878288016129e7565b91505092959194509250565b600080600060408486031215612cfb57600080fd5b8335925060208401356001600160401b03811115612c6257600080fd5b60008060408385031215612d2b57600080fd5b8235915060208301356001600160401b03811115612d4857600080fd5b612d54858286016129e7565b9150509250929050565b600060208284031215612d7057600080fd5b612d78612924565b905081356001600160401b03811115612d9057600080fd5b612d9c848285016129e7565b82525092915050565b600060208284031215612db757600080fd5b81356001600160401b03811115612dcd57600080fd5b61228284828501612d5e565b600060208284031215612deb57600080fd5b81516104ad816128fa565b634e487b7160e01b600052601160045260246000fd5b65ffffffffffff818116838216019080821115612e2b57612e2b612df6565b5092915050565b65ffffffffffff828116828216039080821115612e2b57612e2b612df6565b80518015158114612e6157600080fd5b919050565b600060208284031215612e7857600080fd5b61048882612e51565b808202811582820484141761048b5761048b612df6565b8082018082111561048b5761048b612df6565b8183823760009101908152919050565b60005b83811015612ed6578181015183820152602001612ebe565b50506000910152565b60008151808452612ef7816020860160208601612ebb565b601f01601f19169290920160200192915050565b82151581526040602082015260006104aa6040830184612edf565b600060208284031215612f3857600080fd5b81356001600160401b0380821115612f4f57600080fd5b9083019060608286031215612f6357600080fd5b612f6b61294c565b823582811115612f7a57600080fd5b612f86878286016129e7565b825250602083013582811115612f9b57600080fd5b612fa7878286016129e7565b602083015250604083013582811115612fbf57600080fd5b612fcb878286016129e7565b60408301525095945050505050565b634e487b7160e01b600052603260045260246000fd5b60006020828403121561300257600080fd5b81356001600160401b038082111561301957600080fd5b908301906040828603121561302d57600080fd5b61303561296e565b82358281111561304457600080fd5b613050878286016129e7565b82525060208301358281111561306557600080fd5b613071878286016129e7565b60208301525095945050505050565b60006020828403121561309257600080fd5b815163ffffffff811681146104ad57600080fd5b8181038181111561048b5761048b612df6565b63ffffffff818116838216019080821115612e2b57612e2b612df6565b600080604083850312156130e957600080fd5b82356130f4816128b5565b915060208301356001600160401b03811115612d4857600080fd5b60006020828403121561312157600080fd5b81516104ad816128b5565b634e487b7160e01b600052603160045260246000fd5b600082601f83011261315357600080fd5b8151613161612a06826129c0565b81815284602083860101111561317657600080fd5b612282826020830160208701612ebb565b60006020828403121561319957600080fd5b81516001600160401b03808211156131b057600080fd5b90830190604082860312156131c457600080fd5b6131cc61296e565b8251828111156131db57600080fd5b6131e787828601613142565b8252506020830151828111156131fc57600080fd5b61307187828601613142565b8481526001600160a01b038416602082015265ffffffffffff831660408201526080606082018190526000906108f790830184612edf565b60006020828403121561325257600080fd5b5051919050565b602081526001600160401b038251166020820152600060208301516040808401526122826060840182612edf565b85815260018060a01b038516602082015283604082015265ffffffffffff8316606082015260a06080820152600061247660a0830184612edf565b634e487b7160e01b600052601260045260246000fd5b6000826132f557634e487b7160e01b600052601260045260246000fd5b500490565b6000818303606081121561330d57600080fd5b61331561294c565b602082121561332357600080fd5b61332b612924565b915061333684612e51565b825290815260208301519061334a826128fa565b8160208201526040840151604082015280925050509291505056fe9b779b17422d0df92223018b32b4d1fa46e071723d6817e2486d003becc55f00a2646970667358221220157d4104f13a887f89ac8235079210ecfe4c981445b954a5d78d5effc99a84e164736f6c63430008190033","linkReferences":{}},"methodIdentifiers":{"BURNER_GAS_LIMIT()":"d5c24e1a","BURNER_RESERVE()":"2964f8dc","FACTORY()":"2dd31000","NETWORK_MIDDLEWARE_SERVICE()":"2c9d45b3","NETWORK_REGISTRY()":"c0cd7c3e","TYPE()":"bb24fe8a","VAULT_FACTORY()":"103f2907","cumulativeSlash(bytes32,address)":"1a2be2c4","cumulativeSlashAt(bytes32,address,uint48,bytes)":"aa8e6489","executeSlash(uint256,bytes)":"b94c386e","initialize(bytes)":"439fab91","isBurnerHook()":"34d098ea","latestSlashedCaptureTimestamp(bytes32,address)":"267de1f3","requestSlash(bytes32,address,uint256,uint48,bytes)":"545ce389","resolver(bytes32,bytes)":"cd05b8a1","resolverAt(bytes32,uint48,bytes)":"31ce4dfe","resolverSetEpochsDelay()":"bc6eac5b","setResolver(uint96,address,bytes)":"9168f9d2","slashRequests(uint256)":"9a896551","slashRequestsLength()":"8f42f9ab","slashableStake(bytes32,address,uint48,bytes)":"aab3595f","staticDelegateCall(address,bytes)":"9f86fd85","vault()":"fbfa77cf","vetoDuration()":"e054e08b","vetoSlash(uint256,bytes)":"f9268d18"},"id":67}